{
  "_format": "hh-sol-artifact-1",
  "contractName": "VUSD",
  "sourceName": "contracts/VUSD.sol",
  "abi": [
    {
      "anonymous": false,
      "inputs": [
        {
          "indexed": true,
          "internalType": "address",
          "name": "owner",
          "type": "address"
        },
        {
          "indexed": true,
          "internalType": "address",
          "name": "spender",
          "type": "address"
        },
        {
          "indexed": false,
          "internalType": "uint256",
          "name": "value",
          "type": "uint256"
        }
      ],
      "name": "Approval",
      "type": "event"
    },
    {
      "anonymous": false,
      "inputs": [
        {
          "indexed": false,
          "internalType": "uint8",
          "name": "version",
          "type": "uint8"
        }
      ],
      "name": "Initialized",
      "type": "event"
    },
    {
      "anonymous": false,
      "inputs": [
        {
          "indexed": false,
          "internalType": "address",
          "name": "account",
          "type": "address"
        }
      ],
      "name": "Paused",
      "type": "event"
    },
    {
      "anonymous": false,
      "inputs": [
        {
          "indexed": true,
          "internalType": "bytes32",
          "name": "role",
          "type": "bytes32"
        },
        {
          "indexed": true,
          "internalType": "bytes32",
          "name": "previousAdminRole",
          "type": "bytes32"
        },
        {
          "indexed": true,
          "internalType": "bytes32",
          "name": "newAdminRole",
          "type": "bytes32"
        }
      ],
      "name": "RoleAdminChanged",
      "type": "event"
    },
    {
      "anonymous": false,
      "inputs": [
        {
          "indexed": true,
          "internalType": "bytes32",
          "name": "role",
          "type": "bytes32"
        },
        {
          "indexed": true,
          "internalType": "address",
          "name": "account",
          "type": "address"
        },
        {
          "indexed": true,
          "internalType": "address",
          "name": "sender",
          "type": "address"
        }
      ],
      "name": "RoleGranted",
      "type": "event"
    },
    {
      "anonymous": false,
      "inputs": [
        {
          "indexed": true,
          "internalType": "bytes32",
          "name": "role",
          "type": "bytes32"
        },
        {
          "indexed": true,
          "internalType": "address",
          "name": "account",
          "type": "address"
        },
        {
          "indexed": true,
          "internalType": "address",
          "name": "sender",
          "type": "address"
        }
      ],
      "name": "RoleRevoked",
      "type": "event"
    },
    {
      "anonymous": false,
      "inputs": [
        {
          "indexed": true,
          "internalType": "address",
          "name": "from",
          "type": "address"
        },
        {
          "indexed": true,
          "internalType": "address",
          "name": "to",
          "type": "address"
        },
        {
          "indexed": false,
          "internalType": "uint256",
          "name": "value",
          "type": "uint256"
        }
      ],
      "name": "Transfer",
      "type": "event"
    },
    {
      "anonymous": false,
      "inputs": [
        {
          "indexed": false,
          "internalType": "address",
          "name": "account",
          "type": "address"
        }
      ],
      "name": "Unpaused",
      "type": "event"
    },
    {
      "anonymous": false,
      "inputs": [
        {
          "indexed": true,
          "internalType": "address",
          "name": "trader",
          "type": "address"
        },
        {
          "indexed": false,
          "internalType": "uint256",
          "name": "amount",
          "type": "uint256"
        }
      ],
      "name": "WithdrawalFailed",
      "type": "event"
    },
    {
      "inputs": [],
      "name": "DEFAULT_ADMIN_ROLE",
      "outputs": [
        {
          "internalType": "bytes32",
          "name": "",
          "type": "bytes32"
        }
      ],
      "stateMutability": "view",
      "type": "function"
    },
    {
      "inputs": [],
      "name": "MINTER_ROLE",
      "outputs": [
        {
          "internalType": "bytes32",
          "name": "",
          "type": "bytes32"
        }
      ],
      "stateMutability": "view",
      "type": "function"
    },
    {
      "inputs": [],
      "name": "PAUSER_ROLE",
      "outputs": [
        {
          "internalType": "bytes32",
          "name": "",
          "type": "bytes32"
        }
      ],
      "stateMutability": "view",
      "type": "function"
    },
    {
      "inputs": [
        {
          "internalType": "address",
          "name": "owner",
          "type": "address"
        },
        {
          "internalType": "address",
          "name": "spender",
          "type": "address"
        }
      ],
      "name": "allowance",
      "outputs": [
        {
          "internalType": "uint256",
          "name": "",
          "type": "uint256"
        }
      ],
      "stateMutability": "view",
      "type": "function"
    },
    {
      "inputs": [
        {
          "internalType": "address",
          "name": "spender",
          "type": "address"
        },
        {
          "internalType": "uint256",
          "name": "amount",
          "type": "uint256"
        }
      ],
      "name": "approve",
      "outputs": [
        {
          "internalType": "bool",
          "name": "",
          "type": "bool"
        }
      ],
      "stateMutability": "nonpayable",
      "type": "function"
    },
    {
      "inputs": [
        {
          "internalType": "address",
          "name": "account",
          "type": "address"
        }
      ],
      "name": "balanceOf",
      "outputs": [
        {
          "internalType": "uint256",
          "name": "",
          "type": "uint256"
        }
      ],
      "stateMutability": "view",
      "type": "function"
    },
    {
      "inputs": [
        {
          "internalType": "uint256",
          "name": "amount",
          "type": "uint256"
        }
      ],
      "name": "burn",
      "outputs": [],
      "stateMutability": "nonpayable",
      "type": "function"
    },
    {
      "inputs": [
        {
          "internalType": "address",
          "name": "account",
          "type": "address"
        },
        {
          "internalType": "uint256",
          "name": "amount",
          "type": "uint256"
        }
      ],
      "name": "burnFrom",
      "outputs": [],
      "stateMutability": "nonpayable",
      "type": "function"
    },
    {
      "inputs": [],
      "name": "decimals",
      "outputs": [
        {
          "internalType": "uint8",
          "name": "",
          "type": "uint8"
        }
      ],
      "stateMutability": "pure",
      "type": "function"
    },
    {
      "inputs": [
        {
          "internalType": "address",
          "name": "spender",
          "type": "address"
        },
        {
          "internalType": "uint256",
          "name": "subtractedValue",
          "type": "uint256"
        }
      ],
      "name": "decreaseAllowance",
      "outputs": [
        {
          "internalType": "bool",
          "name": "",
          "type": "bool"
        }
      ],
      "stateMutability": "nonpayable",
      "type": "function"
    },
    {
      "inputs": [
        {
          "internalType": "address",
          "name": "",
          "type": "address"
        }
      ],
      "name": "failedWithdrawals",
      "outputs": [
        {
          "internalType": "uint256",
          "name": "",
          "type": "uint256"
        }
      ],
      "stateMutability": "view",
      "type": "function"
    },
    {
      "inputs": [
        {
          "internalType": "bytes32",
          "name": "role",
          "type": "bytes32"
        }
      ],
      "name": "getRoleAdmin",
      "outputs": [
        {
          "internalType": "bytes32",
          "name": "",
          "type": "bytes32"
        }
      ],
      "stateMutability": "view",
      "type": "function"
    },
    {
      "inputs": [
        {
          "internalType": "bytes32",
          "name": "role",
          "type": "bytes32"
        },
        {
          "internalType": "uint256",
          "name": "index",
          "type": "uint256"
        }
      ],
      "name": "getRoleMember",
      "outputs": [
        {
          "internalType": "address",
          "name": "",
          "type": "address"
        }
      ],
      "stateMutability": "view",
      "type": "function"
    },
    {
      "inputs": [
        {
          "internalType": "bytes32",
          "name": "role",
          "type": "bytes32"
        }
      ],
      "name": "getRoleMemberCount",
      "outputs": [
        {
          "internalType": "uint256",
          "name": "",
          "type": "uint256"
        }
      ],
      "stateMutability": "view",
      "type": "function"
    },
    {
      "inputs": [
        {
          "internalType": "bytes32",
          "name": "role",
          "type": "bytes32"
        },
        {
          "internalType": "address",
          "name": "account",
          "type": "address"
        }
      ],
      "name": "grantRole",
      "outputs": [],
      "stateMutability": "nonpayable",
      "type": "function"
    },
    {
      "inputs": [
        {
          "internalType": "bytes32",
          "name": "role",
          "type": "bytes32"
        },
        {
          "internalType": "address",
          "name": "account",
          "type": "address"
        }
      ],
      "name": "hasRole",
      "outputs": [
        {
          "internalType": "bool",
          "name": "",
          "type": "bool"
        }
      ],
      "stateMutability": "view",
      "type": "function"
    },
    {
      "inputs": [
        {
          "internalType": "address",
          "name": "spender",
          "type": "address"
        },
        {
          "internalType": "uint256",
          "name": "addedValue",
          "type": "uint256"
        }
      ],
      "name": "increaseAllowance",
      "outputs": [
        {
          "internalType": "bool",
          "name": "",
          "type": "bool"
        }
      ],
      "stateMutability": "nonpayable",
      "type": "function"
    },
    {
      "inputs": [
        {
          "internalType": "string",
          "name": "name",
          "type": "string"
        },
        {
          "internalType": "string",
          "name": "symbol",
          "type": "string"
        }
      ],
      "name": "initialize",
      "outputs": [],
      "stateMutability": "nonpayable",
      "type": "function"
    },
    {
      "inputs": [],
      "name": "maxGas",
      "outputs": [
        {
          "internalType": "uint256",
          "name": "",
          "type": "uint256"
        }
      ],
      "stateMutability": "view",
      "type": "function"
    },
    {
      "inputs": [],
      "name": "maxWithdrawalProcesses",
      "outputs": [
        {
          "internalType": "uint256",
          "name": "",
          "type": "uint256"
        }
      ],
      "stateMutability": "view",
      "type": "function"
    },
    {
      "inputs": [
        {
          "internalType": "address",
          "name": "to",
          "type": "address"
        },
        {
          "internalType": "uint256",
          "name": "amount",
          "type": "uint256"
        }
      ],
      "name": "mint",
      "outputs": [],
      "stateMutability": "nonpayable",
      "type": "function"
    },
    {
      "inputs": [
        {
          "internalType": "address",
          "name": "to",
          "type": "address"
        },
        {
          "internalType": "uint256",
          "name": "amount",
          "type": "uint256"
        }
      ],
      "name": "mintWithReserve",
      "outputs": [],
      "stateMutability": "payable",
      "type": "function"
    },
    {
      "inputs": [],
      "name": "name",
      "outputs": [
        {
          "internalType": "string",
          "name": "",
          "type": "string"
        }
      ],
      "stateMutability": "view",
      "type": "function"
    },
    {
      "inputs": [],
      "name": "pause",
      "outputs": [],
      "stateMutability": "nonpayable",
      "type": "function"
    },
    {
      "inputs": [],
      "name": "paused",
      "outputs": [
        {
          "internalType": "bool",
          "name": "",
          "type": "bool"
        }
      ],
      "stateMutability": "view",
      "type": "function"
    },
    {
      "inputs": [],
      "name": "processWithdrawals",
      "outputs": [],
      "stateMutability": "nonpayable",
      "type": "function"
    },
    {
      "inputs": [
        {
          "internalType": "bytes32",
          "name": "role",
          "type": "bytes32"
        },
        {
          "internalType": "address",
          "name": "account",
          "type": "address"
        }
      ],
      "name": "renounceRole",
      "outputs": [],
      "stateMutability": "nonpayable",
      "type": "function"
    },
    {
      "inputs": [
        {
          "internalType": "address",
          "name": "user",
          "type": "address"
        }
      ],
      "name": "rescueFailedWithdrawal",
      "outputs": [],
      "stateMutability": "nonpayable",
      "type": "function"
    },
    {
      "inputs": [
        {
          "internalType": "bytes32",
          "name": "role",
          "type": "bytes32"
        },
        {
          "internalType": "address",
          "name": "account",
          "type": "address"
        }
      ],
      "name": "revokeRole",
      "outputs": [],
      "stateMutability": "nonpayable",
      "type": "function"
    },
    {
      "inputs": [
        {
          "internalType": "uint256",
          "name": "_maxGas",
          "type": "uint256"
        }
      ],
      "name": "setMaxGas",
      "outputs": [],
      "stateMutability": "nonpayable",
      "type": "function"
    },
    {
      "inputs": [
        {
          "internalType": "uint256",
          "name": "_maxWithdrawalProcesses",
          "type": "uint256"
        }
      ],
      "name": "setMaxWithdrawalProcesses",
      "outputs": [],
      "stateMutability": "nonpayable",
      "type": "function"
    },
    {
      "inputs": [],
      "name": "start",
      "outputs": [
        {
          "internalType": "uint256",
          "name": "",
          "type": "uint256"
        }
      ],
      "stateMutability": "view",
      "type": "function"
    },
    {
      "inputs": [
        {
          "internalType": "bytes4",
          "name": "interfaceId",
          "type": "bytes4"
        }
      ],
      "name": "supportsInterface",
      "outputs": [
        {
          "internalType": "bool",
          "name": "",
          "type": "bool"
        }
      ],
      "stateMutability": "view",
      "type": "function"
    },
    {
      "inputs": [],
      "name": "symbol",
      "outputs": [
        {
          "internalType": "string",
          "name": "",
          "type": "string"
        }
      ],
      "stateMutability": "view",
      "type": "function"
    },
    {
      "inputs": [],
      "name": "totalSupply",
      "outputs": [
        {
          "internalType": "uint256",
          "name": "",
          "type": "uint256"
        }
      ],
      "stateMutability": "view",
      "type": "function"
    },
    {
      "inputs": [
        {
          "internalType": "address",
          "name": "to",
          "type": "address"
        },
        {
          "internalType": "uint256",
          "name": "amount",
          "type": "uint256"
        }
      ],
      "name": "transfer",
      "outputs": [
        {
          "internalType": "bool",
          "name": "",
          "type": "bool"
        }
      ],
      "stateMutability": "nonpayable",
      "type": "function"
    },
    {
      "inputs": [
        {
          "internalType": "address",
          "name": "from",
          "type": "address"
        },
        {
          "internalType": "address",
          "name": "to",
          "type": "address"
        },
        {
          "internalType": "uint256",
          "name": "amount",
          "type": "uint256"
        }
      ],
      "name": "transferFrom",
      "outputs": [
        {
          "internalType": "bool",
          "name": "",
          "type": "bool"
        }
      ],
      "stateMutability": "nonpayable",
      "type": "function"
    },
    {
      "inputs": [],
      "name": "unpause",
      "outputs": [],
      "stateMutability": "nonpayable",
      "type": "function"
    },
    {
      "inputs": [
        {
          "internalType": "uint256",
          "name": "amount",
          "type": "uint256"
        }
      ],
      "name": "withdraw",
      "outputs": [],
      "stateMutability": "nonpayable",
      "type": "function"
    },
    {
      "inputs": [
        {
          "internalType": "address",
          "name": "to",
          "type": "address"
        },
        {
          "internalType": "uint256",
          "name": "amount",
          "type": "uint256"
        }
      ],
      "name": "withdrawTo",
      "outputs": [],
      "stateMutability": "nonpayable",
      "type": "function"
    },
    {
      "inputs": [],
      "name": "withdrawalQLength",
      "outputs": [
        {
          "internalType": "uint256",
          "name": "",
          "type": "uint256"
        }
      ],
      "stateMutability": "view",
      "type": "function"
    },
    {
      "inputs": [],
      "name": "withdrawalQueue",
      "outputs": [
        {
          "components": [
            {
              "internalType": "address",
              "name": "usr",
              "type": "address"
            },
            {
              "internalType": "uint256",
              "name": "amount",
              "type": "uint256"
            }
          ],
          "internalType": "struct VUSD.Withdrawal[]",
          "name": "queue",
          "type": "tuple[]"
        }
      ],
      "stateMutability": "view",
      "type": "function"
    },
    {
      "inputs": [
        {
          "internalType": "uint256",
          "name": "",
          "type": "uint256"
        }
      ],
      "name": "withdrawals",
      "outputs": [
        {
          "internalType": "address",
          "name": "usr",
          "type": "address"
        },
        {
          "internalType": "uint256",
          "name": "amount",
          "type": "uint256"
        }
      ],
      "stateMutability": "view",
      "type": "function"
    }
  ],
  "bytecode": "0x608060405234801561001057600080fd5b5060016101c3556132d6806100266000396000f3fe6080604052600436106102dc5760003560e01c80635c975abb11610184578063a217fddf116100d6578063ca15c8731161008a578063dd62ed3e11610064578063dd62ed3e14610871578063e63ab1e9146108c4578063f99bbc07146108f857600080fd5b8063ca15c873146107fd578063d53913931461081d578063d547741f1461085157600080fd5b8063a457c2d7116100bb578063a457c2d7146107a6578063a9059cbb146107c6578063be9a6555146107e657600080fd5b8063a217fddf1461077a578063a2ca056e1461078f57600080fd5b80638456cb59116101385780639010d07c116101125780639010d07c146106cd57806391d148541461071257806395d89b411461076557600080fd5b80638456cb59146106785780638dcb6b871461068d5780638e928076146106ad57600080fd5b806370a082311161016957806370a08231146105ff57806373019d091461064257806379cc67901461065857600080fd5b80635c975abb1461059a5780635cc07076146105b357600080fd5b80632f2ff15d1161023d5780633f4ba83a116101f15780634cd88b76116101cb5780634cd88b7614610543578063501d815c14610563578063549d9a0f1461057a57600080fd5b80633f4ba83a146104ee57806340c10f191461050357806342966c681461052357600080fd5b806336568abe1161022257806336568abe1461048c57806337d5fe99146104ac57806339509351146104ce57600080fd5b80632f2ff15d14610450578063313ce5671461047057600080fd5b8063205c287811610294578063248a9ca311610279578063248a9ca3146103eb5780632a228fc21461041b5780632e1a7d4d1461043057600080fd5b8063205c2878146103a957806323b872dd146103cb57600080fd5b8063095ea7b3116102c5578063095ea7b3146103385780631380faa11461035857806318160ddd1461039457600080fd5b806301ffc9a7146102e157806306fdde0314610316575b600080fd5b3480156102ed57600080fd5b506103016102fc366004612c2e565b61090b565b60405190151581526020015b60405180910390f35b34801561032257600080fd5b5061032b610967565b60405161030d9190612c9c565b34801561034457600080fd5b50610301610353366004612d16565b6109f9565b34801561036457600080fd5b50610386610373366004612d40565b6101c86020526000908152604090205481565b60405190815260200161030d565b3480156103a057600080fd5b5060cb54610386565b3480156103b557600080fd5b506103c96103c4366004612d16565b610a11565b005b3480156103d757600080fd5b506103016103e6366004612d5b565b610a3a565b3480156103f757600080fd5b50610386610406366004612d97565b60009081526065602052604090206001015490565b34801561042757600080fd5b506103c9610a5e565b34801561043c57600080fd5b506103c961044b366004612d97565b610ca5565b34801561045c57600080fd5b506103c961046b366004612db0565b610ccd565b34801561047c57600080fd5b506040516006815260200161030d565b34801561049857600080fd5b506103c96104a7366004612db0565b610cf7565b3480156104b857600080fd5b506104c1610d8c565b60405161030d9190612ddc565b3480156104da57600080fd5b506103016104e9366004612d16565b610eb7565b3480156104fa57600080fd5b506103c9610f03565b34801561050f57600080fd5b506103c961051e366004612d16565b610fa7565b34801561052f57600080fd5b506103c961053e366004612d97565b61104d565b34801561054f57600080fd5b506103c961055e366004612f1b565b611057565b34801561056f57600080fd5b506103866101c75481565b34801561058657600080fd5b506103c9610595366004612d40565b61109c565b3480156105a657600080fd5b5061012d5460ff16610301565b3480156105bf57600080fd5b506105d36105ce366004612d97565b611264565b6040805173ffffffffffffffffffffffffffffffffffffffff909316835260208301919091520161030d565b34801561060b57600080fd5b5061038661061a366004612d40565b73ffffffffffffffffffffffffffffffffffffffff16600090815260c9602052604090205490565b34801561064e57600080fd5b506101c454610386565b34801561066457600080fd5b506103c9610673366004612d16565b6112aa565b34801561068457600080fd5b506103c96112bf565b34801561069957600080fd5b506103c96106a8366004612d97565b611363565b3480156106b957600080fd5b506103c96106c8366004612d97565b6113e6565b3480156106d957600080fd5b506106ed6106e8366004612f7f565b611469565b60405173ffffffffffffffffffffffffffffffffffffffff909116815260200161030d565b34801561071e57600080fd5b5061030161072d366004612db0565b600091825260656020908152604080842073ffffffffffffffffffffffffffffffffffffffff93909316845291905290205460ff1690565b34801561077157600080fd5b5061032b611488565b34801561078657600080fd5b50610386600081565b34801561079b57600080fd5b506103866101c65481565b3480156107b257600080fd5b506103016107c1366004612d16565b611497565b3480156107d257600080fd5b506103016107e1366004612d16565b61154e565b3480156107f257600080fd5b506103866101c55481565b34801561080957600080fd5b50610386610818366004612d97565b61155c565b34801561082957600080fd5b506103867f9f2df0fed2c77648de5860a4cc508cd0818c85b8b8a1ab4ceeef8d981c8956a681565b34801561085d57600080fd5b506103c961086c366004612db0565b611573565b34801561087d57600080fd5b5061038661088c366004612fa1565b73ffffffffffffffffffffffffffffffffffffffff918216600090815260ca6020908152604080832093909416825291909152205490565b3480156108d057600080fd5b506103867f65d7a28e3265b37a6474929f336521b332c1681b933f6cb9f3376673440d862a81565b6103c9610906366004612d16565b611598565b60007fffffffff0000000000000000000000000000000000000000000000000000000082167f5a05180f000000000000000000000000000000000000000000000000000000001480610961575061096182611635565b92915050565b606060cc805461097690612fcb565b80601f01602080910402602001604051908101604052809291908181526020018280546109a290612fcb565b80156109ef5780601f106109c4576101008083540402835291602001916109ef565b820191906000526020600020905b8154815290600101906020018083116109d257829003601f168201915b5050505050905090565b600033610a078185856116cc565b5060019392505050565b610a1961184b565b610a2161189f565b610a2b82826118fb565b610a3660016101c355565b5050565b600033610a48858285611a23565b610a53858585611ac2565b506001949350505050565b610a6661184b565b610a6e61189f565b6101c5546101c480544792908110610a8857610a8861301f565b906000526020600020906002020160010154811015610b145760405162461bcd60e51b815260206004820152603b60248201527f43616e6e6f742070726f63657373207769746864726177616c7320617420746860448201527f69732074696d653a204e6f7420656e6f7567682062616c616e6365000000000060648201526084015b60405180910390fd5b6101c5545b6101c45481108015610b3a57506101c6546101c554610b38908361307d565b105b15610c935760006101c48281548110610b5557610b5561301f565b600091825260209182902060408051808201909152600290920201805473ffffffffffffffffffffffffffffffffffffffff168252600101549181018290529150831015610ba35750610c93565b610bae600183613094565b91506000610bd882600001516101c754846020015160405180602001604052806000815250611cf5565b90508015610bf6576020820151610bef908561307d565b9350610c8c565b602080830151835173ffffffffffffffffffffffffffffffffffffffff1660009081526101c890925260408220805491929091610c34908490613094565b9091555050815160208084015160405190815273ffffffffffffffffffffffffffffffffffffffff909216917f92873d130824b495f22ad10f7f14028200557770e5986714318e78c54f3aa83c910160405180910390a25b5050610b19565b6101c55550610ca360016101c355565b565b610cad61184b565b610cb561189f565b610cbf33826118fb565b610cca60016101c355565b50565b600082815260656020526040902060010154610ce881611d0f565b610cf28383611d19565b505050565b73ffffffffffffffffffffffffffffffffffffffff81163314610d825760405162461bcd60e51b815260206004820152602f60248201527f416363657373436f6e74726f6c3a2063616e206f6e6c792072656e6f756e636560448201527f20726f6c657320666f722073656c6600000000000000000000000000000000006064820152608401610b0b565b610a368282611d3b565b6101c5546101c454606091600091610db091610da79161307d565b6101c654611d5d565b90508067ffffffffffffffff811115610dcb57610dcb612e41565b604051908082528060200260200182016040528015610e1057816020015b6040805180820190915260008082526020820152815260200190600190039081610de95790505b50915060005b81811015610eb2576101c4816101c554610e309190613094565b81548110610e4057610e4061301f565b600091825260209182902060408051808201909152600290920201805473ffffffffffffffffffffffffffffffffffffffff16825260010154918101919091528351849083908110610e9457610e9461301f565b60200260200101819052508080610eaa906130ac565b915050610e16565b505090565b33600081815260ca6020908152604080832073ffffffffffffffffffffffffffffffffffffffff87168452909152812054909190610a079082908690610efe908790613094565b6116cc565b610f2d7f65d7a28e3265b37a6474929f336521b332c1681b933f6cb9f3376673440d862a3361072d565b610f9f5760405162461bcd60e51b815260206004820152603960248201527f45524332305072657365744d696e7465725061757365723a206d75737420686160448201527f76652070617573657220726f6c6520746f20756e7061757365000000000000006064820152608401610b0b565b610ca3611d73565b610fd17f9f2df0fed2c77648de5860a4cc508cd0818c85b8b8a1ab4ceeef8d981c8956a63361072d565b6110435760405162461bcd60e51b815260206004820152603660248201527f45524332305072657365744d696e7465725061757365723a206d75737420686160448201527f7665206d696e74657220726f6c6520746f206d696e74000000000000000000006064820152608401610b0b565b610a368282611dd3565b610cca3382611eba565b6110618282612058565b61108b7f9f2df0fed2c77648de5860a4cc508cd0818c85b8b8a1ab4ceeef8d981c8956a633611d3b565b505060646101c655610bb86101c755565b6110a461189f565b6110af60003361072d565b6110fb5760405162461bcd60e51b815260206004820152601a60248201527f565553443a206d75737420686176652061646d696e20726f6c650000000000006044820152606401610b0b565b73ffffffffffffffffffffffffffffffffffffffff811660009081526101c860205260409020548061116f5760405162461bcd60e51b815260206004820152601a60248201527f565553443a204e6f206661696c6564207769746864726177616c0000000000006044820152606401610b0b565b804710156111bf5760405162461bcd60e51b815260206004820152601a60248201527f565553443a20496e73756666696369656e7420726573657276650000000000006044820152606401610b0b565b73ffffffffffffffffffffffffffffffffffffffff821660009081526101c8602090815260408083208390556101c7548151928301909152828252611208918591908590611cf5565b9050806112575760405162461bcd60e51b815260206004820152601360248201527f565553443a20526573637565206661696c6564000000000000000000000000006044820152606401610b0b565b5050610cca60016101c355565b6101c4818154811061127557600080fd5b60009182526020909120600290910201805460019091015473ffffffffffffffffffffffffffffffffffffffff909116915082565b6112b5823383611a23565b610a368282611eba565b6112e97f65d7a28e3265b37a6474929f336521b332c1681b933f6cb9f3376673440d862a3361072d565b61135b5760405162461bcd60e51b815260206004820152603760248201527f45524332305072657365744d696e7465725061757365723a206d75737420686160448201527f76652070617573657220726f6c6520746f2070617573650000000000000000006064820152608401610b0b565b610ca36121b5565b61136e60003361072d565b6113e05760405162461bcd60e51b815260206004820152602d60248201527f45524332305072657365744d696e7465725061757365723a206d75737420686160448201527f76652061646d696e20726f6c65000000000000000000000000000000000000006064820152608401610b0b565b6101c655565b6113f160003361072d565b6114635760405162461bcd60e51b815260206004820152602d60248201527f45524332305072657365744d696e7465725061757365723a206d75737420686160448201527f76652061646d696e20726f6c65000000000000000000000000000000000000006064820152608401610b0b565b6101c755565b600082815260976020526040812061148190836121f3565b9392505050565b606060cd805461097690612fcb565b33600081815260ca6020908152604080832073ffffffffffffffffffffffffffffffffffffffff87168452909152812054909190838110156115415760405162461bcd60e51b815260206004820152602560248201527f45524332303a2064656372656173656420616c6c6f77616e63652062656c6f7760448201527f207a65726f0000000000000000000000000000000000000000000000000000006064820152608401610b0b565b610a5382868684036116cc565b600033610a07818585611ac2565b6000818152609760205260408120610961906121ff565b60008281526065602052604090206001015461158e81611d0f565b610cf28383611d3b565b6115a061184b565b6115a861189f565b6115b764e8d4a51000826130c7565b341461162b5760405162461bcd60e51b815260206004820152602560248201527f765553443a20496e73756666696369656e7420616d6f756e74207472616e736660448201527f65727265640000000000000000000000000000000000000000000000000000006064820152608401610b0b565b610a2b8282611dd3565b60007fffffffff0000000000000000000000000000000000000000000000000000000082167f7965db0b00000000000000000000000000000000000000000000000000000000148061096157507f01ffc9a7000000000000000000000000000000000000000000000000000000007fffffffff00000000000000000000000000000000000000000000000000000000831614610961565b73ffffffffffffffffffffffffffffffffffffffff83166117545760405162461bcd60e51b8152602060048201526024808201527f45524332303a20617070726f76652066726f6d20746865207a65726f2061646460448201527f72657373000000000000000000000000000000000000000000000000000000006064820152608401610b0b565b73ffffffffffffffffffffffffffffffffffffffff82166117dd5760405162461bcd60e51b815260206004820152602260248201527f45524332303a20617070726f766520746f20746865207a65726f20616464726560448201527f73730000000000000000000000000000000000000000000000000000000000006064820152608401610b0b565b73ffffffffffffffffffffffffffffffffffffffff838116600081815260ca602090815260408083209487168084529482529182902085905590518481527f8c5be1e5ebec7d5bd14f71427d1e84f3dd0314c0f7b2291e5b200ac8c7c3b925910160405180910390a3505050565b61012d5460ff1615610ca35760405162461bcd60e51b815260206004820152601060248201527f5061757361626c653a20706175736564000000000000000000000000000000006044820152606401610b0b565b60026101c35414156118f35760405162461bcd60e51b815260206004820152601f60248201527f5265656e7472616e637947756172643a207265656e7472616e742063616c6c006044820152606401610b0b565b60026101c355565b6119076006600a6131ca565b6119129060056130c7565b8110158061192757506119243361061a565b81145b6119735760405162461bcd60e51b815260206004820152601f60248201527f565553443a207769746864726177206d696e696d756d2035206f7220616c6c006044820152606401610b0b565b61197c8161104d565b6101c460405180604001604052808473ffffffffffffffffffffffffffffffffffffffff16815260200164e8d4a51000846119b791906130c7565b90528154600180820184556000938452602093849020835160029093020180547fffffffffffffffffffffffff00000000000000000000000000000000000000001673ffffffffffffffffffffffffffffffffffffffff90931692909217825591909201519101555050565b73ffffffffffffffffffffffffffffffffffffffff838116600090815260ca60209081526040808320938616835292905220546000198114611abc5781811015611aaf5760405162461bcd60e51b815260206004820152601d60248201527f45524332303a20696e73756666696369656e7420616c6c6f77616e63650000006044820152606401610b0b565b611abc84848484036116cc565b50505050565b73ffffffffffffffffffffffffffffffffffffffff8316611b4b5760405162461bcd60e51b815260206004820152602560248201527f45524332303a207472616e736665722066726f6d20746865207a65726f20616460448201527f64726573730000000000000000000000000000000000000000000000000000006064820152608401610b0b565b73ffffffffffffffffffffffffffffffffffffffff8216611bd45760405162461bcd60e51b815260206004820152602360248201527f45524332303a207472616e7366657220746f20746865207a65726f206164647260448201527f65737300000000000000000000000000000000000000000000000000000000006064820152608401610b0b565b611bdf838383612209565b73ffffffffffffffffffffffffffffffffffffffff8316600090815260c9602052604090205481811015611c7b5760405162461bcd60e51b815260206004820152602660248201527f45524332303a207472616e7366657220616d6f756e742065786365656473206260448201527f616c616e636500000000000000000000000000000000000000000000000000006064820152608401610b0b565b73ffffffffffffffffffffffffffffffffffffffff808516600081815260c9602052604080822086860390559286168082529083902080548601905591517fddf252ad1be2c89b69c2b068fc378daa952ba7f163c4a11628f55a4df523b3ef90611ce89086815260200190565b60405180910390a3611abc565b600080600080845160208601878a8af19695505050505050565b610cca8133612214565b611d2382826122b4565b6000828152609760205260409020610cf2908261238a565b611d4582826123ac565b6000828152609760205260409020610cf29082612449565b6000818310611d6c5781611481565b5090919050565b611d7b61246b565b61012d805460ff191690557f5db9ee0a495bf2e6ff9c91a7834c1ba4fdd244a5e8aa4e537bd38aeae4b073aa335b60405173ffffffffffffffffffffffffffffffffffffffff909116815260200160405180910390a1565b73ffffffffffffffffffffffffffffffffffffffff8216611e365760405162461bcd60e51b815260206004820152601f60248201527f45524332303a206d696e7420746f20746865207a65726f2061646472657373006044820152606401610b0b565b611e4260008383612209565b8060cb6000828254611e549190613094565b909155505073ffffffffffffffffffffffffffffffffffffffff8216600081815260c960209081526040808320805486019055518481527fddf252ad1be2c89b69c2b068fc378daa952ba7f163c4a11628f55a4df523b3ef910160405180910390a35050565b73ffffffffffffffffffffffffffffffffffffffff8216611f435760405162461bcd60e51b815260206004820152602160248201527f45524332303a206275726e2066726f6d20746865207a65726f2061646472657360448201527f73000000000000000000000000000000000000000000000000000000000000006064820152608401610b0b565b611f4f82600083612209565b73ffffffffffffffffffffffffffffffffffffffff8216600090815260c9602052604090205481811015611feb5760405162461bcd60e51b815260206004820152602260248201527f45524332303a206275726e20616d6f756e7420657863656564732062616c616e60448201527f63650000000000000000000000000000000000000000000000000000000000006064820152608401610b0b565b73ffffffffffffffffffffffffffffffffffffffff8316600081815260c960209081526040808320868603905560cb80548790039055518581529192917fddf252ad1be2c89b69c2b068fc378daa952ba7f163c4a11628f55a4df523b3ef910160405180910390a3505050565b600054610100900460ff16158080156120785750600054600160ff909116105b806120925750303b158015612092575060005460ff166001145b6121045760405162461bcd60e51b815260206004820152602e60248201527f496e697469616c697a61626c653a20636f6e747261637420697320616c72656160448201527f647920696e697469616c697a65640000000000000000000000000000000000006064820152608401610b0b565b6000805460ff19166001179055801561214457600080547fffffffffffffffffffffffffffffffffffffffffffffffffffffffffffff00ff166101001790555b61214e83836124be565b8015610cf257600080547fffffffffffffffffffffffffffffffffffffffffffffffffffffffffffff00ff169055604051600181527f7f26b83ff96e1f2b6a682f133852f6798a09c465da95921460cefb38474024989060200160405180910390a1505050565b6121bd61184b565b61012d805460ff191660011790557f62e78cea01bee320cd4e420270b5ea74000d11b0c9f74754ebdbfc544b05a258611da93390565b60006114818383612557565b6000610961825490565b610cf2838383612581565b600082815260656020908152604080832073ffffffffffffffffffffffffffffffffffffffff8516845290915290205460ff16610a3657612254816125fb565b61225f83602061261a565b6040516020016122709291906131d9565b604080517fffffffffffffffffffffffffffffffffffffffffffffffffffffffffffffffe08184030181529082905262461bcd60e51b8252610b0b91600401612c9c565b600082815260656020908152604080832073ffffffffffffffffffffffffffffffffffffffff8516845290915290205460ff16610a3657600082815260656020908152604080832073ffffffffffffffffffffffffffffffffffffffff851684529091529020805460ff1916600117905561232c3390565b73ffffffffffffffffffffffffffffffffffffffff168173ffffffffffffffffffffffffffffffffffffffff16837f2f8788117e7eff1d82e926ec794901d17c78024a50270940304540a733656f0d60405160405180910390a45050565b60006114818373ffffffffffffffffffffffffffffffffffffffff8416612843565b600082815260656020908152604080832073ffffffffffffffffffffffffffffffffffffffff8516845290915290205460ff1615610a3657600082815260656020908152604080832073ffffffffffffffffffffffffffffffffffffffff85168085529252808320805460ff1916905551339285917ff6391f5c32d9c69d2a47ea670b442974b53935d1edc7fd64eb21e047a839171b9190a45050565b60006114818373ffffffffffffffffffffffffffffffffffffffff8416612892565b61012d5460ff16610ca35760405162461bcd60e51b815260206004820152601460248201527f5061757361626c653a206e6f74207061757365640000000000000000000000006044820152606401610b0b565b600054610100900460ff1661253b5760405162461bcd60e51b815260206004820152602b60248201527f496e697469616c697a61626c653a20636f6e7472616374206973206e6f74206960448201527f6e697469616c697a696e670000000000000000000000000000000000000000006064820152608401610b0b565b6125458282612985565b61254d612a29565b610a368282612ab3565b600082600001828154811061256e5761256e61301f565b9060005260206000200154905092915050565b61012d5460ff1615610cf25760405162461bcd60e51b815260206004820152602a60248201527f45524332305061757361626c653a20746f6b656e207472616e7366657220776860448201527f696c6520706175736564000000000000000000000000000000000000000000006064820152608401610b0b565b606061096173ffffffffffffffffffffffffffffffffffffffff831660145b606060006126298360026130c7565b612634906002613094565b67ffffffffffffffff81111561264c5761264c612e41565b6040519080825280601f01601f191660200182016040528015612676576020820181803683370190505b5090507f3000000000000000000000000000000000000000000000000000000000000000816000815181106126ad576126ad61301f565b60200101907effffffffffffffffffffffffffffffffffffffffffffffffffffffffffffff1916908160001a9053507f7800000000000000000000000000000000000000000000000000000000000000816001815181106127105761271061301f565b60200101907effffffffffffffffffffffffffffffffffffffffffffffffffffffffffffff1916908160001a905350600061274c8460026130c7565b612757906001613094565b90505b60018111156127f4577f303132333435363738396162636465660000000000000000000000000000000085600f16601081106127985761279861301f565b1a60f81b8282815181106127ae576127ae61301f565b60200101907effffffffffffffffffffffffffffffffffffffffffffffffffffffffffffff1916908160001a90535060049490941c936127ed8161325a565b905061275a565b5083156114815760405162461bcd60e51b815260206004820181905260248201527f537472696e67733a20686578206c656e67746820696e73756666696369656e746044820152606401610b0b565b600081815260018301602052604081205461288a57508154600181810184556000848152602080822090930184905584548482528286019093526040902091909155610961565b506000610961565b6000818152600183016020526040812054801561297b5760006128b660018361307d565b85549091506000906128ca9060019061307d565b905081811461292f5760008660000182815481106128ea576128ea61301f565b906000526020600020015490508087600001848154811061290d5761290d61301f565b6000918252602080832090910192909255918252600188019052604090208390555b855486908061294057612940613271565b600190038181906000526020600020016000905590558560010160008681526020019081526020016000206000905560019350505050610961565b6000915050610961565b600054610100900460ff16612a025760405162461bcd60e51b815260206004820152602b60248201527f496e697469616c697a61626c653a20636f6e7472616374206973206e6f74206960448201527f6e697469616c697a696e670000000000000000000000000000000000000000006064820152608401610b0b565b8151612a159060cc906020850190612b95565b508051610cf29060cd906020840190612b95565b600054610100900460ff16612aa65760405162461bcd60e51b815260206004820152602b60248201527f496e697469616c697a61626c653a20636f6e7472616374206973206e6f74206960448201527f6e697469616c697a696e670000000000000000000000000000000000000000006064820152608401610b0b565b61012d805460ff19169055565b600054610100900460ff16612b305760405162461bcd60e51b815260206004820152602b60248201527f496e697469616c697a61626c653a20636f6e7472616374206973206e6f74206960448201527f6e697469616c697a696e670000000000000000000000000000000000000000006064820152608401610b0b565b612b3b600033612b8b565b612b657f9f2df0fed2c77648de5860a4cc508cd0818c85b8b8a1ab4ceeef8d981c8956a633612b8b565b610a367f65d7a28e3265b37a6474929f336521b332c1681b933f6cb9f3376673440d862a335b610a368282611d19565b828054612ba190612fcb565b90600052602060002090601f016020900481019282612bc35760008555612c09565b82601f10612bdc57805160ff1916838001178555612c09565b82800160010185558215612c09579182015b82811115612c09578251825591602001919060010190612bee565b50612c15929150612c19565b5090565b5b80821115612c155760008155600101612c1a565b600060208284031215612c4057600080fd5b81357fffffffff000000000000000000000000000000000000000000000000000000008116811461148157600080fd5b60005b83811015612c8b578181015183820152602001612c73565b83811115611abc5750506000910152565b6020815260008251806020840152612cbb816040850160208701612c70565b601f017fffffffffffffffffffffffffffffffffffffffffffffffffffffffffffffffe0169190910160400192915050565b803573ffffffffffffffffffffffffffffffffffffffff81168114612d1157600080fd5b919050565b60008060408385031215612d2957600080fd5b612d3283612ced565b946020939093013593505050565b600060208284031215612d5257600080fd5b61148182612ced565b600080600060608486031215612d7057600080fd5b612d7984612ced565b9250612d8760208501612ced565b9150604084013590509250925092565b600060208284031215612da957600080fd5b5035919050565b60008060408385031215612dc357600080fd5b82359150612dd360208401612ced565b90509250929050565b602080825282518282018190526000919060409081850190868401855b82811015612e34578151805173ffffffffffffffffffffffffffffffffffffffff168552860151868501529284019290850190600101612df9565b5091979650505050505050565b7f4e487b7100000000000000000000000000000000000000000000000000000000600052604160045260246000fd5b600082601f830112612e8157600080fd5b813567ffffffffffffffff80821115612e9c57612e9c612e41565b604051601f83017fffffffffffffffffffffffffffffffffffffffffffffffffffffffffffffffe0908116603f01168101908282118183101715612ee257612ee2612e41565b81604052838152866020858801011115612efb57600080fd5b836020870160208301376000602085830101528094505050505092915050565b60008060408385031215612f2e57600080fd5b823567ffffffffffffffff80821115612f4657600080fd5b612f5286838701612e70565b93506020850135915080821115612f6857600080fd5b50612f7585828601612e70565b9150509250929050565b60008060408385031215612f9257600080fd5b50508035926020909101359150565b60008060408385031215612fb457600080fd5b612fbd83612ced565b9150612dd360208401612ced565b600181811c90821680612fdf57607f821691505b60208210811415613019577f4e487b7100000000000000000000000000000000000000000000000000000000600052602260045260246000fd5b50919050565b7f4e487b7100000000000000000000000000000000000000000000000000000000600052603260045260246000fd5b7f4e487b7100000000000000000000000000000000000000000000000000000000600052601160045260246000fd5b60008282101561308f5761308f61304e565b500390565b600082198211156130a7576130a761304e565b500190565b60006000198214156130c0576130c061304e565b5060010190565b60008160001904831182151516156130e1576130e161304e565b500290565b600181815b808511156131215781600019048211156131075761310761304e565b8085161561311457918102915b93841c93908002906130eb565b509250929050565b60008261313857506001610961565b8161314557506000610961565b816001811461315b576002811461316557613181565b6001915050610961565b60ff8411156131765761317661304e565b50506001821b610961565b5060208310610133831016604e8410600b84101617156131a4575081810a610961565b6131ae83836130e6565b80600019048211156131c2576131c261304e565b029392505050565b600061148160ff841683613129565b7f416363657373436f6e74726f6c3a206163636f756e7420000000000000000000815260008351613211816017850160208801612c70565b7f206973206d697373696e6720726f6c6520000000000000000000000000000000601791840191820152835161324e816028840160208801612c70565b01602801949350505050565b6000816132695761326961304e565b506000190190565b7f4e487b7100000000000000000000000000000000000000000000000000000000600052603160045260246000fdfea2646970667358221220302579e221583368021202f369e36b4270108bd053e98adea3f2ef7fa15d12e564736f6c63430008090033",
  "linkReferences": {},
  "deployedLinkReferences": {}
}