{
  "_format": "hh-sol-artifact-1",
  "contractName": "TestLZEndpointMock",
  "sourceName": "contracts/tests/TestLZEndpointMock.sol",
  "abi": [
    {
      "inputs": [
        {
          "internalType": "uint16",
          "name": "_chainId",
          "type": "uint16"
        }
      ],
      "stateMutability": "nonpayable",
      "type": "constructor"
    },
    {
      "anonymous": false,
      "inputs": [
        {
          "indexed": false,
          "internalType": "uint16",
          "name": "srcChainId",
          "type": "uint16"
        },
        {
          "indexed": false,
          "internalType": "bytes",
          "name": "srcAddress",
          "type": "bytes"
        },
        {
          "indexed": false,
          "internalType": "uint64",
          "name": "nonce",
          "type": "uint64"
        },
        {
          "indexed": false,
          "internalType": "address",
          "name": "dstAddress",
          "type": "address"
        }
      ],
      "name": "PayloadCleared",
      "type": "event"
    },
    {
      "anonymous": false,
      "inputs": [
        {
          "indexed": false,
          "internalType": "uint16",
          "name": "srcChainId",
          "type": "uint16"
        },
        {
          "indexed": false,
          "internalType": "bytes",
          "name": "srcAddress",
          "type": "bytes"
        },
        {
          "indexed": false,
          "internalType": "address",
          "name": "dstAddress",
          "type": "address"
        },
        {
          "indexed": false,
          "internalType": "uint64",
          "name": "nonce",
          "type": "uint64"
        },
        {
          "indexed": false,
          "internalType": "bytes",
          "name": "payload",
          "type": "bytes"
        },
        {
          "indexed": false,
          "internalType": "bytes",
          "name": "reason",
          "type": "bytes"
        }
      ],
      "name": "PayloadStored",
      "type": "event"
    },
    {
      "anonymous": false,
      "inputs": [
        {
          "indexed": false,
          "internalType": "uint16",
          "name": "chainId",
          "type": "uint16"
        },
        {
          "indexed": false,
          "internalType": "bytes",
          "name": "srcAddress",
          "type": "bytes"
        }
      ],
      "name": "UaForceResumeReceive",
      "type": "event"
    },
    {
      "anonymous": false,
      "inputs": [
        {
          "indexed": true,
          "internalType": "address",
          "name": "to",
          "type": "address"
        },
        {
          "indexed": true,
          "internalType": "uint256",
          "name": "quantity",
          "type": "uint256"
        }
      ],
      "name": "ValueTransferFailed",
      "type": "event"
    },
    {
      "inputs": [],
      "name": "blockNextMsg",
      "outputs": [],
      "stateMutability": "nonpayable",
      "type": "function"
    },
    {
      "inputs": [],
      "name": "defaultAdapterParams",
      "outputs": [
        {
          "internalType": "bytes",
          "name": "",
          "type": "bytes"
        }
      ],
      "stateMutability": "view",
      "type": "function"
    },
    {
      "inputs": [
        {
          "internalType": "uint16",
          "name": "_dstChainId",
          "type": "uint16"
        },
        {
          "internalType": "address",
          "name": "_userApplication",
          "type": "address"
        },
        {
          "internalType": "bytes",
          "name": "_payload",
          "type": "bytes"
        },
        {
          "internalType": "bool",
          "name": "_payInZRO",
          "type": "bool"
        },
        {
          "internalType": "bytes",
          "name": "_adapterParams",
          "type": "bytes"
        }
      ],
      "name": "estimateFees",
      "outputs": [
        {
          "internalType": "uint256",
          "name": "nativeFee",
          "type": "uint256"
        },
        {
          "internalType": "uint256",
          "name": "zroFee",
          "type": "uint256"
        }
      ],
      "stateMutability": "view",
      "type": "function"
    },
    {
      "inputs": [
        {
          "internalType": "uint16",
          "name": "_srcChainId",
          "type": "uint16"
        },
        {
          "internalType": "bytes",
          "name": "_path",
          "type": "bytes"
        }
      ],
      "name": "forceResumeReceive",
      "outputs": [],
      "stateMutability": "nonpayable",
      "type": "function"
    },
    {
      "inputs": [],
      "name": "getChainId",
      "outputs": [
        {
          "internalType": "uint16",
          "name": "",
          "type": "uint16"
        }
      ],
      "stateMutability": "view",
      "type": "function"
    },
    {
      "inputs": [
        {
          "internalType": "uint16",
          "name": "",
          "type": "uint16"
        },
        {
          "internalType": "uint16",
          "name": "",
          "type": "uint16"
        },
        {
          "internalType": "address",
          "name": "",
          "type": "address"
        },
        {
          "internalType": "uint256",
          "name": "",
          "type": "uint256"
        }
      ],
      "name": "getConfig",
      "outputs": [
        {
          "internalType": "bytes",
          "name": "",
          "type": "bytes"
        }
      ],
      "stateMutability": "pure",
      "type": "function"
    },
    {
      "inputs": [
        {
          "internalType": "uint16",
          "name": "_chainID",
          "type": "uint16"
        },
        {
          "internalType": "bytes",
          "name": "_path",
          "type": "bytes"
        }
      ],
      "name": "getInboundNonce",
      "outputs": [
        {
          "internalType": "uint64",
          "name": "",
          "type": "uint64"
        }
      ],
      "stateMutability": "view",
      "type": "function"
    },
    {
      "inputs": [
        {
          "internalType": "uint16",
          "name": "_srcChainId",
          "type": "uint16"
        },
        {
          "internalType": "bytes",
          "name": "_srcAddress",
          "type": "bytes"
        }
      ],
      "name": "getLengthOfQueue",
      "outputs": [
        {
          "internalType": "uint256",
          "name": "",
          "type": "uint256"
        }
      ],
      "stateMutability": "view",
      "type": "function"
    },
    {
      "inputs": [
        {
          "internalType": "uint16",
          "name": "_chainID",
          "type": "uint16"
        },
        {
          "internalType": "address",
          "name": "_srcAddress",
          "type": "address"
        }
      ],
      "name": "getOutboundNonce",
      "outputs": [
        {
          "internalType": "uint64",
          "name": "",
          "type": "uint64"
        }
      ],
      "stateMutability": "view",
      "type": "function"
    },
    {
      "inputs": [
        {
          "internalType": "address",
          "name": "",
          "type": "address"
        }
      ],
      "name": "getReceiveLibraryAddress",
      "outputs": [
        {
          "internalType": "address",
          "name": "",
          "type": "address"
        }
      ],
      "stateMutability": "view",
      "type": "function"
    },
    {
      "inputs": [
        {
          "internalType": "address",
          "name": "",
          "type": "address"
        }
      ],
      "name": "getReceiveVersion",
      "outputs": [
        {
          "internalType": "uint16",
          "name": "",
          "type": "uint16"
        }
      ],
      "stateMutability": "pure",
      "type": "function"
    },
    {
      "inputs": [
        {
          "internalType": "address",
          "name": "",
          "type": "address"
        }
      ],
      "name": "getSendLibraryAddress",
      "outputs": [
        {
          "internalType": "address",
          "name": "",
          "type": "address"
        }
      ],
      "stateMutability": "view",
      "type": "function"
    },
    {
      "inputs": [
        {
          "internalType": "address",
          "name": "",
          "type": "address"
        }
      ],
      "name": "getSendVersion",
      "outputs": [
        {
          "internalType": "uint16",
          "name": "",
          "type": "uint16"
        }
      ],
      "stateMutability": "pure",
      "type": "function"
    },
    {
      "inputs": [
        {
          "internalType": "uint16",
          "name": "_srcChainId",
          "type": "uint16"
        },
        {
          "internalType": "bytes",
          "name": "_path",
          "type": "bytes"
        }
      ],
      "name": "hasStoredPayload",
      "outputs": [
        {
          "internalType": "bool",
          "name": "",
          "type": "bool"
        }
      ],
      "stateMutability": "view",
      "type": "function"
    },
    {
      "inputs": [
        {
          "internalType": "uint16",
          "name": "",
          "type": "uint16"
        },
        {
          "internalType": "bytes",
          "name": "",
          "type": "bytes"
        }
      ],
      "name": "inboundNonce",
      "outputs": [
        {
          "internalType": "uint64",
          "name": "",
          "type": "uint64"
        }
      ],
      "stateMutability": "view",
      "type": "function"
    },
    {
      "inputs": [],
      "name": "isReceivingPayload",
      "outputs": [
        {
          "internalType": "bool",
          "name": "",
          "type": "bool"
        }
      ],
      "stateMutability": "view",
      "type": "function"
    },
    {
      "inputs": [],
      "name": "isSendingPayload",
      "outputs": [
        {
          "internalType": "bool",
          "name": "",
          "type": "bool"
        }
      ],
      "stateMutability": "view",
      "type": "function"
    },
    {
      "inputs": [
        {
          "internalType": "address",
          "name": "",
          "type": "address"
        }
      ],
      "name": "lzEndpointLookup",
      "outputs": [
        {
          "internalType": "address",
          "name": "",
          "type": "address"
        }
      ],
      "stateMutability": "view",
      "type": "function"
    },
    {
      "inputs": [],
      "name": "mockChainId",
      "outputs": [
        {
          "internalType": "uint16",
          "name": "",
          "type": "uint16"
        }
      ],
      "stateMutability": "view",
      "type": "function"
    },
    {
      "inputs": [
        {
          "internalType": "uint16",
          "name": "",
          "type": "uint16"
        },
        {
          "internalType": "bytes",
          "name": "",
          "type": "bytes"
        },
        {
          "internalType": "uint256",
          "name": "",
          "type": "uint256"
        }
      ],
      "name": "msgsToDeliver",
      "outputs": [
        {
          "internalType": "address",
          "name": "dstAddress",
          "type": "address"
        },
        {
          "internalType": "uint64",
          "name": "nonce",
          "type": "uint64"
        },
        {
          "internalType": "bytes",
          "name": "payload",
          "type": "bytes"
        }
      ],
      "stateMutability": "view",
      "type": "function"
    },
    {
      "inputs": [],
      "name": "nextMsgBlocked",
      "outputs": [
        {
          "internalType": "bool",
          "name": "",
          "type": "bool"
        }
      ],
      "stateMutability": "view",
      "type": "function"
    },
    {
      "inputs": [],
      "name": "oracleFee",
      "outputs": [
        {
          "internalType": "uint256",
          "name": "",
          "type": "uint256"
        }
      ],
      "stateMutability": "view",
      "type": "function"
    },
    {
      "inputs": [
        {
          "internalType": "uint16",
          "name": "",
          "type": "uint16"
        },
        {
          "internalType": "address",
          "name": "",
          "type": "address"
        }
      ],
      "name": "outboundNonce",
      "outputs": [
        {
          "internalType": "uint64",
          "name": "",
          "type": "uint64"
        }
      ],
      "stateMutability": "view",
      "type": "function"
    },
    {
      "inputs": [],
      "name": "protocolFeeConfig",
      "outputs": [
        {
          "internalType": "uint256",
          "name": "zroFee",
          "type": "uint256"
        },
        {
          "internalType": "uint256",
          "name": "nativeBP",
          "type": "uint256"
        }
      ],
      "stateMutability": "view",
      "type": "function"
    },
    {
      "inputs": [
        {
          "internalType": "uint16",
          "name": "_srcChainId",
          "type": "uint16"
        },
        {
          "internalType": "bytes",
          "name": "_path",
          "type": "bytes"
        },
        {
          "internalType": "address",
          "name": "_dstAddress",
          "type": "address"
        },
        {
          "internalType": "uint64",
          "name": "_nonce",
          "type": "uint64"
        },
        {
          "internalType": "uint256",
          "name": "_gasLimit",
          "type": "uint256"
        },
        {
          "internalType": "bytes",
          "name": "_payload",
          "type": "bytes"
        }
      ],
      "name": "receivePayload",
      "outputs": [],
      "stateMutability": "nonpayable",
      "type": "function"
    },
    {
      "inputs": [],
      "name": "relayerFeeConfig",
      "outputs": [
        {
          "internalType": "uint128",
          "name": "dstPriceRatio",
          "type": "uint128"
        },
        {
          "internalType": "uint128",
          "name": "dstGasPriceInWei",
          "type": "uint128"
        },
        {
          "internalType": "uint128",
          "name": "dstNativeAmtCap",
          "type": "uint128"
        },
        {
          "internalType": "uint64",
          "name": "baseGas",
          "type": "uint64"
        },
        {
          "internalType": "uint64",
          "name": "gasPerByte",
          "type": "uint64"
        }
      ],
      "stateMutability": "view",
      "type": "function"
    },
    {
      "inputs": [
        {
          "internalType": "uint16",
          "name": "_srcChainId",
          "type": "uint16"
        },
        {
          "internalType": "bytes",
          "name": "_path",
          "type": "bytes"
        },
        {
          "internalType": "bytes",
          "name": "_payload",
          "type": "bytes"
        }
      ],
      "name": "retryPayload",
      "outputs": [],
      "stateMutability": "nonpayable",
      "type": "function"
    },
    {
      "inputs": [
        {
          "internalType": "uint16",
          "name": "_chainId",
          "type": "uint16"
        },
        {
          "internalType": "bytes",
          "name": "_path",
          "type": "bytes"
        },
        {
          "internalType": "bytes",
          "name": "_payload",
          "type": "bytes"
        },
        {
          "internalType": "address payable",
          "name": "_refundAddress",
          "type": "address"
        },
        {
          "internalType": "address",
          "name": "_zroPaymentAddress",
          "type": "address"
        },
        {
          "internalType": "bytes",
          "name": "_adapterParams",
          "type": "bytes"
        }
      ],
      "name": "send",
      "outputs": [],
      "stateMutability": "payable",
      "type": "function"
    },
    {
      "inputs": [
        {
          "internalType": "uint16",
          "name": "",
          "type": "uint16"
        },
        {
          "internalType": "uint16",
          "name": "",
          "type": "uint16"
        },
        {
          "internalType": "uint256",
          "name": "",
          "type": "uint256"
        },
        {
          "internalType": "bytes",
          "name": "",
          "type": "bytes"
        }
      ],
      "name": "setConfig",
      "outputs": [],
      "stateMutability": "nonpayable",
      "type": "function"
    },
    {
      "inputs": [
        {
          "internalType": "bytes",
          "name": "_adapterParams",
          "type": "bytes"
        }
      ],
      "name": "setDefaultAdapterParams",
      "outputs": [],
      "stateMutability": "nonpayable",
      "type": "function"
    },
    {
      "inputs": [
        {
          "internalType": "address",
          "name": "destAddr",
          "type": "address"
        },
        {
          "internalType": "address",
          "name": "lzEndpointAddr",
          "type": "address"
        }
      ],
      "name": "setDestLzEndpoint",
      "outputs": [],
      "stateMutability": "nonpayable",
      "type": "function"
    },
    {
      "inputs": [
        {
          "internalType": "uint256",
          "name": "_oracleFee",
          "type": "uint256"
        }
      ],
      "name": "setOracleFee",
      "outputs": [],
      "stateMutability": "nonpayable",
      "type": "function"
    },
    {
      "inputs": [
        {
          "internalType": "uint256",
          "name": "_zroFee",
          "type": "uint256"
        },
        {
          "internalType": "uint256",
          "name": "_nativeBP",
          "type": "uint256"
        }
      ],
      "name": "setProtocolFee",
      "outputs": [],
      "stateMutability": "nonpayable",
      "type": "function"
    },
    {
      "inputs": [
        {
          "internalType": "uint16",
          "name": "",
          "type": "uint16"
        }
      ],
      "name": "setReceiveVersion",
      "outputs": [],
      "stateMutability": "nonpayable",
      "type": "function"
    },
    {
      "inputs": [
        {
          "internalType": "uint128",
          "name": "_dstPriceRatio",
          "type": "uint128"
        },
        {
          "internalType": "uint128",
          "name": "_dstGasPriceInWei",
          "type": "uint128"
        },
        {
          "internalType": "uint128",
          "name": "_dstNativeAmtCap",
          "type": "uint128"
        },
        {
          "internalType": "uint64",
          "name": "_baseGas",
          "type": "uint64"
        },
        {
          "internalType": "uint64",
          "name": "_gasPerByte",
          "type": "uint64"
        }
      ],
      "name": "setRelayerPrice",
      "outputs": [],
      "stateMutability": "nonpayable",
      "type": "function"
    },
    {
      "inputs": [
        {
          "internalType": "uint16",
          "name": "",
          "type": "uint16"
        }
      ],
      "name": "setSendVersion",
      "outputs": [],
      "stateMutability": "nonpayable",
      "type": "function"
    },
    {
      "inputs": [
        {
          "internalType": "uint16",
          "name": "",
          "type": "uint16"
        },
        {
          "internalType": "bytes",
          "name": "",
          "type": "bytes"
        }
      ],
      "name": "storedPayload",
      "outputs": [
        {
          "internalType": "uint64",
          "name": "payloadLength",
          "type": "uint64"
        },
        {
          "internalType": "address",
          "name": "dstAddress",
          "type": "address"
        },
        {
          "internalType": "bytes32",
          "name": "payloadHash",
          "type": "bytes32"
        }
      ],
      "stateMutability": "view",
      "type": "function"
    }
  ],
  "bytecode": "0x6080604052600c805461ffff19166101011790553480156200002057600080fd5b5060405162003886380380620038868339810160408190526200004391620001fa565b6001805461ffff191661ffff83161781556040805160a0810182526402540be400808252602080830191909152678ac7230489e8000082840152606460608301526080909101929092527402540be400000000000000000000000002540be4006002557801000000000000006400000000000000008ac7230489e800006003558051808201909152670de0b6b3a76400008082526103e8918301829052600455600555662386f26fc1000060065581906200010c9062030d40906200012b811b620021ac17901c565b8051620001229160079160209091019062000154565b50505062000264565b60408051600160f01b602082015260228082019390935281518082039093018352604201905290565b828054620001629062000227565b90600052602060002090601f016020900481019282620001865760008555620001d1565b82601f10620001a157805160ff1916838001178555620001d1565b82800160010185558215620001d1579182015b82811115620001d1578251825591602001919060010190620001b4565b50620001df929150620001e3565b5090565b5b80821115620001df5760008155600101620001e4565b6000602082840312156200020d57600080fd5b815161ffff811681146200022057600080fd5b9392505050565b600181811c908216806200023c57607f821691505b602082108114156200025e57634e487b7160e01b600052602260045260246000fd5b50919050565b61361280620002746000396000f3fe60806040526004361061026a5760003560e01c80639924d33b11610153578063ca066b35116100cb578063e97a448a1161007f578063f9cd3ceb11610064578063f9cd3ceb146109f2578063fbba623b14610a08578063fdc07c7014610a2857600080fd5b8063e97a448a146109a4578063f5ecbdbc146109c057600080fd5b8063d23104f1116100b0578063d23104f11461094a578063da1a7c9a146102c4578063db14f3051461098957600080fd5b8063ca066b3514610908578063cbed8b9c1461092957600080fd5b8063b6d9ef6011610122578063c2fa481311610107578063c2fa481314610892578063c5803100146108b2578063c81b383a146108c557600080fd5b8063b6d9ef6014610804578063c08f15a11461082457600080fd5b80639924d33b1461074f5780639c729da1146104e3578063aaff5f16146107a2578063b2086499146107c257600080fd5b80633408e470116101e657806371ba2fd6116101b55780637a1457481161019a5780637a145748146105e25780637f6df8e61461065b578063907c5e7e1461068957600080fd5b806371ba2fd6146104e357806376a386dc1461052857600080fd5b80633408e4701461046a5780633e0dd83e1461048357806340a7bb10146104a357806342d65a8d146104c357600080fd5b806310ddb1371161023d578063240de27711610222578063240de27714610357578063272bd3841461037d5780632c365e251461039f57600080fd5b806310ddb137146102a457806312a9ee6b1461032857600080fd5b806307d3277f1461026f57806307e0db17146102a4578063096568f6146102c45780630eaf6ea6146102f8575b600080fd5b34801561027b57600080fd5b5060045460055461028a919082565b604080519283526020830191909152015b60405180910390f35b3480156102b057600080fd5b506102c26102bf366004612948565b50565b005b3480156102d057600080fd5b506102e56102df366004612985565b50600190565b60405161ffff909116815260200161029b565b34801561030457600080fd5b506103186103133660046129eb565b610a48565b604051901515815260200161029b565b34801561033457600080fd5b50610348610343366004612b18565b610a8e565b60405161029b93929190612bda565b34801561036357600080fd5b506102c2610372366004612c22565b600491909155600555565b34801561038957600080fd5b50610392610baa565b60405161029b9190612c44565b3480156103ab57600080fd5b506102c26103ba366004612c8f565b6fffffffffffffffffffffffffffffffff94851670010000000000000000000000000000000094861685021760025560038054939095167fffffffffffffffff0000000000000000000000000000000000000000000000009093169290921767ffffffffffffffff9182169093029290921777ffffffffffffffffffffffffffffffffffffffffffffffff1678010000000000000000000000000000000000000000000000009190921602179055565b34801561047657600080fd5b5060015461ffff166102e5565b34801561048f57600080fd5b506001546103189062010000900460ff1681565b3480156104af57600080fd5b5061028a6104be366004612cf4565b610c38565b3480156104cf57600080fd5b506102c26104de3660046129eb565b610d37565b3480156104ef57600080fd5b506105036104fe366004612985565b503090565b60405173ffffffffffffffffffffffffffffffffffffffff909116815260200161029b565b34801561053457600080fd5b506105a7610543366004612d95565b600a60209081526000928352604090922081518083018401805192815290840192909301919091209152805460019091015467ffffffffffffffff82169168010000000000000000900473ffffffffffffffffffffffffffffffffffffffff169083565b6040805167ffffffffffffffff909416845273ffffffffffffffffffffffffffffffffffffffff90921660208401529082015260600161029b565b3480156105ee57600080fd5b506106426105fd366004612de3565b61ffff8216600090815260096020908152604080832073ffffffffffffffffffffffffffffffffffffffff8516845290915290205467ffffffffffffffff1692915050565b60405167ffffffffffffffff909116815260200161029b565b34801561066757600080fd5b5061067b6106763660046129eb565b610ea8565b60405190815260200161029b565b34801561069557600080fd5b50600254600354610701916fffffffffffffffffffffffffffffffff80821692700100000000000000000000000000000000928390048216929181169167ffffffffffffffff908204811691780100000000000000000000000000000000000000000000000090041685565b604080516fffffffffffffffffffffffffffffffff96871681529486166020860152929094169183019190915267ffffffffffffffff9081166060830152909116608082015260a00161029b565b34801561075b57600080fd5b5061064261076a366004612d95565b6008602090815260009283526040909220815180830184018051928152908401929093019190912091525467ffffffffffffffff1681565b3480156107ae57600080fd5b506102c26107bd366004612e1a565b610ee4565b3480156107ce57600080fd5b506106426107dd366004612de3565b600960209081526000928352604080842090915290825290205467ffffffffffffffff1681565b34801561081057600080fd5b506102c261081f366004612e9b565b600655565b34801561083057600080fd5b506102c261083f366004612eb4565b73ffffffffffffffffffffffffffffffffffffffff918216600090815260208190526040902080547fffffffffffffffffffffffff00000000000000000000000000000000000000001691909216179055565b34801561089e57600080fd5b506102c26108ad366004612ed2565b61114c565b6102c26108c0366004612f82565b611ad3565b3480156108d157600080fd5b506105036108e0366004612985565b60006020819052908152604090205473ffffffffffffffffffffffffffffffffffffffff1681565b34801561091457600080fd5b50610318600c54610100900460ff1660021490565b34801561093557600080fd5b506102c261094436600461304a565b50505050565b34801561095657600080fd5b506102c2600180547fffffffffffffffffffffffffffffffffffffffffffffffffffffffffff00ffff1662010000179055565b34801561099557600080fd5b506001546102e59061ffff1681565b3480156109b057600080fd5b50610318600c5460ff1660021490565b3480156109cc57600080fd5b506103926109db3660046130b2565b604080516020810190915260008152949350505050565b3480156109fe57600080fd5b5061067b60065481565b348015610a1457600080fd5b506102c2610a233660046130ff565b61214f565b348015610a3457600080fd5b50610642610a433660046129eb565b612166565b61ffff83166000908152600a60205260408082209051829190610a6e908690869061313c565b9081526040519081900360200190206001015415159150505b9392505050565b600b6020908152600084815260409020835180850183018051928152908301928501929092209152805482908110610ac557600080fd5b60009182526020909120600290910201805460018201805473ffffffffffffffffffffffffffffffffffffffff831696507401000000000000000000000000000000000000000090920467ffffffffffffffff169450919250610b279061314c565b80601f0160208091040260200160405190810160405280929190818152602001828054610b539061314c565b8015610ba05780601f10610b7557610100808354040283529160200191610ba0565b820191906000526020600020905b815481529060010190602001808311610b8357829003601f168201915b5050505050905083565b60078054610bb79061314c565b80601f0160208091040260200160405190810160405280929190818152602001828054610be39061314c565b8015610c305780601f10610c0557610100808354040283529160200191610c30565b820191906000526020600020905b815481529060010190602001808311610c1357829003601f168201915b505050505081565b600080600080845111610cd55760078054610c529061314c565b80601f0160208091040260200160405190810160405280929190818152602001828054610c7e9061314c565b8015610ccb5780601f10610ca057610100808354040283529160200191610ccb565b820191906000526020600020905b815481529060010190602001808311610cae57829003601f168201915b5050505050610cd7565b835b90506000610cea8960018a8a51866121f0565b90506000610cfb878360065461240c565b905086610d0b5780945084610d10565b809350835b50600654610d1e83876131cf565b610d2891906131cf565b94505050509550959350505050565b61ffff83166000908152600a60205260408082209051610d5a908590859061313c565b9081526040519081900360200190206001810154909150610dc25760405162461bcd60e51b815260206004820181905260248201527f4c617965725a65726f4d6f636b3a206e6f2073746f726564207061796c6f616460448201526064015b60405180910390fd5b805468010000000000000000900473ffffffffffffffffffffffffffffffffffffffff163314610e345760405162461bcd60e51b815260206004820152601d60248201527f4c617965725a65726f4d6f636b3a20696e76616c69642063616c6c65720000006044820152606401610db9565b80547fffffffff00000000000000000000000000000000000000000000000000000000168155600060018201556040517f23d2684f396e92a6e2ff2d16f98e6fea00d50cb27a64b531bc0748f730211f9890610e9590869086908690613230565b60405180910390a1610944848484612449565b61ffff83166000908152600b60205260408082209051610ecb908590859061313c565b9081526040519081900360200190205490509392505050565b61ffff85166000908152600a60205260408082209051610f07908790879061313c565b9081526040519081900360200190206001810154909150610f6a5760405162461bcd60e51b815260206004820181905260248201527f4c617965725a65726f4d6f636b3a206e6f2073746f726564207061796c6f61646044820152606401610db9565b805467ffffffffffffffff1682148015610f9e575080600101548383604051610f9492919061313c565b6040518091039020145b610fea5760405162461bcd60e51b815260206004820152601e60248201527f4c617965725a65726f4d6f636b3a20696e76616c6964207061796c6f616400006044820152606401610db9565b80547fffffffff000000000000000000000000000000000000000000000000000000008116825560006001830181905561ffff881681526008602052604080822090516801000000000000000090930473ffffffffffffffffffffffffffffffffffffffff169261105e908990899061313c565b908152604051908190036020018120547e1d356700000000000000000000000000000000000000000000000000000000825267ffffffffffffffff16915073ffffffffffffffffffffffffffffffffffffffff831690621d3567906110d1908b908b908b9087908c908c9060040161324e565b600060405180830381600087803b1580156110eb57600080fd5b505af11580156110ff573d6000803e3d6000fd5b505050507f612434f39581c8e7d99746c9c20c6eb0ce8c0eb99f007c5719d620841370957d888888848660405161113a95949392919061329c565b60405180910390a15050505050505050565b600c54610100900460ff166001146111cb5760405162461bcd60e51b8152602060048201526024808201527f4c617965725a65726f4d6f636b3a206e6f2072656365697665207265656e747260448201527f616e6379000000000000000000000000000000000000000000000000000000006064820152608401610db9565b600c80547fffffffffffffffffffffffffffffffffffffffffffffffffffffffffffff00ff1661020017905561ffff88166000908152600a6020526040808220905161121a908a908a9061313c565b90815260200160405180910390209050600860008a61ffff1661ffff168152602001908152602001600020888860405161125592919061313c565b908152604051908190036020019020805460009061127c9067ffffffffffffffff166132f2565b91906101000a81548167ffffffffffffffff021916908367ffffffffffffffff160217905567ffffffffffffffff168567ffffffffffffffff16146113035760405162461bcd60e51b815260206004820152601a60248201527f4c617965725a65726f4d6f636b3a2077726f6e67206e6f6e63650000000000006044820152606401610db9565b6001810154156116f95761ffff89166000908152600b60205260408082209051611330908b908b9061313c565b90815260200160405180910390209050600060405180606001604052808973ffffffffffffffffffffffffffffffffffffffff1681526020018867ffffffffffffffff16815260200186868080601f016020809104026020016040519081016040528093929190818152602001838380828437600092019190915250505091525082549091501561164c578154600181810184556000848152602090819020845160029094020180548286015167ffffffffffffffff1674010000000000000000000000000000000000000000027fffffffff0000000000000000000000000000000000000000000000000000000090911673ffffffffffffffffffffffffffffffffffffffff909516949094179390931783556040840151805185949361145d939085019201906127e7565b50505060005b82546114719060019061331a565b8110156115935782818154811061148a5761148a613331565b9060005260206000209060020201838260016114a691906131cf565b815481106114b6576114b6613331565b600091825260209091208254600290920201805473ffffffffffffffffffffffffffffffffffffffff9092167fffffffffffffffffffffffff000000000000000000000000000000000000000083168117825583547fffffffff0000000000000000000000000000000000000000000000000000000090931617740100000000000000000000000000000000000000009283900467ffffffffffffffff1690920291909117815560018083018054918301916115719061314c565b61157c92919061286b565b50905050808061158b90613360565b915050611463565b5080826000815481106115a8576115a8613331565b6000918252602091829020835160029092020180548484015167ffffffffffffffff1674010000000000000000000000000000000000000000027fffffffff0000000000000000000000000000000000000000000000000000000090911673ffffffffffffffffffffffffffffffffffffffff90931692909217919091178155604083015180519192611643926001850192909101906127e7565b509050506116f2565b8154600181810184556000848152602090819020845160029094020180548286015167ffffffffffffffff1674010000000000000000000000000000000000000000027fffffffff0000000000000000000000000000000000000000000000000000000090911673ffffffffffffffffffffffffffffffffffffffff90951694909417939093178355604084015180518594936116ee939085019201906127e7565b5050505b5050611a9c565b60015462010000900460ff161561187c5760405180606001604052808484905067ffffffffffffffff1681526020018773ffffffffffffffffffffffffffffffffffffffff168152602001848460405161175492919061313c565b604080519182900390912090915261ffff8b166000908152600a6020528190209051611783908b908b9061313c565b908152604080519182900360209081018320845181548684015173ffffffffffffffffffffffffffffffffffffffff1668010000000000000000027fffffffff0000000000000000000000000000000000000000000000000000000090911667ffffffffffffffff909216919091171781559382015160019094019390935591810182526000815290517f0f9e4d95b62f08222d612b5ab92039cd8fbbbea550a95e8df9f927436bbdf5db91611847918c918c918c918c918c918b918b9190613399565b60405180910390a1600180547fffffffffffffffffffffffffffffffffffffffffffffffffffffffffff00ffff169055611a9c565b6040517e1d356700000000000000000000000000000000000000000000000000000000815273ffffffffffffffffffffffffffffffffffffffff871690621d35679086906118d8908d908d908d908c908b908b9060040161324e565b600060405180830381600088803b1580156118f257600080fd5b5087f193505050508015611904575060015b611a9c573d808015611932576040519150601f19603f3d011682016040523d82523d6000602084013e611937565b606091505b5060405180606001604052808585905067ffffffffffffffff1681526020018873ffffffffffffffffffffffffffffffffffffffff168152602001858560405161198292919061313c565b604080519182900390912090915261ffff8c166000908152600a60205281902090516119b1908c908c9061313c565b908152604080519182900360209081018320845181549286015173ffffffffffffffffffffffffffffffffffffffff1668010000000000000000027fffffffff0000000000000000000000000000000000000000000000000000000090931667ffffffffffffffff909116179190911781559201516001909201919091557f0f9e4d95b62f08222d612b5ab92039cd8fbbbea550a95e8df9f927436bbdf5db90611a6a908c908c908c908c908c908b908b908a90613399565b60405180910390a150600180547fffffffffffffffffffffffffffffffffffffffffffffffffffffffffff00ffff1690555b5050600c80547fffffffffffffffffffffffffffffffffffffffffffffffffffffffffffff00ff1661010017905550505050505050565b600c5460ff16600114611b4e5760405162461bcd60e51b815260206004820152602160248201527f4c617965725a65726f4d6f636b3a206e6f2073656e64207265656e7472616e6360448201527f79000000000000000000000000000000000000000000000000000000000000006064820152608401610db9565b600c80547fffffffffffffffffffffffffffffffffffffffffffffffffffffffffffffff001660021790558551602814611bf05760405162461bcd60e51b815260206004820152602c60248201527f4c617965725a65726f4d6f636b3a20696e636f72726563742072656d6f74652060448201527f616464726573732073697a6500000000000000000000000000000000000000006064820152608401610db9565b601486015173ffffffffffffffffffffffffffffffffffffffff8082166000908152602081905260409020541680611c905760405162461bcd60e51b815260206004820152603760248201527f4c617965725a65726f4d6f636b3a2064657374696e6174696f6e204c6179657260448201527f5a65726f20456e64706f696e74206e6f7420666f756e640000000000000000006064820152608401610db9565b600080845111611d2a5760078054611ca79061314c565b80601f0160208091040260200160405190810160405280929190818152602001828054611cd39061314c565b8015611d205780601f10611cf557610100808354040283529160200191611d20565b820191906000526020600020905b815481529060010190602001808311611d0357829003601f168201915b5050505050611d2c565b835b90506000611d8a8b338b8b8080601f01602080910402602001604051908101604052809392919081815260200183838082843760009201919091525050505073ffffffffffffffffffffffffffffffffffffffff8a16151586610c38565b50905080341015611e035760405162461bcd60e51b815260206004820152602960248201527f4c617965725a65726f4d6f636b3a206e6f7420656e6f756768206e617469766560448201527f20666f72206665657300000000000000000000000000000000000000000000006064820152608401610db9565b61ffff8b166000908152600960209081526040808320338452909152812080548290611e389067ffffffffffffffff166132f2565b91906101000a81548167ffffffffffffffff021916908367ffffffffffffffff1602179055905060008234611e6d919061331a565b90508015611f275760008973ffffffffffffffffffffffffffffffffffffffff168260405160006040518083038185875af1925050503d8060008114611ecf576040519150601f19603f3d011682016040523d82523d6000602084013e611ed4565b606091505b5050905080611f255760405162461bcd60e51b815260206004820152601f60248201527f4c617965725a65726f4d6f636b3a206661696c656420746f20726566756e64006044820152606401610db9565b505b6000806000611f35876126a2565b91955093509150508115611ff15760008173ffffffffffffffffffffffffffffffffffffffff168360405160006040518083038185875af1925050503d8060008114611f9d576040519150601f19603f3d011682016040523d82523d6000602084013e611fa2565b606091505b5050905080611fef57604051839073ffffffffffffffffffffffffffffffffffffffff8416907f2c7a964ca3de5ec1d42d9822f9bbd0eb142a59cc9f855e9d93813b773192c7a390600090a35b505b6040517fffffffffffffffffffffffffffffffffffffffff00000000000000000000000033606090811b821660208401528b901b166034820152600090604801604051602081830303815290604052905060008f8f8080601f016020809104026020016040519081016040528093929190818152602001838380828437600081840152601f19601f8201169050808301925050505050505090508973ffffffffffffffffffffffffffffffffffffffff1663c2fa4813600160009054906101000a900461ffff16848e8b8a876040518763ffffffff1660e01b81526004016120de96959493929190613419565b600060405180830381600087803b1580156120f857600080fd5b505af115801561210c573d6000803e3d6000fd5b5050600c80547fffffffffffffffffffffffffffffffffffffffffffffffffffffffffffffff001660011790555050505050505050505050505050505050505050565b80516121629060079060208401906127e7565b5050565b61ffff83166000908152600860205260408082209051612189908590859061313c565b9081526040519081900360200190205467ffffffffffffffff1690509392505050565b604080517e01000000000000000000000000000000000000000000000000000000000000602082015260228082019390935281518082039093018352604201905290565b6000806000806121ff856126a2565b5092509250925060008361ffff16600214156122ac576003546fffffffffffffffffffffffffffffffff1682111561229f5760405162461bcd60e51b815260206004820152602660248201527f4c617965725a65726f4d6f636b3a206473744e6174697665416d7420746f6f2060448201527f6c617267652000000000000000000000000000000000000000000000000000006064820152608401610db9565b6122a982826131cf565b90505b6003546000906122db908590700100000000000000000000000000000000900467ffffffffffffffff166131cf565b60025461230e919070010000000000000000000000000000000090046fffffffffffffffffffffffffffffffff1661347a565b905061231a81836131cf565b6002549092506000906402540be40090612346906fffffffffffffffffffffffffffffffff168561347a565b61235091906134e6565b6002546003549192506000916402540be400916fffffffffffffffffffffffffffffffff808216926123bf92780100000000000000000000000000000000000000000000000090910467ffffffffffffffff1691700100000000000000000000000000000000909104166134fa565b6123c991906134fa565b6123d39190613532565b6fffffffffffffffffffffffffffffffff1690506123f1818b61347a565b6123fb90836131cf565b9d9c50505050505050505050505050565b6000831561241d5750600454610a87565b6005546127109061242e84866131cf565b612438919061347a565b61244291906134e6565b9050610a87565b61ffff83166000908152600b6020526040808220905161246c908590859061313c565b908152602001604051809103902090505b80541561094457805460009082906124979060019061331a565b815481106124a7576124a7613331565b6000918252602091829020604080516060810182526002909302909101805473ffffffffffffffffffffffffffffffffffffffff8116845267ffffffffffffffff7401000000000000000000000000000000000000000090910416938301939093526001830180549293929184019161251f9061314c565b80601f016020809104026020016040519081016040528092919081815260200182805461254b9061314c565b80156125985780601f1061256d57610100808354040283529160200191612598565b820191906000526020600020905b81548152906001019060200180831161257b57829003601f168201915b5050505050815250509050806000015173ffffffffffffffffffffffffffffffffffffffff16621d3567868686856020015186604001516040518663ffffffff1660e01b81526004016125ef959493929190613561565b600060405180830381600087803b15801561260957600080fd5b505af115801561261d573d6000803e3d6000fd5b5050505081805480612631576126316135ad565b60008281526020812060027fffffffffffffffffffffffffffffffffffffffffffffffffffffffffffffffff9093019283020180547fffffffff000000000000000000000000000000000000000000000000000000001681559061269860018301826128e6565b505090555061247d565b6000806000808451602214806126b9575060428551115b6127055760405162461bcd60e51b815260206004820152601560248201527f496e76616c69642061646170746572506172616d7300000000000000000000006044820152606401610db9565b60028501519350602285015192508361ffff166001148061272a57508361ffff166002145b6127765760405162461bcd60e51b815260206004820152601260248201527f556e737570706f727465642074785479706500000000000000000000000000006044820152606401610db9565b600083116127c65760405162461bcd60e51b815260206004820152600b60248201527f47617320746f6f206c6f770000000000000000000000000000000000000000006044820152606401610db9565b8361ffff16600214156127e0575050604283015160568401515b9193509193565b8280546127f39061314c565b90600052602060002090601f016020900481019282612815576000855561285b565b82601f1061282e57805160ff191683800117855561285b565b8280016001018555821561285b579182015b8281111561285b578251825591602001919060010190612840565b5061286792915061291c565b5090565b8280546128779061314c565b90600052602060002090601f016020900481019282612899576000855561285b565b82601f106128aa578054855561285b565b8280016001018555821561285b57600052602060002091601f016020900482015b8281111561285b5782548255916001019190600101906128cb565b5080546128f29061314c565b6000825580601f10612902575050565b601f0160209004906000526020600020908101906102bf91905b5b80821115612867576000815560010161291d565b803561ffff8116811461294357600080fd5b919050565b60006020828403121561295a57600080fd5b610a8782612931565b73ffffffffffffffffffffffffffffffffffffffff811681146102bf57600080fd5b60006020828403121561299757600080fd5b8135610a8781612963565b60008083601f8401126129b457600080fd5b50813567ffffffffffffffff8111156129cc57600080fd5b6020830191508360208285010111156129e457600080fd5b9250929050565b600080600060408486031215612a0057600080fd5b612a0984612931565b9250602084013567ffffffffffffffff811115612a2557600080fd5b612a31868287016129a2565b9497909650939450505050565b7f4e487b7100000000000000000000000000000000000000000000000000000000600052604160045260246000fd5b600082601f830112612a7e57600080fd5b813567ffffffffffffffff80821115612a9957612a99612a3e565b604051601f83017fffffffffffffffffffffffffffffffffffffffffffffffffffffffffffffffe0908116603f01168101908282118183101715612adf57612adf612a3e565b81604052838152866020858801011115612af857600080fd5b836020870160208301376000602085830101528094505050505092915050565b600080600060608486031215612b2d57600080fd5b612b3684612931565b9250602084013567ffffffffffffffff811115612b5257600080fd5b612b5e86828701612a6d565b925050604084013590509250925092565b6000815180845260005b81811015612b9557602081850181015186830182015201612b79565b81811115612ba7576000602083870101525b50601f017fffffffffffffffffffffffffffffffffffffffffffffffffffffffffffffffe0169290920160200192915050565b73ffffffffffffffffffffffffffffffffffffffff8416815267ffffffffffffffff83166020820152606060408201526000612c196060830184612b6f565b95945050505050565b60008060408385031215612c3557600080fd5b50508035926020909101359150565b602081526000610a876020830184612b6f565b80356fffffffffffffffffffffffffffffffff8116811461294357600080fd5b803567ffffffffffffffff8116811461294357600080fd5b600080600080600060a08688031215612ca757600080fd5b612cb086612c57565b9450612cbe60208701612c57565b9350612ccc60408701612c57565b9250612cda60608701612c77565b9150612ce860808701612c77565b90509295509295909350565b600080600080600060a08688031215612d0c57600080fd5b612d1586612931565b94506020860135612d2581612963565b9350604086013567ffffffffffffffff80821115612d4257600080fd5b612d4e89838a01612a6d565b9450606088013591508115158214612d6557600080fd5b90925060808701359080821115612d7b57600080fd5b50612d8888828901612a6d565b9150509295509295909350565b60008060408385031215612da857600080fd5b612db183612931565b9150602083013567ffffffffffffffff811115612dcd57600080fd5b612dd985828601612a6d565b9150509250929050565b60008060408385031215612df657600080fd5b612dff83612931565b91506020830135612e0f81612963565b809150509250929050565b600080600080600060608688031215612e3257600080fd5b612e3b86612931565b9450602086013567ffffffffffffffff80821115612e5857600080fd5b612e6489838a016129a2565b90965094506040880135915080821115612e7d57600080fd5b50612e8a888289016129a2565b969995985093965092949392505050565b600060208284031215612ead57600080fd5b5035919050565b60008060408385031215612ec757600080fd5b8235612dff81612963565b60008060008060008060008060c0898b031215612eee57600080fd5b612ef789612931565b9750602089013567ffffffffffffffff80821115612f1457600080fd5b612f208c838d016129a2565b909950975060408b01359150612f3582612963565b819650612f4460608c01612c77565b955060808b0135945060a08b0135915080821115612f6157600080fd5b50612f6e8b828c016129a2565b999c989b5096995094979396929594505050565b600080600080600080600060c0888a031215612f9d57600080fd5b612fa688612931565b9650602088013567ffffffffffffffff80821115612fc357600080fd5b612fcf8b838c01612a6d565b975060408a0135915080821115612fe557600080fd5b612ff18b838c016129a2565b909750955060608a0135915061300682612963565b90935060808901359061301882612963565b90925060a0890135908082111561302e57600080fd5b5061303b8a828b01612a6d565b91505092959891949750929550565b6000806000806080858703121561306057600080fd5b61306985612931565b935061307760208601612931565b925060408501359150606085013567ffffffffffffffff81111561309a57600080fd5b6130a687828801612a6d565b91505092959194509250565b600080600080608085870312156130c857600080fd5b6130d185612931565b93506130df60208601612931565b925060408501356130ef81612963565b9396929550929360600135925050565b60006020828403121561311157600080fd5b813567ffffffffffffffff81111561312857600080fd5b61313484828501612a6d565b949350505050565b8183823760009101908152919050565b600181811c9082168061316057607f821691505b6020821081141561319a577f4e487b7100000000000000000000000000000000000000000000000000000000600052602260045260246000fd5b50919050565b7f4e487b7100000000000000000000000000000000000000000000000000000000600052601160045260246000fd5b600082198211156131e2576131e26131a0565b500190565b8183528181602085013750600060208284010152600060207fffffffffffffffffffffffffffffffffffffffffffffffffffffffffffffffe0601f840116840101905092915050565b61ffff84168152604060208201526000612c196040830184866131e7565b61ffff8716815260806020820152600061326c6080830187896131e7565b67ffffffffffffffff86166040840152828103606084015261328f8185876131e7565b9998505050505050505050565b61ffff861681526080602082015260006132ba6080830186886131e7565b905067ffffffffffffffff8416604083015273ffffffffffffffffffffffffffffffffffffffff831660608301529695505050505050565b600067ffffffffffffffff80831681811415613310576133106131a0565b6001019392505050565b60008282101561332c5761332c6131a0565b500390565b7f4e487b7100000000000000000000000000000000000000000000000000000000600052603260045260246000fd5b60007fffffffffffffffffffffffffffffffffffffffffffffffffffffffffffffffff821415613392576133926131a0565b5060010190565b61ffff8916815260c0602082015260006133b760c08301898b6131e7565b73ffffffffffffffffffffffffffffffffffffffff8816604084015267ffffffffffffffff8716606084015282810360808401526133f68186886131e7565b905082810360a084015261340a8185612b6f565b9b9a5050505050505050505050565b61ffff8716815260c06020820152600061343660c0830188612b6f565b73ffffffffffffffffffffffffffffffffffffffff8716604084015267ffffffffffffffff8616606084015284608084015282810360a084015261328f8185612b6f565b6000817fffffffffffffffffffffffffffffffffffffffffffffffffffffffffffffffff04831182151516156134b2576134b26131a0565b500290565b7f4e487b7100000000000000000000000000000000000000000000000000000000600052601260045260246000fd5b6000826134f5576134f56134b7565b500490565b60006fffffffffffffffffffffffffffffffff80831681851681830481118215151615613529576135296131a0565b02949350505050565b60006fffffffffffffffffffffffffffffffff80841680613555576135556134b7565b92169190910492915050565b61ffff8616815260806020820152600061357f6080830186886131e7565b67ffffffffffffffff8516604084015282810360608401526135a18185612b6f565b98975050505050505050565b7f4e487b7100000000000000000000000000000000000000000000000000000000600052603160045260246000fdfea2646970667358221220fa2afeabe693145a4186f444caec71cc50598907d763d504b28bddc32a2506e564736f6c63430008090033",
  "linkReferences": {},
  "deployedLinkReferences": {}
}