{
  "_format": "hh-sol-artifact-1",
  "contractName": "HubbleReferral",
  "sourceName": "contracts/HubbleReferral.sol",
  "abi": [
    {
      "inputs": [
        {
          "internalType": "address",
          "name": "_trustedForwarder",
          "type": "address"
        },
        {
          "internalType": "address",
          "name": "_clearingHouse",
          "type": "address"
        }
      ],
      "stateMutability": "nonpayable",
      "type": "constructor"
    },
    {
      "anonymous": false,
      "inputs": [
        {
          "indexed": false,
          "internalType": "uint8",
          "name": "version",
          "type": "uint8"
        }
      ],
      "name": "Initialized",
      "type": "event"
    },
    {
      "anonymous": false,
      "inputs": [
        {
          "indexed": false,
          "internalType": "address",
          "name": "account",
          "type": "address"
        }
      ],
      "name": "Paused",
      "type": "event"
    },
    {
      "anonymous": false,
      "inputs": [
        {
          "indexed": true,
          "internalType": "address",
          "name": "referrer",
          "type": "address"
        },
        {
          "indexed": false,
          "internalType": "string",
          "name": "code",
          "type": "string"
        },
        {
          "indexed": false,
          "internalType": "uint256",
          "name": "timestamp",
          "type": "uint256"
        }
      ],
      "name": "ReferralCodeCreated",
      "type": "event"
    },
    {
      "anonymous": false,
      "inputs": [
        {
          "indexed": true,
          "internalType": "address",
          "name": "trader",
          "type": "address"
        },
        {
          "indexed": true,
          "internalType": "address",
          "name": "referrer",
          "type": "address"
        },
        {
          "indexed": false,
          "internalType": "uint256",
          "name": "timestamp",
          "type": "uint256"
        }
      ],
      "name": "ReferrerAdded",
      "type": "event"
    },
    {
      "anonymous": false,
      "inputs": [
        {
          "indexed": false,
          "internalType": "address",
          "name": "account",
          "type": "address"
        }
      ],
      "name": "Unpaused",
      "type": "event"
    },
    {
      "inputs": [
        {
          "internalType": "uint256",
          "name": "_totalSignupCap",
          "type": "uint256"
        }
      ],
      "name": "beginSignups",
      "outputs": [],
      "stateMutability": "nonpayable",
      "type": "function"
    },
    {
      "inputs": [
        {
          "internalType": "bytes32[]",
          "name": "merkleProof",
          "type": "bytes32[]"
        },
        {
          "internalType": "address",
          "name": "tradingAuthory",
          "type": "address"
        }
      ],
      "name": "claimGenesisTicket",
      "outputs": [],
      "stateMutability": "payable",
      "type": "function"
    },
    {
      "inputs": [
        {
          "internalType": "address",
          "name": "referrer",
          "type": "address"
        },
        {
          "internalType": "uint256",
          "name": "totalReferralTickets",
          "type": "uint256"
        },
        {
          "internalType": "bytes32[]",
          "name": "merkleProof",
          "type": "bytes32[]"
        },
        {
          "internalType": "address",
          "name": "tradingAuthory",
          "type": "address"
        }
      ],
      "name": "claimReferralTicket",
      "outputs": [],
      "stateMutability": "payable",
      "type": "function"
    },
    {
      "inputs": [
        {
          "internalType": "address",
          "name": "",
          "type": "address"
        }
      ],
      "name": "claimed",
      "outputs": [
        {
          "internalType": "uint256",
          "name": "",
          "type": "uint256"
        }
      ],
      "stateMutability": "view",
      "type": "function"
    },
    {
      "inputs": [],
      "name": "clearingHouse",
      "outputs": [
        {
          "internalType": "address",
          "name": "",
          "type": "address"
        }
      ],
      "stateMutability": "view",
      "type": "function"
    },
    {
      "inputs": [
        {
          "internalType": "string",
          "name": "",
          "type": "string"
        }
      ],
      "name": "codeToReferrer",
      "outputs": [
        {
          "internalType": "address",
          "name": "",
          "type": "address"
        }
      ],
      "stateMutability": "view",
      "type": "function"
    },
    {
      "inputs": [],
      "name": "concludeRestrictedInvitePhase",
      "outputs": [],
      "stateMutability": "nonpayable",
      "type": "function"
    },
    {
      "inputs": [
        {
          "internalType": "string",
          "name": "code",
          "type": "string"
        }
      ],
      "name": "createReferralCode",
      "outputs": [],
      "stateMutability": "nonpayable",
      "type": "function"
    },
    {
      "inputs": [
        {
          "internalType": "address",
          "name": "",
          "type": "address"
        }
      ],
      "name": "genesisClaimed",
      "outputs": [
        {
          "internalType": "bool",
          "name": "",
          "type": "bool"
        }
      ],
      "stateMutability": "view",
      "type": "function"
    },
    {
      "inputs": [],
      "name": "genesisTicketRoot",
      "outputs": [
        {
          "internalType": "bytes32",
          "name": "",
          "type": "bytes32"
        }
      ],
      "stateMutability": "view",
      "type": "function"
    },
    {
      "inputs": [],
      "name": "governance",
      "outputs": [
        {
          "internalType": "address",
          "name": "",
          "type": "address"
        }
      ],
      "stateMutability": "view",
      "type": "function"
    },
    {
      "inputs": [
        {
          "internalType": "address",
          "name": "trader",
          "type": "address"
        }
      ],
      "name": "hasReferrer",
      "outputs": [
        {
          "internalType": "bool",
          "name": "",
          "type": "bool"
        }
      ],
      "stateMutability": "view",
      "type": "function"
    },
    {
      "inputs": [
        {
          "internalType": "address",
          "name": "_governance",
          "type": "address"
        }
      ],
      "name": "initialize",
      "outputs": [],
      "stateMutability": "nonpayable",
      "type": "function"
    },
    {
      "inputs": [
        {
          "internalType": "address",
          "name": "forwarder",
          "type": "address"
        }
      ],
      "name": "isTrustedForwarder",
      "outputs": [
        {
          "internalType": "bool",
          "name": "",
          "type": "bool"
        }
      ],
      "stateMutability": "view",
      "type": "function"
    },
    {
      "inputs": [],
      "name": "pause",
      "outputs": [],
      "stateMutability": "nonpayable",
      "type": "function"
    },
    {
      "inputs": [],
      "name": "paused",
      "outputs": [
        {
          "internalType": "bool",
          "name": "",
          "type": "bool"
        }
      ],
      "stateMutability": "view",
      "type": "function"
    },
    {
      "inputs": [],
      "name": "referralTicketRoot",
      "outputs": [
        {
          "internalType": "bytes32",
          "name": "",
          "type": "bytes32"
        }
      ],
      "stateMutability": "view",
      "type": "function"
    },
    {
      "inputs": [
        {
          "internalType": "address",
          "name": "",
          "type": "address"
        }
      ],
      "name": "referrerToCode",
      "outputs": [
        {
          "internalType": "string",
          "name": "",
          "type": "string"
        }
      ],
      "stateMutability": "view",
      "type": "function"
    },
    {
      "inputs": [],
      "name": "restrictedInvites",
      "outputs": [
        {
          "internalType": "bool",
          "name": "",
          "type": "bool"
        }
      ],
      "stateMutability": "view",
      "type": "function"
    },
    {
      "inputs": [
        {
          "internalType": "bytes32",
          "name": "_genesisTicketRoot",
          "type": "bytes32"
        }
      ],
      "name": "setGenesisTicketRoot",
      "outputs": [],
      "stateMutability": "nonpayable",
      "type": "function"
    },
    {
      "inputs": [
        {
          "internalType": "address",
          "name": "__governance",
          "type": "address"
        }
      ],
      "name": "setGovernace",
      "outputs": [],
      "stateMutability": "nonpayable",
      "type": "function"
    },
    {
      "inputs": [
        {
          "internalType": "string",
          "name": "code",
          "type": "string"
        }
      ],
      "name": "setReferralCode",
      "outputs": [],
      "stateMutability": "nonpayable",
      "type": "function"
    },
    {
      "inputs": [
        {
          "internalType": "bytes32",
          "name": "_referralTicketRoot",
          "type": "bytes32"
        }
      ],
      "name": "setReferralTicketRoot",
      "outputs": [],
      "stateMutability": "nonpayable",
      "type": "function"
    },
    {
      "inputs": [
        {
          "internalType": "uint256",
          "name": "_totalSignupCap",
          "type": "uint256"
        }
      ],
      "name": "setTotalSignupCap",
      "outputs": [],
      "stateMutability": "nonpayable",
      "type": "function"
    },
    {
      "inputs": [
        {
          "internalType": "address",
          "name": "_ticketAssigner",
          "type": "address"
        },
        {
          "internalType": "bool",
          "name": "_valid",
          "type": "bool"
        }
      ],
      "name": "setValidTicketAssigner",
      "outputs": [],
      "stateMutability": "nonpayable",
      "type": "function"
    },
    {
      "inputs": [],
      "name": "totalSignupCap",
      "outputs": [
        {
          "internalType": "uint256",
          "name": "",
          "type": "uint256"
        }
      ],
      "stateMutability": "view",
      "type": "function"
    },
    {
      "inputs": [],
      "name": "totalSignups",
      "outputs": [
        {
          "internalType": "uint256",
          "name": "",
          "type": "uint256"
        }
      ],
      "stateMutability": "view",
      "type": "function"
    },
    {
      "inputs": [
        {
          "internalType": "address",
          "name": "",
          "type": "address"
        }
      ],
      "name": "traderToReferrer",
      "outputs": [
        {
          "internalType": "address",
          "name": "",
          "type": "address"
        }
      ],
      "stateMutability": "view",
      "type": "function"
    },
    {
      "inputs": [],
      "name": "unpause",
      "outputs": [],
      "stateMutability": "nonpayable",
      "type": "function"
    },
    {
      "inputs": [
        {
          "internalType": "address",
          "name": "",
          "type": "address"
        }
      ],
      "name": "validTicketAssigner",
      "outputs": [
        {
          "internalType": "bool",
          "name": "",
          "type": "bool"
        }
      ],
      "stateMutability": "view",
      "type": "function"
    },
    {
      "inputs": [
        {
          "internalType": "bytes32",
          "name": "node",
          "type": "bytes32"
        },
        {
          "internalType": "bytes32",
          "name": "root",
          "type": "bytes32"
        },
        {
          "internalType": "bytes32[]",
          "name": "merkleProof",
          "type": "bytes32[]"
        }
      ],
      "name": "verifyAirdropProof",
      "outputs": [
        {
          "internalType": "bool",
          "name": "",
          "type": "bool"
        }
      ],
      "stateMutability": "pure",
      "type": "function"
    }
  ],
  "bytecode": "0x60c06040523480156200001157600080fd5b50604051620023b1380380620023b1833981016040819052620000349162000076565b6000805460ff60b01b191690556001600160a01b039182166080521660a052620000ae565b80516001600160a01b03811681146200007157600080fd5b919050565b600080604083850312156200008a57600080fd5b620000958362000059565b9150620000a56020840162000059565b90509250929050565b60805160a0516122c1620000f060003960008181610211015281816110ce015281816113470152611a490152600081816103560152611b6101526122c16000f3fe6080604052600436106101d85760003560e01c80637248103f11610102578063c4d66de811610095578063db6ac12a11610064578063db6ac12a146105bc578063e786ef03146105fd578063eaa4163e14610613578063f4cb660a1461062657600080fd5b8063c4d66de814610519578063c884ef8314610539578063caffe38d14610566578063cffc98d71461059c57600080fd5b8063851e3ca5116100d1578063851e3ca5146104b157806386ec3e3d146104d15780638e52ef6b146104f1578063a05b709b1461050457600080fd5b80637248103f1461043c578063802bd4ec146104525780638241167a146104825780638456cb591461049c57600080fd5b80633e0183d11161017a5780635ae9d4f1116101495780635ae9d4f1146103a45780635c975abb146103ba5780635e58580a146103ec5780636f5ec8151461041c57600080fd5b80633e0183d1146103045780633f4ba83a14610324578063572b6c05146103395780635aa6e6751461038657600080fd5b80631943c711116101b65780631943c711146102805780631e368508146102a4578063329e491b146102c457806333aac138146102e457600080fd5b806307b4f68a146101dd5780630af96800146101ff57806318452cd814610250575b600080fd5b3480156101e957600080fd5b506101fd6101f8366004611d51565b610653565b005b34801561020b57600080fd5b506102337f000000000000000000000000000000000000000000000000000000000000000081565b6040516001600160a01b0390911681526020015b60405180910390f35b34801561025c57600080fd5b5061027061026b366004611d7f565b6106ff565b6040519015158152602001610247565b34801561028c57600080fd5b50610296600a5481565b604051908152602001610247565b3480156102b057600080fd5b506101fd6102bf366004611d51565b610736565b3480156102d057600080fd5b506101fd6102df366004611d9c565b61080d565b3480156102f057600080fd5b506101fd6102ff366004611d51565b6108b0565b34801561031057600080fd5b506101fd61031f366004611dda565b610957565b34801561033057600080fd5b506101fd6109aa565b34801561034557600080fd5b50610270610354366004611d7f565b7f00000000000000000000000000000000000000000000000000000000000000006001600160a01b0390811691161490565b34801561039257600080fd5b506000546001600160a01b0316610233565b3480156103b057600080fd5b5061029660055481565b3480156103c657600080fd5b50600054760100000000000000000000000000000000000000000000900460ff16610270565b3480156103f857600080fd5b50610270610407366004611d7f565b60076020526000908152604090205460ff1681565b34801561042857600080fd5b50610270610437366004611e98565b610a0e565b34801561044857600080fd5b5061029660045481565b34801561045e57600080fd5b5061027061046d366004611d7f565b60096020526000908152604090205460ff1681565b34801561048e57600080fd5b506006546102709060ff1681565b3480156104a857600080fd5b506101fd610a59565b3480156104bd57600080fd5b506101fd6104cc366004611d7f565b610abb565b3480156104dd57600080fd5b506101fd6104ec366004611dda565b610b4e565b6101fd6104ff366004611eeb565b610be4565b34801561051057600080fd5b506101fd610da9565b34801561052557600080fd5b506101fd610534366004611d7f565b610e2d565b34801561054557600080fd5b50610296610554366004611d7f565b600b6020526000908152604090205481565b34801561057257600080fd5b50610233610581366004611d7f565b6003602052600090815260409020546001600160a01b031681565b3480156105a857600080fd5b506101fd6105b7366004611d51565b611068565b3480156105c857600080fd5b506102336105d7366004611f8e565b80516020818301810180516002825292820191909301209152546001600160a01b031681565b34801561060957600080fd5b5061029660085481565b6101fd61062136600461205d565b611198565b34801561063257600080fd5b50610646610641366004611d7f565b6113fb565b604051610247919061212a565b61065b611495565b6000546001600160a01b031661066f611502565b6001600160a01b031614806106a957506007600061068b611502565b6001600160a01b0316815260208101919091526040016000205460ff165b6106fa5760405162461bcd60e51b815260206004820152601f60248201527f48523a206e6f7420612076616c6964207469636b65742061737369676e65720060448201526064015b60405180910390fd5b600855565b60065460009060ff161561072e57506001600160a01b0390811660009081526003602052604090205416151590565b506001919050565b6000546001600160a01b031633146107905760405162461bcd60e51b815260206004820152600f60248201527f4f4e4c595f474f5645524e414e4345000000000000000000000000000000000060448201526064016106f1565b6005548110156108085760405162461bcd60e51b815260206004820152602c60248201527f48523a20636170206d7573742062652067726561746572207468616e2063757260448201527f72656e74207369676e757073000000000000000000000000000000000000000060648201526084016106f1565b600455565b6000546001600160a01b031633146108675760405162461bcd60e51b815260206004820152600f60248201527f4f4e4c595f474f5645524e414e4345000000000000000000000000000000000060448201526064016106f1565b6001600160a01b0391909116600090815260076020526040902080547fffffffffffffffffffffffffffffffffffffffffffffffffffffffffffffff0016911515919091179055565b6108b8611495565b6000546001600160a01b03166108cc611502565b6001600160a01b031614806109065750600760006108e8611502565b6001600160a01b0316815260208101919091526040016000205460ff165b6109525760405162461bcd60e51b815260206004820152601f60248201527f48523a206e6f7420612076616c6964207469636b65742061737369676e65720060448201526064016106f1565b600a55565b61095f611495565b6109a661096a611502565b83838080601f01602080910402602001604051908101604052809392919081815260200183838082843760009201919091525061151192505050565b5050565b6000546001600160a01b03163314610a045760405162461bcd60e51b815260206004820152600f60248201527f4f4e4c595f474f5645524e414e4345000000000000000000000000000000000060448201526064016106f1565b610a0c611739565b565b6000610a508383808060200260200160405190810160405280939291908181526020018383602002808284376000920191909152508892508991506117af9050565b95945050505050565b6000546001600160a01b03163314610ab35760405162461bcd60e51b815260206004820152600f60248201527f4f4e4c595f474f5645524e414e4345000000000000000000000000000000000060448201526064016106f1565b610a0c6117c5565b6000546001600160a01b03163314610b155760405162461bcd60e51b815260206004820152600f60248201527f4f4e4c595f474f5645524e414e4345000000000000000000000000000000000060448201526064016106f1565b600080547fffffffffffffffffffffffff0000000000000000000000000000000000000000166001600160a01b03831617905550565b50565b610b56611495565b60065460ff1615610ba95760405162461bcd60e51b815260206004820152601660248201527f48523a207265737472696374656420696e76697465730000000000000000000060448201526064016106f1565b6109a6610bb4611502565b60028484604051610bc692919061213d565b908152604051908190036020019020546001600160a01b0316611837565b610bec611495565b6000610bf6611502565b6001600160a01b0387166000908152600b60205260409020549091508511610c605760405162461bcd60e51b815260206004820152600f60248201527f416c726561647920636c61696d6564000000000000000000000000000000000060448201526064016106f1565b60045460055410610cb35760405162461bcd60e51b815260206004820152601660248201527f546f74616c207369676e7570732065786365656465640000000000000000000060448201526064016106f1565b604080516001600160a01b0388166020820152908101869052610cf39060600160405160208183030381529060405280519060200120600a548686610a0e565b610d3f5760405162461bcd60e51b815260206004820152601460248201527f496e76616c6964206d65726b6c652070726f6f6600000000000000000000000060448201526064016106f1565b6001600160a01b0386166000908152600b60205260408120805491610d638361214d565b909155505060058054906000610d788361214d565b9190505550610d878187611837565b6001600160a01b03821615610da157610da1818334611a47565b505050505050565b6000546001600160a01b03163314610e035760405162461bcd60e51b815260206004820152600f60248201527f4f4e4c595f474f5645524e414e4345000000000000000000000000000000000060448201526064016106f1565b600680547fffffffffffffffffffffffffffffffffffffffffffffffffffffffffffffff00169055565b6000547501000000000000000000000000000000000000000000900460ff1615808015610e78575060005460017401000000000000000000000000000000000000000090910460ff16105b80610eaa5750303b158015610eaa575060005474010000000000000000000000000000000000000000900460ff166001145b610f1c5760405162461bcd60e51b815260206004820152602e60248201527f496e697469616c697a61626c653a20636f6e747261637420697320616c72656160448201527f647920696e697469616c697a656400000000000000000000000000000000000060648201526084016106f1565b600080547fffffffffffffffffffffff00ffffffffffffffffffffffffffffffffffffffff16740100000000000000000000000000000000000000001790558015610fa257600080547fffffffffffffffffffff00ffffffffffffffffffffffffffffffffffffffffff1675010000000000000000000000000000000000000000001790555b6006805460017fffffffffffffffffffffffffffffffffffffffffffffffffffffffffffffff00909116179055600080547fffffffffffffffffffffffff0000000000000000000000000000000000000000166001600160a01b03841617905580156109a657600080547fffffffffffffffffffff00ffffffffffffffffffffffffffffffffffffffffff169055604051600181527f7f26b83ff96e1f2b6a682f133852f6798a09c465da95921460cefb38474024989060200160405180910390a15050565b6000546001600160a01b031633146110c25760405162461bcd60e51b815260206004820152600f60248201527f4f4e4c595f474f5645524e414e4345000000000000000000000000000000000060448201526064016106f1565b80600481905550610b4b7f00000000000000000000000000000000000000000000000000000000000000006001600160a01b0316634b38474d6040518163ffffffff1660e01b815260040160206040518083038186803b15801561112557600080fd5b505afa158015611139573d6000803e3d6000fd5b505050506040513d601f19601f8201168201806040525081019061115d91906121ad565b6040518060400160405280600f81526020017f687562626c652d65786368616e67650000000000000000000000000000000000815250611511565b6111a0611495565b60006111aa611502565b6001600160a01b03811660009081526009602052604090205490915060ff16156112165760405162461bcd60e51b815260206004820152600f60248201527f416c726561647920636c61696d6564000000000000000000000000000000000060448201526064016106f1565b600454600554106112695760405162461bcd60e51b815260206004820152601660248201527f546f74616c207369676e7570732065786365656465640000000000000000000060448201526064016106f1565b604080516001600160a01b03831660208201526112a19101604051602081830303815290604052805190602001206008548686610a0e565b6112ed5760405162461bcd60e51b815260206004820152601460248201527f496e76616c6964206d65726b6c652070726f6f6600000000000000000000000060448201526064016106f1565b6001600160a01b038116600090815260096020526040812080547fffffffffffffffffffffffffffffffffffffffffffffffffffffffffffffff00166001179055600580549161133c8361214d565b91905055506113db817f00000000000000000000000000000000000000000000000000000000000000006001600160a01b0316634b38474d6040518163ffffffff1660e01b815260040160206040518083038186803b15801561139e57600080fd5b505afa1580156113b2573d6000803e3d6000fd5b505050506040513d601f19601f820116820180604052508101906113d691906121ad565b611837565b6001600160a01b038216156113f5576113f5818334611a47565b50505050565b60016020526000908152604090208054611414906121ca565b80601f0160208091040260200160405190810160405280929190818152602001828054611440906121ca565b801561148d5780601f106114625761010080835404028352916020019161148d565b820191906000526020600020905b81548152906001019060200180831161147057829003601f168201915b505050505081565b600054760100000000000000000000000000000000000000000000900460ff1615610a0c5760405162461bcd60e51b815260206004820152601060248201527f5061757361626c653a207061757365640000000000000000000000000000000060448201526064016106f1565b600061150c611b5d565b905090565b6004815110156115635760405162461bcd60e51b815260206004820152601b60248201527f48523a20726566657272616c20636f646520746f6f2073686f7274000000000060448201526064016106f1565b60006001600160a01b031660028260405161157e919061221e565b908152604051908190036020019020546001600160a01b0316146115e45760405162461bcd60e51b815260206004820181905260248201527f48523a20726566657272616c20636f646520616c72656164792065786973747360448201526064016106f1565b6001600160a01b03821660009081526001602052604090208054611607906121ca565b15905061167c5760405162461bcd60e51b815260206004820152603160248201527f48523a20726566657272616c20636f646520616c72656164792065786973747360448201527f20666f722074686973206164647265737300000000000000000000000000000060648201526084016106f1565b6001600160a01b038216600090815260016020908152604090912082516116a592840190611cb8565b50816002826040516116b7919061221e565b90815260405190819003602001812080546001600160a01b039384167fffffffffffffffffffffffff0000000000000000000000000000000000000000909116179055908316907fc03d58b71bd8183f08ca290b38e8f49547cf2ebc013060b87b65d13111377ae09061172d908490429061223a565b60405180910390a25050565b611741611bcd565b600080547fffffffffffffffffff00ffffffffffffffffffffffffffffffffffffffffffff1690557f5db9ee0a495bf2e6ff9c91a7834c1ba4fdd244a5e8aa4e537bd38aeae4b073aa611792611502565b6040516001600160a01b03909116815260200160405180910390a1565b6000826117bc8584611c39565b14949350505050565b6117cd611495565b600080547fffffffffffffffffff00ffffffffffffffffffffffffffffffffffffffffffff167601000000000000000000000000000000000000000000001790557f62e78cea01bee320cd4e420270b5ea74000d11b0c9f74754ebdbfc544b05a258611792611502565b806001600160a01b0316826001600160a01b031614156118995760405162461bcd60e51b815260206004820152601160248201527f48523a2073656c662d726566657272616c00000000000000000000000000000060448201526064016106f1565b6001600160a01b0382811660009081526003602052604090205416156119015760405162461bcd60e51b815260206004820152601860248201527f48523a20616c726561647920686173207265666572726572000000000000000060448201526064016106f1565b6001600160a01b0381166119575760405162461bcd60e51b815260206004820181905260248201527f48523a20726566657272616c20636f646520646f6573206e6f7420657869737460448201526064016106f1565b6001600160a01b0381166000908152600160205260409020805461197a906121ca565b151590506119ca5760405162461bcd60e51b815260206004820152601860248201527f48523a20726566657272657220686173206e6f20636f6465000000000000000060448201526064016106f1565b6001600160a01b0382811660008181526003602090815260409182902080547fffffffffffffffffffffffff000000000000000000000000000000000000000016948616948517905590514281527fc30d23ef39fc7ba77bd5d68428a667793461607d1338cd389e4d4e8d43d87143910160405180910390a35050565b7f00000000000000000000000000000000000000000000000000000000000000006001600160a01b031663776af5ba6040518163ffffffff1660e01b815260040160206040518083038186803b158015611aa057600080fd5b505afa158015611ab4573d6000803e3d6000fd5b505050506040513d601f19601f82011682018060405250810190611ad891906121ad565b6040517f3d00dfb90000000000000000000000000000000000000000000000000000000081526001600160a01b03858116600483015284811660248301529190911690633d00dfb99083906044016000604051808303818588803b158015611b3f57600080fd5b505af1158015611b53573d6000803e3d6000fd5b5050505050505050565b60007f00000000000000000000000000000000000000000000000000000000000000006001600160a01b031633148015611b98575060143610155b15611bc857507fffffffffffffffffffffffffffffffffffffffffffffffffffffffffffffffec36013560601c90565b503390565b600054760100000000000000000000000000000000000000000000900460ff16610a0c5760405162461bcd60e51b815260206004820152601460248201527f5061757361626c653a206e6f742070617573656400000000000000000000000060448201526064016106f1565b600081815b8451811015611c7e57611c6a82868381518110611c5d57611c5d61225c565b6020026020010151611c86565b915080611c768161214d565b915050611c3e565b509392505050565b6000818310611ca2576000828152602084905260409020611cb1565b60008381526020839052604090205b9392505050565b828054611cc4906121ca565b90600052602060002090601f016020900481019282611ce65760008555611d2c565b82601f10611cff57805160ff1916838001178555611d2c565b82800160010185558215611d2c579182015b82811115611d2c578251825591602001919060010190611d11565b50611d38929150611d3c565b5090565b5b80821115611d385760008155600101611d3d565b600060208284031215611d6357600080fd5b5035919050565b6001600160a01b0381168114610b4b57600080fd5b600060208284031215611d9157600080fd5b8135611cb181611d6a565b60008060408385031215611daf57600080fd5b8235611dba81611d6a565b915060208301358015158114611dcf57600080fd5b809150509250929050565b60008060208385031215611ded57600080fd5b823567ffffffffffffffff80821115611e0557600080fd5b818501915085601f830112611e1957600080fd5b813581811115611e2857600080fd5b866020828501011115611e3a57600080fd5b60209290920196919550909350505050565b60008083601f840112611e5e57600080fd5b50813567ffffffffffffffff811115611e7657600080fd5b6020830191508360208260051b8501011115611e9157600080fd5b9250929050565b60008060008060608587031215611eae57600080fd5b8435935060208501359250604085013567ffffffffffffffff811115611ed357600080fd5b611edf87828801611e4c565b95989497509550505050565b600080600080600060808688031215611f0357600080fd5b8535611f0e81611d6a565b945060208601359350604086013567ffffffffffffffff811115611f3157600080fd5b611f3d88828901611e4c565b9094509250506060860135611f5181611d6a565b809150509295509295909350565b7f4e487b7100000000000000000000000000000000000000000000000000000000600052604160045260246000fd5b600060208284031215611fa057600080fd5b813567ffffffffffffffff80821115611fb857600080fd5b818401915084601f830112611fcc57600080fd5b813581811115611fde57611fde611f5f565b604051601f82017fffffffffffffffffffffffffffffffffffffffffffffffffffffffffffffffe0908116603f0116810190838211818310171561202457612024611f5f565b8160405282815287602084870101111561203d57600080fd5b826020860160208301376000928101602001929092525095945050505050565b60008060006040848603121561207257600080fd5b833567ffffffffffffffff81111561208957600080fd5b61209586828701611e4c565b90945092505060208401356120a981611d6a565b809150509250925092565b60005b838110156120cf5781810151838201526020016120b7565b838111156113f55750506000910152565b600081518084526120f88160208601602086016120b4565b601f017fffffffffffffffffffffffffffffffffffffffffffffffffffffffffffffffe0169290920160200192915050565b602081526000611cb160208301846120e0565b8183823760009101908152919050565b60007fffffffffffffffffffffffffffffffffffffffffffffffffffffffffffffffff8214156121a6577f4e487b7100000000000000000000000000000000000000000000000000000000600052601160045260246000fd5b5060010190565b6000602082840312156121bf57600080fd5b8151611cb181611d6a565b600181811c908216806121de57607f821691505b60208210811415612218577f4e487b7100000000000000000000000000000000000000000000000000000000600052602260045260246000fd5b50919050565b600082516122308184602087016120b4565b9190910192915050565b60408152600061224d60408301856120e0565b90508260208301529392505050565b7f4e487b7100000000000000000000000000000000000000000000000000000000600052603260045260246000fdfea2646970667358221220b35548024584868bec3d8184d882e89616258c1e55e9dbd6eb397f90e271196f64736f6c63430008090033",
  "linkReferences": {},
  "deployedLinkReferences": {}
}