{
  "_format": "hh-sol-artifact-1",
  "contractName": "MockStargateRouter",
  "sourceName": "contracts/tests/MockStargateRouter.sol",
  "abi": [
    {
      "inputs": [
        {
          "internalType": "uint256",
          "name": "",
          "type": "uint256"
        }
      ],
      "name": "poolIdToToken",
      "outputs": [
        {
          "internalType": "address",
          "name": "",
          "type": "address"
        }
      ],
      "stateMutability": "view",
      "type": "function"
    },
    {
      "inputs": [
        {
          "internalType": "uint16",
          "name": "",
          "type": "uint16"
        },
        {
          "internalType": "uint8",
          "name": "",
          "type": "uint8"
        },
        {
          "internalType": "bytes",
          "name": "",
          "type": "bytes"
        },
        {
          "internalType": "bytes",
          "name": "",
          "type": "bytes"
        },
        {
          "components": [
            {
              "internalType": "uint256",
              "name": "dstGasForCall",
              "type": "uint256"
            },
            {
              "internalType": "uint256",
              "name": "dstNativeAmount",
              "type": "uint256"
            },
            {
              "internalType": "bytes",
              "name": "dstNativeAddr",
              "type": "bytes"
            }
          ],
          "internalType": "struct MockStargateRouter.lzTxObj",
          "name": "",
          "type": "tuple"
        }
      ],
      "name": "quoteLayerZeroFee",
      "outputs": [
        {
          "internalType": "uint256",
          "name": "nativeFee",
          "type": "uint256"
        },
        {
          "internalType": "uint256",
          "name": "",
          "type": "uint256"
        }
      ],
      "stateMutability": "pure",
      "type": "function"
    },
    {
      "inputs": [
        {
          "internalType": "uint256",
          "name": "_poolId",
          "type": "uint256"
        },
        {
          "internalType": "address",
          "name": "_token",
          "type": "address"
        }
      ],
      "name": "setPoolIdToToken",
      "outputs": [],
      "stateMutability": "nonpayable",
      "type": "function"
    },
    {
      "inputs": [
        {
          "internalType": "uint16",
          "name": "",
          "type": "uint16"
        },
        {
          "internalType": "uint256",
          "name": "",
          "type": "uint256"
        },
        {
          "internalType": "uint256",
          "name": "_dstPoolId",
          "type": "uint256"
        },
        {
          "internalType": "address payable",
          "name": "",
          "type": "address"
        },
        {
          "internalType": "uint256",
          "name": "_amountLD",
          "type": "uint256"
        },
        {
          "internalType": "uint256",
          "name": "_minAmountLD",
          "type": "uint256"
        },
        {
          "components": [
            {
              "internalType": "uint256",
              "name": "dstGasForCall",
              "type": "uint256"
            },
            {
              "internalType": "uint256",
              "name": "dstNativeAmount",
              "type": "uint256"
            },
            {
              "internalType": "bytes",
              "name": "dstNativeAddr",
              "type": "bytes"
            }
          ],
          "internalType": "struct MockStargateRouter.lzTxObj",
          "name": "",
          "type": "tuple"
        },
        {
          "internalType": "bytes",
          "name": "_to",
          "type": "bytes"
        },
        {
          "internalType": "bytes",
          "name": "",
          "type": "bytes"
        }
      ],
      "name": "swap",
      "outputs": [],
      "stateMutability": "payable",
      "type": "function"
    }
  ],
  "bytecode": "0x608060405234801561001057600080fd5b50610847806100206000396000f3fe60806040526004361061003f5760003560e01c80630a512369146100445780639fbf10fc14610090578063ae2e6670146100a5578063c9cc52d914610113575b600080fd5b34801561005057600080fd5b5061007661005f36600461058e565b67016345785d8a0000600097509795505050505050565b604080519283526020830191909152015b60405180910390f35b6100a361009e36600461067b565b61017b565b005b3480156100b157600080fd5b506100a36100c0366004610760565b60009182526020829052604090912080547fffffffffffffffffffffffff00000000000000000000000000000000000000001673ffffffffffffffffffffffffffffffffffffffff909216919091179055565b34801561011f57600080fd5b5061015661012e366004610790565b60006020819052908152604090205473ffffffffffffffffffffffffffffffffffffffff1681565b60405173ffffffffffffffffffffffffffffffffffffffff9091168152602001610087565b85871015610210576040517f08c379a000000000000000000000000000000000000000000000000000000000815260206004820152602a60248201527f4d6f636b5374617267617465526f757465723a20616d6f756e744c44203c206d60448201527f696e416d6f756e744c440000000000000000000000000000000000000000000060648201526084015b60405180910390fd5b6000610256600086868080601f01602080910402602001604051908101604052809392919081815260200183838082843760009201919091525092939250506103269050565b60008b815260208190526040908190205490517f23b872dd00000000000000000000000000000000000000000000000000000000815233600482015273ffffffffffffffffffffffffffffffffffffffff8084166024830152604482018c90529293509116906323b872dd90606401602060405180830381600087803b1580156102df57600080fd5b505af11580156102f3573d6000803e3d6000fd5b505050506040513d601f19601f8201168201806040525081019061031791906107a9565b50505050505050505050505050565b60006103338260146107d2565b8351101561039d576040517f08c379a000000000000000000000000000000000000000000000000000000000815260206004820152601560248201527f746f416464726573735f6f75744f66426f756e647300000000000000000000006044820152606401610207565b5001602001516c01000000000000000000000000900490565b803561ffff811681146103c857600080fd5b919050565b60008083601f8401126103df57600080fd5b50813567ffffffffffffffff8111156103f757600080fd5b60208301915083602082850101111561040f57600080fd5b9250929050565b7f4e487b7100000000000000000000000000000000000000000000000000000000600052604160045260246000fd5b6040516060810167ffffffffffffffff8111828210171561046857610468610416565b60405290565b604051601f82017fffffffffffffffffffffffffffffffffffffffffffffffffffffffffffffffe016810167ffffffffffffffff811182821017156104b5576104b5610416565b604052919050565b6000606082840312156104cf57600080fd5b6104d7610445565b90508135815260208083013581830152604083013567ffffffffffffffff8082111561050257600080fd5b818501915085601f83011261051657600080fd5b81358181111561052857610528610416565b610558847fffffffffffffffffffffffffffffffffffffffffffffffffffffffffffffffe0601f8401160161046e565b9150808252868482850101111561056e57600080fd5b808484018584013760008482840101525080604085015250505092915050565b600080600080600080600060a0888a0312156105a957600080fd5b6105b2886103b6565b9650602088013560ff811681146105c857600080fd5b9550604088013567ffffffffffffffff808211156105e557600080fd5b6105f18b838c016103cd565b909750955060608a013591508082111561060a57600080fd5b6106168b838c016103cd565b909550935060808a013591508082111561062f57600080fd5b5061063c8a828b016104bd565b91505092959891949750929550565b73ffffffffffffffffffffffffffffffffffffffff8116811461066d57600080fd5b50565b80356103c88161064b565b60008060008060008060008060008060006101208c8e03121561069d57600080fd5b6106a68c6103b6565b9a5060208c0135995060408c013598506106c260608d01610670565b975060808c0135965060a08c0135955067ffffffffffffffff8060c08e013511156106ec57600080fd5b6106fc8e60c08f01358f016104bd565b95508060e08e0135111561070f57600080fd5b61071f8e60e08f01358f016103cd565b90955093506101008d013581101561073657600080fd5b506107488d6101008e01358e016103cd565b81935080925050509295989b509295989b9093969950565b6000806040838503121561077357600080fd5b8235915060208301356107858161064b565b809150509250929050565b6000602082840312156107a257600080fd5b5035919050565b6000602082840312156107bb57600080fd5b815180151581146107cb57600080fd5b9392505050565b6000821982111561080c577f4e487b7100000000000000000000000000000000000000000000000000000000600052601160045260246000fd5b50019056fea2646970667358221220d76e39fe4029bf29849b186fe034a194e93c0e566cbddc1ce7071c7e249ecc0464736f6c63430008090033",
  "linkReferences": {},
  "deployedLinkReferences": {}
}