{
  "_format": "hh-sol-artifact-1",
  "contractName": "HGT",
  "sourceName": "contracts/layer0/HGT.sol",
  "abi": [
    {
      "inputs": [
        {
          "internalType": "address",
          "name": "_lzEndPoint",
          "type": "address"
        }
      ],
      "stateMutability": "nonpayable",
      "type": "constructor"
    },
    {
      "anonymous": false,
      "inputs": [
        {
          "indexed": false,
          "internalType": "uint256",
          "name": "amount",
          "type": "uint256"
        },
        {
          "indexed": false,
          "internalType": "uint256",
          "name": "time",
          "type": "uint256"
        }
      ],
      "name": "DepositFees",
      "type": "event"
    },
    {
      "anonymous": false,
      "inputs": [
        {
          "indexed": false,
          "internalType": "uint8",
          "name": "version",
          "type": "uint8"
        }
      ],
      "name": "Initialized",
      "type": "event"
    },
    {
      "anonymous": false,
      "inputs": [
        {
          "indexed": false,
          "internalType": "uint16",
          "name": "_srcChainId",
          "type": "uint16"
        },
        {
          "indexed": false,
          "internalType": "bytes",
          "name": "_srcAddress",
          "type": "bytes"
        },
        {
          "indexed": false,
          "internalType": "uint64",
          "name": "_nonce",
          "type": "uint64"
        },
        {
          "indexed": false,
          "internalType": "bytes",
          "name": "_payload",
          "type": "bytes"
        },
        {
          "indexed": false,
          "internalType": "bytes",
          "name": "_reason",
          "type": "bytes"
        }
      ],
      "name": "MessageFailed",
      "type": "event"
    },
    {
      "anonymous": false,
      "inputs": [
        {
          "indexed": true,
          "internalType": "address",
          "name": "previousOwner",
          "type": "address"
        },
        {
          "indexed": true,
          "internalType": "address",
          "name": "newOwner",
          "type": "address"
        }
      ],
      "name": "OwnershipTransferred",
      "type": "event"
    },
    {
      "anonymous": false,
      "inputs": [
        {
          "indexed": false,
          "internalType": "address",
          "name": "account",
          "type": "address"
        }
      ],
      "name": "Paused",
      "type": "event"
    },
    {
      "anonymous": false,
      "inputs": [
        {
          "indexed": true,
          "internalType": "uint16",
          "name": "_srcChainId",
          "type": "uint16"
        },
        {
          "indexed": true,
          "internalType": "address",
          "name": "_to",
          "type": "address"
        },
        {
          "indexed": false,
          "internalType": "uint256",
          "name": "_tokenIdx",
          "type": "uint256"
        },
        {
          "indexed": false,
          "internalType": "uint256",
          "name": "_amount",
          "type": "uint256"
        },
        {
          "indexed": false,
          "internalType": "bytes",
          "name": "_metadata",
          "type": "bytes"
        },
        {
          "indexed": false,
          "internalType": "uint256",
          "name": "_nonce",
          "type": "uint256"
        }
      ],
      "name": "ReceiveFromChain",
      "type": "event"
    },
    {
      "anonymous": false,
      "inputs": [
        {
          "indexed": false,
          "internalType": "uint16",
          "name": "_srcChainId",
          "type": "uint16"
        },
        {
          "indexed": false,
          "internalType": "bytes",
          "name": "_srcAddress",
          "type": "bytes"
        },
        {
          "indexed": false,
          "internalType": "uint64",
          "name": "_nonce",
          "type": "uint64"
        },
        {
          "indexed": false,
          "internalType": "bytes32",
          "name": "_payloadHash",
          "type": "bytes32"
        }
      ],
      "name": "RetryMessageSuccess",
      "type": "event"
    },
    {
      "anonymous": false,
      "inputs": [
        {
          "indexed": true,
          "internalType": "uint16",
          "name": "_dstChainId",
          "type": "uint16"
        },
        {
          "indexed": true,
          "internalType": "address",
          "name": "_from",
          "type": "address"
        },
        {
          "indexed": true,
          "internalType": "address",
          "name": "_toAddress",
          "type": "address"
        },
        {
          "indexed": false,
          "internalType": "uint256",
          "name": "_tokenIdx",
          "type": "uint256"
        },
        {
          "indexed": false,
          "internalType": "uint256",
          "name": "_amount",
          "type": "uint256"
        },
        {
          "indexed": false,
          "internalType": "uint256",
          "name": "_nonce",
          "type": "uint256"
        }
      ],
      "name": "SendToChain",
      "type": "event"
    },
    {
      "anonymous": false,
      "inputs": [
        {
          "indexed": false,
          "internalType": "uint16",
          "name": "_dstChainId",
          "type": "uint16"
        },
        {
          "indexed": false,
          "internalType": "uint16",
          "name": "_type",
          "type": "uint16"
        },
        {
          "indexed": false,
          "internalType": "uint256",
          "name": "_minDstGas",
          "type": "uint256"
        }
      ],
      "name": "SetMinDstGas",
      "type": "event"
    },
    {
      "anonymous": false,
      "inputs": [
        {
          "indexed": false,
          "internalType": "address",
          "name": "precrime",
          "type": "address"
        }
      ],
      "name": "SetPrecrime",
      "type": "event"
    },
    {
      "anonymous": false,
      "inputs": [
        {
          "indexed": false,
          "internalType": "uint16",
          "name": "_remoteChainId",
          "type": "uint16"
        },
        {
          "indexed": false,
          "internalType": "bytes",
          "name": "_path",
          "type": "bytes"
        }
      ],
      "name": "SetTrustedRemote",
      "type": "event"
    },
    {
      "anonymous": false,
      "inputs": [
        {
          "indexed": false,
          "internalType": "uint16",
          "name": "_remoteChainId",
          "type": "uint16"
        },
        {
          "indexed": false,
          "internalType": "bytes",
          "name": "_remoteAddress",
          "type": "bytes"
        }
      ],
      "name": "SetTrustedRemoteAddress",
      "type": "event"
    },
    {
      "anonymous": false,
      "inputs": [
        {
          "indexed": false,
          "internalType": "address",
          "name": "account",
          "type": "address"
        }
      ],
      "name": "Unpaused",
      "type": "event"
    },
    {
      "inputs": [],
      "name": "DEFAULT_PAYLOAD_SIZE_LIMIT",
      "outputs": [
        {
          "internalType": "uint256",
          "name": "",
          "type": "uint256"
        }
      ],
      "stateMutability": "view",
      "type": "function"
    },
    {
      "inputs": [],
      "name": "PT_SEND",
      "outputs": [
        {
          "internalType": "uint16",
          "name": "",
          "type": "uint16"
        }
      ],
      "stateMutability": "view",
      "type": "function"
    },
    {
      "inputs": [],
      "name": "SCALING_FACTOR",
      "outputs": [
        {
          "internalType": "uint256",
          "name": "",
          "type": "uint256"
        }
      ],
      "stateMutability": "view",
      "type": "function"
    },
    {
      "inputs": [],
      "name": "USDC_IDX",
      "outputs": [
        {
          "internalType": "uint256",
          "name": "",
          "type": "uint256"
        }
      ],
      "stateMutability": "view",
      "type": "function"
    },
    {
      "inputs": [
        {
          "internalType": "uint256",
          "name": "tokenIdx",
          "type": "uint256"
        }
      ],
      "name": "circulatingSupply",
      "outputs": [
        {
          "internalType": "uint256",
          "name": "",
          "type": "uint256"
        }
      ],
      "stateMutability": "view",
      "type": "function"
    },
    {
      "inputs": [
        {
          "components": [
            {
              "internalType": "uint16",
              "name": "dstChainId",
              "type": "uint16"
            },
            {
              "internalType": "uint16",
              "name": "secondHopChainId",
              "type": "uint16"
            },
            {
              "internalType": "uint256",
              "name": "dstPoolId",
              "type": "uint256"
            },
            {
              "internalType": "address",
              "name": "to",
              "type": "address"
            },
            {
              "internalType": "uint256",
              "name": "tokenIdx",
              "type": "uint256"
            },
            {
              "internalType": "uint256",
              "name": "amount",
              "type": "uint256"
            },
            {
              "internalType": "uint256",
              "name": "amountMin",
              "type": "uint256"
            },
            {
              "internalType": "address payable",
              "name": "refundAddress",
              "type": "address"
            },
            {
              "internalType": "address",
              "name": "zroPaymentAddress",
              "type": "address"
            },
            {
              "internalType": "bytes",
              "name": "adapterParams",
              "type": "bytes"
            }
          ],
          "internalType": "struct IHGT.WithdrawVars",
          "name": "vars",
          "type": "tuple"
        }
      ],
      "name": "estimateSendFee",
      "outputs": [
        {
          "internalType": "uint256",
          "name": "",
          "type": "uint256"
        },
        {
          "internalType": "uint256",
          "name": "",
          "type": "uint256"
        }
      ],
      "stateMutability": "view",
      "type": "function"
    },
    {
      "inputs": [
        {
          "internalType": "uint16",
          "name": "",
          "type": "uint16"
        },
        {
          "internalType": "bytes",
          "name": "",
          "type": "bytes"
        },
        {
          "internalType": "uint64",
          "name": "",
          "type": "uint64"
        }
      ],
      "name": "failedMessages",
      "outputs": [
        {
          "internalType": "bytes32",
          "name": "",
          "type": "bytes32"
        }
      ],
      "stateMutability": "view",
      "type": "function"
    },
    {
      "inputs": [
        {
          "internalType": "uint16",
          "name": "_srcChainId",
          "type": "uint16"
        },
        {
          "internalType": "bytes",
          "name": "_srcAddress",
          "type": "bytes"
        }
      ],
      "name": "forceResumeReceive",
      "outputs": [],
      "stateMutability": "nonpayable",
      "type": "function"
    },
    {
      "inputs": [
        {
          "internalType": "uint16",
          "name": "_version",
          "type": "uint16"
        },
        {
          "internalType": "uint16",
          "name": "_chainId",
          "type": "uint16"
        },
        {
          "internalType": "address",
          "name": "",
          "type": "address"
        },
        {
          "internalType": "uint256",
          "name": "_configType",
          "type": "uint256"
        }
      ],
      "name": "getConfig",
      "outputs": [
        {
          "internalType": "bytes",
          "name": "",
          "type": "bytes"
        }
      ],
      "stateMutability": "view",
      "type": "function"
    },
    {
      "inputs": [],
      "name": "getSupportedTokens",
      "outputs": [
        {
          "components": [
            {
              "internalType": "address",
              "name": "token",
              "type": "address"
            },
            {
              "internalType": "uint256",
              "name": "circulatingSupply",
              "type": "uint256"
            },
            {
              "internalType": "bool",
              "name": "isEnabledForMultiHop",
              "type": "bool"
            }
          ],
          "internalType": "struct HGT.SupportedToken[]",
          "name": "",
          "type": "tuple[]"
        }
      ],
      "stateMutability": "view",
      "type": "function"
    },
    {
      "inputs": [
        {
          "internalType": "uint16",
          "name": "_remoteChainId",
          "type": "uint16"
        }
      ],
      "name": "getTrustedRemoteAddress",
      "outputs": [
        {
          "internalType": "bytes",
          "name": "",
          "type": "bytes"
        }
      ],
      "stateMutability": "view",
      "type": "function"
    },
    {
      "inputs": [
        {
          "internalType": "address",
          "name": "_governance",
          "type": "address"
        },
        {
          "internalType": "address",
          "name": "_marginAccountHelper",
          "type": "address"
        }
      ],
      "name": "initialize",
      "outputs": [],
      "stateMutability": "nonpayable",
      "type": "function"
    },
    {
      "inputs": [
        {
          "internalType": "uint16",
          "name": "_srcChainId",
          "type": "uint16"
        },
        {
          "internalType": "bytes",
          "name": "_srcAddress",
          "type": "bytes"
        }
      ],
      "name": "isTrustedRemote",
      "outputs": [
        {
          "internalType": "bool",
          "name": "",
          "type": "bool"
        }
      ],
      "stateMutability": "view",
      "type": "function"
    },
    {
      "inputs": [],
      "name": "lzEndpoint",
      "outputs": [
        {
          "internalType": "contract ILayerZeroEndpoint",
          "name": "",
          "type": "address"
        }
      ],
      "stateMutability": "view",
      "type": "function"
    },
    {
      "inputs": [
        {
          "internalType": "uint16",
          "name": "_srcChainId",
          "type": "uint16"
        },
        {
          "internalType": "bytes",
          "name": "_srcAddress",
          "type": "bytes"
        },
        {
          "internalType": "uint64",
          "name": "_nonce",
          "type": "uint64"
        },
        {
          "internalType": "bytes",
          "name": "_payload",
          "type": "bytes"
        }
      ],
      "name": "lzReceive",
      "outputs": [],
      "stateMutability": "nonpayable",
      "type": "function"
    },
    {
      "inputs": [],
      "name": "marginAccount",
      "outputs": [
        {
          "internalType": "contract IMarginAccount",
          "name": "",
          "type": "address"
        }
      ],
      "stateMutability": "view",
      "type": "function"
    },
    {
      "inputs": [],
      "name": "marginAccountHelper",
      "outputs": [
        {
          "internalType": "contract IMarginAccountHelper",
          "name": "",
          "type": "address"
        }
      ],
      "stateMutability": "view",
      "type": "function"
    },
    {
      "inputs": [
        {
          "internalType": "uint16",
          "name": "",
          "type": "uint16"
        },
        {
          "internalType": "uint16",
          "name": "",
          "type": "uint16"
        }
      ],
      "name": "minDstGasLookup",
      "outputs": [
        {
          "internalType": "uint256",
          "name": "",
          "type": "uint256"
        }
      ],
      "stateMutability": "view",
      "type": "function"
    },
    {
      "inputs": [
        {
          "internalType": "uint16",
          "name": "_srcChainId",
          "type": "uint16"
        },
        {
          "internalType": "bytes",
          "name": "_srcAddress",
          "type": "bytes"
        },
        {
          "internalType": "uint64",
          "name": "_nonce",
          "type": "uint64"
        },
        {
          "internalType": "bytes",
          "name": "_payload",
          "type": "bytes"
        }
      ],
      "name": "nonblockingLzReceive",
      "outputs": [],
      "stateMutability": "nonpayable",
      "type": "function"
    },
    {
      "inputs": [],
      "name": "owner",
      "outputs": [
        {
          "internalType": "address",
          "name": "",
          "type": "address"
        }
      ],
      "stateMutability": "view",
      "type": "function"
    },
    {
      "inputs": [],
      "name": "pause",
      "outputs": [],
      "stateMutability": "nonpayable",
      "type": "function"
    },
    {
      "inputs": [],
      "name": "paused",
      "outputs": [
        {
          "internalType": "bool",
          "name": "",
          "type": "bool"
        }
      ],
      "stateMutability": "view",
      "type": "function"
    },
    {
      "inputs": [
        {
          "internalType": "uint16",
          "name": "",
          "type": "uint16"
        }
      ],
      "name": "payloadSizeLimitLookup",
      "outputs": [
        {
          "internalType": "uint256",
          "name": "",
          "type": "uint256"
        }
      ],
      "stateMutability": "view",
      "type": "function"
    },
    {
      "inputs": [],
      "name": "precrime",
      "outputs": [
        {
          "internalType": "address",
          "name": "",
          "type": "address"
        }
      ],
      "stateMutability": "view",
      "type": "function"
    },
    {
      "inputs": [],
      "name": "renounceOwnership",
      "outputs": [],
      "stateMutability": "nonpayable",
      "type": "function"
    },
    {
      "inputs": [
        {
          "internalType": "uint16",
          "name": "_srcChainId",
          "type": "uint16"
        },
        {
          "internalType": "bytes",
          "name": "_srcAddress",
          "type": "bytes"
        },
        {
          "internalType": "uint64",
          "name": "_nonce",
          "type": "uint64"
        },
        {
          "internalType": "bytes",
          "name": "_payload",
          "type": "bytes"
        }
      ],
      "name": "retryMessage",
      "outputs": [],
      "stateMutability": "payable",
      "type": "function"
    },
    {
      "inputs": [
        {
          "internalType": "uint16",
          "name": "_version",
          "type": "uint16"
        },
        {
          "internalType": "uint16",
          "name": "_chainId",
          "type": "uint16"
        },
        {
          "internalType": "uint256",
          "name": "_configType",
          "type": "uint256"
        },
        {
          "internalType": "bytes",
          "name": "_config",
          "type": "bytes"
        }
      ],
      "name": "setConfig",
      "outputs": [],
      "stateMutability": "nonpayable",
      "type": "function"
    },
    {
      "inputs": [
        {
          "internalType": "address",
          "name": "_marginAccountHelper",
          "type": "address"
        }
      ],
      "name": "setMarginAccountHelper",
      "outputs": [],
      "stateMutability": "nonpayable",
      "type": "function"
    },
    {
      "inputs": [
        {
          "internalType": "uint16",
          "name": "_dstChainId",
          "type": "uint16"
        },
        {
          "internalType": "uint16",
          "name": "_packetType",
          "type": "uint16"
        },
        {
          "internalType": "uint256",
          "name": "_minGas",
          "type": "uint256"
        }
      ],
      "name": "setMinDstGas",
      "outputs": [],
      "stateMutability": "nonpayable",
      "type": "function"
    },
    {
      "inputs": [
        {
          "internalType": "uint16",
          "name": "_dstChainId",
          "type": "uint16"
        },
        {
          "internalType": "uint256",
          "name": "_size",
          "type": "uint256"
        }
      ],
      "name": "setPayloadSizeLimit",
      "outputs": [],
      "stateMutability": "nonpayable",
      "type": "function"
    },
    {
      "inputs": [
        {
          "internalType": "address",
          "name": "_precrime",
          "type": "address"
        }
      ],
      "name": "setPrecrime",
      "outputs": [],
      "stateMutability": "nonpayable",
      "type": "function"
    },
    {
      "inputs": [
        {
          "internalType": "uint16",
          "name": "_version",
          "type": "uint16"
        }
      ],
      "name": "setReceiveVersion",
      "outputs": [],
      "stateMutability": "nonpayable",
      "type": "function"
    },
    {
      "inputs": [
        {
          "internalType": "uint16",
          "name": "_version",
          "type": "uint16"
        }
      ],
      "name": "setSendVersion",
      "outputs": [],
      "stateMutability": "nonpayable",
      "type": "function"
    },
    {
      "inputs": [
        {
          "internalType": "uint16",
          "name": "_remoteChainId",
          "type": "uint16"
        },
        {
          "internalType": "bytes",
          "name": "_path",
          "type": "bytes"
        }
      ],
      "name": "setTrustedRemote",
      "outputs": [],
      "stateMutability": "nonpayable",
      "type": "function"
    },
    {
      "inputs": [
        {
          "internalType": "uint16",
          "name": "_remoteChainId",
          "type": "uint16"
        },
        {
          "internalType": "bytes",
          "name": "_remoteAddress",
          "type": "bytes"
        }
      ],
      "name": "setTrustedRemoteAddress",
      "outputs": [],
      "stateMutability": "nonpayable",
      "type": "function"
    },
    {
      "inputs": [
        {
          "internalType": "uint256",
          "name": "",
          "type": "uint256"
        }
      ],
      "name": "supportedTokens",
      "outputs": [
        {
          "internalType": "address",
          "name": "token",
          "type": "address"
        },
        {
          "internalType": "uint256",
          "name": "circulatingSupply",
          "type": "uint256"
        },
        {
          "internalType": "bool",
          "name": "isEnabledForMultiHop",
          "type": "bool"
        }
      ],
      "stateMutability": "view",
      "type": "function"
    },
    {
      "inputs": [
        {
          "internalType": "address",
          "name": "newOwner",
          "type": "address"
        }
      ],
      "name": "transferOwnership",
      "outputs": [],
      "stateMutability": "nonpayable",
      "type": "function"
    },
    {
      "inputs": [
        {
          "internalType": "uint16",
          "name": "",
          "type": "uint16"
        }
      ],
      "name": "trustedRemoteLookup",
      "outputs": [
        {
          "internalType": "bytes",
          "name": "",
          "type": "bytes"
        }
      ],
      "stateMutability": "view",
      "type": "function"
    },
    {
      "inputs": [],
      "name": "unpause",
      "outputs": [],
      "stateMutability": "nonpayable",
      "type": "function"
    },
    {
      "inputs": [
        {
          "components": [
            {
              "internalType": "uint16",
              "name": "dstChainId",
              "type": "uint16"
            },
            {
              "internalType": "uint16",
              "name": "secondHopChainId",
              "type": "uint16"
            },
            {
              "internalType": "uint256",
              "name": "dstPoolId",
              "type": "uint256"
            },
            {
              "internalType": "address",
              "name": "to",
              "type": "address"
            },
            {
              "internalType": "uint256",
              "name": "tokenIdx",
              "type": "uint256"
            },
            {
              "internalType": "uint256",
              "name": "amount",
              "type": "uint256"
            },
            {
              "internalType": "uint256",
              "name": "amountMin",
              "type": "uint256"
            },
            {
              "internalType": "address payable",
              "name": "refundAddress",
              "type": "address"
            },
            {
              "internalType": "address",
              "name": "zroPaymentAddress",
              "type": "address"
            },
            {
              "internalType": "bytes",
              "name": "adapterParams",
              "type": "bytes"
            }
          ],
          "internalType": "struct IHGT.WithdrawVars",
          "name": "vars",
          "type": "tuple"
        }
      ],
      "name": "withdraw",
      "outputs": [],
      "stateMutability": "payable",
      "type": "function"
    },
    {
      "stateMutability": "payable",
      "type": "receive"
    }
  ],
  "bytecode": "0x60a06040523480156200001157600080fd5b50604051620041e9380380620041e98339810160408190526200003491620000bf565b6000805462ff00001916905580806200004d3362000062565b6001600160a01b031660805250620000f19050565b600080546001600160a01b0383811663010000008181026301000000600160b81b0319851617855560405193049190911692909183917f8be0079c531659141344cd1fd0a4f28419497f9722a3daafe3b4186f6b6457e091a35050565b600060208284031215620000d257600080fd5b81516001600160a01b0381168114620000ea57600080fd5b9392505050565b60805161409d6200014c600039600081816106e4015281816108a901528181610b2801528181610be901528181610d36015281816114350152818161191c01528181611e55015281816122b30152612b37015261409d6000f3fe6080604052600436106102be5760003560e01c80638cfd8f5c1161016e578063cbed8b9c116100cb578063eb8d72b71161007f578063f2fde38b11610064578063f2fde38b14610846578063f5ecbdbc14610866578063f742269d1461088657600080fd5b8063eb8d72b71461080d578063ef4cadc51461082d57600080fd5b8063d1deba1f116100b0578063d1deba1f146107b8578063d3c7c2c7146107cb578063df2a5b3b146107ed57600080fd5b8063cbed8b9c14610783578063ce390a02146107a357600080fd5b8063a6c3d16511610122578063baf3292d11610107578063baf3292d14610706578063c446183414610726578063c62556261461073c57600080fd5b8063a6c3d165146106b2578063b353aaa7146106d257600080fd5b806392ff6aea1161015357806392ff6aea14610652578063950c8a74146106725780639f38369a1461069257600080fd5b80638cfd8f5c146105f55780638da5cb5b1461062d57600080fd5b80634c42899a1161021c5780636fe6194f116101d05780637533d788116101b55780637533d788146105935780637c965aa8146105c05780638456cb59146105e057600080fd5b80636fe6194f14610549578063715018a61461057e57600080fd5b80635c975abb116102015780635c975abb146104f8578063660927f01461051657806366ad5c8a1461052957600080fd5b80634c42899a146104815780635b8c41e6146104a957600080fd5b80633f1f4fa41161027357806342d65a8d1161025857806342d65a8d14610409578063485cc9551461042957806348d034b61461044957600080fd5b80633f1f4fa4146103b95780633f4ba83a146103f457600080fd5b80630df37483116102a45780630df374831461034457806310ddb137146103645780633d8b38f61461038457600080fd5b80621d35671461030257806307e0db171461032457600080fd5b366102fd57604080513481524260208201527f0e6608340e1319136f30ba4a1093ddeb55ebbb34a441f94358c25d510e77e529910160405180910390a1005b600080fd5b34801561030e57600080fd5b5061032261031d36600461348e565b6108a6565b005b34801561033057600080fd5b5061032261033f366004613525565b610aee565b34801561035057600080fd5b5061032261035f366004613542565b610b90565b34801561037057600080fd5b5061032261037f366004613525565b610baf565b34801561039057600080fd5b506103a461039f36600461356e565b610c20565b60405190151581526020015b60405180910390f35b3480156103c557600080fd5b506103e66103d4366004613525565b60036020526000908152604090205481565b6040519081526020016103b0565b34801561040057600080fd5b50610322610cec565b34801561041557600080fd5b5061032261042436600461356e565b610cfe565b34801561043557600080fd5b506103226104443660046135e3565b610d9d565b34801561045557600080fd5b50600654610469906001600160a01b031681565b6040516001600160a01b0390911681526020016103b0565b34801561048d57600080fd5b50610496600181565b60405161ffff90911681526020016103b0565b3480156104b557600080fd5b506103e66104c4366004613724565b6005602090815260009384526040808520845180860184018051928152908401958401959095209452929052825290205481565b34801561050457600080fd5b5060005462010000900460ff166103a4565b610322610524366004613788565b6110e9565b34801561053557600080fd5b5061032261054436600461348e565b61133d565b34801561055557600080fd5b50610569610564366004613788565b611430565b604080519283526020830191909152016103b0565b34801561058a57600080fd5b50610322611567565b34801561059f57600080fd5b506105b36105ae366004613525565b611579565b6040516103b091906138d0565b3480156105cc57600080fd5b506103226105db3660046138e3565b611613565b3480156105ec57600080fd5b50610322611655565b34801561060157600080fd5b506103e6610610366004613900565b600260209081526000928352604080842090915290825290205481565b34801561063957600080fd5b50600054630100000090046001600160a01b0316610469565b34801561065e57600080fd5b506103e661066d36600461392e565b611665565b34801561067e57600080fd5b50600454610469906001600160a01b031681565b34801561069e57600080fd5b506105b36106ad366004613525565b611693565b3480156106be57600080fd5b506103226106cd36600461356e565b6117aa565b3480156106de57600080fd5b506104697f000000000000000000000000000000000000000000000000000000000000000081565b34801561071257600080fd5b506103226107213660046138e3565b611830565b34801561073257600080fd5b506103e661271081565b34801561074857600080fd5b5061075c61075736600461392e565b6118a4565b604080516001600160a01b03909416845260208401929092521515908201526060016103b0565b34801561078f57600080fd5b5061032261079e366004613947565b6118e4565b3480156107af57600080fd5b506103e6600081565b6103226107c636600461348e565b611992565b3480156107d757600080fd5b506107e0611be0565b6040516103b091906139ba565b3480156107f957600080fd5b50610322610808366004613a1e565b611c67565b34801561081957600080fd5b5061032261082836600461356e565b611d21565b34801561083957600080fd5b506103e664e8d4a5100081565b34801561085257600080fd5b506103226108613660046138e3565b611d7b565b34801561087257600080fd5b506105b3610881366004613a5f565b611e0b565b34801561089257600080fd5b50600754610469906001600160a01b031681565b337f00000000000000000000000000000000000000000000000000000000000000006001600160a01b0316146109235760405162461bcd60e51b815260206004820152601e60248201527f4c7a4170703a20696e76616c696420656e64706f696e742063616c6c6572000060448201526064015b60405180910390fd5b61ffff86166000908152600160205260408120805461094190613ab0565b80601f016020809104026020016040519081016040528092919081815260200182805461096d90613ab0565b80156109ba5780601f1061098f576101008083540402835291602001916109ba565b820191906000526020600020905b81548152906001019060200180831161099d57829003601f168201915b505050505090508051868690501480156109d5575060008151115b80156109fd5750805160208201206040516109f39088908890613b04565b6040518091039020145b610a6f5760405162461bcd60e51b815260206004820152602660248201527f4c7a4170703a20696e76616c696420736f757263652073656e64696e6720636f60448201527f6e74726163740000000000000000000000000000000000000000000000000000606482015260840161091a565b610ae58787878080601f01602080910402602001604051908101604052809392919081815260200183838082843760009201919091525050604080516020601f8a018190048102820181019092528881528a935091508890889081908401838280828437600092019190915250611ee692505050565b50505050505050565b610af6611f8c565b6040517f07e0db1700000000000000000000000000000000000000000000000000000000815261ffff821660048201527f00000000000000000000000000000000000000000000000000000000000000006001600160a01b0316906307e0db17906024015b600060405180830381600087803b158015610b7557600080fd5b505af1158015610b89573d6000803e3d6000fd5b5050505050565b610b98611f8c565b61ffff909116600090815260036020526040902055565b610bb7611f8c565b6040517f10ddb13700000000000000000000000000000000000000000000000000000000815261ffff821660048201527f00000000000000000000000000000000000000000000000000000000000000006001600160a01b0316906310ddb13790602401610b5b565b61ffff831660009081526001602052604081208054829190610c4190613ab0565b80601f0160208091040260200160405190810160405280929190818152602001828054610c6d90613ab0565b8015610cba5780601f10610c8f57610100808354040283529160200191610cba565b820191906000526020600020905b815481529060010190602001808311610c9d57829003601f168201915b505050505090508383604051610cd1929190613b04565b60405180910390208180519060200120149150509392505050565b610cf4611f8c565b610cfc611fee565b565b610d06611f8c565b6040517f42d65a8d0000000000000000000000000000000000000000000000000000000081526001600160a01b037f000000000000000000000000000000000000000000000000000000000000000016906342d65a8d90610d6f90869086908690600401613b3f565b600060405180830381600087803b158015610d8957600080fd5b505af1158015610ae5573d6000803e3d6000fd5b600054610100900460ff1615808015610dbd5750600054600160ff909116105b80610dd75750303b158015610dd7575060005460ff166001145b610e495760405162461bcd60e51b815260206004820152602e60248201527f496e697469616c697a61626c653a20636f6e747261637420697320616c72656160448201527f647920696e697469616c697a6564000000000000000000000000000000000000606482015260840161091a565b600080547fffffffffffffffffffffffffffffffffffffffffffffffffffffffffffffff001660011790558015610ea757600080547fffffffffffffffffffffffffffffffffffffffffffffffffffffffffffff00ff166101001790555b610eb08361205e565b600680547fffffffffffffffffffffffff0000000000000000000000000000000000000000166001600160a01b038416908117909155604080517ff742269d000000000000000000000000000000000000000000000000000000008152905163f742269d91600480820192602092909190829003018186803b158015610f3557600080fd5b505afa158015610f49573d6000803e3d6000fd5b505050506040513d601f19601f82011682018060405250810190610f6d9190613b5d565b600780547fffffffffffffffffffffffff00000000000000000000000000000000000000009081166001600160a01b039384161790915560408051606081018252600080825260208201818152600193830184815260088054958601815590925291517ff3f7a9fe364faab93b216da50a3214154f22a0a2b415b23a84c8169e8b636ee36003909402938401805490951695169490941790925590517ff3f7a9fe364faab93b216da50a3214154f22a0a2b415b23a84c8169e8b636ee482015590517ff3f7a9fe364faab93b216da50a3214154f22a0a2b415b23a84c8169e8b636ee590910180547fffffffffffffffffffffffffffffffffffffffffffffffffffffffffffffff001691151591909117905580156110e457600080547fffffffffffffffffffffffffffffffffffffffffffffffffffffffffffff00ff169055604051600181527f7f26b83ff96e1f2b6a682f133852f6798a09c465da95921460cefb3847402498906020015b60405180910390a15b505050565b6110f16120d0565b602081015161ffff161561117957600881608001518154811061111657611116613b7a565b600091825260209091206002600390920201015460ff166111795760405162461bcd60e51b815260206004820152601b60248201527f4847543a206e6f7420616c6c6f77656420666f72203220686f70730000000000604482015260640161091a565b60a08101513490801580159061119b575060608301516001600160a01b031615155b61120d5760405162461bcd60e51b815260206004820152602860248201527f4847543a20496e73756666696369656e7420616d6f756e74206f7220696e766160448201527f6c69642075736572000000000000000000000000000000000000000000000000606482015260840161091a565b60808301516112b1578082101561128c5760405162461bcd60e51b815260206004820152602a60248201527f4847543a20496e73756666696369656e74206e617469766520746f6b656e207460448201527f72616e7366657272656400000000000000000000000000000000000000000000606482015260840161091a565b6112968183613bd8565b91506112a764e8d4a5100082613bef565b60a08401526112f4565b600060088460800151815481106112ca576112ca613b7a565b60009182526020909120600390910201546001600160a01b031690506112f281333085612129565b505b80600884608001518154811061130c5761130c613b7a565b9060005260206000209060030201600101600082825461132c9190613bd8565b909155506110e490503384846121e0565b3330146113b25760405162461bcd60e51b815260206004820152602660248201527f4e6f6e626c6f636b696e674c7a4170703a2063616c6c6572206d75737420626560448201527f204c7a4170700000000000000000000000000000000000000000000000000000606482015260840161091a565b6114288686868080601f01602080910402602001604051908101604052809392919081815260200183838082843760009201919091525050604080516020601f8901819004810282018101909252878152899350915087908790819084018382808284376000920191909152506123bc92505050565b505050505050565b6000807f00000000000000000000000000000000000000000000000000000000000000006001600160a01b03166340a7bb108460000151306114e78760608181015160808084015160a08086015160208088015160c0808a015160409a8b01518b516001958101959095526001600160a01b03909916848c0152988301959095529481019190915261ffff9093169083015281019290925260e0808301919091528251808303909101815261010090910190915290565b60008861012001516040518663ffffffff1660e01b815260040161150f959493929190613c2a565b604080518083038186803b15801561152657600080fd5b505afa15801561153a573d6000803e3d6000fd5b505050506040513d601f19601f8201168201806040525081019061155e9190613c7c565b91509150915091565b61156f611f8c565b610cfc600061205e565b6001602052600090815260409020805461159290613ab0565b80601f01602080910402602001604051908101604052809291908181526020018280546115be90613ab0565b801561160b5780601f106115e05761010080835404028352916020019161160b565b820191906000526020600020905b8154815290600101906020018083116115ee57829003601f168201915b505050505081565b61161b611f8c565b600680547fffffffffffffffffffffffff0000000000000000000000000000000000000000166001600160a01b0392909216919091179055565b61165d611f8c565b610cfc6125f8565b60006008828154811061167a5761167a613b7a565b9060005260206000209060030201600101549050919050565b61ffff81166000908152600160205260408120805460609291906116b690613ab0565b80601f01602080910402602001604051908101604052809291908181526020018280546116e290613ab0565b801561172f5780601f106117045761010080835404028352916020019161172f565b820191906000526020600020905b81548152906001019060200180831161171257829003601f168201915b505050505090508051600014156117885760405162461bcd60e51b815260206004820152601d60248201527f4c7a4170703a206e6f20747275737465642070617468207265636f7264000000604482015260640161091a565b6117a360006014835161179b9190613bd8565b839190612655565b9392505050565b6117b2611f8c565b8181306040516020016117c793929190613ca0565b60408051601f1981840301815291815261ffff851660009081526001602090815291902082516117fc939192909101906132e4565b507f8c0400cfe2d1199b1a725c78960bcc2a344d869b80590d0f2bd005db15a572ce8383836040516110db93929190613b3f565b611838611f8c565b600480547fffffffffffffffffffffffff0000000000000000000000000000000000000000166001600160a01b0383169081179091556040519081527f5db758e995a17ec1ad84bdef7e8c3293a0bd6179bcce400dff5d4c3d87db726b9060200160405180910390a150565b600881815481106118b457600080fd5b60009182526020909120600390910201805460018201546002909201546001600160a01b03909116925060ff1683565b6118ec611f8c565b6040517fcbed8b9c0000000000000000000000000000000000000000000000000000000081526001600160a01b037f0000000000000000000000000000000000000000000000000000000000000000169063cbed8b9c906119599088908890889088908890600401613cd9565b600060405180830381600087803b15801561197357600080fd5b505af1158015611987573d6000803e3d6000fd5b505050505050505050565b61ffff861660009081526005602052604080822090516119b59088908890613b04565b908152604080516020928190038301902067ffffffffffffffff871660009081529252902054905080611a505760405162461bcd60e51b815260206004820152602360248201527f4e6f6e626c6f636b696e674c7a4170703a206e6f2073746f726564206d65737360448201527f6167650000000000000000000000000000000000000000000000000000000000606482015260840161091a565b808383604051611a61929190613b04565b604051809103902014611adc5760405162461bcd60e51b815260206004820152602160248201527f4e6f6e626c6f636b696e674c7a4170703a20696e76616c6964207061796c6f6160448201527f6400000000000000000000000000000000000000000000000000000000000000606482015260840161091a565b61ffff87166000908152600560205260408082209051611aff9089908990613b04565b908152604080516020928190038301812067ffffffffffffffff8916600090815290845282902093909355601f88018290048202830182019052868252611b98918991899089908190840183828082843760009201919091525050604080516020601f8a018190048102820181019092528881528a9350915088908890819084018382808284376000920191909152506123bc92505050565b7fc264d91f3adc5588250e1551f547752ca0cfa8f6b530d243b9f9f4cab10ea8e58787878785604051611bcf959493929190613d07565b60405180910390a150505050505050565b60606008805480602002602001604051908101604052809291908181526020016000905b82821015611c5e576000848152602090819020604080516060810182526003860290920180546001600160a01b031683526001808201548486015260029091015460ff161515918301919091529083529092019101611c04565b50505050905090565b611c6f611f8c565b60008111611cbf5760405162461bcd60e51b815260206004820152601560248201527f4c7a4170703a20696e76616c6964206d696e4761730000000000000000000000604482015260640161091a565b61ffff83811660008181526002602090815260408083209487168084529482529182902085905581519283528201929092529081018290527f9d5c7c0b934da8fefa9c7760c98383778a12dfbfc0c3b3106518f43fb9508ac0906060016110db565b611d29611f8c565b61ffff83166000908152600160205260409020611d47908383613368565b507ffa41487ad5d6728f0b19276fa1eddc16558578f5109fc39d2dc33c3230470dab8383836040516110db93929190613b3f565b611d83611f8c565b6001600160a01b038116611dff5760405162461bcd60e51b815260206004820152602660248201527f4f776e61626c653a206e6577206f776e657220697320746865207a65726f206160448201527f6464726573730000000000000000000000000000000000000000000000000000606482015260840161091a565b611e088161205e565b50565b6040517ff5ecbdbc00000000000000000000000000000000000000000000000000000000815261ffff808616600483015284166024820152306044820152606481018290526060907f00000000000000000000000000000000000000000000000000000000000000006001600160a01b03169063f5ecbdbc9060840160006040518083038186803b158015611e9f57600080fd5b505afa158015611eb3573d6000803e3d6000fd5b505050506040513d6000823e601f3d908101601f19168201604052611edb9190810190613d88565b90505b949350505050565b600080611f765a60966366ad5c8a60e01b89898989604051602401611f0e9493929190613dbd565b60408051601f198184030181529190526020810180517bffffffffffffffffffffffffffffffffffffffffffffffffffffffff167fffffffff00000000000000000000000000000000000000000000000000000000909316929092179091523092919061277d565b9150915081611428576114288686868685612808565b6000546001600160a01b036301000000909104163314610cfc5760405162461bcd60e51b815260206004820181905260248201527f4f776e61626c653a2063616c6c6572206973206e6f7420746865206f776e6572604482015260640161091a565b611ff66128a6565b600080547fffffffffffffffffffffffffffffffffffffffffffffffffffffffffff00ffff1690557f5db9ee0a495bf2e6ff9c91a7834c1ba4fdd244a5e8aa4e537bd38aeae4b073aa335b6040516001600160a01b03909116815260200160405180910390a1565b600080546001600160a01b0383811663010000008181027fffffffffffffffffff0000000000000000000000000000000000000000ffffff851617855560405193049190911692909183917f8be0079c531659141344cd1fd0a4f28419497f9722a3daafe3b4186f6b6457e091a35050565b60005462010000900460ff1615610cfc5760405162461bcd60e51b815260206004820152601060248201527f5061757361626c653a2070617573656400000000000000000000000000000000604482015260640161091a565b6040516001600160a01b03808516602483015283166044820152606481018290526121da9085907f23b872dd00000000000000000000000000000000000000000000000000000000906084015b60408051601f198184030181529190526020810180517bffffffffffffffffffffffffffffffffffffffffffffffffffffffff167fffffffff00000000000000000000000000000000000000000000000000000000909316929092179091526128fe565b50505050565b815160608084015160808086015160a0808801516020808a015160c0808c01516040808e015181516001968101969096526001600160a01b03909a1685820152998401969096529582019290925261ffff909116918101919091529182015260e080820192909252825180820390920182526101000190915261227591908460e00151856101000151866101200151866129e6565b81516040517f7a14574800000000000000000000000000000000000000000000000000000000815261ffff90911660048201523060248201526000907f00000000000000000000000000000000000000000000000000000000000000006001600160a01b031690637a1457489060440160206040518083038186803b1580156122fd57600080fd5b505afa158015612311573d6000803e3d6000fd5b505050506040513d601f19601f820116820180604052508101906123359190613dfc565b905082606001516001600160a01b0316846001600160a01b0316846000015161ffff167f670e0cae28a6db52039273e81ee4491c5d273f5edb741441b8fa26cdeae111a886608001518760a00151866040516123ae93929190928352602083019190915267ffffffffffffffff16604082015260600190565b60405180910390a450505050565b6000806000806000858060200190518101906123d89190613e19565b94509450945094509450816000141580156123fb57506001600160a01b03841615155b61246d5760405162461bcd60e51b815260206004820152602860248201527f4847543a20496e73756666696369656e7420616d6f756e74206f7220696e766160448201527f6c69642075736572000000000000000000000000000000000000000000000000606482015260840161091a565b60085483106124be5760405162461bcd60e51b815260206004820152601860248201527f4847543a20496e76616c696420746f6b656e20696e6465780000000000000000604482015260640161091a565b61ffff85166001146125125760405162461bcd60e51b815260206004820152601c60248201527f484754436f72653a20756e6b6e6f776e207061636b6574207479706500000000604482015260640161091a565b82612547576000808280602001905181019061252e9190613ea2565b9150915061253e86858484612bb3565b505050506125a1565b8051156125965760405162461bcd60e51b815260206004820152601560248201527f4847543a20496e76616c6964206d657461646174610000000000000000000000604482015260640161091a565b6125a1848385612e40565b836001600160a01b03168961ffff167f0a8ef1ce5882fad3b876003374d65eda9066f880b66f65acb944b0d89e7ecd478585858c6040516125e59493929190613ece565b60405180910390a3505050505050505050565b6126006120d0565b600080547fffffffffffffffffffffffffffffffffffffffffffffffffffffffffff00ffff16620100001790557f62e78cea01bee320cd4e420270b5ea74000d11b0c9f74754ebdbfc544b05a2586120413390565b60608161266381601f613f08565b10156126b15760405162461bcd60e51b815260206004820152600e60248201527f736c6963655f6f766572666c6f77000000000000000000000000000000000000604482015260640161091a565b6126bb8284613f08565b8451101561270b5760405162461bcd60e51b815260206004820152601160248201527f736c6963655f6f75744f66426f756e6473000000000000000000000000000000604482015260640161091a565b60608215801561272a5760405191506000825260208201604052612774565b6040519150601f8416801560200281840101858101878315602002848b0101015b8183101561276357805183526020928301920161274b565b5050858452601f01601f1916604052505b50949350505050565b6000606060008060008661ffff1667ffffffffffffffff8111156127a3576127a361361c565b6040519080825280601f01601f1916602001820160405280156127cd576020820181803683370190505b50905060008087516020890160008d8df191503d9250868311156127ef578692505b828152826000602083013e909890975095505050505050565b8180519060200120600560008761ffff1661ffff168152602001908152602001600020856040516128399190613f20565b90815260408051918290036020908101832067ffffffffffffffff88166000908152915220919091557fe183f33de2837795525b4792ca4cd60535bd77c53b7e7030060bfcf5734d6b0c906128979087908790879087908790613f3c565b60405180910390a15050505050565b60005462010000900460ff16610cfc5760405162461bcd60e51b815260206004820152601460248201527f5061757361626c653a206e6f7420706175736564000000000000000000000000604482015260640161091a565b6000612953826040518060400160405280602081526020017f5361666545524332303a206c6f772d6c6576656c2063616c6c206661696c6564815250856001600160a01b0316612f7d9092919063ffffffff16565b90508051600014806129745750808060200190518101906129749190613f8f565b6110e45760405162461bcd60e51b815260206004820152602a60248201527f5361666545524332303a204552433230206f7065726174696f6e20646964206e60448201527f6f74207375636365656400000000000000000000000000000000000000000000606482015260840161091a565b61ffff861660009081526001602052604081208054612a0490613ab0565b80601f0160208091040260200160405190810160405280929190818152602001828054612a3090613ab0565b8015612a7d5780601f10612a5257610100808354040283529160200191612a7d565b820191906000526020600020905b815481529060010190602001808311612a6057829003601f168201915b50505050509050805160001415612afc5760405162461bcd60e51b815260206004820152603060248201527f4c7a4170703a2064657374696e6174696f6e20636861696e206973206e6f742060448201527f61207472757374656420736f7572636500000000000000000000000000000000606482015260840161091a565b612b07878751612f8c565b6040517fc58031000000000000000000000000000000000000000000000000000000000081526001600160a01b037f0000000000000000000000000000000000000000000000000000000000000000169063c5803100908490612b78908b9086908c908c908c908c90600401613faa565b6000604051808303818588803b158015612b9157600080fd5b505af1158015612ba5573d6000803e3d6000fd5b505050505050505050505050565b600080612bbe6120d0565b612bcd64e8d4a5100086614011565b6008600081548110612be157612be1613b7a565b90600052602060002090600302016001016000828254612c019190613f08565b90915550508315612cf457612c168486613bd8565b9450612c2764e8d4a5100085614011565b93506000866001600160a01b03168560405160006040518083038185875af1925050503d8060008114612c76576040519150601f19603f3d011682016040523d82523d6000602084013e612c7b565b606091505b5050905080612cf25760405162461bcd60e51b815260206004820152602260248201527f4847543a206661696c656420746f2061697264726f702067617320746f20757360448201527f6572000000000000000000000000000000000000000000000000000000000000606482015260840161091a565b505b8415612e34578215612d9c576006546001600160a01b03166393348606612d2064e8d4a5100088614011565b6040517fffffffff0000000000000000000000000000000000000000000000000000000060e084901b168152600481018990526001600160a01b038a1660248201526044016000604051808303818588803b158015612d7e57600080fd5b505af1158015612d92573d6000803e3d6000fd5b5050505050612e34565b6006546001600160a01b03166363207e28612dbc64e8d4a5100088614011565b6040517fffffffff0000000000000000000000000000000000000000000000000000000060e084901b168152600481018990526001600160a01b038a1660248201526044016000604051808303818588803b158015612e1a57600080fd5b505af1158015612e2e573d6000803e3d6000fd5b50505050505b50929491935090915050565b8160088281548110612e5457612e54613b7a565b90600052602060002090600302016001016000828254612e749190613f08565b90915550506007546040517f55a8961700000000000000000000000000000000000000000000000000000000815260048101839052612f24916001600160a01b031690849082906355a896179060240160206040518083038186803b158015612edc57600080fd5b505afa158015612ef0573d6000803e3d6000fd5b505050506040513d601f19601f82011682018060405250810190612f149190613b5d565b6001600160a01b03169190612ffa565b6007546040517f6141cc1c00000000000000000000000000000000000000000000000000000000815260048101839052602481018490526001600160a01b03858116604483015290911690636141cc1c90606401610d6f565b6060611ede8484600085613157565b61ffff821660009081526003602052604090205480612faa57506127105b808211156110e45760405162461bcd60e51b815260206004820181905260248201527f4c7a4170703a207061796c6f61642073697a6520697320746f6f206c61726765604482015260640161091a565b80158061309c57506040517fdd62ed3e0000000000000000000000000000000000000000000000000000000081523060048201526001600160a01b03838116602483015284169063dd62ed3e9060440160206040518083038186803b15801561306257600080fd5b505afa158015613076573d6000803e3d6000fd5b505050506040513d601f19601f8201168201806040525081019061309a919061404e565b155b61310e5760405162461bcd60e51b815260206004820152603660248201527f5361666545524332303a20617070726f76652066726f6d206e6f6e2d7a65726f60448201527f20746f206e6f6e2d7a65726f20616c6c6f77616e636500000000000000000000606482015260840161091a565b6040516001600160a01b0383166024820152604481018290526110e49084907f095ea7b30000000000000000000000000000000000000000000000000000000090606401612176565b6060824710156131cf5760405162461bcd60e51b815260206004820152602660248201527f416464726573733a20696e73756666696369656e742062616c616e636520666f60448201527f722063616c6c0000000000000000000000000000000000000000000000000000606482015260840161091a565b600080866001600160a01b031685876040516131eb9190613f20565b60006040518083038185875af1925050503d8060008114613228576040519150601f19603f3d011682016040523d82523d6000602084013e61322d565b606091505b509150915061323e87838387613249565b979650505050505050565b606083156132b55782516132ae576001600160a01b0385163b6132ae5760405162461bcd60e51b815260206004820152601d60248201527f416464726573733a2063616c6c20746f206e6f6e2d636f6e7472616374000000604482015260640161091a565b5081611ede565b611ede83838151156132ca5781518083602001fd5b8060405162461bcd60e51b815260040161091a91906138d0565b8280546132f090613ab0565b90600052602060002090601f0160209004810192826133125760008555613358565b82601f1061332b57805160ff1916838001178555613358565b82800160010185558215613358579182015b8281111561335857825182559160200191906001019061333d565b506133649291506133fa565b5090565b82805461337490613ab0565b90600052602060002090601f0160209004810192826133965760008555613358565b82601f106133cd578280017fffffffffffffffffffffffffffffffffffffffffffffffffffffffffffffff00823516178555613358565b82800160010185558215613358579182015b828111156133585782358255916020019190600101906133df565b5b8082111561336457600081556001016133fb565b61ffff81168114611e0857600080fd5b803561342a8161340f565b919050565b60008083601f84011261344157600080fd5b50813567ffffffffffffffff81111561345957600080fd5b60208301915083602082850101111561347157600080fd5b9250929050565b67ffffffffffffffff81168114611e0857600080fd5b600080600080600080608087890312156134a757600080fd5b86356134b28161340f565b9550602087013567ffffffffffffffff808211156134cf57600080fd5b6134db8a838b0161342f565b9097509550604089013591506134f082613478565b9093506060880135908082111561350657600080fd5b5061351389828a0161342f565b979a9699509497509295939492505050565b60006020828403121561353757600080fd5b81356117a38161340f565b6000806040838503121561355557600080fd5b82356135608161340f565b946020939093013593505050565b60008060006040848603121561358357600080fd5b833561358e8161340f565b9250602084013567ffffffffffffffff8111156135aa57600080fd5b6135b68682870161342f565b9497909650939450505050565b6001600160a01b0381168114611e0857600080fd5b803561342a816135c3565b600080604083850312156135f657600080fd5b8235613601816135c3565b91506020830135613611816135c3565b809150509250929050565b7f4e487b7100000000000000000000000000000000000000000000000000000000600052604160045260246000fd5b604051610140810167ffffffffffffffff8111828210171561366f5761366f61361c565b60405290565b604051601f8201601f1916810167ffffffffffffffff8111828210171561369e5761369e61361c565b604052919050565b600067ffffffffffffffff8211156136c0576136c061361c565b50601f01601f191660200190565b600082601f8301126136df57600080fd5b81356136f26136ed826136a6565b613675565b81815284602083860101111561370757600080fd5b816020850160208301376000918101602001919091529392505050565b60008060006060848603121561373957600080fd5b83356137448161340f565b9250602084013567ffffffffffffffff81111561376057600080fd5b61376c868287016136ce565b925050604084013561377d81613478565b809150509250925092565b60006020828403121561379a57600080fd5b813567ffffffffffffffff808211156137b257600080fd5b9083019061014082860312156137c757600080fd5b6137cf61364b565b6137d88361341f565b81526137e66020840161341f565b602082015260408301356040820152613801606084016135d8565b60608201526080830135608082015260a083013560a082015260c083013560c082015261383060e084016135d8565b60e08201526101006138438185016135d8565b90820152610120838101358381111561385b57600080fd5b613867888287016136ce565b918301919091525095945050505050565b60005b8381101561389357818101518382015260200161387b565b838111156121da5750506000910152565b600081518084526138bc816020860160208601613878565b601f01601f19169290920160200192915050565b6020815260006117a360208301846138a4565b6000602082840312156138f557600080fd5b81356117a3816135c3565b6000806040838503121561391357600080fd5b823561391e8161340f565b915060208301356136118161340f565b60006020828403121561394057600080fd5b5035919050565b60008060008060006080868803121561395f57600080fd5b853561396a8161340f565b9450602086013561397a8161340f565b935060408601359250606086013567ffffffffffffffff81111561399d57600080fd5b6139a98882890161342f565b969995985093965092949392505050565b602080825282518282018190526000919060409081850190868401855b82811015613a1157815180516001600160a01b031685528681015187860152850151151585850152606090930192908501906001016139d7565b5091979650505050505050565b600080600060608486031215613a3357600080fd5b8335613a3e8161340f565b92506020840135613a4e8161340f565b929592945050506040919091013590565b60008060008060808587031215613a7557600080fd5b8435613a808161340f565b93506020850135613a908161340f565b92506040850135613aa0816135c3565b9396929550929360600135925050565b600181811c90821680613ac457607f821691505b60208210811415613afe577f4e487b7100000000000000000000000000000000000000000000000000000000600052602260045260246000fd5b50919050565b8183823760009101908152919050565b818352818160208501375060006020828401015260006020601f19601f840116840101905092915050565b61ffff84168152604060208201526000611edb604083018486613b14565b600060208284031215613b6f57600080fd5b81516117a3816135c3565b7f4e487b7100000000000000000000000000000000000000000000000000000000600052603260045260246000fd5b7f4e487b7100000000000000000000000000000000000000000000000000000000600052601160045260246000fd5b600082821015613bea57613bea613ba9565b500390565b600082613c25577f4e487b7100000000000000000000000000000000000000000000000000000000600052601260045260246000fd5b500490565b61ffff861681526001600160a01b038516602082015260a060408201526000613c5660a08301866138a4565b84151560608401528281036080840152613c7081856138a4565b98975050505050505050565b60008060408385031215613c8f57600080fd5b505080516020909101519092909150565b8284823760609190911b7fffffffffffffffffffffffffffffffffffffffff000000000000000000000000169101908152601401919050565b600061ffff80881683528087166020840152508460408301526080606083015261323e608083018486613b14565b61ffff86168152608060208201526000613d25608083018688613b14565b67ffffffffffffffff94909416604083015250606001529392505050565b600082601f830112613d5457600080fd5b8151613d626136ed826136a6565b818152846020838601011115613d7757600080fd5b611ede826020830160208701613878565b600060208284031215613d9a57600080fd5b815167ffffffffffffffff811115613db157600080fd5b611ede84828501613d43565b61ffff85168152608060208201526000613dda60808301866138a4565b67ffffffffffffffff85166040840152828103606084015261323e81856138a4565b600060208284031215613e0e57600080fd5b81516117a381613478565b600080600080600060a08688031215613e3157600080fd5b8551613e3c8161340f565b6020870151909550613e4d816135c3565b809450506040860151925060608601519150608086015167ffffffffffffffff811115613e7957600080fd5b613e8588828901613d43565b9150509295509295909350565b8051801515811461342a57600080fd5b60008060408385031215613eb557600080fd5b82519150613ec560208401613e92565b90509250929050565b848152836020820152608060408201526000613eed60808301856138a4565b905067ffffffffffffffff8316606083015295945050505050565b60008219821115613f1b57613f1b613ba9565b500190565b60008251613f32818460208701613878565b9190910192915050565b61ffff8616815260a060208201526000613f5960a08301876138a4565b67ffffffffffffffff861660408401528281036060840152613f7b81866138a4565b90508281036080840152613c7081856138a4565b600060208284031215613fa157600080fd5b6117a382613e92565b61ffff8716815260c060208201526000613fc760c08301886138a4565b8281036040840152613fd981886138a4565b6001600160a01b0387811660608601528616608085015283810360a0850152905061400481856138a4565b9998505050505050505050565b6000817fffffffffffffffffffffffffffffffffffffffffffffffffffffffffffffffff048311821515161561404957614049613ba9565b500290565b60006020828403121561406057600080fd5b505191905056fea264697066735822122079da55fdaca62afddbbb7a50f2196d04794e1f54cadf10d2c8e32e40396f4cae64736f6c63430008090033",
  "linkReferences": {},
  "deployedLinkReferences": {}
}