{
  "_format": "hh-sol-artifact-1",
  "contractName": "MinimalForwarder",
  "sourceName": "contracts/MinimalForwarder.sol",
  "abi": [
    {
      "inputs": [],
      "name": "InvalidShortString",
      "type": "error"
    },
    {
      "inputs": [
        {
          "internalType": "string",
          "name": "str",
          "type": "string"
        }
      ],
      "name": "StringTooLong",
      "type": "error"
    },
    {
      "anonymous": false,
      "inputs": [],
      "name": "EIP712DomainChanged",
      "type": "event"
    },
    {
      "inputs": [],
      "name": "eip712Domain",
      "outputs": [
        {
          "internalType": "bytes1",
          "name": "fields",
          "type": "bytes1"
        },
        {
          "internalType": "string",
          "name": "name",
          "type": "string"
        },
        {
          "internalType": "string",
          "name": "version",
          "type": "string"
        },
        {
          "internalType": "uint256",
          "name": "chainId",
          "type": "uint256"
        },
        {
          "internalType": "address",
          "name": "verifyingContract",
          "type": "address"
        },
        {
          "internalType": "bytes32",
          "name": "salt",
          "type": "bytes32"
        },
        {
          "internalType": "uint256[]",
          "name": "extensions",
          "type": "uint256[]"
        }
      ],
      "stateMutability": "view",
      "type": "function"
    },
    {
      "inputs": [
        {
          "components": [
            {
              "internalType": "address",
              "name": "from",
              "type": "address"
            },
            {
              "internalType": "address",
              "name": "to",
              "type": "address"
            },
            {
              "internalType": "uint256",
              "name": "value",
              "type": "uint256"
            },
            {
              "internalType": "uint256",
              "name": "gas",
              "type": "uint256"
            },
            {
              "internalType": "uint256",
              "name": "nonce",
              "type": "uint256"
            },
            {
              "internalType": "bytes",
              "name": "data",
              "type": "bytes"
            }
          ],
          "internalType": "struct MinimalForwarder.ForwardRequest",
          "name": "req",
          "type": "tuple"
        },
        {
          "internalType": "bytes",
          "name": "signature",
          "type": "bytes"
        }
      ],
      "name": "execute",
      "outputs": [
        {
          "internalType": "bool",
          "name": "",
          "type": "bool"
        },
        {
          "internalType": "bytes",
          "name": "",
          "type": "bytes"
        }
      ],
      "stateMutability": "payable",
      "type": "function"
    },
    {
      "inputs": [
        {
          "components": [
            {
              "internalType": "address",
              "name": "from",
              "type": "address"
            },
            {
              "internalType": "address",
              "name": "to",
              "type": "address"
            },
            {
              "internalType": "uint256",
              "name": "value",
              "type": "uint256"
            },
            {
              "internalType": "uint256",
              "name": "gas",
              "type": "uint256"
            },
            {
              "internalType": "uint256",
              "name": "nonce",
              "type": "uint256"
            },
            {
              "internalType": "bytes",
              "name": "data",
              "type": "bytes"
            }
          ],
          "internalType": "struct MinimalForwarder.ForwardRequest",
          "name": "req",
          "type": "tuple"
        },
        {
          "internalType": "bytes",
          "name": "signature",
          "type": "bytes"
        }
      ],
      "name": "executeRequiringSuccess",
      "outputs": [],
      "stateMutability": "payable",
      "type": "function"
    },
    {
      "inputs": [
        {
          "internalType": "address",
          "name": "from",
          "type": "address"
        }
      ],
      "name": "getNonce",
      "outputs": [
        {
          "internalType": "uint256",
          "name": "",
          "type": "uint256"
        }
      ],
      "stateMutability": "view",
      "type": "function"
    },
    {
      "inputs": [
        {
          "components": [
            {
              "internalType": "address",
              "name": "from",
              "type": "address"
            },
            {
              "internalType": "address",
              "name": "to",
              "type": "address"
            },
            {
              "internalType": "uint256",
              "name": "value",
              "type": "uint256"
            },
            {
              "internalType": "uint256",
              "name": "gas",
              "type": "uint256"
            },
            {
              "internalType": "uint256",
              "name": "nonce",
              "type": "uint256"
            },
            {
              "internalType": "bytes",
              "name": "data",
              "type": "bytes"
            }
          ],
          "internalType": "struct MinimalForwarder.ForwardRequest",
          "name": "req",
          "type": "tuple"
        },
        {
          "internalType": "bytes",
          "name": "signature",
          "type": "bytes"
        }
      ],
      "name": "verify",
      "outputs": [
        {
          "internalType": "bool",
          "name": "",
          "type": "bool"
        }
      ],
      "stateMutability": "view",
      "type": "function"
    }
  ],
  "bytecode": "0x6101606040523480156200001257600080fd5b506040518060400160405280601081526020016f26b4b734b6b0b62337b93bb0b93232b960811b81525060405180604001604052806005815260200164302e302e3160d81b815250620000756000836200012f60201b6200061e1790919060201c565b61012052620000928160016200012f602090811b6200061e17901c565b61014052815160208084019190912060e052815190820120610100524660a0526200012060e05161010051604080517f8b73c3c69bb8fe3d512ecc4cf759cc79239f7b179b0ffacaa9a75d522b39400f60208201529081019290925260608201524660808201523060a082015260009060c00160405160208183030381529060405280519060200120905090565b60805250503060c0526200032f565b60006020835110156200014f57620001478362000183565b90506200017d565b826200016683620001cf60201b620006571760201c565b8151620001779260200190620001d2565b5060ff90505b92915050565b600080829050601f81511115620001ba578260405163305a27a960e01b8152600401620001b1919062000278565b60405180910390fd5b8051620001c782620002d0565b179392505050565b90565b828054620001e090620002f8565b90600052602060002090601f0160209004810192826200020457600085556200024f565b82601f106200021f57805160ff19168380011785556200024f565b828001600101855582156200024f579182015b828111156200024f57825182559160200191906001019062000232565b506200025d92915062000261565b5090565b5b808211156200025d576000815560010162000262565b600060208083528351808285015260005b81811015620002a75785810183015185820160400152820162000289565b81811115620002ba576000604083870101525b50601f01601f1916929092016040019392505050565b80516020808301519190811015620002f2576000198160200360031b1b821691505b50919050565b600181811c908216806200030d57607f821691505b60208210811415620002f257634e487b7160e01b600052602260045260246000fd5b60805160a05160c05160e0516101005161012051610140516111d56200038a600039600061037f01526000610355015260006108e7015260006108bf0152600061081a015260006108440152600061086e01526111d56000f3fe60806040526004361061005a5760003560e01c806384b0196e1161004357806384b0196e146100d6578063a31ed55b146100fe578063bf5d3bdb1461011357600080fd5b80632d0335ab1461005f57806347153f82146100b5575b600080fd5b34801561006b57600080fd5b506100a261007a366004610d06565b73ffffffffffffffffffffffffffffffffffffffff1660009081526002602052604090205490565b6040519081526020015b60405180910390f35b6100c86100c3366004610d43565b610143565b6040516100ac929190610e5c565b3480156100e257600080fd5b506100eb610347565b6040516100ac9796959493929190610e7f565b61011161010c366004610d43565b6103eb565b005b34801561011f57600080fd5b5061013361012e366004610d43565b61045e565b60405190151581526020016100ac565b6000606061015285858561045e565b6101e3576040517f08c379a000000000000000000000000000000000000000000000000000000000815260206004820152603260248201527f4d696e696d616c466f727761726465723a207369676e617475726520646f657360448201527f206e6f74206d617463682072657175657374000000000000000000000000000060648201526084015b60405180910390fd5b6101f260808601356001610f3e565b600260006102036020890189610d06565b73ffffffffffffffffffffffffffffffffffffffff1673ffffffffffffffffffffffffffffffffffffffff168152602001908152602001600020819055506000808660200160208101906102579190610d06565b73ffffffffffffffffffffffffffffffffffffffff166060880135604089013561028460a08b018b610f7d565b61029160208d018d610d06565b6040516020016102a393929190610fe2565b604080517fffffffffffffffffffffffffffffffffffffffffffffffffffffffffffffffe0818403018152908290526102db9161101b565b600060405180830381858888f193505050503d8060008114610319576040519150601f19603f3d011682016040523d82523d6000602084013e61031e565b606091505b509092509050610333603f6060890135611037565b5a1161033b57fe5b90969095509350505050565b60006060808280808361037a7f00000000000000000000000000000000000000000000000000000000000000008361065a565b6103a57f0000000000000000000000000000000000000000000000000000000000000000600161065a565b604080516000808252602082019092527f0f000000000000000000000000000000000000000000000000000000000000009b939a50919850469750309650945092509050565b6000806103f9858585610143565b91509150818160405160200161040f9190611072565b60405160208183030381529060405290610456576040517f08c379a00000000000000000000000000000000000000000000000000000000081526004016101da91906110b7565b505050505050565b60008061057e84848080601f01602080910402602001604051908101604052809392919081815260200183838082843760009201919091525061057892507fdd8f4b70b0f4393e889bd39128a30628a78b61816a9eb8199759e7a349657e4891506104ce905060208a018a610d06565b6104de60408b0160208c01610d06565b60408b013560608c013560808d01356104fa60a08f018f610f7d565b6040516105089291906110ca565b60408051918290038220602083019890985273ffffffffffffffffffffffffffffffffffffffff96871690820152949093166060850152608084019190915260a083015260c082015260e081019190915261010001604051602081830303815290604052805190602001206106fe565b90610746565b90506080850135600260006105966020890189610d06565b73ffffffffffffffffffffffffffffffffffffffff1673ffffffffffffffffffffffffffffffffffffffff1681526020019081526020016000205414801561061557506105e66020860186610d06565b73ffffffffffffffffffffffffffffffffffffffff168173ffffffffffffffffffffffffffffffffffffffff16145b95945050505050565b600060208351101561063a576106338361076a565b9050610651565b8282815161064b9260200190610c6d565b5060ff90505b92915050565b90565b606060ff831461066d57610633836107c1565b818054610679906110da565b80601f01602080910402602001604051908101604052809291908181526020018280546106a5906110da565b80156106f25780601f106106c7576101008083540402835291602001916106f2565b820191906000526020600020905b8154815290600101906020018083116106d557829003601f168201915b50505050509050610651565b600061065161070b610800565b836040517f19010000000000000000000000000000000000000000000000000000000000008152600281019290925260228201526042902090565b6000806000610755858561093d565b9150915061076281610983565b509392505050565b600080829050601f815111156107ae57826040517f305a27a90000000000000000000000000000000000000000000000000000000081526004016101da91906110b7565b80516107b98261112e565b179392505050565b606060006107ce83610b3d565b604080516020808252818301909252919250600091906020820181803683375050509182525060208101929092525090565b60003073ffffffffffffffffffffffffffffffffffffffff7f00000000000000000000000000000000000000000000000000000000000000001614801561086657507f000000000000000000000000000000000000000000000000000000000000000046145b1561089057507f000000000000000000000000000000000000000000000000000000000000000090565b610938604080517f8b73c3c69bb8fe3d512ecc4cf759cc79239f7b179b0ffacaa9a75d522b39400f60208201527f0000000000000000000000000000000000000000000000000000000000000000918101919091527f000000000000000000000000000000000000000000000000000000000000000060608201524660808201523060a082015260009060c00160405160208183030381529060405280519060200120905090565b905090565b6000808251604114156109745760208301516040840151606085015160001a61096887828585610b7e565b9450945050505061097c565b506000905060025b9250929050565b600081600481111561099757610997611170565b14156109a05750565b60018160048111156109b4576109b4611170565b1415610a1c576040517f08c379a000000000000000000000000000000000000000000000000000000000815260206004820152601860248201527f45434453413a20696e76616c6964207369676e6174757265000000000000000060448201526064016101da565b6002816004811115610a3057610a30611170565b1415610a98576040517f08c379a000000000000000000000000000000000000000000000000000000000815260206004820152601f60248201527f45434453413a20696e76616c6964207369676e6174757265206c656e6774680060448201526064016101da565b6003816004811115610aac57610aac611170565b1415610b3a576040517f08c379a000000000000000000000000000000000000000000000000000000000815260206004820152602260248201527f45434453413a20696e76616c6964207369676e6174757265202773272076616c60448201527f756500000000000000000000000000000000000000000000000000000000000060648201526084016101da565b50565b600060ff8216601f811115610651576040517fb3512b0c00000000000000000000000000000000000000000000000000000000815260040160405180910390fd5b6000807f7fffffffffffffffffffffffffffffff5d576e7357a4501ddfe92f46681b20a0831115610bb55750600090506003610c64565b6040805160008082526020820180845289905260ff881692820192909252606081018690526080810185905260019060a0016020604051602081039080840390855afa158015610c09573d6000803e3d6000fd5b50506040517fffffffffffffffffffffffffffffffffffffffffffffffffffffffffffffffe0015191505073ffffffffffffffffffffffffffffffffffffffff8116610c5d57600060019250925050610c64565b9150600090505b94509492505050565b828054610c79906110da565b90600052602060002090601f016020900481019282610c9b5760008555610ce1565b82601f10610cb457805160ff1916838001178555610ce1565b82800160010185558215610ce1579182015b82811115610ce1578251825591602001919060010190610cc6565b50610ced929150610cf1565b5090565b5b80821115610ced5760008155600101610cf2565b600060208284031215610d1857600080fd5b813573ffffffffffffffffffffffffffffffffffffffff81168114610d3c57600080fd5b9392505050565b600080600060408486031215610d5857600080fd5b833567ffffffffffffffff80821115610d7057600080fd5b9085019060c08288031215610d8457600080fd5b90935060208501359080821115610d9a57600080fd5b818601915086601f830112610dae57600080fd5b813581811115610dbd57600080fd5b876020828501011115610dcf57600080fd5b6020830194508093505050509250925092565b60005b83811015610dfd578181015183820152602001610de5565b83811115610e0c576000848401525b50505050565b60008151808452610e2a816020860160208601610de2565b601f017fffffffffffffffffffffffffffffffffffffffffffffffffffffffffffffffe0169290920160200192915050565b8215158152604060208201526000610e776040830184610e12565b949350505050565b7fff00000000000000000000000000000000000000000000000000000000000000881681526000602060e081840152610ebb60e084018a610e12565b8381036040850152610ecd818a610e12565b6060850189905273ffffffffffffffffffffffffffffffffffffffff8816608086015260a0850187905284810360c0860152855180825283870192509083019060005b81811015610f2c57835183529284019291840191600101610f10565b50909c9b505050505050505050505050565b60008219821115610f78577f4e487b7100000000000000000000000000000000000000000000000000000000600052601160045260246000fd5b500190565b60008083357fffffffffffffffffffffffffffffffffffffffffffffffffffffffffffffffe1843603018112610fb257600080fd5b83018035915067ffffffffffffffff821115610fcd57600080fd5b60200191503681900382131561097c57600080fd5b8284823760609190911b7fffffffffffffffffffffffffffffffffffffffff000000000000000000000000169101908152601401919050565b6000825161102d818460208701610de2565b9190910192915050565b60008261106d577f4e487b7100000000000000000000000000000000000000000000000000000000600052601260045260246000fd5b500490565b7f4d4554415f455845435f4641494c45443a2000000000000000000000000000008152600082516110aa816012850160208701610de2565b9190910160120192915050565b602081526000610d3c6020830184610e12565b8183823760009101908152919050565b600181811c908216806110ee57607f821691505b60208210811415611128577f4e487b7100000000000000000000000000000000000000000000000000000000600052602260045260246000fd5b50919050565b80516020808301519190811015611128577fffffffffffffffffffffffffffffffffffffffffffffffffffffffffffffffff60209190910360031b1b16919050565b7f4e487b7100000000000000000000000000000000000000000000000000000000600052602160045260246000fdfea264697066735822122010be5cc8319a4f91c89c4621917dc0a7e8b58477d0bedaccac559b328e4160d564736f6c63430008090033",
  "linkReferences": {},
  "deployedLinkReferences": {}
}