{
  "_format": "hh-sol-artifact-1",
  "contractName": "ClearingHouse",
  "sourceName": "contracts/ClearingHouse.sol",
  "abi": [
    {
      "anonymous": false,
      "inputs": [
        {
          "indexed": true,
          "internalType": "address",
          "name": "trader",
          "type": "address"
        },
        {
          "indexed": true,
          "internalType": "uint256",
          "name": "idx",
          "type": "uint256"
        },
        {
          "indexed": false,
          "internalType": "int256",
          "name": "takerFundingPayment",
          "type": "int256"
        },
        {
          "indexed": false,
          "internalType": "int256",
          "name": "cumulativePremiumFraction",
          "type": "int256"
        }
      ],
      "name": "FundingPaid",
      "type": "event"
    },
    {
      "anonymous": false,
      "inputs": [
        {
          "indexed": true,
          "internalType": "uint256",
          "name": "idx",
          "type": "uint256"
        },
        {
          "indexed": false,
          "internalType": "int256",
          "name": "premiumFraction",
          "type": "int256"
        },
        {
          "indexed": false,
          "internalType": "uint256",
          "name": "underlyingPrice",
          "type": "uint256"
        },
        {
          "indexed": false,
          "internalType": "int256",
          "name": "cumulativePremiumFraction",
          "type": "int256"
        },
        {
          "indexed": false,
          "internalType": "uint256",
          "name": "nextFundingTime",
          "type": "uint256"
        },
        {
          "indexed": false,
          "internalType": "uint256",
          "name": "timestamp",
          "type": "uint256"
        },
        {
          "indexed": false,
          "internalType": "uint256",
          "name": "blockNumber",
          "type": "uint256"
        }
      ],
      "name": "FundingRateUpdated",
      "type": "event"
    },
    {
      "anonymous": false,
      "inputs": [
        {
          "indexed": false,
          "internalType": "uint8",
          "name": "version",
          "type": "uint8"
        }
      ],
      "name": "Initialized",
      "type": "event"
    },
    {
      "anonymous": false,
      "inputs": [
        {
          "indexed": true,
          "internalType": "uint256",
          "name": "idx",
          "type": "uint256"
        },
        {
          "indexed": true,
          "internalType": "address",
          "name": "amm",
          "type": "address"
        }
      ],
      "name": "MarketAdded",
      "type": "event"
    },
    {
      "anonymous": false,
      "inputs": [
        {
          "indexed": false,
          "internalType": "uint256",
          "name": "nextSampleTime",
          "type": "uint256"
        }
      ],
      "name": "NotifyNextPISample",
      "type": "event"
    },
    {
      "anonymous": false,
      "inputs": [
        {
          "indexed": true,
          "internalType": "uint256",
          "name": "idx",
          "type": "uint256"
        },
        {
          "indexed": false,
          "internalType": "uint256",
          "name": "timestamp",
          "type": "uint256"
        },
        {
          "indexed": false,
          "internalType": "uint256",
          "name": "blockNumber",
          "type": "uint256"
        }
      ],
      "name": "PISampleSkipped",
      "type": "event"
    },
    {
      "anonymous": false,
      "inputs": [
        {
          "indexed": true,
          "internalType": "uint256",
          "name": "idx",
          "type": "uint256"
        },
        {
          "indexed": false,
          "internalType": "int256",
          "name": "premiumIndex",
          "type": "int256"
        },
        {
          "indexed": false,
          "internalType": "uint256",
          "name": "timestamp",
          "type": "uint256"
        },
        {
          "indexed": false,
          "internalType": "uint256",
          "name": "blockNumber",
          "type": "uint256"
        }
      ],
      "name": "PISampledUpdated",
      "type": "event"
    },
    {
      "anonymous": false,
      "inputs": [
        {
          "indexed": false,
          "internalType": "address",
          "name": "account",
          "type": "address"
        }
      ],
      "name": "Paused",
      "type": "event"
    },
    {
      "anonymous": false,
      "inputs": [
        {
          "indexed": true,
          "internalType": "address",
          "name": "trader",
          "type": "address"
        },
        {
          "indexed": true,
          "internalType": "uint256",
          "name": "idx",
          "type": "uint256"
        },
        {
          "indexed": false,
          "internalType": "int256",
          "name": "baseAsset",
          "type": "int256"
        },
        {
          "indexed": false,
          "internalType": "uint256",
          "name": "price",
          "type": "uint256"
        },
        {
          "indexed": false,
          "internalType": "int256",
          "name": "realizedPnl",
          "type": "int256"
        },
        {
          "indexed": false,
          "internalType": "int256",
          "name": "size",
          "type": "int256"
        },
        {
          "indexed": false,
          "internalType": "uint256",
          "name": "openNotional",
          "type": "uint256"
        },
        {
          "indexed": false,
          "internalType": "int256",
          "name": "fee",
          "type": "int256"
        },
        {
          "indexed": false,
          "internalType": "uint256",
          "name": "timestamp",
          "type": "uint256"
        }
      ],
      "name": "PositionLiquidated",
      "type": "event"
    },
    {
      "anonymous": false,
      "inputs": [
        {
          "indexed": true,
          "internalType": "address",
          "name": "trader",
          "type": "address"
        },
        {
          "indexed": true,
          "internalType": "uint256",
          "name": "idx",
          "type": "uint256"
        },
        {
          "indexed": false,
          "internalType": "int256",
          "name": "baseAsset",
          "type": "int256"
        },
        {
          "indexed": false,
          "internalType": "uint256",
          "name": "price",
          "type": "uint256"
        },
        {
          "indexed": false,
          "internalType": "int256",
          "name": "realizedPnl",
          "type": "int256"
        },
        {
          "indexed": false,
          "internalType": "int256",
          "name": "size",
          "type": "int256"
        },
        {
          "indexed": false,
          "internalType": "uint256",
          "name": "openNotional",
          "type": "uint256"
        },
        {
          "indexed": false,
          "internalType": "int256",
          "name": "fee",
          "type": "int256"
        },
        {
          "indexed": false,
          "internalType": "enum IClearingHouse.OrderExecutionMode",
          "name": "mode",
          "type": "uint8"
        },
        {
          "indexed": false,
          "internalType": "uint256",
          "name": "timestamp",
          "type": "uint256"
        }
      ],
      "name": "PositionModified",
      "type": "event"
    },
    {
      "anonymous": false,
      "inputs": [
        {
          "indexed": true,
          "internalType": "address",
          "name": "referrer",
          "type": "address"
        },
        {
          "indexed": false,
          "internalType": "uint256",
          "name": "referralBonus",
          "type": "uint256"
        }
      ],
      "name": "ReferralBonusAdded",
      "type": "event"
    },
    {
      "anonymous": false,
      "inputs": [
        {
          "indexed": false,
          "internalType": "address",
          "name": "account",
          "type": "address"
        }
      ],
      "name": "Unpaused",
      "type": "event"
    },
    {
      "inputs": [],
      "name": "LIQUIDATION_FAILED",
      "outputs": [
        {
          "internalType": "bytes32",
          "name": "",
          "type": "bytes32"
        }
      ],
      "stateMutability": "view",
      "type": "function"
    },
    {
      "inputs": [
        {
          "internalType": "uint256",
          "name": "",
          "type": "uint256"
        }
      ],
      "name": "amms",
      "outputs": [
        {
          "internalType": "contract IAMM",
          "name": "",
          "type": "address"
        }
      ],
      "stateMutability": "view",
      "type": "function"
    },
    {
      "inputs": [
        {
          "internalType": "address",
          "name": "trader",
          "type": "address"
        }
      ],
      "name": "assertMarginRequirement",
      "outputs": [],
      "stateMutability": "view",
      "type": "function"
    },
    {
      "inputs": [
        {
          "internalType": "address",
          "name": "trader",
          "type": "address"
        },
        {
          "internalType": "bool",
          "name": "includeFundingPayments",
          "type": "bool"
        },
        {
          "internalType": "enum IClearingHouse.Mode",
          "name": "mode",
          "type": "uint8"
        }
      ],
      "name": "calcMarginFraction",
      "outputs": [
        {
          "internalType": "int256",
          "name": "",
          "type": "int256"
        }
      ],
      "stateMutability": "view",
      "type": "function"
    },
    {
      "inputs": [],
      "name": "defaultOrderBook",
      "outputs": [
        {
          "internalType": "address",
          "name": "",
          "type": "address"
        }
      ],
      "stateMutability": "view",
      "type": "function"
    },
    {
      "inputs": [],
      "name": "feeSink",
      "outputs": [
        {
          "internalType": "address",
          "name": "",
          "type": "address"
        }
      ],
      "stateMutability": "view",
      "type": "function"
    },
    {
      "inputs": [],
      "name": "getAMMs",
      "outputs": [
        {
          "internalType": "contract IAMM[]",
          "name": "",
          "type": "address[]"
        }
      ],
      "stateMutability": "view",
      "type": "function"
    },
    {
      "inputs": [],
      "name": "getAmmsLength",
      "outputs": [
        {
          "internalType": "uint256",
          "name": "",
          "type": "uint256"
        }
      ],
      "stateMutability": "view",
      "type": "function"
    },
    {
      "inputs": [
        {
          "internalType": "address",
          "name": "trader",
          "type": "address"
        },
        {
          "internalType": "bool",
          "name": "includeFundingPayments",
          "type": "bool"
        },
        {
          "internalType": "enum IClearingHouse.Mode",
          "name": "mode",
          "type": "uint8"
        }
      ],
      "name": "getNotionalPositionAndMargin",
      "outputs": [
        {
          "internalType": "uint256",
          "name": "notionalPosition",
          "type": "uint256"
        },
        {
          "internalType": "int256",
          "name": "margin",
          "type": "int256"
        }
      ],
      "stateMutability": "view",
      "type": "function"
    },
    {
      "inputs": [
        {
          "internalType": "address",
          "name": "trader",
          "type": "address"
        },
        {
          "internalType": "bool",
          "name": "includeFundingPayments",
          "type": "bool"
        },
        {
          "internalType": "enum IClearingHouse.Mode",
          "name": "mode",
          "type": "uint8"
        }
      ],
      "name": "getNotionalPositionAndMarginVanilla",
      "outputs": [
        {
          "internalType": "uint256",
          "name": "notionalPosition",
          "type": "uint256"
        },
        {
          "internalType": "int256",
          "name": "margin",
          "type": "int256"
        }
      ],
      "stateMutability": "view",
      "type": "function"
    },
    {
      "inputs": [
        {
          "internalType": "address",
          "name": "trader",
          "type": "address"
        }
      ],
      "name": "getTotalFunding",
      "outputs": [
        {
          "internalType": "int256",
          "name": "totalFunding",
          "type": "int256"
        }
      ],
      "stateMutability": "view",
      "type": "function"
    },
    {
      "inputs": [
        {
          "internalType": "address",
          "name": "trader",
          "type": "address"
        },
        {
          "internalType": "int256",
          "name": "margin",
          "type": "int256"
        },
        {
          "internalType": "enum IClearingHouse.Mode",
          "name": "mode",
          "type": "uint8"
        }
      ],
      "name": "getTotalNotionalPositionAndUnrealizedPnl",
      "outputs": [
        {
          "internalType": "uint256",
          "name": "notionalPosition",
          "type": "uint256"
        },
        {
          "internalType": "int256",
          "name": "unrealizedPnl",
          "type": "int256"
        }
      ],
      "stateMutability": "view",
      "type": "function"
    },
    {
      "inputs": [],
      "name": "getUnderlyingPrice",
      "outputs": [
        {
          "internalType": "uint256[]",
          "name": "prices",
          "type": "uint256[]"
        }
      ],
      "stateMutability": "view",
      "type": "function"
    },
    {
      "inputs": [],
      "name": "governance",
      "outputs": [
        {
          "internalType": "address",
          "name": "",
          "type": "address"
        }
      ],
      "stateMutability": "view",
      "type": "function"
    },
    {
      "inputs": [],
      "name": "hubbleReferral",
      "outputs": [
        {
          "internalType": "contract IHubbleReferral",
          "name": "",
          "type": "address"
        }
      ],
      "stateMutability": "view",
      "type": "function"
    },
    {
      "inputs": [
        {
          "internalType": "address",
          "name": "_governance",
          "type": "address"
        },
        {
          "internalType": "address",
          "name": "_feeSink",
          "type": "address"
        },
        {
          "internalType": "address",
          "name": "_marginAccount",
          "type": "address"
        },
        {
          "internalType": "address",
          "name": "_defaultOrderBook",
          "type": "address"
        },
        {
          "internalType": "address",
          "name": "_vusd",
          "type": "address"
        },
        {
          "internalType": "address",
          "name": "_hubbleReferral",
          "type": "address"
        }
      ],
      "name": "initialize",
      "outputs": [],
      "stateMutability": "nonpayable",
      "type": "function"
    },
    {
      "inputs": [
        {
          "internalType": "address",
          "name": "trader",
          "type": "address"
        }
      ],
      "name": "isAboveMaintenanceMargin",
      "outputs": [
        {
          "internalType": "bool",
          "name": "",
          "type": "bool"
        }
      ],
      "stateMutability": "view",
      "type": "function"
    },
    {
      "inputs": [
        {
          "internalType": "address",
          "name": "",
          "type": "address"
        }
      ],
      "name": "isWhitelistedOrderBook",
      "outputs": [
        {
          "internalType": "bool",
          "name": "",
          "type": "bool"
        }
      ],
      "stateMutability": "view",
      "type": "function"
    },
    {
      "inputs": [],
      "name": "juror",
      "outputs": [
        {
          "internalType": "contract IJuror",
          "name": "",
          "type": "address"
        }
      ],
      "stateMutability": "view",
      "type": "function"
    },
    {
      "inputs": [
        {
          "internalType": "address",
          "name": "",
          "type": "address"
        }
      ],
      "name": "lastFundingPaid",
      "outputs": [
        {
          "internalType": "uint256",
          "name": "",
          "type": "uint256"
        }
      ],
      "stateMutability": "view",
      "type": "function"
    },
    {
      "inputs": [],
      "name": "lastFundingTime",
      "outputs": [
        {
          "internalType": "uint256",
          "name": "",
          "type": "uint256"
        }
      ],
      "stateMutability": "view",
      "type": "function"
    },
    {
      "inputs": [
        {
          "components": [
            {
              "internalType": "uint256",
              "name": "ammIndex",
              "type": "uint256"
            },
            {
              "internalType": "address",
              "name": "trader",
              "type": "address"
            },
            {
              "internalType": "bytes32",
              "name": "orderHash",
              "type": "bytes32"
            },
            {
              "internalType": "enum IClearingHouse.OrderExecutionMode",
              "name": "mode",
              "type": "uint8"
            }
          ],
          "internalType": "struct IClearingHouse.Instruction",
          "name": "instruction",
          "type": "tuple"
        },
        {
          "internalType": "int256",
          "name": "liquidationAmount",
          "type": "int256"
        },
        {
          "internalType": "uint256",
          "name": "price",
          "type": "uint256"
        },
        {
          "internalType": "address",
          "name": "trader",
          "type": "address"
        }
      ],
      "name": "liquidate",
      "outputs": [
        {
          "internalType": "uint256",
          "name": "openInterest",
          "type": "uint256"
        }
      ],
      "stateMutability": "nonpayable",
      "type": "function"
    },
    {
      "inputs": [
        {
          "internalType": "address",
          "name": "trader",
          "type": "address"
        },
        {
          "internalType": "uint256",
          "name": "ammIndex",
          "type": "uint256"
        },
        {
          "internalType": "uint256",
          "name": "price",
          "type": "uint256"
        },
        {
          "internalType": "int256",
          "name": "toLiquidate",
          "type": "int256"
        }
      ],
      "name": "liquidateSingleAmm",
      "outputs": [],
      "stateMutability": "nonpayable",
      "type": "function"
    },
    {
      "inputs": [],
      "name": "liquidationPenalty",
      "outputs": [
        {
          "internalType": "uint256",
          "name": "",
          "type": "uint256"
        }
      ],
      "stateMutability": "view",
      "type": "function"
    },
    {
      "inputs": [],
      "name": "maintenanceMargin",
      "outputs": [
        {
          "internalType": "int256",
          "name": "",
          "type": "int256"
        }
      ],
      "stateMutability": "view",
      "type": "function"
    },
    {
      "inputs": [],
      "name": "makerFee",
      "outputs": [
        {
          "internalType": "int256",
          "name": "",
          "type": "int256"
        }
      ],
      "stateMutability": "view",
      "type": "function"
    },
    {
      "inputs": [],
      "name": "marginAccount",
      "outputs": [
        {
          "internalType": "contract IMarginAccount",
          "name": "",
          "type": "address"
        }
      ],
      "stateMutability": "view",
      "type": "function"
    },
    {
      "inputs": [],
      "name": "minAllowableMargin",
      "outputs": [
        {
          "internalType": "int256",
          "name": "",
          "type": "int256"
        }
      ],
      "stateMutability": "view",
      "type": "function"
    },
    {
      "inputs": [],
      "name": "nextSampleTime",
      "outputs": [
        {
          "internalType": "uint256",
          "name": "",
          "type": "uint256"
        }
      ],
      "stateMutability": "view",
      "type": "function"
    },
    {
      "inputs": [
        {
          "components": [
            {
              "internalType": "uint256",
              "name": "ammIndex",
              "type": "uint256"
            },
            {
              "internalType": "address",
              "name": "trader",
              "type": "address"
            },
            {
              "internalType": "bytes32",
              "name": "orderHash",
              "type": "bytes32"
            },
            {
              "internalType": "enum IClearingHouse.OrderExecutionMode",
              "name": "mode",
              "type": "uint8"
            }
          ],
          "internalType": "struct IClearingHouse.Instruction[2]",
          "name": "orders",
          "type": "tuple[2]"
        },
        {
          "internalType": "int256",
          "name": "fillAmount",
          "type": "int256"
        },
        {
          "internalType": "uint256",
          "name": "fulfillPrice",
          "type": "uint256"
        }
      ],
      "name": "openComplementaryPositions",
      "outputs": [
        {
          "internalType": "uint256",
          "name": "openInterest",
          "type": "uint256"
        }
      ],
      "stateMutability": "nonpayable",
      "type": "function"
    },
    {
      "inputs": [
        {
          "components": [
            {
              "internalType": "uint256",
              "name": "ammIndex",
              "type": "uint256"
            },
            {
              "internalType": "address",
              "name": "trader",
              "type": "address"
            },
            {
              "internalType": "bytes32",
              "name": "orderHash",
              "type": "bytes32"
            },
            {
              "internalType": "enum IClearingHouse.OrderExecutionMode",
              "name": "mode",
              "type": "uint8"
            }
          ],
          "internalType": "struct IClearingHouse.Instruction",
          "name": "order",
          "type": "tuple"
        },
        {
          "internalType": "int256",
          "name": "fillAmount",
          "type": "int256"
        },
        {
          "internalType": "uint256",
          "name": "fulfillPrice",
          "type": "uint256"
        },
        {
          "internalType": "bool",
          "name": "is2ndTrade",
          "type": "bool"
        }
      ],
      "name": "openPosition",
      "outputs": [
        {
          "internalType": "uint256",
          "name": "openInterest",
          "type": "uint256"
        }
      ],
      "stateMutability": "nonpayable",
      "type": "function"
    },
    {
      "inputs": [],
      "name": "orderBook",
      "outputs": [
        {
          "internalType": "address",
          "name": "",
          "type": "address"
        }
      ],
      "stateMutability": "view",
      "type": "function"
    },
    {
      "inputs": [],
      "name": "pause",
      "outputs": [],
      "stateMutability": "nonpayable",
      "type": "function"
    },
    {
      "inputs": [],
      "name": "paused",
      "outputs": [
        {
          "internalType": "bool",
          "name": "",
          "type": "bool"
        }
      ],
      "stateMutability": "view",
      "type": "function"
    },
    {
      "inputs": [],
      "name": "referralShare",
      "outputs": [
        {
          "internalType": "uint256",
          "name": "",
          "type": "uint256"
        }
      ],
      "stateMutability": "view",
      "type": "function"
    },
    {
      "inputs": [],
      "name": "samplePI",
      "outputs": [],
      "stateMutability": "nonpayable",
      "type": "function"
    },
    {
      "inputs": [
        {
          "internalType": "address",
          "name": "_feeSink",
          "type": "address"
        }
      ],
      "name": "setFeeSink",
      "outputs": [],
      "stateMutability": "nonpayable",
      "type": "function"
    },
    {
      "inputs": [
        {
          "internalType": "address",
          "name": "__governance",
          "type": "address"
        }
      ],
      "name": "setGovernace",
      "outputs": [],
      "stateMutability": "nonpayable",
      "type": "function"
    },
    {
      "inputs": [
        {
          "internalType": "address",
          "name": "_juror",
          "type": "address"
        }
      ],
      "name": "setJuror",
      "outputs": [],
      "stateMutability": "nonpayable",
      "type": "function"
    },
    {
      "inputs": [
        {
          "internalType": "address",
          "name": "_orderBook",
          "type": "address"
        },
        {
          "internalType": "bool",
          "name": "_status",
          "type": "bool"
        }
      ],
      "name": "setOrderBookWhitelist",
      "outputs": [],
      "stateMutability": "nonpayable",
      "type": "function"
    },
    {
      "inputs": [
        {
          "internalType": "int256",
          "name": "_maintenanceMargin",
          "type": "int256"
        },
        {
          "internalType": "int256",
          "name": "_minAllowableMargin",
          "type": "int256"
        },
        {
          "internalType": "int256",
          "name": "_takerFee",
          "type": "int256"
        },
        {
          "internalType": "int256",
          "name": "_makerFee",
          "type": "int256"
        },
        {
          "internalType": "uint256",
          "name": "_referralShare",
          "type": "uint256"
        },
        {
          "internalType": "uint256",
          "name": "_tradingFeeDiscount",
          "type": "uint256"
        },
        {
          "internalType": "uint256",
          "name": "_liquidationPenalty",
          "type": "uint256"
        }
      ],
      "name": "setParams",
      "outputs": [],
      "stateMutability": "nonpayable",
      "type": "function"
    },
    {
      "inputs": [
        {
          "internalType": "address",
          "name": "_referral",
          "type": "address"
        }
      ],
      "name": "setReferral",
      "outputs": [],
      "stateMutability": "nonpayable",
      "type": "function"
    },
    {
      "inputs": [],
      "name": "settleFunding",
      "outputs": [],
      "stateMutability": "nonpayable",
      "type": "function"
    },
    {
      "inputs": [],
      "name": "takerFee",
      "outputs": [
        {
          "internalType": "int256",
          "name": "",
          "type": "int256"
        }
      ],
      "stateMutability": "view",
      "type": "function"
    },
    {
      "inputs": [],
      "name": "tradingFeeDiscount",
      "outputs": [
        {
          "internalType": "uint256",
          "name": "",
          "type": "uint256"
        }
      ],
      "stateMutability": "view",
      "type": "function"
    },
    {
      "inputs": [],
      "name": "unpause",
      "outputs": [],
      "stateMutability": "nonpayable",
      "type": "function"
    },
    {
      "inputs": [
        {
          "internalType": "address",
          "name": "trader",
          "type": "address"
        }
      ],
      "name": "updatePositions",
      "outputs": [],
      "stateMutability": "nonpayable",
      "type": "function"
    },
    {
      "inputs": [],
      "name": "vusd",
      "outputs": [
        {
          "internalType": "contract VUSD",
          "name": "",
          "type": "address"
        }
      ],
      "stateMutability": "view",
      "type": "function"
    },
    {
      "inputs": [
        {
          "internalType": "address",
          "name": "_amm",
          "type": "address"
        }
      ],
      "name": "whitelistAmm",
      "outputs": [],
      "stateMutability": "nonpayable",
      "type": "function"
    }
  ],
  "bytecode": "0x608060405234801561001057600080fd5b506000805460ff60b01b19169055613d0d8061002d6000396000f3fe608060405234801561001057600080fd5b506004361061032b5760003560e01c8063806cdccf116101b2578063a93090bd116100f9578063e239e840116100a2578063edac52031161007c578063edac520314610691578063f4e70952146106a4578063f742269d146106b7578063fc741c7c146106ca57600080fd5b8063e239e8401461066d578063e859e56c14610680578063ed83d79c1461068957600080fd5b8063cd75fbb0116100d3578063cd75fbb014610648578063d5eb058114610651578063da62e0641461065a57600080fd5b8063a93090bd1461060a578063a999f4a21461062d578063cc2a9a5b1461063557600080fd5b806391735a391161015b5780639e5914da116101355780639e5914da146105d1578063a0da683a146105e4578063a752db86146105f757600080fd5b806391735a39146105a257806397814b72146105ab5780639b645ad0146105be57600080fd5b8063851e3ca51161018c578063851e3ca51461056957806386a8cdbc1461057c5780639001568e1461058f57600080fd5b8063806cdccf1461053b578063813167a71461054e5780638456cb591461056157600080fd5b8063468f02d21161027657806362e5230f1161021f578063776af5ba116101f9578063776af5ba146105045780637a2cb4c4146105155780637c2c88f81461052857600080fd5b806362e5230f146104a95780636f0b43d9146104bc57806370d99932146104e457600080fd5b80635aa6e675116102505780635aa6e675146104545780635c975abb146104655780635f0502d01461049657600080fd5b8063468f02d2146104195780634b09b5221461042e5780634b38474d1461044157600080fd5b80633be4a5b3116102d857806343ba4970116102b257806343ba4970146103e857806343f0179b146103fb57806344f65a1f1461040457600080fd5b80633be4a5b3146103b85780633f4ba83a146103cb57806343748918146103d557600080fd5b806321db76ff1161030957806321db76ff1461039e57806323f5589a146103a6578063321d7fa9146103af57600080fd5b806311affa39146103305780631244e5951461034c5780631a12edf514610373575b600080fd5b61033960075481565b6040519081526020015b60405180910390f35b6103397fded72d3e43a8da834f66f20f21855b7302a16a8d95dd1be8e7610750d4f56a5e81565b600b54610386906001600160a01b031681565b6040516001600160a01b039091168152602001610343565b600c54610339565b61033960055481565b610339600e5481565b6103396103c636600461313d565b6106d3565b6103d36106fb565b005b6103d36103e3366004613184565b610764565b6103d36103f63660046131d0565b6108f4565b61033960035481565b61040c610b6c565b60405161034391906131f4565b610421610bce565b6040516103439190613241565b600d54610386906001600160a01b031681565b600954610386906001600160a01b031681565b6000546001600160a01b0316610386565b600054760100000000000000000000000000000000000000000000900460ff165b6040519015158152602001610343565b6103d36104a4366004613279565b610d03565b6103396104b73660046132ca565b610da6565b6104cf6104ca36600461313d565b610e1a565b60408051928352602083019190915201610343565b6103396104f23660046131d0565b600f6020526000908152604090205481565b600b546001600160a01b0316610386565b610339610523366004613313565b610efa565b6103d3610536366004613351565b61113a565b6104866105493660046131d0565b61119b565b6104cf61055c36600461338c565b6111b5565b6103d36112bc565b6103d36105773660046131d0565b61131e565b61038661058a3660046133c1565b6113ae565b6103d361059d3660046131d0565b6113d8565b61033960025481565b601054610386906001600160a01b031681565b6104cf6105cc36600461313d565b61145b565b6103d36105df3660046131d0565b61152f565b6103d36105f23660046131d0565b6115c3565b6103d36106053660046131d0565b611657565b6104866106183660046131d0565b60116020526000908152604090205460ff1681565b6103d3611b35565b6103d36106433660046133da565b611ca7565b61033960125481565b61033960015481565b6103d36106683660046131d0565b611f36565b61033961067b3660046131d0565b611fca565b61033960065481565b6103d36120b4565b600854610386906001600160a01b031681565b6103396106b236600461345c565b6122c5565b600a54610386906001600160a01b031681565b61033960045481565b60008060006106e386868661145b565b915091506106f181836124b7565b9695505050505050565b6000546001600160a01b0316331461075a5760405162461bcd60e51b815260206004820152600f60248201527f4f4e4c595f474f5645524e414e4345000000000000000000000000000000000060448201526064015b60405180910390fd5b610762612517565b565b6000546001600160a01b031633146107be5760405162461bcd60e51b815260206004820152600f60248201527f4f4e4c595f474f5645524e414e434500000000000000000000000000000000006044820152606401610751565b6000871361080e5760405162461bcd60e51b815260206004820152601760248201527f5f6d61696e74656e616e63654d617267696e203c3d20300000000000000000006044820152606401610751565b6000811161085e5760405162461bcd60e51b815260206004820152601760248201527f5f6c69717569646174696f6e50656e616c7479203c20300000000000000000006044820152606401610751565b6001879055600286905560038590556004849055600683905560078290556005819055600a546001600160a01b031663a574918761089b88612587565b6040518263ffffffff1660e01b81526004016108b991815260200190565b600060405180830381600087803b1580156108d357600080fd5b505af11580156108e7573d6000803e3d6000fd5b5050505050505050505050565b6108fc6125dd565b6001600160a01b0381166109525760405162461bcd60e51b815260206004820152601660248201527f43483a20307830207472616465722041646472657373000000000000000000006044820152606401610751565b600e546001600160a01b0382166000908152600f602052604090205414156109775750565b600c54600090818080805b84811015610ab557600c818154811061099d5761099d613497565b6000918252602090912001546040517fe0beac770000000000000000000000000000000000000000000000000000000081526001600160a01b0389811660048301529091169063e0beac7790602401606060405180830381600087803b158015610a0657600080fd5b505af1158015610a1a573d6000803e3d6000fd5b505050506040513d601f19601f82011682018060405250810190610a3e91906134c6565b919550935091508315610aa557610a55838761352c565b955080876001600160a01b03167f2c73faab01c164483917d3b9aad7750ede67da3c50a0e9abcf23b2889ec734da8585604051610a9c929190918252602082015260400190565b60405180910390a35b610aae816135a0565b9050610982565b50600a546001600160a01b0316639277f8ff87610ad1886135d9565b6040517fffffffff0000000000000000000000000000000000000000000000000000000060e085901b1681526001600160a01b0390921660048301526024820152604401600060405180830381600087803b158015610b2f57600080fd5b505af1158015610b43573d6000803e3d6000fd5b5050600e546001600160a01b0389166000908152600f6020526040902055505050505050505b50565b6060600c805480602002602001604051908101604052809291908181526020018280548015610bc457602002820191906000526020600020905b81546001600160a01b03168152600190910190602001808311610ba6575b5050505050905090565b600c546060908067ffffffffffffffff811115610bed57610bed613612565b604051908082528060200260200182016040528015610c16578160200160208202803683370190505b50915060005b81811015610cfe57600c8181548110610c3757610c37613497565b60009182526020918290200154604080517f468f02d200000000000000000000000000000000000000000000000000000000815290516001600160a01b039092169263468f02d292600480840193829003018186803b158015610c9957600080fd5b505afa158015610cad573d6000803e3d6000fd5b505050506040513d601f19601f82011682018060405250810190610cd19190613641565b838281518110610ce357610ce3613497565b6020908102919091010152610cf7816135a0565b9050610c1c565b505090565b6000546001600160a01b03163314610d5d5760405162461bcd60e51b815260206004820152600f60248201527f4f4e4c595f474f5645524e414e434500000000000000000000000000000000006044820152606401610751565b6001600160a01b0391909116600090815260116020526040902080547fffffffffffffffffffffffffffffffffffffffffffffffffffffffffffffff0016911515919091179055565b6000333014610df75760405162461bcd60e51b815260206004820152600b60248201527f4f6e6c79206d7973656c660000000000000000000000000000000000000000006044820152606401610751565b610e11610e09368790038701876136bd565b85858561264a565b95945050505050565b600a546040517fe5590ea20000000000000000000000000000000000000000000000000000000081526001600160a01b038581166004830152600092839283929091169063e5590ea29060240160206040518083038186803b158015610e7f57600080fd5b505afa158015610e93573d6000803e3d6000fd5b505050506040513d601f19601f82011682018060405250810190610eb79190613641565b91508415610ed557610ec886611fca565b610ed29083613755565b91505b610ee08683866111b5565b9093509050610eef818361352c565b915050935093915050565b3360009081526011602052604081205460ff16610f595760405162461bcd60e51b815260206004820152600e60248201527f4f6e6c79206f72646572426f6f6b0000000000000000000000000000000000006044820152606401610751565b6040517f7c2c88f80000000000000000000000000000000000000000000000000000000081526001600160a01b03831660048201528535602482015260448101849052606481018590523090637c2c88f890608401600060405180830381600087803b158015610fc857600080fd5b505af1925050508015610fd9575060015b61106a57610fe56137c9565b806308c379a0141561105e5750610ffa6137e5565b806110055750611060565b7fded72d3e43a8da834f66f20f21855b7302a16a8d95dd1be8e7610750d4f56a5e816040516020016110389291906138da565b60408051601f198184030181529082905262461bcd60e51b8252610751916004016138f3565b505b3d6000803e3d6000fd5b6040517f62e5230f00000000000000000000000000000000000000000000000000000000815230906362e5230f906110ad90889088908890600190600401613949565b602060405180830381600087803b1580156110c757600080fd5b505af19250505080156110f7575060408051601f3d908101601f191682019092526110f491810190613641565b60015b610e11576111036137c9565b806308c379a0141561105e57506111186137e5565b806111235750611060565b8560400135816040516020016110389291906138da565b3330146111895760405162461bcd60e51b815260206004820152600b60248201527f4f6e6c79206d7973656c660000000000000000000000000000000000000000006044820152606401610751565b61119584848484612905565b50505050565b60006001546111ad83600160006106d3565b121592915050565b600c54600090819081908190815b818110156112b057600c81815481106111de576111de613497565b6000918252602090912001546040517f26c919ad0000000000000000000000000000000000000000000000000000000081526001600160a01b03909116906326c919ad90611234908c908c908c906004016139ae565b604080518083038186803b15801561124b57600080fd5b505afa15801561125f573d6000803e3d6000fd5b505050506040513d601f19601f8201168201806040525081019061128391906139e3565b90945092506112928487613a07565b955061129e838661352c565b94506112a9816135a0565b90506111c3565b50505050935093915050565b6000546001600160a01b031633146113165760405162461bcd60e51b815260206004820152600f60248201527f4f4e4c595f474f5645524e414e434500000000000000000000000000000000006044820152606401610751565b610762612b0e565b6000546001600160a01b031633146113785760405162461bcd60e51b815260206004820152600f60248201527f4f4e4c595f474f5645524e414e434500000000000000000000000000000000006044820152606401610751565b600080547fffffffffffffffffffffffff0000000000000000000000000000000000000000166001600160a01b03831617905550565b600c81815481106113be57600080fd5b6000918252602090912001546001600160a01b0316905081565b6002546113e7826000806106d3565b1215610b695760405162461bcd60e51b815260206004820152602260248201527f43483a2042656c6f77204d696e696d756d20416c6c6f7761626c65204d61726760448201527f696e0000000000000000000000000000000000000000000000000000000000006064820152608401610751565b60105460009081906001600160a01b0316639b645ad0868686600181111561148557611485613906565b6040517fffffffff0000000000000000000000000000000000000000000000000000000060e086901b1681526001600160a01b039093166004840152901515602483015260ff166044820152606401604080518083038186803b1580156114eb57600080fd5b505afa1580156114ff573d6000803e3d6000fd5b505050506040513d601f19601f8201168201806040525081019061152391906139e3565b91509150935093915050565b6000546001600160a01b031633146115895760405162461bcd60e51b815260206004820152600f60248201527f4f4e4c595f474f5645524e414e434500000000000000000000000000000000006044820152606401610751565b600d80547fffffffffffffffffffffffff0000000000000000000000000000000000000000166001600160a01b0392909216919091179055565b6000546001600160a01b0316331461161d5760405162461bcd60e51b815260206004820152600f60248201527f4f4e4c595f474f5645524e414e434500000000000000000000000000000000006044820152606401610751565b601080547fffffffffffffffffffffffff0000000000000000000000000000000000000000166001600160a01b0392909216919091179055565b6000546001600160a01b031633146116b15760405162461bcd60e51b815260206004820152600f60248201527f4f4e4c595f474f5645524e414e434500000000000000000000000000000000006044820152606401610751565b60008190506000816001600160a01b031663210fdd876040518163ffffffff1660e01b815260040160206040518083038186803b1580156116f157600080fd5b505afa158015611705573d6000803e3d6000fd5b505050506040513d601f19601f820116820180604052508101906117299190613641565b1161179c5760405162461bcd60e51b815260206004820152602a60248201527f63682e77686974656c697374416d6d2e6d696e53697a65526571756972656d6560448201527f6e745f6e6f745f736574000000000000000000000000000000000000000000006064820152608401610751565b6000816001600160a01b031663468f02d26040518163ffffffff1660e01b815260040160206040518083038186803b1580156117d757600080fd5b505afa1580156117eb573d6000803e3d6000fd5b505050506040513d601f19601f8201168201806040525081019061180f9190613641565b1161185c5760405162461bcd60e51b815260206004820152601360248201527f6f7261636c65206973206e6f74207365747570000000000000000000000000006044820152606401610751565b600c5460005b818110156118fa57836001600160a01b0316600c828154811061188757611887613497565b6000918252602090912001546001600160a01b031614156118ea5760405162461bcd60e51b815260206004820152601d60248201527f63682e77686974656c697374416d6d2e6475706c69636174655f616d6d0000006044820152606401610751565b6118f3816135a0565b9050611862565b506040516001600160a01b0384169082907f89ead78b5adc5070fcc35b67ed66e35bed6fb69ed4749b2d4c54fe725c3e7f6790600090a3600c805460018101825560009182527fdf6966c971051c3d54ec59162606531493a51404a002842f56009d7e5cf4a8c70180547fffffffffffffffffffffffff0000000000000000000000000000000000000000166001600160a01b038616908117909155604080517f0cf010510000000000000000000000000000000000000000000000000000000081529051630cf010519160048082019260209290919082900301818787803b1580156119e657600080fd5b505af11580156119fa573d6000803e3d6000fd5b505050506040513d601f19601f82011682018060405250810190611a1e9190613641565b9050817fa02c873c68d47c8605d2a9dfbf71882251548b0857f3bd8116ac73e11ed1d6da6000866001600160a01b031663053f14da6040518163ffffffff1660e01b815260040160206040518083038186803b158015611a7d57600080fd5b505afa158015611a91573d6000803e3d6000fd5b505050506040513d601f19601f82011682018060405250810190611ab59190613641565b604080519283526020830191909152600082820152606082018590524260808301524360a0830152519081900360c00190a28161119557611af742603c613a07565b60128190556040519081527feaf31ceaaf9038d1354258015d745bf53337e9dc1abdec3c5faaadfd645152759060200160405180910390a150505050565b611b3d6125dd565b6012544290811015611b4c5750565b600c54600080805b83811015611c9b57600c8181548110611b6f57611b6f613497565b9060005260206000200160009054906101000a90046001600160a01b03166001600160a01b031663a999f4a26040518163ffffffff1660e01b81526004016040805180830381600087803b158015611bc657600080fd5b505af1158015611bda573d6000803e3d6000fd5b505050506040513d601f19601f82011682018060405250810190611bfe9190613a1f565b90935091508215611c505760408051838152602081018790524381830152905182917f469b415677f67d98b32476fb44036c8f2d358c00a922516886454dd5abcd40d9919081900360600190a2611c8b565b6040805186815243602082015282917fe15664aabb43c9297dec3818f62381321364a3a7ca281748385862fd3833d8fc910160405180910390a25b611c94816135a0565b9050611b54565b50611af784603c613a07565b6000547501000000000000000000000000000000000000000000900460ff1615808015611cf2575060005460017401000000000000000000000000000000000000000090910460ff16105b80611d245750303b158015611d24575060005474010000000000000000000000000000000000000000900460ff166001145b611d965760405162461bcd60e51b815260206004820152602e60248201527f496e697469616c697a61626c653a20636f6e747261637420697320616c72656160448201527f647920696e697469616c697a65640000000000000000000000000000000000006064820152608401610751565b600080547fffffffffffffffffffffff00ffffffffffffffffffffffffffffffffffffffff16740100000000000000000000000000000000000000001790558015611e1c57600080547fffffffffffffffffffff00ffffffffffffffffffffffffffffffffffffffffff1675010000000000000000000000000000000000000000001790555b600080546001600160a01b038981167fffffffffffffffffffffffff00000000000000000000000000000000000000009283161783556009805483168a8316179055600a80548316898316179055600b80548316888316908117909155600880548416888416179055600d805490931691861691909117909155815260116020526040902080547fffffffffffffffffffffffffffffffffffffffffffffffffffffffffffffff001660011790558015611f2d57600080547fffffffffffffffffffff00ffffffffffffffffffffffffffffffffffffffffff169055604051600181527f7f26b83ff96e1f2b6a682f133852f6798a09c465da95921460cefb38474024989060200160405180910390a15b50505050505050565b6000546001600160a01b03163314611f905760405162461bcd60e51b815260206004820152600f60248201527f4f4e4c595f474f5645524e414e434500000000000000000000000000000000006044820152606401610751565b600980547fffffffffffffffffffffffff0000000000000000000000000000000000000000166001600160a01b0392909216919091179055565b600c546000908190815b818110156120ac57600c8181548110611fef57611fef613497565b6000918252602090912001546040517fb72e1b480000000000000000000000000000000000000000000000000000000081526001600160a01b0387811660048301529091169063b72e1b4890602401604080518083038186803b15801561205557600080fd5b505afa158015612069573d6000803e3d6000fd5b505050506040513d601f19601f8201168201806040525081019061208d91906139e3565b50925061209a838561352c565b93506120a5816135a0565b9050611fd4565b505050919050565b6120bc6125dd565b600c54600042815b838110156121f7576000806000600c84815481106120e4576120e4613497565b9060005260206000200160009054906101000a90046001600160a01b03166001600160a01b031663ed83d79c6040518163ffffffff1660e01b8152600401608060405180830381600087803b15801561213c57600080fd5b505af1158015612150573d6000803e3d6000fd5b505050506040513d601f19601f820116820180604052508101906121749190613a4d565b98509194509250905085156121e357837fa02c873c68d47c8605d2a9dfbf71882251548b0857f3bd8116ac73e11ed1d6da846121af85612587565b604080519283526020830191909152810184905260608101899052608081018890524360a082015260c00160405180910390a25b505050806121f0906135a0565b90506120c4565b5081156122c057600e819055600954604080517f3a6a4d2e00000000000000000000000000000000000000000000000000000000815290516001600160a01b0390921691633a6a4d2e9160048082019260009290919082900301818387803b15801561226257600080fd5b505af1158015612276573d6000803e3d6000fd5b5050505080603c6122879190613a07565b60128190556040519081527feaf31ceaaf9038d1354258015d745bf53337e9dc1abdec3c5faaadfd645152759060200160405180910390a15b505050565b3360009081526011602052604081205460ff166123245760405162461bcd60e51b815260206004820152600e60248201527f4f6e6c79206f72646572426f6f6b0000000000000000000000000000000000006044820152606401610751565b6040517f62e5230f00000000000000000000000000000000000000000000000000000000815230906362e5230f9061236790879087908790600090600401613949565b602060405180830381600087803b15801561238157600080fd5b505af19250505080156123b1575060408051601f3d908101601f191682019092526123ae91810190613641565b60015b6123fb576123bd6137c9565b806308c379a0141561105e57506123d26137e5565b806123dd5750611060565b8460005b6080020160400135816040516020016110389291906138da565b50306362e5230f6080860161240f866135d9565b8560016040518563ffffffff1660e01b81526004016124319493929190613949565b602060405180830381600087803b15801561244b57600080fd5b505af192505050801561247b575060408051601f3d908101601f1916820190925261247891810190613641565b60015b6124af576124876137c9565b806308c379a0141561105e575061249c6137e5565b806124a75750611060565b8460016123e1565b949350505050565b6000816124e557507f7fffffffffffffffffffffffffffffffffffffffffffffffffffffffffffffff612511565b6124ee82612b7f565b6124fa620f4240612b7f565b6125049085613a83565b61250e9190613b6e565b90505b92915050565b61251f612c17565b600080547fffffffffffffffffff00ffffffffffffffffffffffffffffffffffffffffffff1690557f5db9ee0a495bf2e6ff9c91a7834c1ba4fdd244a5e8aa4e537bd38aeae4b073aa335b6040516001600160a01b03909116815260200160405180910390a1565b6000808212156125d95760405162461bcd60e51b815260206004820181905260248201527f53616665436173743a2076616c7565206d75737420626520706f7369746976656044820152606401610751565b5090565b600054760100000000000000000000000000000000000000000000900460ff16156107625760405162461bcd60e51b815260206004820152601060248201527f5061757361626c653a20706175736564000000000000000000000000000000006044820152606401610751565b600061265985602001516108f4565b6000670de0b6b3a76400008461267661267188612c83565b612587565b6126809190613bd6565b61268a9190613c13565b90506126c06040518060a00160405280600081526020016000815260200160001515815260200160008152602001600081525090565b600c8760000151815481106126d7576126d7613497565b60009182526020918290200154908801516040517fa634bbb10000000000000000000000000000000000000000000000000000000081526001600160a01b0391821660048201526024810189905260448101889052861515606482015291169063a634bbb19060840160a060405180830381600087803b15801561275a57600080fd5b505af115801561276e573d6000803e3d6000fd5b505050506040513d601f19601f820116820180604052508101906127929190613c27565b6080860191909152606080860192909252911515604085015260208085018490528a0151908a01519195506000926127cb928690612c96565b83529050600081131561287157600a546009546001600160a01b039182169163fd9910e191166127fa84612587565b6040517fffffffff0000000000000000000000000000000000000000000000000000000060e085901b1681526001600160a01b0390921660048301526024820152604401600060405180830381600087803b15801561285857600080fd5b505af115801561286c573d6000803e3d6000fd5b505050505b508060400151156128895761288987602001516113d8565b866000015187602001516001600160a01b03167f7c0a7048c68dd9fdb5c772884394a943c37083defd09184100f4b2d9cce93a8a888885602001518660600151876080015188600001518f606001516128df4290565b6040516128f3989796959493929190613c70565b60405180910390a35050949350505050565b61290e846108f4565b61291784612e84565b600080600080600c878154811061293057612930613497565b6000918252602090912001546040517f0476a6950000000000000000000000000000000000000000000000000000000081526001600160a01b038a81166004830152602482018990526044820188905290911690630476a69590606401608060405180830381600087803b1580156129a757600080fd5b505af11580156129bb573d6000803e3d6000fd5b505050506040513d601f19601f820116820180604052508101906129df9190613a4d565b935093509350935060006129f68986866003612c96565b50600a546009549192506001600160a01b039081169163fd9910e19116612a1c84612587565b6040517fffffffff0000000000000000000000000000000000000000000000000000000060e085901b1681526001600160a01b0390921660048301526024820152604401600060405180830381600087803b158015612a7a57600080fd5b505af1158015612a8e573d6000803e3d6000fd5b5050505087896001600160a01b03167f1b75a63b8cd56ae1bc10229da7d3a0ce5119554fa89751208c2194694306850b888a89888888612acb4290565b604080519788526020880196909652948601939093526060850191909152608084015260a083015260c082015260e00160405180910390a3505050505050505050565b612b166125dd565b600080547fffffffffffffffffff00ffffffffffffffffffffffffffffffffffffffffffff167601000000000000000000000000000000000000000000001790557f62e78cea01bee320cd4e420270b5ea74000d11b0c9f74754ebdbfc544b05a25861256a3390565b60007f7fffffffffffffffffffffffffffffffffffffffffffffffffffffffffffffff8211156125d95760405162461bcd60e51b815260206004820152602860248201527f53616665436173743a2076616c756520646f65736e27742066697420696e206160448201527f6e20696e743235360000000000000000000000000000000000000000000000006064820152608401610751565b600054760100000000000000000000000000000000000000000000900460ff166107625760405162461bcd60e51b815260206004820152601460248201527f5061757361626c653a206e6f74207061757365640000000000000000000000006044820152606401610751565b6000808212156125d957612511826135d9565b60008080836003811115612cac57612cac613906565b1415612cd957612cbb84612ee0565b905060006004541215612cd457612cd184612f06565b91505b612d62565b6002836003811115612ced57612ced613906565b1415612d0357612cfc84612ee0565b9050612d62565b6001836003811115612d1757612d17613906565b1415612d2657612cfc84612f06565b6003836003811115612d3a57612d3a613906565b1415612d6257612d4984612f18565b905060006004541215612d6257612d5f84612f06565b91505b6000811315612de957612d75818361352c565b91506003836003811115612d8b57612d8b613906565b14612de957600080612da588612da085612587565b612f3e565b91509150612db282612b7f565b612dbc9084613755565b9250612dc781612b7f565b612dd083612b7f565b612dda9086613755565b612de49190613755565b935050505b600a546001600160a01b0316639277f8ff87612e058489613755565b6040517fffffffff0000000000000000000000000000000000000000000000000000000060e085901b1681526001600160a01b0390921660048301526024820152604401600060405180830381600087803b158015612e6357600080fd5b505af1158015612e77573d6000803e3d6000fd5b5050505094509492505050565b600154612e93826000806106d3565b12610b695760405162461bcd60e51b815260206004820152601c60248201527f43483a2041626f7665204d61696e74656e616e6365204d617267696e000000006044820152606401610751565b6000620f4240600354612ef284612b7f565b612efc9190613a83565b6125119190613b6e565b6000620f4240600454612ef284612b7f565b6000612511620f424060055484612f2f9190613bd6565b612f399190613c13565b612b7f565b600d546040517fcaffe38d0000000000000000000000000000000000000000000000000000000081526001600160a01b038481166004830152600092839283929091169063caffe38d9060240160206040518083038186803b158015612fa357600080fd5b505afa158015612fb7573d6000803e3d6000fd5b505050506040513d601f19601f82011682018060405250810190612fdb9190613cba565b90506001600160a01b038116156130fe57620f424060065485612ffe9190613bd6565b6130089190613c13565b600a549092506001600160a01b0316639277f8ff8261302685612b7f565b6040517fffffffff0000000000000000000000000000000000000000000000000000000060e085901b1681526001600160a01b0390921660048301526024820152604401600060405180830381600087803b15801561308457600080fd5b505af1158015613098573d6000803e3d6000fd5b50505050806001600160a01b03167f8ae4da220998234e5dbd6a2d3a17a0d13936f3f6d92f7cda454ba4e0b72f1f0e836040516130d791815260200190565b60405180910390a2620f4240600754856130f19190613bd6565b6130fb9190613c13565b92505b509250929050565b6001600160a01b0381168114610b6957600080fd5b8015158114610b6957600080fd5b80356002811061313857600080fd5b919050565b60008060006060848603121561315257600080fd5b833561315d81613106565b9250602084013561316d8161311b565b915061317b60408501613129565b90509250925092565b600080600080600080600060e0888a03121561319f57600080fd5b505085359760208701359750604087013596606081013596506080810135955060a0810135945060c0013592509050565b6000602082840312156131e257600080fd5b81356131ed81613106565b9392505050565b6020808252825182820181905260009190848201906040850190845b818110156132355783516001600160a01b031683529284019291840191600101613210565b50909695505050505050565b6020808252825182820181905260009190848201906040850190845b818110156132355783518352928401929184019160010161325d565b6000806040838503121561328c57600080fd5b823561329781613106565b915060208301356132a78161311b565b809150509250929050565b6000608082840312156132c457600080fd5b50919050565b60008060008060e085870312156132e057600080fd5b6132ea86866132b2565b93506080850135925060a0850135915060c08501356133088161311b565b939692955090935050565b60008060008060e0858703121561332957600080fd5b61333386866132b2565b93506080850135925060a0850135915060c085013561330881613106565b6000806000806080858703121561336757600080fd5b843561337281613106565b966020860135965060408601359560600135945092505050565b6000806000606084860312156133a157600080fd5b83356133ac81613106565b92506020840135915061317b60408501613129565b6000602082840312156133d357600080fd5b5035919050565b60008060008060008060c087890312156133f357600080fd5b86356133fe81613106565b9550602087013561340e81613106565b9450604087013561341e81613106565b9350606087013561342e81613106565b9250608087013561343e81613106565b915060a087013561344e81613106565b809150509295509295509295565b6000806000610140848603121561347257600080fd5b61010084018581111561348457600080fd5b9395933594505050610120840135919050565b7f4e487b7100000000000000000000000000000000000000000000000000000000600052603260045260246000fd5b6000806000606084860312156134db57600080fd5b83516134e68161311b565b602085015160409095015190969495509392505050565b7f4e487b7100000000000000000000000000000000000000000000000000000000600052601160045260246000fd5b6000808212827f7fffffffffffffffffffffffffffffffffffffffffffffffffffffffffffffff03841381151615613566576135666134fd565b827f800000000000000000000000000000000000000000000000000000000000000003841281161561359a5761359a6134fd565b50500190565b60007fffffffffffffffffffffffffffffffffffffffffffffffffffffffffffffffff8214156135d2576135d26134fd565b5060010190565b60007f800000000000000000000000000000000000000000000000000000000000000082141561360b5761360b6134fd565b5060000390565b7f4e487b7100000000000000000000000000000000000000000000000000000000600052604160045260246000fd5b60006020828403121561365357600080fd5b5051919050565b601f19601f830116810181811067ffffffffffffffff821117156136a7577f4e487b7100000000000000000000000000000000000000000000000000000000600052604160045260246000fd5b6040525050565b80356004811061313857600080fd5b6000608082840312156136cf57600080fd5b6040516080810181811067ffffffffffffffff82111715613719577f4e487b7100000000000000000000000000000000000000000000000000000000600052604160045260246000fd5b60405282358152602083013561372e81613106565b602082015260408381013590820152613749606084016136ae565b60608201529392505050565b6000808312837f80000000000000000000000000000000000000000000000000000000000000000183128115161561378f5761378f6134fd565b837f7fffffffffffffffffffffffffffffffffffffffffffffffffffffffffffffff0183138116156137c3576137c36134fd565b50500390565b600060033d11156137e25760046000803e5060005160e01c5b90565b600060443d10156137f35790565b6040517ffffffffffffffffffffffffffffffffffffffffffffffffffffffffffffffffc803d016004833e81513d67ffffffffffffffff816024840111818411171561384157505050505090565b82850191508151818111156138595750505050505090565b843d87010160208285010111156138735750505050505090565b6138826020828601018761365a565b509095945050505050565b6000815180845260005b818110156138b357602081850181015186830182015201613897565b818111156138c5576000602083870101525b50601f01601f19169290920160200192915050565b8281526040602082015260006124af604083018461388d565b60208152600061250e602083018461388d565b7f4e487b7100000000000000000000000000000000000000000000000000000000600052602160045260246000fd5b6004811061394557613945613906565b9052565b8435815260e08101602086013561395f81613106565b6001600160a01b0316602083015260408681013590830152613983606087016136ae565b6139906060840182613935565b508460808301528360a083015282151560c083015295945050505050565b6001600160a01b03841681526020810183905260608101600283106139d5576139d5613906565b826040830152949350505050565b600080604083850312156139f657600080fd5b505080516020909101519092909150565b60008219821115613a1a57613a1a6134fd565b500190565b60008060408385031215613a3257600080fd5b8251613a3d8161311b565b6020939093015192949293505050565b60008060008060808587031215613a6357600080fd5b505082516020840151604085015160609095015191969095509092509050565b60007f7fffffffffffffffffffffffffffffffffffffffffffffffffffffffffffffff600084136000841385830485118282161615613ac457613ac46134fd565b7f80000000000000000000000000000000000000000000000000000000000000006000871286820588128184161615613aff57613aff6134fd565b60008712925087820587128484161615613b1b57613b1b6134fd565b87850587128184161615613b3157613b316134fd565b505050929093029392505050565b7f4e487b7100000000000000000000000000000000000000000000000000000000600052601260045260246000fd5b600082613b7d57613b7d613b3f565b7fffffffffffffffffffffffffffffffffffffffffffffffffffffffffffffffff83147f800000000000000000000000000000000000000000000000000000000000000083141615613bd157613bd16134fd565b500590565b6000817fffffffffffffffffffffffffffffffffffffffffffffffffffffffffffffffff0483118215151615613c0e57613c0e6134fd565b500290565b600082613c2257613c22613b3f565b500490565b600080600080600060a08688031215613c3f57600080fd5b855194506020860151613c518161311b565b6040870151606088015160809098015196999198509695945092505050565b6000610100820190508982528860208301528760408301528660608301528560808301528460a0830152613ca760c0830185613935565b8260e08301529998505050505050505050565b600060208284031215613ccc57600080fd5b81516131ed8161310656fea26469706673582212201466ded6a2f0e4dfa33b190507123450d60dd8bb981654de571066197630b71864736f6c63430008090033",
  "linkReferences": {},
  "deployedLinkReferences": {}
}