{
  "_format": "hh-sol-artifact-1",
  "contractName": "LZClient",
  "sourceName": "contracts/layer0/LZClient.sol",
  "abi": [
    {
      "inputs": [
        {
          "internalType": "address",
          "name": "_lzEndPoint",
          "type": "address"
        },
        {
          "internalType": "address",
          "name": "_hgtRemote",
          "type": "address"
        },
        {
          "internalType": "uint16",
          "name": "_hubbleL0ChainId",
          "type": "uint16"
        },
        {
          "internalType": "address",
          "name": "_owner",
          "type": "address"
        }
      ],
      "stateMutability": "nonpayable",
      "type": "constructor"
    },
    {
      "anonymous": false,
      "inputs": [
        {
          "indexed": false,
          "internalType": "uint16",
          "name": "_srcChainId",
          "type": "uint16"
        },
        {
          "indexed": false,
          "internalType": "bytes",
          "name": "_srcAddress",
          "type": "bytes"
        },
        {
          "indexed": false,
          "internalType": "uint64",
          "name": "_nonce",
          "type": "uint64"
        },
        {
          "indexed": false,
          "internalType": "bytes",
          "name": "_payload",
          "type": "bytes"
        },
        {
          "indexed": false,
          "internalType": "bytes",
          "name": "_reason",
          "type": "bytes"
        }
      ],
      "name": "MessageFailed",
      "type": "event"
    },
    {
      "anonymous": false,
      "inputs": [
        {
          "indexed": true,
          "internalType": "address",
          "name": "previousOwner",
          "type": "address"
        },
        {
          "indexed": true,
          "internalType": "address",
          "name": "newOwner",
          "type": "address"
        }
      ],
      "name": "OwnershipTransferred",
      "type": "event"
    },
    {
      "anonymous": false,
      "inputs": [
        {
          "indexed": false,
          "internalType": "uint16",
          "name": "_srcChainId",
          "type": "uint16"
        },
        {
          "indexed": false,
          "internalType": "bytes",
          "name": "_srcAddress",
          "type": "bytes"
        },
        {
          "indexed": false,
          "internalType": "uint64",
          "name": "_nonce",
          "type": "uint64"
        },
        {
          "indexed": false,
          "internalType": "bytes32",
          "name": "_payloadHash",
          "type": "bytes32"
        }
      ],
      "name": "RetryMessageSuccess",
      "type": "event"
    },
    {
      "anonymous": false,
      "inputs": [
        {
          "indexed": false,
          "internalType": "uint16",
          "name": "_dstChainId",
          "type": "uint16"
        },
        {
          "indexed": false,
          "internalType": "uint16",
          "name": "_type",
          "type": "uint16"
        },
        {
          "indexed": false,
          "internalType": "uint256",
          "name": "_minDstGas",
          "type": "uint256"
        }
      ],
      "name": "SetMinDstGas",
      "type": "event"
    },
    {
      "anonymous": false,
      "inputs": [
        {
          "indexed": false,
          "internalType": "address",
          "name": "precrime",
          "type": "address"
        }
      ],
      "name": "SetPrecrime",
      "type": "event"
    },
    {
      "anonymous": false,
      "inputs": [
        {
          "indexed": false,
          "internalType": "uint16",
          "name": "_remoteChainId",
          "type": "uint16"
        },
        {
          "indexed": false,
          "internalType": "bytes",
          "name": "_path",
          "type": "bytes"
        }
      ],
      "name": "SetTrustedRemote",
      "type": "event"
    },
    {
      "anonymous": false,
      "inputs": [
        {
          "indexed": false,
          "internalType": "uint16",
          "name": "_remoteChainId",
          "type": "uint16"
        },
        {
          "indexed": false,
          "internalType": "bytes",
          "name": "_remoteAddress",
          "type": "bytes"
        }
      ],
      "name": "SetTrustedRemoteAddress",
      "type": "event"
    },
    {
      "inputs": [],
      "name": "DEFAULT_PAYLOAD_SIZE_LIMIT",
      "outputs": [
        {
          "internalType": "uint256",
          "name": "",
          "type": "uint256"
        }
      ],
      "stateMutability": "view",
      "type": "function"
    },
    {
      "inputs": [
        {
          "internalType": "uint16",
          "name": "",
          "type": "uint16"
        },
        {
          "internalType": "bytes",
          "name": "",
          "type": "bytes"
        },
        {
          "internalType": "uint64",
          "name": "",
          "type": "uint64"
        }
      ],
      "name": "failedMessages",
      "outputs": [
        {
          "internalType": "bytes32",
          "name": "",
          "type": "bytes32"
        }
      ],
      "stateMutability": "view",
      "type": "function"
    },
    {
      "inputs": [
        {
          "internalType": "uint16",
          "name": "_srcChainId",
          "type": "uint16"
        },
        {
          "internalType": "bytes",
          "name": "_srcAddress",
          "type": "bytes"
        }
      ],
      "name": "forceResumeReceive",
      "outputs": [],
      "stateMutability": "nonpayable",
      "type": "function"
    },
    {
      "inputs": [
        {
          "internalType": "uint16",
          "name": "_version",
          "type": "uint16"
        },
        {
          "internalType": "uint16",
          "name": "_chainId",
          "type": "uint16"
        },
        {
          "internalType": "address",
          "name": "",
          "type": "address"
        },
        {
          "internalType": "uint256",
          "name": "_configType",
          "type": "uint256"
        }
      ],
      "name": "getConfig",
      "outputs": [
        {
          "internalType": "bytes",
          "name": "",
          "type": "bytes"
        }
      ],
      "stateMutability": "view",
      "type": "function"
    },
    {
      "inputs": [
        {
          "internalType": "uint16",
          "name": "_remoteChainId",
          "type": "uint16"
        }
      ],
      "name": "getTrustedRemoteAddress",
      "outputs": [
        {
          "internalType": "bytes",
          "name": "",
          "type": "bytes"
        }
      ],
      "stateMutability": "view",
      "type": "function"
    },
    {
      "inputs": [],
      "name": "hgtRemote",
      "outputs": [
        {
          "internalType": "contract IHGTRemote",
          "name": "",
          "type": "address"
        }
      ],
      "stateMutability": "view",
      "type": "function"
    },
    {
      "inputs": [],
      "name": "hubbleL0ChainId",
      "outputs": [
        {
          "internalType": "uint16",
          "name": "",
          "type": "uint16"
        }
      ],
      "stateMutability": "view",
      "type": "function"
    },
    {
      "inputs": [
        {
          "internalType": "uint16",
          "name": "_srcChainId",
          "type": "uint16"
        },
        {
          "internalType": "bytes",
          "name": "_srcAddress",
          "type": "bytes"
        }
      ],
      "name": "isTrustedRemote",
      "outputs": [
        {
          "internalType": "bool",
          "name": "",
          "type": "bool"
        }
      ],
      "stateMutability": "view",
      "type": "function"
    },
    {
      "inputs": [],
      "name": "lzEndpoint",
      "outputs": [
        {
          "internalType": "contract ILayerZeroEndpoint",
          "name": "",
          "type": "address"
        }
      ],
      "stateMutability": "view",
      "type": "function"
    },
    {
      "inputs": [
        {
          "internalType": "uint16",
          "name": "_srcChainId",
          "type": "uint16"
        },
        {
          "internalType": "bytes",
          "name": "_srcAddress",
          "type": "bytes"
        },
        {
          "internalType": "uint64",
          "name": "_nonce",
          "type": "uint64"
        },
        {
          "internalType": "bytes",
          "name": "_payload",
          "type": "bytes"
        }
      ],
      "name": "lzReceive",
      "outputs": [],
      "stateMutability": "nonpayable",
      "type": "function"
    },
    {
      "inputs": [
        {
          "internalType": "uint16",
          "name": "",
          "type": "uint16"
        },
        {
          "internalType": "uint16",
          "name": "",
          "type": "uint16"
        }
      ],
      "name": "minDstGasLookup",
      "outputs": [
        {
          "internalType": "uint256",
          "name": "",
          "type": "uint256"
        }
      ],
      "stateMutability": "view",
      "type": "function"
    },
    {
      "inputs": [
        {
          "internalType": "uint16",
          "name": "_srcChainId",
          "type": "uint16"
        },
        {
          "internalType": "bytes",
          "name": "_srcAddress",
          "type": "bytes"
        },
        {
          "internalType": "uint64",
          "name": "_nonce",
          "type": "uint64"
        },
        {
          "internalType": "bytes",
          "name": "_payload",
          "type": "bytes"
        }
      ],
      "name": "nonblockingLzReceive",
      "outputs": [],
      "stateMutability": "nonpayable",
      "type": "function"
    },
    {
      "inputs": [],
      "name": "owner",
      "outputs": [
        {
          "internalType": "address",
          "name": "",
          "type": "address"
        }
      ],
      "stateMutability": "view",
      "type": "function"
    },
    {
      "inputs": [
        {
          "internalType": "uint16",
          "name": "",
          "type": "uint16"
        }
      ],
      "name": "payloadSizeLimitLookup",
      "outputs": [
        {
          "internalType": "uint256",
          "name": "",
          "type": "uint256"
        }
      ],
      "stateMutability": "view",
      "type": "function"
    },
    {
      "inputs": [],
      "name": "precrime",
      "outputs": [
        {
          "internalType": "address",
          "name": "",
          "type": "address"
        }
      ],
      "stateMutability": "view",
      "type": "function"
    },
    {
      "inputs": [],
      "name": "renounceOwnership",
      "outputs": [],
      "stateMutability": "nonpayable",
      "type": "function"
    },
    {
      "inputs": [
        {
          "internalType": "uint16",
          "name": "_srcChainId",
          "type": "uint16"
        },
        {
          "internalType": "bytes",
          "name": "_srcAddress",
          "type": "bytes"
        },
        {
          "internalType": "uint64",
          "name": "_nonce",
          "type": "uint64"
        },
        {
          "internalType": "bytes",
          "name": "_payload",
          "type": "bytes"
        }
      ],
      "name": "retryMessage",
      "outputs": [],
      "stateMutability": "payable",
      "type": "function"
    },
    {
      "inputs": [
        {
          "internalType": "bytes",
          "name": "lzPayload",
          "type": "bytes"
        },
        {
          "internalType": "address payable",
          "name": "refundAddress",
          "type": "address"
        },
        {
          "internalType": "address",
          "name": "zroPaymentAddress",
          "type": "address"
        },
        {
          "internalType": "bytes",
          "name": "adapterParams",
          "type": "bytes"
        }
      ],
      "name": "sendLzMsg",
      "outputs": [
        {
          "internalType": "uint64",
          "name": "nonce",
          "type": "uint64"
        }
      ],
      "stateMutability": "payable",
      "type": "function"
    },
    {
      "inputs": [
        {
          "internalType": "uint16",
          "name": "_version",
          "type": "uint16"
        },
        {
          "internalType": "uint16",
          "name": "_chainId",
          "type": "uint16"
        },
        {
          "internalType": "uint256",
          "name": "_configType",
          "type": "uint256"
        },
        {
          "internalType": "bytes",
          "name": "_config",
          "type": "bytes"
        }
      ],
      "name": "setConfig",
      "outputs": [],
      "stateMutability": "nonpayable",
      "type": "function"
    },
    {
      "inputs": [
        {
          "internalType": "uint16",
          "name": "_dstChainId",
          "type": "uint16"
        },
        {
          "internalType": "uint16",
          "name": "_packetType",
          "type": "uint16"
        },
        {
          "internalType": "uint256",
          "name": "_minGas",
          "type": "uint256"
        }
      ],
      "name": "setMinDstGas",
      "outputs": [],
      "stateMutability": "nonpayable",
      "type": "function"
    },
    {
      "inputs": [
        {
          "internalType": "uint16",
          "name": "_dstChainId",
          "type": "uint16"
        },
        {
          "internalType": "uint256",
          "name": "_size",
          "type": "uint256"
        }
      ],
      "name": "setPayloadSizeLimit",
      "outputs": [],
      "stateMutability": "nonpayable",
      "type": "function"
    },
    {
      "inputs": [
        {
          "internalType": "address",
          "name": "_precrime",
          "type": "address"
        }
      ],
      "name": "setPrecrime",
      "outputs": [],
      "stateMutability": "nonpayable",
      "type": "function"
    },
    {
      "inputs": [
        {
          "internalType": "uint16",
          "name": "_version",
          "type": "uint16"
        }
      ],
      "name": "setReceiveVersion",
      "outputs": [],
      "stateMutability": "nonpayable",
      "type": "function"
    },
    {
      "inputs": [
        {
          "internalType": "uint16",
          "name": "_version",
          "type": "uint16"
        }
      ],
      "name": "setSendVersion",
      "outputs": [],
      "stateMutability": "nonpayable",
      "type": "function"
    },
    {
      "inputs": [
        {
          "internalType": "uint16",
          "name": "_remoteChainId",
          "type": "uint16"
        },
        {
          "internalType": "bytes",
          "name": "_path",
          "type": "bytes"
        }
      ],
      "name": "setTrustedRemote",
      "outputs": [],
      "stateMutability": "nonpayable",
      "type": "function"
    },
    {
      "inputs": [
        {
          "internalType": "uint16",
          "name": "_remoteChainId",
          "type": "uint16"
        },
        {
          "internalType": "bytes",
          "name": "_remoteAddress",
          "type": "bytes"
        }
      ],
      "name": "setTrustedRemoteAddress",
      "outputs": [],
      "stateMutability": "nonpayable",
      "type": "function"
    },
    {
      "inputs": [
        {
          "internalType": "address",
          "name": "newOwner",
          "type": "address"
        }
      ],
      "name": "transferOwnership",
      "outputs": [],
      "stateMutability": "nonpayable",
      "type": "function"
    },
    {
      "inputs": [
        {
          "internalType": "uint16",
          "name": "",
          "type": "uint16"
        }
      ],
      "name": "trustedRemoteLookup",
      "outputs": [
        {
          "internalType": "bytes",
          "name": "",
          "type": "bytes"
        }
      ],
      "stateMutability": "view",
      "type": "function"
    },
    {
      "inputs": [
        {
          "internalType": "uint16",
          "name": "_srcChainId",
          "type": "uint16"
        },
        {
          "internalType": "bytes",
          "name": "_srcAddress",
          "type": "bytes"
        },
        {
          "internalType": "uint64",
          "name": "_nonce",
          "type": "uint64"
        },
        {
          "internalType": "bytes",
          "name": "_payload",
          "type": "bytes"
        }
      ],
      "name": "verifyAndClearFailedMessage",
      "outputs": [],
      "stateMutability": "nonpayable",
      "type": "function"
    }
  ],
  "bytecode": "0x60e06040523480156200001157600080fd5b5060405162002c0238038062002c028339810160408190526200003491620000e1565b8380620000413362000074565b6001600160a01b031660805250620000598162000074565b5061ffff1660a0526001600160a01b031660c0525062000146565b600080546001600160a01b038381166001600160a01b0319831681178455604051919092169283917f8be0079c531659141344cd1fd0a4f28419497f9722a3daafe3b4186f6b6457e09190a35050565b80516001600160a01b0381168114620000dc57600080fd5b919050565b60008060008060808587031215620000f857600080fd5b6200010385620000c4565b93506200011360208601620000c4565b9250604085015161ffff811681146200012b57600080fd5b91506200013b60608601620000c4565b905092959194509250565b60805160a05160c051612a31620001d16000396000818161048501528181610c8101528181610f3f01526119d60152600081816101f901528181610fb1015261100501526000818161055201528181610660015281816108ec015281816109ba01528181610b0f015281816110320152818161133a015281816117f90152611c1c0152612a316000f3fe6080604052600436106101c05760003560e01c80638da5cb5b116100f7578063baf3292d11610095578063df2a5b3b11610064578063df2a5b3b146105dd578063eb8d72b7146105fd578063f2fde38b1461061d578063f5ecbdbc1461063d57600080fd5b8063baf3292d14610574578063c446183414610594578063cbed8b9c146105aa578063d1deba1f146105ca57600080fd5b80639613b3c0116100d15780639613b3c0146104d45780639f38369a14610500578063a6c3d16514610520578063b353aaa71461054057600080fd5b80638da5cb5b146104275780639076758a14610473578063950c8a74146104a757600080fd5b806342d65a8d1161016457806369ae2cdf1161013e57806369ae2cdf1461038d578063715018a6146103ad5780637533d788146103c25780638cfd8f5c146103ef57600080fd5b806342d65a8d146102fe5780635b8c41e61461031e57806366ad5c8a1461036d57600080fd5b80630df37483116101a05780630df374831461025357806310ddb137146102735780633d8b38f6146102935780633f1f4fa4146102c357600080fd5b80621d3567146101c55780626cf3d1146101e757806307e0db1714610233575b600080fd5b3480156101d157600080fd5b506101e56101e03660046120fd565b61065d565b005b3480156101f357600080fd5b5061021b7f000000000000000000000000000000000000000000000000000000000000000081565b60405161ffff90911681526020015b60405180910390f35b34801561023f57600080fd5b506101e561024e366004612192565b6108b2565b34801561025f57600080fd5b506101e561026e3660046121ad565b610961565b34801561027f57600080fd5b506101e561028e366004612192565b610980565b34801561029f57600080fd5b506102b36102ae3660046121d7565b6109fe565b604051901515815260200161022a565b3480156102cf57600080fd5b506102f06102de366004612192565b60036020526000908152604090205481565b60405190815260200161022a565b34801561030a57600080fd5b506101e56103193660046121d7565b610aca565b34801561032a57600080fd5b506102f0610339366004612308565b6005602090815260009384526040808520845180860184018051928152908401958401959095209452929052825290205481565b34801561037957600080fd5b506101e56103883660046120fd565b610b76565b34801561039957600080fd5b506101e56103a836600461236a565b610c69565b3480156103b957600080fd5b506101e5610e77565b3480156103ce57600080fd5b506103e26103dd366004612192565b610e8b565b60405161022a9190612456565b3480156103fb57600080fd5b506102f061040a366004612469565b600260209081526000928352604080842090915290825290205481565b34801561043357600080fd5b5060005473ffffffffffffffffffffffffffffffffffffffff165b60405173ffffffffffffffffffffffffffffffffffffffff909116815260200161022a565b34801561047f57600080fd5b5061044e7f000000000000000000000000000000000000000000000000000000000000000081565b3480156104b357600080fd5b5060045461044e9073ffffffffffffffffffffffffffffffffffffffff1681565b6104e76104e23660046124be565b610f25565b60405167ffffffffffffffff909116815260200161022a565b34801561050c57600080fd5b506103e261051b366004612192565b6110ca565b34801561052c57600080fd5b506101e561053b3660046121d7565b6111e1565b34801561054c57600080fd5b5061044e7f000000000000000000000000000000000000000000000000000000000000000081565b34801561058057600080fd5b506101e561058f36600461254b565b611274565b3480156105a057600080fd5b506102f061271081565b3480156105b657600080fd5b506101e56105c5366004612568565b6112f5565b6101e56105d83660046120fd565b6113b0565b3480156105e957600080fd5b506101e56105f83660046125c6565b6115fe565b34801561060957600080fd5b506101e56106183660046121d7565b6116b8565b34801561062957600080fd5b506101e561063836600461254b565b611712565b34801561064957600080fd5b506103e2610658366004612602565b6117af565b337f000000000000000000000000000000000000000000000000000000000000000073ffffffffffffffffffffffffffffffffffffffff16146106e75760405162461bcd60e51b815260206004820152601e60248201527f4c7a4170703a20696e76616c696420656e64706f696e742063616c6c6572000060448201526064015b60405180910390fd5b61ffff8616600090815260016020526040812080546107059061264f565b80601f01602080910402602001604051908101604052809291908181526020018280546107319061264f565b801561077e5780601f106107535761010080835404028352916020019161077e565b820191906000526020600020905b81548152906001019060200180831161076157829003601f168201915b50505050509050805186869050148015610799575060008151115b80156107c15750805160208201206040516107b790889088906126a3565b6040518091039020145b6108335760405162461bcd60e51b815260206004820152602660248201527f4c7a4170703a20696e76616c696420736f757263652073656e64696e6720636f60448201527f6e7472616374000000000000000000000000000000000000000000000000000060648201526084016106de565b6108a98787878080601f01602080910402602001604051908101604052809392919081815260200183838082843760009201919091525050604080516020601f8a018190048102820181019092528881528a93509150889088908190840183828082843760009201919091525061188c92505050565b50505050505050565b6108ba611932565b6040517f07e0db1700000000000000000000000000000000000000000000000000000000815261ffff821660048201527f000000000000000000000000000000000000000000000000000000000000000073ffffffffffffffffffffffffffffffffffffffff16906307e0db17906024015b600060405180830381600087803b15801561094657600080fd5b505af115801561095a573d6000803e3d6000fd5b5050505050565b610969611932565b61ffff909116600090815260036020526040902055565b610988611932565b6040517f10ddb13700000000000000000000000000000000000000000000000000000000815261ffff821660048201527f000000000000000000000000000000000000000000000000000000000000000073ffffffffffffffffffffffffffffffffffffffff16906310ddb1379060240161092c565b61ffff831660009081526001602052604081208054829190610a1f9061264f565b80601f0160208091040260200160405190810160405280929190818152602001828054610a4b9061264f565b8015610a985780601f10610a6d57610100808354040283529160200191610a98565b820191906000526020600020905b815481529060010190602001808311610a7b57829003601f168201915b505050505090508383604051610aaf9291906126a3565b60405180910390208180519060200120149150509392505050565b610ad2611932565b6040517f42d65a8d00000000000000000000000000000000000000000000000000000000815273ffffffffffffffffffffffffffffffffffffffff7f000000000000000000000000000000000000000000000000000000000000000016906342d65a8d90610b48908690869086906004016126de565b600060405180830381600087803b158015610b6257600080fd5b505af11580156108a9573d6000803e3d6000fd5b333014610beb5760405162461bcd60e51b815260206004820152602660248201527f4e6f6e626c6f636b696e674c7a4170703a2063616c6c6572206d75737420626560448201527f204c7a417070000000000000000000000000000000000000000000000000000060648201526084016106de565b610c618686868080601f01602080910402602001604051908101604052809392919081815260200183838082843760009201919091525050604080516020601f89018190048102820181019092528781528993509150879087908190840183828082843760009201919091525061199992505050565b505050505050565b3373ffffffffffffffffffffffffffffffffffffffff7f00000000000000000000000000000000000000000000000000000000000000001614610cee5760405162461bcd60e51b815260206004820152600f60248201527f4f6e6c79204847542052656d6f7465000000000000000000000000000000000060448201526064016106de565b61ffff85166000908152600560205260408082209051610d0f9087906126fc565b908152604080516020928190038301902067ffffffffffffffff871660009081529252902054905080610d845760405162461bcd60e51b815260206004820152601b60248201527f4c5a436c69656e743a206e6f2073746f726564206d657373616765000000000060448201526064016106de565b808383604051610d959291906126a3565b604051809103902014610dea5760405162461bcd60e51b815260206004820152601960248201527f4c5a436c69656e743a20696e76616c6964207061796c6f61640000000000000060448201526064016106de565b61ffff86166000908152600560205260408082209051610e0b9088906126fc565b90815260408051918290036020908101832067ffffffffffffffff89166000908152915220919091557fc264d91f3adc5588250e1551f547752ca0cfa8f6b530d243b9f9f4cab10ea8e590610e67908890889088908690612718565b60405180910390a1505050505050565b610e7f611932565b610e896000611a49565b565b60016020526000908152604090208054610ea49061264f565b80601f0160208091040260200160405190810160405280929190818152602001828054610ed09061264f565b8015610f1d5780601f10610ef257610100808354040283529160200191610f1d565b820191906000526020600020905b815481529060010190602001808311610f0057829003601f168201915b505050505081565b60003373ffffffffffffffffffffffffffffffffffffffff7f00000000000000000000000000000000000000000000000000000000000000001614610fac5760405162461bcd60e51b815260206004820152600f60248201527f4f6e6c79204847542052656d6f7465000000000000000000000000000000000060448201526064016106de565b610fda7f00000000000000000000000000000000000000000000000000000000000000008686868634611abe565b6040517f7a14574800000000000000000000000000000000000000000000000000000000815261ffff7f00000000000000000000000000000000000000000000000000000000000000001660048201523060248201527f000000000000000000000000000000000000000000000000000000000000000073ffffffffffffffffffffffffffffffffffffffff1690637a1457489060440160206040518083038186803b15801561108957600080fd5b505afa15801561109d573d6000803e3d6000fd5b505050506040513d601f19601f820116820180604052508101906110c19190612752565b95945050505050565b61ffff81166000908152600160205260408120805460609291906110ed9061264f565b80601f01602080910402602001604051908101604052809291908181526020018280546111199061264f565b80156111665780601f1061113b57610100808354040283529160200191611166565b820191906000526020600020905b81548152906001019060200180831161114957829003601f168201915b505050505090508051600014156111bf5760405162461bcd60e51b815260206004820152601d60248201527f4c7a4170703a206e6f20747275737465642070617468207265636f726400000060448201526064016106de565b6111da6000601483516111d2919061279e565b839190611c98565b9392505050565b6111e9611932565b8181306040516020016111fe939291906127b5565b60408051601f1981840301815291815261ffff8516600090815260016020908152919020825161123393919290910190611f5c565b507f8c0400cfe2d1199b1a725c78960bcc2a344d869b80590d0f2bd005db15a572ce838383604051611267939291906126de565b60405180910390a1505050565b61127c611932565b600480547fffffffffffffffffffffffff00000000000000000000000000000000000000001673ffffffffffffffffffffffffffffffffffffffff83169081179091556040519081527f5db758e995a17ec1ad84bdef7e8c3293a0bd6179bcce400dff5d4c3d87db726b9060200160405180910390a150565b6112fd611932565b6040517fcbed8b9c00000000000000000000000000000000000000000000000000000000815273ffffffffffffffffffffffffffffffffffffffff7f0000000000000000000000000000000000000000000000000000000000000000169063cbed8b9c9061137790889088908890889088906004016127ee565b600060405180830381600087803b15801561139157600080fd5b505af11580156113a5573d6000803e3d6000fd5b505050505050505050565b61ffff861660009081526005602052604080822090516113d390889088906126a3565b908152604080516020928190038301902067ffffffffffffffff87166000908152925290205490508061146e5760405162461bcd60e51b815260206004820152602360248201527f4e6f6e626c6f636b696e674c7a4170703a206e6f2073746f726564206d65737360448201527f616765000000000000000000000000000000000000000000000000000000000060648201526084016106de565b80838360405161147f9291906126a3565b6040518091039020146114fa5760405162461bcd60e51b815260206004820152602160248201527f4e6f6e626c6f636b696e674c7a4170703a20696e76616c6964207061796c6f6160448201527f640000000000000000000000000000000000000000000000000000000000000060648201526084016106de565b61ffff8716600090815260056020526040808220905161151d90899089906126a3565b908152604080516020928190038301812067ffffffffffffffff8916600090815290845282902093909355601f880182900482028301820190528682526115b6918991899089908190840183828082843760009201919091525050604080516020601f8a018190048102820181019092528881528a93509150889088908190840183828082843760009201919091525061199992505050565b7fc264d91f3adc5588250e1551f547752ca0cfa8f6b530d243b9f9f4cab10ea8e587878787856040516115ed959493929190612827565b60405180910390a150505050505050565b611606611932565b600081116116565760405162461bcd60e51b815260206004820152601560248201527f4c7a4170703a20696e76616c6964206d696e476173000000000000000000000060448201526064016106de565b61ffff83811660008181526002602090815260408083209487168084529482529182902085905581519283528201929092529081018290527f9d5c7c0b934da8fefa9c7760c98383778a12dfbfc0c3b3106518f43fb9508ac090606001611267565b6116c0611932565b61ffff831660009081526001602052604090206116de908383611fe0565b507ffa41487ad5d6728f0b19276fa1eddc16558578f5109fc39d2dc33c3230470dab838383604051611267939291906126de565b61171a611932565b73ffffffffffffffffffffffffffffffffffffffff81166117a35760405162461bcd60e51b815260206004820152602660248201527f4f776e61626c653a206e6577206f776e657220697320746865207a65726f206160448201527f646472657373000000000000000000000000000000000000000000000000000060648201526084016106de565b6117ac81611a49565b50565b6040517ff5ecbdbc00000000000000000000000000000000000000000000000000000000815261ffff808616600483015284166024820152306044820152606481018290526060907f000000000000000000000000000000000000000000000000000000000000000073ffffffffffffffffffffffffffffffffffffffff169063f5ecbdbc9060840160006040518083038186803b15801561185057600080fd5b505afa158015611864573d6000803e3d6000fd5b505050506040513d6000823e601f3d908101601f191682016040526110c19190810190612863565b60008061191c5a60966366ad5c8a60e01b898989896040516024016118b494939291906128d1565b60408051601f198184030181529190526020810180517bffffffffffffffffffffffffffffffffffffffffffffffffffffffff167fffffffff000000000000000000000000000000000000000000000000000000009093169290921790915230929190611dc0565b9150915081610c6157610c618686868685611e4b565b60005473ffffffffffffffffffffffffffffffffffffffff163314610e895760405162461bcd60e51b815260206004820181905260248201527f4f776e61626c653a2063616c6c6572206973206e6f7420746865206f776e657260448201526064016106de565b6040517f66ad5c8a00000000000000000000000000000000000000000000000000000000815273ffffffffffffffffffffffffffffffffffffffff7f000000000000000000000000000000000000000000000000000000000000000016906366ad5c8a90611a119087908790879087906004016128d1565b600060405180830381600087803b158015611a2b57600080fd5b505af1158015611a3f573d6000803e3d6000fd5b5050505050505050565b6000805473ffffffffffffffffffffffffffffffffffffffff8381167fffffffffffffffffffffffff0000000000000000000000000000000000000000831681178455604051919092169283917f8be0079c531659141344cd1fd0a4f28419497f9722a3daafe3b4186f6b6457e09190a35050565b61ffff861660009081526001602052604081208054611adc9061264f565b80601f0160208091040260200160405190810160405280929190818152602001828054611b089061264f565b8015611b555780601f10611b2a57610100808354040283529160200191611b55565b820191906000526020600020905b815481529060010190602001808311611b3857829003601f168201915b50505050509050805160001415611bd45760405162461bcd60e51b815260206004820152603060248201527f4c7a4170703a2064657374696e6174696f6e20636861696e206973206e6f742060448201527f61207472757374656420736f757263650000000000000000000000000000000060648201526084016106de565b611bdf878751611ee9565b6040517fc580310000000000000000000000000000000000000000000000000000000000815273ffffffffffffffffffffffffffffffffffffffff7f0000000000000000000000000000000000000000000000000000000000000000169063c5803100908490611c5d908b9086908c908c908c908c90600401612910565b6000604051808303818588803b158015611c7657600080fd5b505af1158015611c8a573d6000803e3d6000fd5b505050505050505050505050565b606081611ca681601f612984565b1015611cf45760405162461bcd60e51b815260206004820152600e60248201527f736c6963655f6f766572666c6f7700000000000000000000000000000000000060448201526064016106de565b611cfe8284612984565b84511015611d4e5760405162461bcd60e51b815260206004820152601160248201527f736c6963655f6f75744f66426f756e647300000000000000000000000000000060448201526064016106de565b606082158015611d6d5760405191506000825260208201604052611db7565b6040519150601f8416801560200281840101858101878315602002848b0101015b81831015611da6578051835260209283019201611d8e565b5050858452601f01601f1916604052505b50949350505050565b6000606060008060008661ffff1667ffffffffffffffff811115611de657611de661222a565b6040519080825280601f01601f191660200182016040528015611e10576020820181803683370190505b50905060008087516020890160008d8df191503d925086831115611e32578692505b828152826000602083013e909890975095505050505050565b8180519060200120600560008761ffff1661ffff16815260200190815260200160002085604051611e7c91906126fc565b90815260408051918290036020908101832067ffffffffffffffff88166000908152915220919091557fe183f33de2837795525b4792ca4cd60535bd77c53b7e7030060bfcf5734d6b0c90611eda908790879087908790879061299c565b60405180910390a15050505050565b61ffff821660009081526003602052604090205480611f0757506127105b80821115611f575760405162461bcd60e51b815260206004820181905260248201527f4c7a4170703a207061796c6f61642073697a6520697320746f6f206c6172676560448201526064016106de565b505050565b828054611f689061264f565b90600052602060002090601f016020900481019282611f8a5760008555611fd0565b82601f10611fa357805160ff1916838001178555611fd0565b82800160010185558215611fd0579182015b82811115611fd0578251825591602001919060010190611fb5565b50611fdc929150612072565b5090565b828054611fec9061264f565b90600052602060002090601f01602090048101928261200e5760008555611fd0565b82601f10612045578280017fffffffffffffffffffffffffffffffffffffffffffffffffffffffffffffff00823516178555611fd0565b82800160010185558215611fd0579182015b82811115611fd0578235825591602001919060010190612057565b5b80821115611fdc5760008155600101612073565b803561ffff8116811461209957600080fd5b919050565b60008083601f8401126120b057600080fd5b50813567ffffffffffffffff8111156120c857600080fd5b6020830191508360208285010111156120e057600080fd5b9250929050565b67ffffffffffffffff811681146117ac57600080fd5b6000806000806000806080878903121561211657600080fd5b61211f87612087565b9550602087013567ffffffffffffffff8082111561213c57600080fd5b6121488a838b0161209e565b90975095506040890135915061215d826120e7565b9093506060880135908082111561217357600080fd5b5061218089828a0161209e565b979a9699509497509295939492505050565b6000602082840312156121a457600080fd5b6111da82612087565b600080604083850312156121c057600080fd5b6121c983612087565b946020939093013593505050565b6000806000604084860312156121ec57600080fd5b6121f584612087565b9250602084013567ffffffffffffffff81111561221157600080fd5b61221d8682870161209e565b9497909650939450505050565b7f4e487b7100000000000000000000000000000000000000000000000000000000600052604160045260246000fd5b604051601f8201601f1916810167ffffffffffffffff811182821017156122825761228261222a565b604052919050565b600067ffffffffffffffff8211156122a4576122a461222a565b50601f01601f191660200190565b600082601f8301126122c357600080fd5b81356122d66122d18261228a565b612259565b8181528460208386010111156122eb57600080fd5b816020850160208301376000918101602001919091529392505050565b60008060006060848603121561231d57600080fd5b61232684612087565b9250602084013567ffffffffffffffff81111561234257600080fd5b61234e868287016122b2565b925050604084013561235f816120e7565b809150509250925092565b60008060008060006080868803121561238257600080fd5b61238b86612087565b9450602086013567ffffffffffffffff808211156123a857600080fd5b6123b489838a016122b2565b9550604088013591506123c6826120e7565b909350606087013590808211156123dc57600080fd5b506123e98882890161209e565b969995985093965092949392505050565b60005b838110156124155781810151838201526020016123fd565b83811115612424576000848401525b50505050565b600081518084526124428160208601602086016123fa565b601f01601f19169290920160200192915050565b6020815260006111da602083018461242a565b6000806040838503121561247c57600080fd5b61248583612087565b915061249360208401612087565b90509250929050565b73ffffffffffffffffffffffffffffffffffffffff811681146117ac57600080fd5b600080600080608085870312156124d457600080fd5b843567ffffffffffffffff808211156124ec57600080fd5b6124f8888389016122b2565b95506020870135915061250a8261249c565b90935060408601359061251c8261249c565b9092506060860135908082111561253257600080fd5b5061253f878288016122b2565b91505092959194509250565b60006020828403121561255d57600080fd5b81356111da8161249c565b60008060008060006080868803121561258057600080fd5b61258986612087565b945061259760208701612087565b935060408601359250606086013567ffffffffffffffff8111156125ba57600080fd5b6123e98882890161209e565b6000806000606084860312156125db57600080fd5b6125e484612087565b92506125f260208501612087565b9150604084013590509250925092565b6000806000806080858703121561261857600080fd5b61262185612087565b935061262f60208601612087565b9250604085013561263f8161249c565b9396929550929360600135925050565b600181811c9082168061266357607f821691505b6020821081141561269d577f4e487b7100000000000000000000000000000000000000000000000000000000600052602260045260246000fd5b50919050565b8183823760009101908152919050565b818352818160208501375060006020828401015260006020601f19601f840116840101905092915050565b61ffff841681526040602082015260006110c16040830184866126b3565b6000825161270e8184602087016123fa565b9190910192915050565b61ffff85168152608060208201526000612735608083018661242a565b67ffffffffffffffff949094166040830152506060015292915050565b60006020828403121561276457600080fd5b81516111da816120e7565b7f4e487b7100000000000000000000000000000000000000000000000000000000600052601160045260246000fd5b6000828210156127b0576127b061276f565b500390565b8284823760609190911b7fffffffffffffffffffffffffffffffffffffffff000000000000000000000000169101908152601401919050565b600061ffff80881683528087166020840152508460408301526080606083015261281c6080830184866126b3565b979650505050505050565b61ffff861681526080602082015260006128456080830186886126b3565b67ffffffffffffffff94909416604083015250606001529392505050565b60006020828403121561287557600080fd5b815167ffffffffffffffff81111561288c57600080fd5b8201601f8101841361289d57600080fd5b80516128ab6122d18261228a565b8181528560208385010111156128c057600080fd5b6110c18260208301602086016123fa565b61ffff851681526080602082015260006128ee608083018661242a565b67ffffffffffffffff85166040840152828103606084015261281c818561242a565b61ffff8716815260c06020820152600061292d60c083018861242a565b828103604084015261293f818861242a565b73ffffffffffffffffffffffffffffffffffffffff87811660608601528616608085015283810360a08501529050612977818561242a565b9998505050505050505050565b600082198211156129975761299761276f565b500190565b61ffff8616815260a0602082015260006129b960a083018761242a565b67ffffffffffffffff8616604084015282810360608401526129db818661242a565b905082810360808401526129ef818561242a565b9897505050505050505056fea2646970667358221220d3529867b26d025fa63606a6e2c8d277e040e9ae5774c1d0d214d504b6f0480e64736f6c63430008090033",
  "linkReferences": {},
  "deployedLinkReferences": {}
}