{
  "_format": "hh-sol-artifact-1",
  "contractName": "InsuranceFund",
  "sourceName": "contracts/InsuranceFund.sol",
  "abi": [
    {
      "anonymous": false,
      "inputs": [
        {
          "indexed": true,
          "internalType": "address",
          "name": "owner",
          "type": "address"
        },
        {
          "indexed": true,
          "internalType": "address",
          "name": "spender",
          "type": "address"
        },
        {
          "indexed": false,
          "internalType": "uint256",
          "name": "value",
          "type": "uint256"
        }
      ],
      "name": "Approval",
      "type": "event"
    },
    {
      "anonymous": false,
      "inputs": [
        {
          "indexed": false,
          "internalType": "uint256",
          "name": "amount",
          "type": "uint256"
        },
        {
          "indexed": false,
          "internalType": "uint256",
          "name": "timestamp",
          "type": "uint256"
        }
      ],
      "name": "BadDebtAccumulated",
      "type": "event"
    },
    {
      "anonymous": false,
      "inputs": [
        {
          "indexed": true,
          "internalType": "address",
          "name": "insurer",
          "type": "address"
        },
        {
          "indexed": false,
          "internalType": "uint256",
          "name": "amount",
          "type": "uint256"
        },
        {
          "indexed": false,
          "internalType": "uint256",
          "name": "timestamp",
          "type": "uint256"
        }
      ],
      "name": "FundsAdded",
      "type": "event"
    },
    {
      "anonymous": false,
      "inputs": [
        {
          "indexed": true,
          "internalType": "address",
          "name": "insurer",
          "type": "address"
        },
        {
          "indexed": false,
          "internalType": "uint256",
          "name": "amount",
          "type": "uint256"
        },
        {
          "indexed": false,
          "internalType": "uint256",
          "name": "timestamp",
          "type": "uint256"
        }
      ],
      "name": "FundsWithdrawn",
      "type": "event"
    },
    {
      "anonymous": false,
      "inputs": [
        {
          "indexed": false,
          "internalType": "uint8",
          "name": "version",
          "type": "uint8"
        }
      ],
      "name": "Initialized",
      "type": "event"
    },
    {
      "anonymous": false,
      "inputs": [
        {
          "indexed": true,
          "internalType": "address",
          "name": "from",
          "type": "address"
        },
        {
          "indexed": true,
          "internalType": "address",
          "name": "to",
          "type": "address"
        },
        {
          "indexed": false,
          "internalType": "uint256",
          "name": "value",
          "type": "uint256"
        }
      ],
      "name": "Transfer",
      "type": "event"
    },
    {
      "anonymous": false,
      "inputs": [
        {
          "indexed": true,
          "internalType": "address",
          "name": "trader",
          "type": "address"
        },
        {
          "indexed": false,
          "internalType": "uint256",
          "name": "unbondAmount",
          "type": "uint256"
        },
        {
          "indexed": false,
          "internalType": "uint256",
          "name": "unbondTime",
          "type": "uint256"
        },
        {
          "indexed": false,
          "internalType": "uint256",
          "name": "timestamp",
          "type": "uint256"
        }
      ],
      "name": "Unbonded",
      "type": "event"
    },
    {
      "inputs": [
        {
          "internalType": "address",
          "name": "owner",
          "type": "address"
        },
        {
          "internalType": "address",
          "name": "spender",
          "type": "address"
        }
      ],
      "name": "allowance",
      "outputs": [
        {
          "internalType": "uint256",
          "name": "",
          "type": "uint256"
        }
      ],
      "stateMutability": "view",
      "type": "function"
    },
    {
      "inputs": [
        {
          "internalType": "address",
          "name": "spender",
          "type": "address"
        },
        {
          "internalType": "uint256",
          "name": "amount",
          "type": "uint256"
        }
      ],
      "name": "approve",
      "outputs": [
        {
          "internalType": "bool",
          "name": "",
          "type": "bool"
        }
      ],
      "stateMutability": "nonpayable",
      "type": "function"
    },
    {
      "inputs": [],
      "name": "auctionDuration",
      "outputs": [
        {
          "internalType": "uint256",
          "name": "",
          "type": "uint256"
        }
      ],
      "stateMutability": "view",
      "type": "function"
    },
    {
      "inputs": [
        {
          "internalType": "address",
          "name": "",
          "type": "address"
        }
      ],
      "name": "auctions",
      "outputs": [
        {
          "internalType": "uint256",
          "name": "startPrice",
          "type": "uint256"
        },
        {
          "internalType": "uint256",
          "name": "startedAt",
          "type": "uint256"
        },
        {
          "internalType": "uint256",
          "name": "expiryTime",
          "type": "uint256"
        }
      ],
      "stateMutability": "view",
      "type": "function"
    },
    {
      "inputs": [],
      "name": "balance",
      "outputs": [
        {
          "internalType": "uint256",
          "name": "",
          "type": "uint256"
        }
      ],
      "stateMutability": "view",
      "type": "function"
    },
    {
      "inputs": [
        {
          "internalType": "address",
          "name": "account",
          "type": "address"
        }
      ],
      "name": "balanceOf",
      "outputs": [
        {
          "internalType": "uint256",
          "name": "",
          "type": "uint256"
        }
      ],
      "stateMutability": "view",
      "type": "function"
    },
    {
      "inputs": [
        {
          "internalType": "address",
          "name": "token",
          "type": "address"
        },
        {
          "internalType": "uint256",
          "name": "amount",
          "type": "uint256"
        }
      ],
      "name": "buyCollateralFromAuction",
      "outputs": [],
      "stateMutability": "nonpayable",
      "type": "function"
    },
    {
      "inputs": [
        {
          "internalType": "address",
          "name": "token",
          "type": "address"
        },
        {
          "internalType": "uint256",
          "name": "amount",
          "type": "uint256"
        }
      ],
      "name": "calcVusdAmountForAuction",
      "outputs": [
        {
          "internalType": "uint256",
          "name": "",
          "type": "uint256"
        }
      ],
      "stateMutability": "view",
      "type": "function"
    },
    {
      "inputs": [],
      "name": "decimals",
      "outputs": [
        {
          "internalType": "uint8",
          "name": "",
          "type": "uint8"
        }
      ],
      "stateMutability": "pure",
      "type": "function"
    },
    {
      "inputs": [
        {
          "internalType": "address",
          "name": "spender",
          "type": "address"
        },
        {
          "internalType": "uint256",
          "name": "subtractedValue",
          "type": "uint256"
        }
      ],
      "name": "decreaseAllowance",
      "outputs": [
        {
          "internalType": "bool",
          "name": "",
          "type": "bool"
        }
      ],
      "stateMutability": "nonpayable",
      "type": "function"
    },
    {
      "inputs": [
        {
          "internalType": "uint256",
          "name": "amount",
          "type": "uint256"
        }
      ],
      "name": "deposit",
      "outputs": [],
      "stateMutability": "nonpayable",
      "type": "function"
    },
    {
      "inputs": [
        {
          "internalType": "address",
          "name": "to",
          "type": "address"
        },
        {
          "internalType": "uint256",
          "name": "amount",
          "type": "uint256"
        }
      ],
      "name": "depositFor",
      "outputs": [],
      "stateMutability": "nonpayable",
      "type": "function"
    },
    {
      "inputs": [
        {
          "internalType": "address",
          "name": "token",
          "type": "address"
        }
      ],
      "name": "getAuctionPrice",
      "outputs": [
        {
          "internalType": "uint256",
          "name": "",
          "type": "uint256"
        }
      ],
      "stateMutability": "view",
      "type": "function"
    },
    {
      "inputs": [],
      "name": "governance",
      "outputs": [
        {
          "internalType": "address",
          "name": "",
          "type": "address"
        }
      ],
      "stateMutability": "view",
      "type": "function"
    },
    {
      "inputs": [
        {
          "internalType": "address",
          "name": "spender",
          "type": "address"
        },
        {
          "internalType": "uint256",
          "name": "addedValue",
          "type": "uint256"
        }
      ],
      "name": "increaseAllowance",
      "outputs": [
        {
          "internalType": "bool",
          "name": "",
          "type": "bool"
        }
      ],
      "stateMutability": "nonpayable",
      "type": "function"
    },
    {
      "inputs": [
        {
          "internalType": "address",
          "name": "_governance",
          "type": "address"
        }
      ],
      "name": "initialize",
      "outputs": [],
      "stateMutability": "nonpayable",
      "type": "function"
    },
    {
      "inputs": [
        {
          "internalType": "address",
          "name": "token",
          "type": "address"
        }
      ],
      "name": "isAuctionOngoing",
      "outputs": [
        {
          "internalType": "bool",
          "name": "",
          "type": "bool"
        }
      ],
      "stateMutability": "view",
      "type": "function"
    },
    {
      "inputs": [],
      "name": "marginAccount",
      "outputs": [
        {
          "internalType": "address",
          "name": "",
          "type": "address"
        }
      ],
      "stateMutability": "view",
      "type": "function"
    },
    {
      "inputs": [],
      "name": "marginAccountHelper",
      "outputs": [
        {
          "internalType": "address",
          "name": "",
          "type": "address"
        }
      ],
      "stateMutability": "view",
      "type": "function"
    },
    {
      "inputs": [],
      "name": "name",
      "outputs": [
        {
          "internalType": "string",
          "name": "",
          "type": "string"
        }
      ],
      "stateMutability": "view",
      "type": "function"
    },
    {
      "inputs": [],
      "name": "oracle",
      "outputs": [
        {
          "internalType": "contract IOracle",
          "name": "",
          "type": "address"
        }
      ],
      "stateMutability": "view",
      "type": "function"
    },
    {
      "inputs": [],
      "name": "pendingObligation",
      "outputs": [
        {
          "internalType": "uint256",
          "name": "",
          "type": "uint256"
        }
      ],
      "stateMutability": "view",
      "type": "function"
    },
    {
      "inputs": [],
      "name": "pricePerShare",
      "outputs": [
        {
          "internalType": "uint256",
          "name": "",
          "type": "uint256"
        }
      ],
      "stateMutability": "view",
      "type": "function"
    },
    {
      "inputs": [
        {
          "internalType": "uint256",
          "name": "amount",
          "type": "uint256"
        }
      ],
      "name": "seizeBadDebt",
      "outputs": [],
      "stateMutability": "nonpayable",
      "type": "function"
    },
    {
      "inputs": [
        {
          "internalType": "address",
          "name": "__governance",
          "type": "address"
        }
      ],
      "name": "setGovernace",
      "outputs": [],
      "stateMutability": "nonpayable",
      "type": "function"
    },
    {
      "inputs": [],
      "name": "settlePendingObligation",
      "outputs": [],
      "stateMutability": "nonpayable",
      "type": "function"
    },
    {
      "inputs": [
        {
          "internalType": "address",
          "name": "token",
          "type": "address"
        }
      ],
      "name": "startAuction",
      "outputs": [],
      "stateMutability": "nonpayable",
      "type": "function"
    },
    {
      "inputs": [],
      "name": "startPriceMultiplier",
      "outputs": [
        {
          "internalType": "uint256",
          "name": "",
          "type": "uint256"
        }
      ],
      "stateMutability": "view",
      "type": "function"
    },
    {
      "inputs": [],
      "name": "symbol",
      "outputs": [
        {
          "internalType": "string",
          "name": "",
          "type": "string"
        }
      ],
      "stateMutability": "view",
      "type": "function"
    },
    {
      "inputs": [
        {
          "internalType": "address",
          "name": "_registry",
          "type": "address"
        }
      ],
      "name": "syncDeps",
      "outputs": [],
      "stateMutability": "nonpayable",
      "type": "function"
    },
    {
      "inputs": [],
      "name": "totalSupply",
      "outputs": [
        {
          "internalType": "uint256",
          "name": "",
          "type": "uint256"
        }
      ],
      "stateMutability": "view",
      "type": "function"
    },
    {
      "inputs": [
        {
          "internalType": "address",
          "name": "to",
          "type": "address"
        },
        {
          "internalType": "uint256",
          "name": "amount",
          "type": "uint256"
        }
      ],
      "name": "transfer",
      "outputs": [
        {
          "internalType": "bool",
          "name": "",
          "type": "bool"
        }
      ],
      "stateMutability": "nonpayable",
      "type": "function"
    },
    {
      "inputs": [
        {
          "internalType": "address",
          "name": "from",
          "type": "address"
        },
        {
          "internalType": "address",
          "name": "to",
          "type": "address"
        },
        {
          "internalType": "uint256",
          "name": "amount",
          "type": "uint256"
        }
      ],
      "name": "transferFrom",
      "outputs": [
        {
          "internalType": "bool",
          "name": "",
          "type": "bool"
        }
      ],
      "stateMutability": "nonpayable",
      "type": "function"
    },
    {
      "inputs": [
        {
          "internalType": "address",
          "name": "",
          "type": "address"
        }
      ],
      "name": "unbond",
      "outputs": [
        {
          "internalType": "uint256",
          "name": "shares",
          "type": "uint256"
        },
        {
          "internalType": "uint256",
          "name": "unbondTime",
          "type": "uint256"
        }
      ],
      "stateMutability": "view",
      "type": "function"
    },
    {
      "inputs": [],
      "name": "unbondPeriod",
      "outputs": [
        {
          "internalType": "uint256",
          "name": "",
          "type": "uint256"
        }
      ],
      "stateMutability": "view",
      "type": "function"
    },
    {
      "inputs": [],
      "name": "unbondRoundOff",
      "outputs": [
        {
          "internalType": "uint256",
          "name": "",
          "type": "uint256"
        }
      ],
      "stateMutability": "view",
      "type": "function"
    },
    {
      "inputs": [
        {
          "internalType": "uint256",
          "name": "shares",
          "type": "uint256"
        }
      ],
      "name": "unbondShares",
      "outputs": [],
      "stateMutability": "nonpayable",
      "type": "function"
    },
    {
      "inputs": [],
      "name": "vusd",
      "outputs": [
        {
          "internalType": "contract IERC20",
          "name": "",
          "type": "address"
        }
      ],
      "stateMutability": "view",
      "type": "function"
    },
    {
      "inputs": [
        {
          "internalType": "uint256",
          "name": "shares",
          "type": "uint256"
        }
      ],
      "name": "withdraw",
      "outputs": [],
      "stateMutability": "nonpayable",
      "type": "function"
    },
    {
      "inputs": [
        {
          "internalType": "address",
          "name": "user",
          "type": "address"
        },
        {
          "internalType": "uint256",
          "name": "shares",
          "type": "uint256"
        }
      ],
      "name": "withdrawFor",
      "outputs": [
        {
          "internalType": "uint256",
          "name": "",
          "type": "uint256"
        }
      ],
      "stateMutability": "nonpayable",
      "type": "function"
    },
    {
      "inputs": [],
      "name": "withdrawPeriod",
      "outputs": [
        {
          "internalType": "uint256",
          "name": "",
          "type": "uint256"
        }
      ],
      "stateMutability": "view",
      "type": "function"
    }
  ],
  "bytecode": "0x608060405234801561001057600080fd5b506130f3806100206000396000f3fe608060405234801561001057600080fd5b50600436106102d35760003560e01c80637cdfc18911610186578063b6b55f25116100e3578063e155acf611610097578063edac520311610071578063edac520314610616578063f742269d14610629578063fc0c5ff11461063c57600080fd5b8063e155acf6146105be578063e2eb4f5e146105c7578063e4da61ab146105da57600080fd5b8063c55b772b116100c8578063c55b772b14610569578063db518db214610572578063dd62ed3e1461058557600080fd5b8063b6b55f2514610543578063c4d66de81461055657600080fd5b806399530b061161013a578063a9059cbb1161011f578063a9059cbb14610515578063ac89894d14610528578063b69ef8a81461053b57600080fd5b806399530b06146104fa578063a457c2d71461050257600080fd5b80637fdff4131161016b5780637fdff413146104cc578063851e3ca5146104df57806395d89b41146104f257600080fd5b80637cdfc189146104a65780637dc0d1d0146104b957600080fd5b80632e1a7d4d1161023457806342ecb269116101e85780635aa6e675116101cd5780635aa6e675146104595780636d0e844c1461046a57806370a082311461047d57600080fd5b806342ecb2691461042657806348d034b61461042e57600080fd5b8063313ce56711610219578063313ce567146103f157806339509351146104005780634075fa0f1461041357600080fd5b80632e1a7d4d146103cb5780632f4f21e2146103de57600080fd5b80630cbf54c81161028b57806318160ddd1161027057806318160ddd146103665780631d59410a1461036e57806323b872dd146103b857600080fd5b80630cbf54c81461035457806312eb4f9a1461035d57600080fd5b806305f529eb116102bc57806305f529eb1461031757806306fdde031461032c578063095ea7b31461034157600080fd5b80630270e302146102d85780630574f89914610300575b600080fd5b6102eb6102e6366004612a67565b610645565b60405190151581526020015b60405180910390f35b61030960705481565b6040519081526020016102f7565b61032a610325366004612a84565b610678565b005b610334610809565b6040516102f79190612adc565b6102eb61034f366004612a84565b61089b565b610309606b5481565b610309606e5481565b603554610309565b61039d61037c366004612a67565b606c6020526000908152604090208054600182015460029092015490919083565b604080519384526020840192909252908201526060016102f7565b6102eb6103c6366004612b2d565b6108b3565b61032a6103d9366004612b6e565b6108d7565b61032a6103ec366004612a84565b6108e8565b604051600681526020016102f7565b6102eb61040e366004612a84565b610a37565b61032a610421366004612a67565b610a76565b61032a610c28565b606754610441906001600160a01b031681565b6040516001600160a01b0390911681526020016102f7565b6000546001600160a01b0316610441565b61032a610478366004612b6e565b610d11565b61030961048b366004612a67565b6001600160a01b031660009081526033602052604090205490565b6103096104b4366004612a84565b610e1b565b606854610441906001600160a01b031681565b6103096104da366004612a67565b610e69565b61032a6104ed366004612a67565b610ecf565b610334610f5f565b610309610f6e565b6102eb610510366004612a84565b610fe4565b6102eb610523366004612a84565b61108e565b61032a610536366004612a67565b61109c565b61030961136d565b61032a610551366004612b6e565b611407565b61032a610564366004612a67565b611411565b61030960695481565b610309610580366004612a84565b6116b4565b610309610593366004612b87565b6001600160a01b03918216600090815260346020908152604080832093909416825291909152205490565b610309606a5481565b61032a6105d5366004612b6e565b611733565b6106016105e8366004612a67565b606d602052600090815260409020805460019091015482565b604080519283526020830191909152016102f7565b606554610441906001600160a01b031681565b606654610441906001600160a01b031681565b610309606f5481565b6001600160a01b0381166000908152606c60205260408120600181015460029091015461067291906117ed565b92915050565b6001600160a01b0382166000908152606c60209081526040918290208251606081018452815481526001820154928101839052600290910154928101839052916106c291906117ed565b6107135760405162461bcd60e51b815260206004820152601560248201527f49462e6e6f5f6f6e676f696e675f61756374696f6e000000000000000000000060448201526064015b60405180910390fd5b6000610720828585611813565b606554909150339061073d906001600160a01b03168230856118c2565b6107516001600160a01b0386168286611997565b6040517f70a082310000000000000000000000000000000000000000000000000000000081523060048201526001600160a01b038616906370a082319060240160206040518083038186803b1580156107a957600080fd5b505afa1580156107bd573d6000803e3d6000fd5b505050506040513d601f19601f820116820180604052508101906107e19190612bc0565b610802576001600160a01b0385166000908152606c60205260408120600101555b5050505050565b60606036805461081890612bd9565b80601f016020809104026020016040519081016040528092919081815260200182805461084490612bd9565b80156108915780601f1061086657610100808354040283529160200191610891565b820191906000526020600020905b81548152906001019060200180831161087457829003601f168201915b5050505050905090565b6000336108a98185856119e0565b5060019392505050565b6000336108c1858285611b38565b6108cc858585611be2565b506001949350505050565b336108e3818381611de1565b505050565b6108f0610c28565b606954156109405760405162461bcd60e51b815260206004820152601e60248201527f49462e6465706f7369742e70656e64696e675f6f626c69676174696f6e730000604482015260640161070a565b600061094a612030565b9050600061095760355490565b9050600061096361136d565b9050811580156109735750600081115b156109a5576109a061098d6000546001600160a01b031690565b6065546001600160a01b03169083611997565b600092505b6109bd336065546001600160a01b03169030876118c2565b6000836109cb5750836109e3565b836109d68487612c5c565b6109e09190612c99565b90505b6109ed86826122db565b6040805186815242602082015281516001600160a01b038916927f92023dd282de3eea749a3a27a58271d70f04c1f7905fce2e1996ec9bdfccf33b928290030190a2505050505050565b3360008181526034602090815260408083206001600160a01b03871684529091528120549091906108a99082908690610a71908790612cd4565b6119e0565b6066546001600160a01b0316336001600160a01b031614610ad95760405162461bcd60e51b815260206004820152601660248201527f49462e6f6e6c795f6d617267696e5f6163636f756e7400000000000000000000604482015260640161070a565b6001600160a01b0381166000908152606c602052604090206001810154600290910154610b0691906117ed565b610c25576068546040517ffc57d4df0000000000000000000000000000000000000000000000000000000081526001600160a01b038381166004830152600092169063fc57d4df9060240160206040518083038186803b158015610b6957600080fd5b505afa158015610b7d573d6000803e3d6000fd5b505050506040513d601f19601f82011682018060405250810190610ba19190612bc0565b6040805160608101909152909150429080610bbe6006600a612e0c565b606a54610bcb9086612c5c565b610bd59190612c99565b8152602001828152602001606b5483610bee9190612cd4565b90526001600160a01b0384166000908152606c60209081526040918290208351815590830151600182015591015160029091015550505b50565b60695415610d0f576065546040517f70a08231000000000000000000000000000000000000000000000000000000008152306004820152600091610cd3916001600160a01b03909116906370a082319060240160206040518083038186803b158015610c9357600080fd5b505afa158015610ca7573d6000803e3d6000fd5b505050506040513d601f19601f82011682018060405250810190610ccb9190612bc0565b6069546123a8565b90508015610c25578060696000828254610ced9190612e1b565b9091555050606654606554610c25916001600160a01b03918216911683611997565b565b33600081815260336020526040902054821115610d705760405162461bcd60e51b815260206004820152601260248201527f756e626f6e64696e675f746f6f5f6d7563680000000000000000000000000000604482015260640161070a565b607054606f5442916000918190610d879085612cd4565b610d919190612c99565b610d9b9190612c5c565b60408051808201825286815260208082018481526001600160a01b0388166000818152606d845285902093518455905160019093019290925582518881529081018490529182018590529192507ffcc4bc9c6b8463463bcbae7de4078e3ef39ab55315563076c4061fc68ad413379060600160405180910390a250505050565b6001600160a01b0382166000908152606c602090815260408083208151606081018352815481526001820154938101939093526002015490820152610e61818585611813565b949350505050565b6001600160a01b0381166000908152606c60209081526040808320815160608101835281548152600182015493810184905260029091015491810182905291610eb1916117ed565b15610ec657610ebf816123be565b9392505050565b50600092915050565b6000546001600160a01b03163314610f295760405162461bcd60e51b815260206004820152600f60248201527f4f4e4c595f474f5645524e414e43450000000000000000000000000000000000604482015260640161070a565b600080547fffffffffffffffffffffffff0000000000000000000000000000000000000000166001600160a01b03831617905550565b60606037805461081890612bd9565b600080610f7a60355490565b90506000610f8661136d565b9050610f94816069546123a8565b610f9e9082612e1b565b9050811580610fab575080155b15610fc357610fbc6006600a612e0c565b9250505090565b81610fd06006600a612e0c565b610fda9083612c5c565b610fbc9190612c99565b3360008181526034602090815260408083206001600160a01b0387168452909152812054909190838110156110815760405162461bcd60e51b815260206004820152602560248201527f45524332303a2064656372656173656420616c6c6f77616e63652062656c6f7760448201527f207a65726f000000000000000000000000000000000000000000000000000000606482015260840161070a565b6108cc82868684036119e0565b6000336108a9818585611be2565b6000546001600160a01b031633146110f65760405162461bcd60e51b815260206004820152600f60248201527f4f4e4c595f474f5645524e414e43450000000000000000000000000000000000604482015260640161070a565b6000819050806001600160a01b031663edac52036040518163ffffffff1660e01b815260040160206040518083038186803b15801561113457600080fd5b505afa158015611148573d6000803e3d6000fd5b505050506040513d601f19601f8201168201806040525081019061116c9190612e32565b606560006101000a8154816001600160a01b0302191690836001600160a01b03160217905550806001600160a01b031663f742269d6040518163ffffffff1660e01b815260040160206040518083038186803b1580156111cb57600080fd5b505afa1580156111df573d6000803e3d6000fd5b505050506040513d601f19601f820116820180604052508101906112039190612e32565b606660006101000a8154816001600160a01b0302191690836001600160a01b03160217905550806001600160a01b0316637dc0d1d06040518163ffffffff1660e01b815260040160206040518083038186803b15801561126257600080fd5b505afa158015611276573d6000803e3d6000fd5b505050506040513d601f19601f8201168201806040525081019061129a9190612e32565b606860006101000a8154816001600160a01b0302191690836001600160a01b03160217905550806001600160a01b03166348d034b66040518163ffffffff1660e01b815260040160206040518083038186803b1580156112f957600080fd5b505afa15801561130d573d6000803e3d6000fd5b505050506040513d601f19601f820116820180604052508101906113319190612e32565b606780547fffffffffffffffffffffffff0000000000000000000000000000000000000000166001600160a01b03929092169190911790555050565b6065546040517f70a082310000000000000000000000000000000000000000000000000000000081523060048201526000916001600160a01b0316906370a082319060240160206040518083038186803b1580156113ca57600080fd5b505afa1580156113de573d6000803e3d6000fd5b505050506040513d601f19601f820116820180604052508101906114029190612bc0565b905090565b610c2533826108e8565b6000547501000000000000000000000000000000000000000000900460ff161580801561145c575060005460017401000000000000000000000000000000000000000090910460ff16105b8061148e5750303b15801561148e575060005474010000000000000000000000000000000000000000900460ff166001145b6115005760405162461bcd60e51b815260206004820152602e60248201527f496e697469616c697a61626c653a20636f6e747261637420697320616c72656160448201527f647920696e697469616c697a6564000000000000000000000000000000000000606482015260840161070a565b600080547fffffffffffffffffffffff00ffffffffffffffffffffffffffffffffffffffff1674010000000000000000000000000000000000000000179055801561158657600080547fffffffffffffffffffff00ffffffffffffffffffffffffffffffffffffffffff1675010000000000000000000000000000000000000000001790555b6115fa6040518060400160405280601581526020017f487562626c652d496e737572616e63652d46756e6400000000000000000000008152506040518060400160405280600381526020017f4849460000000000000000000000000000000000000000000000000000000000815250612400565b600080547fffffffffffffffffffffffff0000000000000000000000000000000000000000166001600160a01b0384161790556202a300606f5562015180606e81905560705562100590606a55611c20606b5580156116b057600080547fffffffffffffffffffff00ffffffffffffffffffffffffffffffffffffffffff169055604051600181527f7f26b83ff96e1f2b6a682f133852f6798a09c465da95921460cefb38474024989060200160405180910390a15b5050565b6067546000906001600160a01b0316336001600160a01b03161461171a5760405162461bcd60e51b815260206004820152601d60248201527f49462e6f6e6c795f6d617267696e5f6163636f756e745f68656c706572000000604482015260640161070a565b606754610ebf90849084906001600160a01b0316611de1565b6066546001600160a01b0316336001600160a01b0316146117965760405162461bcd60e51b815260206004820152601660248201527f49462e6f6e6c795f6d617267696e5f6163636f756e7400000000000000000000604482015260640161070a565b80606960008282546117a89190612cd4565b9091555050604080518281524260208201527fd8ba11c6d419443c48cff82c9b3fd406e06edcbadc9dd9d114e0e4ab0c2522d3910160405180910390a1610c25610c28565b6000826117fc57506000610672565b42808411801590610e615750919091111592915050565b60008061181f856123be565b90506000846001600160a01b031663313ce5676040518163ffffffff1660e01b815260040160206040518083038186803b15801561185c57600080fd5b505afa158015611870573d6000803e3d6000fd5b505050506040513d601f19601f820116820180604052508101906118949190612e65565b60ff1690506118a481600a612e80565b6118ae8386612c5c565b6118b89190612c99565b9695505050505050565b6040516001600160a01b03808516602483015283166044820152606481018290526119919085907f23b872dd00000000000000000000000000000000000000000000000000000000906084015b604080517fffffffffffffffffffffffffffffffffffffffffffffffffffffffffffffffe08184030181529190526020810180517bffffffffffffffffffffffffffffffffffffffffffffffffffffffff167fffffffff000000000000000000000000000000000000000000000000000000009093169290921790915261249b565b50505050565b6040516001600160a01b0383166024820152604481018290526108e39084907fa9059cbb000000000000000000000000000000000000000000000000000000009060640161190f565b6001600160a01b038316611a5b5760405162461bcd60e51b8152602060048201526024808201527f45524332303a20617070726f76652066726f6d20746865207a65726f2061646460448201527f7265737300000000000000000000000000000000000000000000000000000000606482015260840161070a565b6001600160a01b038216611ad75760405162461bcd60e51b815260206004820152602260248201527f45524332303a20617070726f766520746f20746865207a65726f20616464726560448201527f7373000000000000000000000000000000000000000000000000000000000000606482015260840161070a565b6001600160a01b0383811660008181526034602090815260408083209487168084529482529182902085905590518481527f8c5be1e5ebec7d5bd14f71427d1e84f3dd0314c0f7b2291e5b200ac8c7c3b925910160405180910390a3505050565b6001600160a01b038381166000908152603460209081526040808320938616835292905220547fffffffffffffffffffffffffffffffffffffffffffffffffffffffffffffffff81146119915781811015611bd55760405162461bcd60e51b815260206004820152601d60248201527f45524332303a20696e73756666696369656e7420616c6c6f77616e6365000000604482015260640161070a565b61199184848484036119e0565b6001600160a01b038316611c5e5760405162461bcd60e51b815260206004820152602560248201527f45524332303a207472616e736665722066726f6d20746865207a65726f20616460448201527f6472657373000000000000000000000000000000000000000000000000000000606482015260840161070a565b6001600160a01b038216611cda5760405162461bcd60e51b815260206004820152602360248201527f45524332303a207472616e7366657220746f20746865207a65726f206164647260448201527f6573730000000000000000000000000000000000000000000000000000000000606482015260840161070a565b611ce5838383612583565b6001600160a01b03831660009081526033602052604090205481811015611d745760405162461bcd60e51b815260206004820152602660248201527f45524332303a207472616e7366657220616d6f756e742065786365656473206260448201527f616c616e63650000000000000000000000000000000000000000000000000000606482015260840161070a565b6001600160a01b0380851660008181526033602052604080822086860390559286168082529083902080548601905591517fddf252ad1be2c89b69c2b068fc378daa952ba7f163c4a11628f55a4df523b3ef90611dd49086815260200190565b60405180910390a3611991565b6001600160a01b0383166000908152606d6020526040812054831115611e495760405162461bcd60e51b815260206004820152601c60248201527f7769746864726177696e675f6d6f72655f7468616e5f756e626f6e6400000000604482015260640161070a565b6001600160a01b0384166000908152606d60205260409020600101544290811015611eb65760405162461bcd60e51b815260206004820152600f60248201527f7374696c6c5f756e626f6e64696e670000000000000000000000000000000000604482015260640161070a565b6001600160a01b0385166000908152606d6020526040902060010154611edd908290612651565b15611f2a5760405162461bcd60e51b815260206004820152601460248201527f77697468647261775f706572696f645f6f766572000000000000000000000000604482015260640161070a565b611f32610c28565b60695415611f825760405162461bcd60e51b815260206004820152601f60248201527f49462e77697468647261772e70656e64696e675f6f626c69676174696f6e7300604482015260640161070a565b60355484611f8e61136d565b611f989190612c5c565b611fa29190612c99565b6001600160a01b0386166000908152606d60205260409020805486900390559150611fcd858561266a565b606554611fe4906001600160a01b03168484611997565b60408051838152602081018390526001600160a01b038716917ffbc3a599b784fe88772fc5abcc07223f64ca0b13acc341f4fb1e46bef0510eb4910160405180910390a2509392505050565b600080606660009054906101000a90046001600160a01b03166001600160a01b031663a80ce55c6040518163ffffffff1660e01b815260040160006040518083038186803b15801561208157600080fd5b505afa158015612095573d6000803e3d6000fd5b505050506040513d6000823e601f3d9081017fffffffffffffffffffffffffffffffffffffffffffffffffffffffffffffffe01682016040526120db9190810190612f33565b905060005b81518110156122d65760008282815181106120fd576120fd613017565b6020908102919091010151516040517f70a082310000000000000000000000000000000000000000000000000000000081523060048201526001600160a01b03909116906370a082319060240160206040518083038186803b15801561216257600080fd5b505afa158015612176573d6000803e3d6000fd5b505050506040513d601f19601f8201168201806040525081019061219a9190612bc0565b9050806121a757506122c4565b60685483516000916001600160a01b03169063fc57d4df908690869081106121d1576121d1613017565b6020908102919091010151516040517fffffffff0000000000000000000000000000000000000000000000000000000060e084901b1681526001600160a01b03909116600482015260240160206040518083038186803b15801561223457600080fd5b505afa158015612248573d6000803e3d6000fd5b505050506040513d601f19601f8201168201806040525081019061226c9190612bc0565b6122769083612c5c565b9050600084848151811061228c5761228c613017565b60200260200101516040015160ff16905080600a6122aa9190612e80565b6122b49083612c99565b6122be9087612cd4565b95505050505b806122ce81613046565b9150506120e0565b505090565b6001600160a01b0382166123315760405162461bcd60e51b815260206004820152601f60248201527f45524332303a206d696e7420746f20746865207a65726f206164647265737300604482015260640161070a565b61233d60008383612583565b806035600082825461234f9190612cd4565b90915550506001600160a01b0382166000818152603360209081526040808320805486019055518481527fddf252ad1be2c89b69c2b068fc378daa952ba7f163c4a11628f55a4df523b3ef910160405180910390a35050565b60008183106123b75781610ebf565b5090919050565b600080606b5483602001516123d04290565b6123da9190612e1b565b84516123e69190612c5c565b6123f09190612c99565b8351909150610ebf908290612e1b565b6000547501000000000000000000000000000000000000000000900460ff166124915760405162461bcd60e51b815260206004820152602b60248201527f496e697469616c697a61626c653a20636f6e7472616374206973206e6f74206960448201527f6e697469616c697a696e67000000000000000000000000000000000000000000606482015260840161070a565b6116b082826127e1565b60006124f0826040518060400160405280602081526020017f5361666545524332303a206c6f772d6c6576656c2063616c6c206661696c6564815250856001600160a01b03166128999092919063ffffffff16565b9050805160001480612511575080806020019051810190612511919061307f565b6108e35760405162461bcd60e51b815260206004820152602a60248201527f5361666545524332303a204552433230206f7065726174696f6e20646964206e60448201527f6f74207375636365656400000000000000000000000000000000000000000000606482015260840161070a565b6001600160a01b03831615806125a057506001600160a01b038216155b156125aa57505050565b6125cf426001600160a01b0385166000908152606d6020526040902060010154612651565b6108e3576001600160a01b0383166000908152606d60209081526040808320546033909252909120546126029190612e1b565b8111156108e35760405162461bcd60e51b815260206004820152601460248201527f7368617265735f6172655f756e626f6e64696e67000000000000000000000000604482015260640161070a565b6000606e54826126619190612cd4565b90921192915050565b6001600160a01b0382166126e65760405162461bcd60e51b815260206004820152602160248201527f45524332303a206275726e2066726f6d20746865207a65726f2061646472657360448201527f7300000000000000000000000000000000000000000000000000000000000000606482015260840161070a565b6126f282600083612583565b6001600160a01b038216600090815260336020526040902054818110156127815760405162461bcd60e51b815260206004820152602260248201527f45524332303a206275726e20616d6f756e7420657863656564732062616c616e60448201527f6365000000000000000000000000000000000000000000000000000000000000606482015260840161070a565b6001600160a01b03831660008181526033602090815260408083208686039055603580548790039055518581529192917fddf252ad1be2c89b69c2b068fc378daa952ba7f163c4a11628f55a4df523b3ef910160405180910390a3505050565b6000547501000000000000000000000000000000000000000000900460ff166128725760405162461bcd60e51b815260206004820152602b60248201527f496e697469616c697a61626c653a20636f6e7472616374206973206e6f74206960448201527f6e697469616c697a696e67000000000000000000000000000000000000000000606482015260840161070a565b81516128859060369060208501906129b9565b5080516108e39060379060208401906129b9565b6060610e61848460008585600080866001600160a01b031685876040516128c091906130a1565b60006040518083038185875af1925050503d80600081146128fd576040519150601f19603f3d011682016040523d82523d6000602084013e612902565b606091505b50915091506129138783838761291e565b979650505050505050565b6060831561298a578251612983576001600160a01b0385163b6129835760405162461bcd60e51b815260206004820152601d60248201527f416464726573733a2063616c6c20746f206e6f6e2d636f6e7472616374000000604482015260640161070a565b5081610e61565b610e61838381511561299f5781518083602001fd5b8060405162461bcd60e51b815260040161070a9190612adc565b8280546129c590612bd9565b90600052602060002090601f0160209004810192826129e75760008555612a2d565b82601f10612a0057805160ff1916838001178555612a2d565b82800160010185558215612a2d579182015b82811115612a2d578251825591602001919060010190612a12565b50612a39929150612a3d565b5090565b5b80821115612a395760008155600101612a3e565b6001600160a01b0381168114610c2557600080fd5b600060208284031215612a7957600080fd5b8135610ebf81612a52565b60008060408385031215612a9757600080fd5b8235612aa281612a52565b946020939093013593505050565b60005b83811015612acb578181015183820152602001612ab3565b838111156119915750506000910152565b6020815260008251806020840152612afb816040850160208701612ab0565b601f017fffffffffffffffffffffffffffffffffffffffffffffffffffffffffffffffe0169190910160400192915050565b600080600060608486031215612b4257600080fd5b8335612b4d81612a52565b92506020840135612b5d81612a52565b929592945050506040919091013590565b600060208284031215612b8057600080fd5b5035919050565b60008060408385031215612b9a57600080fd5b8235612ba581612a52565b91506020830135612bb581612a52565b809150509250929050565b600060208284031215612bd257600080fd5b5051919050565b600181811c90821680612bed57607f821691505b60208210811415612c27577f4e487b7100000000000000000000000000000000000000000000000000000000600052602260045260246000fd5b50919050565b7f4e487b7100000000000000000000000000000000000000000000000000000000600052601160045260246000fd5b6000817fffffffffffffffffffffffffffffffffffffffffffffffffffffffffffffffff0483118215151615612c9457612c94612c2d565b500290565b600082612ccf577f4e487b7100000000000000000000000000000000000000000000000000000000600052601260045260246000fd5b500490565b60008219821115612ce757612ce7612c2d565b500190565b600181815b80851115612d4557817fffffffffffffffffffffffffffffffffffffffffffffffffffffffffffffffff04821115612d2b57612d2b612c2d565b80851615612d3857918102915b93841c9390800290612cf1565b509250929050565b600082612d5c57506001610672565b81612d6957506000610672565b8160018114612d7f5760028114612d8957612da5565b6001915050610672565b60ff841115612d9a57612d9a612c2d565b50506001821b610672565b5060208310610133831016604e8410600b8410161715612dc8575081810a610672565b612dd28383612cec565b807fffffffffffffffffffffffffffffffffffffffffffffffffffffffffffffffff04821115612e0457612e04612c2d565b029392505050565b6000610ebf60ff841683612d4d565b600082821015612e2d57612e2d612c2d565b500390565b600060208284031215612e4457600080fd5b8151610ebf81612a52565b805160ff81168114612e6057600080fd5b919050565b600060208284031215612e7757600080fd5b610ebf82612e4f565b6000610ebf8383612d4d565b7f4e487b7100000000000000000000000000000000000000000000000000000000600052604160045260246000fd5b6040516060810167ffffffffffffffff81118282101715612ede57612ede612e8c565b60405290565b604051601f82017fffffffffffffffffffffffffffffffffffffffffffffffffffffffffffffffe016810167ffffffffffffffff81118282101715612f2b57612f2b612e8c565b604052919050565b60006020808385031215612f4657600080fd5b825167ffffffffffffffff80821115612f5e57600080fd5b818501915085601f830112612f7257600080fd5b815181811115612f8457612f84612e8c565b612f92848260051b01612ee4565b81815284810192506060918202840185019188831115612fb157600080fd5b938501935b8285101561300b5780858a031215612fce5760008081fd5b612fd6612ebb565b8551612fe181612a52565b815285870151878201526040612ff8818801612e4f565b9082015284529384019392850192612fb6565b50979650505050505050565b7f4e487b7100000000000000000000000000000000000000000000000000000000600052603260045260246000fd5b60007fffffffffffffffffffffffffffffffffffffffffffffffffffffffffffffffff82141561307857613078612c2d565b5060010190565b60006020828403121561309157600080fd5b81518015158114610ebf57600080fd5b600082516130b3818460208701612ab0565b919091019291505056fea2646970667358221220ca4c274de94afd142059ea3366d0bb915384281ec5d243273a446641f32b352464736f6c63430008090033",
  "linkReferences": {},
  "deployedLinkReferences": {}
}