{
  "_format": "hh-sol-artifact-1",
  "contractName": "OrderBook",
  "sourceName": "contracts/orderbooks/OrderBook.sol",
  "abi": [
    {
      "inputs": [
        {
          "internalType": "address",
          "name": "_clearingHouse",
          "type": "address"
        },
        {
          "internalType": "address",
          "name": "_trustedForwarder",
          "type": "address"
        }
      ],
      "stateMutability": "nonpayable",
      "type": "constructor"
    },
    {
      "anonymous": false,
      "inputs": [
        {
          "indexed": false,
          "internalType": "uint8",
          "name": "version",
          "type": "uint8"
        }
      ],
      "name": "Initialized",
      "type": "event"
    },
    {
      "anonymous": false,
      "inputs": [
        {
          "indexed": true,
          "internalType": "address",
          "name": "trader",
          "type": "address"
        },
        {
          "indexed": true,
          "internalType": "bytes32",
          "name": "orderHash",
          "type": "bytes32"
        },
        {
          "indexed": false,
          "internalType": "string",
          "name": "err",
          "type": "string"
        },
        {
          "indexed": false,
          "internalType": "uint256",
          "name": "toLiquidate",
          "type": "uint256"
        }
      ],
      "name": "LiquidationError",
      "type": "event"
    },
    {
      "anonymous": false,
      "inputs": [
        {
          "indexed": false,
          "internalType": "string",
          "name": "err",
          "type": "string"
        }
      ],
      "name": "MatchingValidationError",
      "type": "event"
    },
    {
      "anonymous": false,
      "inputs": [
        {
          "indexed": true,
          "internalType": "address",
          "name": "trader",
          "type": "address"
        },
        {
          "indexed": true,
          "internalType": "bytes32",
          "name": "orderHash",
          "type": "bytes32"
        },
        {
          "indexed": false,
          "internalType": "uint256",
          "name": "fillAmount",
          "type": "uint256"
        },
        {
          "indexed": false,
          "internalType": "uint256",
          "name": "price",
          "type": "uint256"
        },
        {
          "indexed": false,
          "internalType": "uint256",
          "name": "openInterestNotional",
          "type": "uint256"
        },
        {
          "indexed": false,
          "internalType": "uint256",
          "name": "timestamp",
          "type": "uint256"
        },
        {
          "indexed": false,
          "internalType": "bool",
          "name": "isLiquidation",
          "type": "bool"
        }
      ],
      "name": "OrderMatched",
      "type": "event"
    },
    {
      "anonymous": false,
      "inputs": [
        {
          "indexed": true,
          "internalType": "bytes32",
          "name": "orderHash",
          "type": "bytes32"
        },
        {
          "indexed": false,
          "internalType": "string",
          "name": "err",
          "type": "string"
        }
      ],
      "name": "OrderMatchingError",
      "type": "event"
    },
    {
      "anonymous": false,
      "inputs": [
        {
          "indexed": false,
          "internalType": "address",
          "name": "account",
          "type": "address"
        }
      ],
      "name": "Paused",
      "type": "event"
    },
    {
      "anonymous": false,
      "inputs": [
        {
          "indexed": true,
          "internalType": "address",
          "name": "trader",
          "type": "address"
        },
        {
          "indexed": true,
          "internalType": "address",
          "name": "authority",
          "type": "address"
        }
      ],
      "name": "TradingAuthorityRevoked",
      "type": "event"
    },
    {
      "anonymous": false,
      "inputs": [
        {
          "indexed": true,
          "internalType": "address",
          "name": "trader",
          "type": "address"
        },
        {
          "indexed": true,
          "internalType": "address",
          "name": "authority",
          "type": "address"
        }
      ],
      "name": "TradingAuthorityWhitelisted",
      "type": "event"
    },
    {
      "anonymous": false,
      "inputs": [
        {
          "indexed": false,
          "internalType": "address",
          "name": "account",
          "type": "address"
        }
      ],
      "name": "Unpaused",
      "type": "event"
    },
    {
      "inputs": [],
      "name": "clearingHouse",
      "outputs": [
        {
          "internalType": "contract IClearingHouse",
          "name": "",
          "type": "address"
        }
      ],
      "stateMutability": "view",
      "type": "function"
    },
    {
      "inputs": [
        {
          "internalType": "bytes[2]",
          "name": "data",
          "type": "bytes[2]"
        },
        {
          "internalType": "int256",
          "name": "fillAmount",
          "type": "int256"
        }
      ],
      "name": "executeMatchedOrders",
      "outputs": [],
      "stateMutability": "nonpayable",
      "type": "function"
    },
    {
      "inputs": [],
      "name": "governance",
      "outputs": [
        {
          "internalType": "address",
          "name": "",
          "type": "address"
        }
      ],
      "stateMutability": "view",
      "type": "function"
    },
    {
      "inputs": [
        {
          "internalType": "address",
          "name": "_governance",
          "type": "address"
        }
      ],
      "name": "initialize",
      "outputs": [],
      "stateMutability": "nonpayable",
      "type": "function"
    },
    {
      "inputs": [
        {
          "internalType": "address",
          "name": "",
          "type": "address"
        },
        {
          "internalType": "address",
          "name": "",
          "type": "address"
        }
      ],
      "name": "isTradingAuthority",
      "outputs": [
        {
          "internalType": "bool",
          "name": "",
          "type": "bool"
        }
      ],
      "stateMutability": "view",
      "type": "function"
    },
    {
      "inputs": [
        {
          "internalType": "address",
          "name": "forwarder",
          "type": "address"
        }
      ],
      "name": "isTrustedForwarder",
      "outputs": [
        {
          "internalType": "bool",
          "name": "",
          "type": "bool"
        }
      ],
      "stateMutability": "view",
      "type": "function"
    },
    {
      "inputs": [
        {
          "internalType": "address",
          "name": "",
          "type": "address"
        }
      ],
      "name": "isValidator",
      "outputs": [
        {
          "internalType": "bool",
          "name": "",
          "type": "bool"
        }
      ],
      "stateMutability": "view",
      "type": "function"
    },
    {
      "inputs": [],
      "name": "juror",
      "outputs": [
        {
          "internalType": "contract IJuror",
          "name": "",
          "type": "address"
        }
      ],
      "stateMutability": "view",
      "type": "function"
    },
    {
      "inputs": [
        {
          "internalType": "address",
          "name": "trader",
          "type": "address"
        },
        {
          "internalType": "bytes",
          "name": "data",
          "type": "bytes"
        },
        {
          "internalType": "uint256",
          "name": "liquidationAmount",
          "type": "uint256"
        }
      ],
      "name": "liquidateAndExecuteOrder",
      "outputs": [],
      "stateMutability": "nonpayable",
      "type": "function"
    },
    {
      "inputs": [
        {
          "internalType": "uint8",
          "name": "",
          "type": "uint8"
        }
      ],
      "name": "orderHandlers",
      "outputs": [
        {
          "internalType": "address",
          "name": "",
          "type": "address"
        }
      ],
      "stateMutability": "view",
      "type": "function"
    },
    {
      "inputs": [
        {
          "internalType": "string",
          "name": "err",
          "type": "string"
        }
      ],
      "name": "parseMatchingError",
      "outputs": [
        {
          "internalType": "bytes32",
          "name": "orderHash",
          "type": "bytes32"
        },
        {
          "internalType": "string",
          "name": "reason",
          "type": "string"
        }
      ],
      "stateMutability": "pure",
      "type": "function"
    },
    {
      "inputs": [],
      "name": "pause",
      "outputs": [],
      "stateMutability": "nonpayable",
      "type": "function"
    },
    {
      "inputs": [],
      "name": "paused",
      "outputs": [
        {
          "internalType": "bool",
          "name": "",
          "type": "bool"
        }
      ],
      "stateMutability": "view",
      "type": "function"
    },
    {
      "inputs": [],
      "name": "referral",
      "outputs": [
        {
          "internalType": "address",
          "name": "",
          "type": "address"
        }
      ],
      "stateMutability": "view",
      "type": "function"
    },
    {
      "inputs": [
        {
          "internalType": "address",
          "name": "authority",
          "type": "address"
        }
      ],
      "name": "revokeTradingAuthority",
      "outputs": [],
      "stateMutability": "nonpayable",
      "type": "function"
    },
    {
      "inputs": [
        {
          "internalType": "address",
          "name": "__governance",
          "type": "address"
        }
      ],
      "name": "setGovernace",
      "outputs": [],
      "stateMutability": "nonpayable",
      "type": "function"
    },
    {
      "inputs": [
        {
          "internalType": "address",
          "name": "_juror",
          "type": "address"
        }
      ],
      "name": "setJuror",
      "outputs": [],
      "stateMutability": "nonpayable",
      "type": "function"
    },
    {
      "inputs": [
        {
          "internalType": "uint8",
          "name": "orderType",
          "type": "uint8"
        },
        {
          "internalType": "address",
          "name": "handler",
          "type": "address"
        }
      ],
      "name": "setOrderHandler",
      "outputs": [],
      "stateMutability": "nonpayable",
      "type": "function"
    },
    {
      "inputs": [
        {
          "internalType": "address",
          "name": "_referral",
          "type": "address"
        }
      ],
      "name": "setReferral",
      "outputs": [],
      "stateMutability": "nonpayable",
      "type": "function"
    },
    {
      "inputs": [
        {
          "internalType": "address",
          "name": "trader",
          "type": "address"
        },
        {
          "internalType": "address",
          "name": "authority",
          "type": "address"
        }
      ],
      "name": "setTradingAuthority",
      "outputs": [],
      "stateMutability": "payable",
      "type": "function"
    },
    {
      "inputs": [
        {
          "internalType": "address",
          "name": "validator",
          "type": "address"
        },
        {
          "internalType": "bool",
          "name": "status",
          "type": "bool"
        }
      ],
      "name": "setValidatorStatus",
      "outputs": [],
      "stateMutability": "nonpayable",
      "type": "function"
    },
    {
      "inputs": [],
      "name": "unpause",
      "outputs": [],
      "stateMutability": "nonpayable",
      "type": "function"
    },
    {
      "inputs": [
        {
          "internalType": "address",
          "name": "authority",
          "type": "address"
        }
      ],
      "name": "whitelistTradingAuthority",
      "outputs": [],
      "stateMutability": "payable",
      "type": "function"
    }
  ],
  "bytecode": "0x60c06040523480156200001157600080fd5b5060405162002b2b38038062002b2b833981016040819052620000349162000076565b6000805460ff60b01b191690556001600160a01b039081166080521660a052620000ae565b80516001600160a01b03811681146200007157600080fd5b919050565b600080604083850312156200008a57600080fd5b620000958362000059565b9150620000a56020840162000059565b90509250929050565b60805160a051612a42620000e960003960008181610197015281816107d90152610f830152600081816103020152611d7b0152612a426000f3fe6080604052600436106101805760003560e01c8063656f1645116100d65780639e5914da1161007f578063c4d66de811610059578063c4d66de8146104ef578063f904a7e21461050f578063facd743b1461052257600080fd5b80639e5914da1461048f578063a0da683a146104af578063aca2490b146104cf57600080fd5b8063851e3ca5116100b0578063851e3ca51461042257806393f8d01d1461044257806397814b721461046257600080fd5b8063656f16451461039c57806380e95086146103ca5780638456cb591461040d57600080fd5b80633d00dfb911610138578063572b6c0511610112578063572b6c05146102e55780635aa6e6751461033f5780635c975abb1461036a57600080fd5b80633d00dfb91461029d5780633f4ba83a146102b057806352eefd40146102c557600080fd5b80631441a5a9116101695780631441a5a91461022e5780632dcbabb21461025b5780633912a3101461027d57600080fd5b80630af968001461018557806312882ece146101e3575b600080fd5b34801561019157600080fd5b506101b97f000000000000000000000000000000000000000000000000000000000000000081565b60405173ffffffffffffffffffffffffffffffffffffffff90911681526020015b60405180910390f35b3480156101ef57600080fd5b5061021e6101fe366004611e85565b600260209081526000928352604080842090915290825290205460ff1681565b60405190151581526020016101da565b34801561023a57600080fd5b506004546101b99073ffffffffffffffffffffffffffffffffffffffff1681565b34801561026757600080fd5b5061027b610276366004611ebe565b610552565b005b34801561028957600080fd5b5061027b610298366004611f08565b610b2e565b61027b6102ab366004611e85565b610bc3565b3480156102bc57600080fd5b5061027b610c52565b3480156102d157600080fd5b5061027b6102e0366004611f2c565b610cc3565b3480156102f157600080fd5b5061021e610300366004611f08565b7f000000000000000000000000000000000000000000000000000000000000000073ffffffffffffffffffffffffffffffffffffffff90811691161490565b34801561034b57600080fd5b5060005473ffffffffffffffffffffffffffffffffffffffff166101b9565b34801561037657600080fd5b50600054760100000000000000000000000000000000000000000000900460ff1661021e565b3480156103a857600080fd5b506103bc6103b73660046120a1565b611280565b6040516101da92919061217f565b3480156103d657600080fd5b506101b96103e53660046121af565b60056020526000908152604090205473ffffffffffffffffffffffffffffffffffffffff1681565b34801561041957600080fd5b5061027b6112a2565b34801561042e57600080fd5b5061027b61043d366004611f08565b611311565b34801561044e57600080fd5b5061027b61045d3660046121cc565b6113be565b34801561046e57600080fd5b506003546101b99073ffffffffffffffffffffffffffffffffffffffff1681565b34801561049b57600080fd5b5061027b6104aa366004611f08565b61147d565b3480156104bb57600080fd5b5061027b6104ca366004611f08565b61152b565b3480156104db57600080fd5b5061027b6104ea3660046121ea565b6115d9565b3480156104fb57600080fd5b5061027b61050a366004611f08565b611696565b61027b61051d366004611f08565b6118b1565b34801561052e57600080fd5b5061021e61053d366004611f08565b60016020526000908152604090205460ff1681565b61055a6118c3565b60016000610566611930565b73ffffffffffffffffffffffffffffffffffffffff16815260208101919091526040016000205460ff166105e15760405162461bcd60e51b815260206004820152601160248201527f4f422e6f6e6c795f76616c696461746f7200000000000000000000000000000060448201526064015b60405180910390fd5b6003546040517f2c67ec160000000000000000000000000000000000000000000000000000000081526000918291829173ffffffffffffffffffffffffffffffffffffffff1690632c67ec169061063e9088908890600401612248565b60006040518083038186803b15801561065657600080fd5b505afa15801561066a573d6000803e3d6000fd5b505050506040513d6000823e601f3d908101601f1916820160405261069291908101906124a6565b9194509250905060008260038111156106ad576106ad6125ca565b14806106ca575060018260038111156106c8576106c86125ca565b145b1561073d5780518260038111156106e3576106e36125ca565b60ff16600281106106f6576106f66125f9565b6020020151604001517fc8d4808dc7702e31368c7d7c8bc95e94f332759de3c6d76f8676668e55de25b08460405161072e9190612628565b60405180910390a25050505050565b6002826003811115610751576107516125ca565b1415610795577ff5df2672dac30e6ef17f36aef61bc7ffa319c13a411e1c70ac6493db8ed65e46836040516107869190612628565b60405180910390a15050505050565b805160608201516040517ff4e7095200000000000000000000000000000000000000000000000000000000815273ffffffffffffffffffffffffffffffffffffffff7f0000000000000000000000000000000000000000000000000000000000000000169263f4e709529261080f928991906004016126b0565b602060405180830381600087803b15801561082957600080fd5b505af1925050508015610859575060408051601f3d908101601f19168201909252610856918101906126fa565b60015b6109aa57610865612713565b806308c379a0141561099e575061087a61272e565b8061088557506109a0565b6040517f656f1645000000000000000000000000000000000000000000000000000000008152309063656f1645906108c1908490600401612628565b60006040518083038186803b1580156108d957600080fd5b505afa92505050801561090e57506040513d6000823e601f3d908101601f1916820160405261090b91908101906127d6565b60015b61095c573d80801561093c576040519150601f19603f3d011682016040523d82523d6000602084013e610941565b606091505b508160405162461bcd60e51b81526004016105d89190612628565b817fc8d4808dc7702e31368c7d7c8bc95e94f332759de3c6d76f8676668e55de25b08260405161098c9190612628565b60405180910390a25050505050505050565b505b3d6000803e3d6000fd5b60208281015151604080850151518551518201518251948501529083018890526109e6926060015b60405160208183030381529060405261193f565b6020828101518101516040808501518301518551909301510151610a259290610a0e8961281d565b6040805160208101939093528201526060016109d2565b6000610a3086611a41565b83515160408082015160209283015160608089015184518781529586015292840187905242928401929092526000608084015292935073ffffffffffffffffffffffffffffffffffffffff16907ff6824e458f0762f1a288c3d5c51c07831e11b93595e57518c4cb4eb6583a857a9060a00160405180910390a38251602090810151604080820151918301516060808801518351878152958601528483018790524290850152600060808501529051919273ffffffffffffffffffffffffffffffffffffffff909116917ff6824e458f0762f1a288c3d5c51c07831e11b93595e57518c4cb4eb6583a857a9181900360a00190a350505050505b5050565b6000610b38611930565b73ffffffffffffffffffffffffffffffffffffffff80821660008181526002602090815260408083209488168084529490915280822080547fffffffffffffffffffffffffffffffffffffffffffffffffffffffffffffff0016905551939450919290917ff1ccb503c8591576f1f6cdc305a05fc2a1ec8776421d4508421bdc154d9eaf7e91a35050565b60045473ffffffffffffffffffffffffffffffffffffffff16610be4611930565b73ffffffffffffffffffffffffffffffffffffffff1614610c475760405162461bcd60e51b815260206004820152600760248201527f6e6f20617574680000000000000000000000000000000000000000000000000060448201526064016105d8565b610b2a828234611a97565b60005473ffffffffffffffffffffffffffffffffffffffff163314610cb95760405162461bcd60e51b815260206004820152600f60248201527f4f4e4c595f474f5645524e414e4345000000000000000000000000000000000060448201526064016105d8565b610cc1611c82565b565b610ccb6118c3565b60016000610cd7611930565b73ffffffffffffffffffffffffffffffffffffffff16815260208101919091526040016000205460ff16610d4d5760405162461bcd60e51b815260206004820152601160248201527f4f422e6f6e6c795f76616c696461746f7200000000000000000000000000000060448201526064016105d8565b6003546040517f71acd56f0000000000000000000000000000000000000000000000000000000081526000918291829173ffffffffffffffffffffffffffffffffffffffff16906371acd56f90610dac9089908990899060040161287d565b60006040518083038186803b158015610dc457600080fd5b505afa158015610dd8573d6000803e3d6000fd5b505050506040513d6000823e601f3d908101601f19168201604052610e0091908101906128a1565b919450925090506000826003811115610e1b57610e1b6125ca565b1415610e69578060000151604001517fc8d4808dc7702e31368c7d7c8bc95e94f332759de3c6d76f8676668e55de25b084604051610e599190612628565b60405180910390a250505061127a565b6001826003811115610e7d57610e7d6125ca565b1415610ee1578060000151604001518773ffffffffffffffffffffffffffffffffffffffff167f647843a5f461d447abbbb5434773da0b7bc49eda6fd5e50022efb4ebedfddf888587604051610ed4929190612986565b60405180910390a3610f3a565b6002826003811115610ef557610ef56125ca565b1415610f3a577ff5df2672dac30e6ef17f36aef61bc7ffa319c13a411e1c70ac6493db8ed65e4683604051610f2a9190612628565b60405180910390a150505061127a565b8051608082015160608301516040517f7a2cb4c400000000000000000000000000000000000000000000000000000000815273ffffffffffffffffffffffffffffffffffffffff7f00000000000000000000000000000000000000000000000000000000000000001693637a2cb4c493610fbd9391929091908d906004016129a8565b602060405180830381600087803b158015610fd757600080fd5b505af1925050508015611007575060408051601f3d908101601f19168201909252611004918101906126fa565b60015b6111c957611013612713565b806308c379a0141561099e575061102861272e565b8061103357506109a0565b6040517f656f1645000000000000000000000000000000000000000000000000000000008152309063656f16459061106f908490600401612628565b60006040518083038186803b15801561108757600080fd5b505afa9250505080156110bc57506040513d6000823e601f3d908101601f191682016040526110b991908101906127d6565b60015b6110ea573d80801561093c576040519150601f19603f3d011682016040523d82523d6000602084013e610941565b83516040015182141561116557817fc8d4808dc7702e31368c7d7c8bc95e94f332759de3c6d76f8676668e55de25b0826040516111279190612628565b60405180910390a25060408051808201909152601281527f4f726465724d61746368696e674572726f72000000000000000000000000000060208201525b8360000151604001518a73ffffffffffffffffffffffffffffffffffffffff167f647843a5f461d447abbbb5434773da0b7bc49eda6fd5e50022efb4ebedfddf88838a6040516111b6929190612986565b60405180910390a350505050505061127a565b6111fe8260200151836040015184600001516040015185608001516040516020016109d2929190918252602082015260400190565b815160408082015160209283015160608087015184518b8152958601528484018690524290850152600160808501529151909273ffffffffffffffffffffffffffffffffffffffff909216917ff6824e458f0762f1a288c3d5c51c07831e11b93595e57518c4cb4eb6583a857a919081900360a00190a3505050505b50505050565b600060608280602001905181019061129891906127d6565b9094909350915050565b60005473ffffffffffffffffffffffffffffffffffffffff1633146113095760405162461bcd60e51b815260206004820152600f60248201527f4f4e4c595f474f5645524e414e4345000000000000000000000000000000000060448201526064016105d8565b610cc1611d05565b60005473ffffffffffffffffffffffffffffffffffffffff1633146113785760405162461bcd60e51b815260206004820152600f60248201527f4f4e4c595f474f5645524e414e4345000000000000000000000000000000000060448201526064016105d8565b600080547fffffffffffffffffffffffff00000000000000000000000000000000000000001673ffffffffffffffffffffffffffffffffffffffff831617905550565b50565b60005473ffffffffffffffffffffffffffffffffffffffff1633146114255760405162461bcd60e51b815260206004820152600f60248201527f4f4e4c595f474f5645524e414e4345000000000000000000000000000000000060448201526064016105d8565b60ff91909116600090815260056020526040902080547fffffffffffffffffffffffff00000000000000000000000000000000000000001673ffffffffffffffffffffffffffffffffffffffff909216919091179055565b60005473ffffffffffffffffffffffffffffffffffffffff1633146114e45760405162461bcd60e51b815260206004820152600f60248201527f4f4e4c595f474f5645524e414e4345000000000000000000000000000000000060448201526064016105d8565b600480547fffffffffffffffffffffffff00000000000000000000000000000000000000001673ffffffffffffffffffffffffffffffffffffffff92909216919091179055565b60005473ffffffffffffffffffffffffffffffffffffffff1633146115925760405162461bcd60e51b815260206004820152600f60248201527f4f4e4c595f474f5645524e414e4345000000000000000000000000000000000060448201526064016105d8565b600380547fffffffffffffffffffffffff00000000000000000000000000000000000000001673ffffffffffffffffffffffffffffffffffffffff92909216919091179055565b60005473ffffffffffffffffffffffffffffffffffffffff1633146116405760405162461bcd60e51b815260206004820152600f60248201527f4f4e4c595f474f5645524e414e4345000000000000000000000000000000000060448201526064016105d8565b73ffffffffffffffffffffffffffffffffffffffff91909116600090815260016020526040902080547fffffffffffffffffffffffffffffffffffffffffffffffffffffffffffffff0016911515919091179055565b6000547501000000000000000000000000000000000000000000900460ff16158080156116e1575060005460017401000000000000000000000000000000000000000090910460ff16105b806117135750303b158015611713575060005474010000000000000000000000000000000000000000900460ff166001145b6117855760405162461bcd60e51b815260206004820152602e60248201527f496e697469616c697a61626c653a20636f6e747261637420697320616c72656160448201527f647920696e697469616c697a656400000000000000000000000000000000000060648201526084016105d8565b600080547fffffffffffffffffffffff00ffffffffffffffffffffffffffffffffffffffff1674010000000000000000000000000000000000000000179055801561180b57600080547fffffffffffffffffffff00ffffffffffffffffffffffffffffffffffffffffff1675010000000000000000000000000000000000000000001790555b600080547fffffffffffffffffffffffff00000000000000000000000000000000000000001673ffffffffffffffffffffffffffffffffffffffff84161790558015610b2a57600080547fffffffffffffffffffff00ffffffffffffffffffffffffffffffffffffffffff169055604051600181527f7f26b83ff96e1f2b6a682f133852f6798a09c465da95921460cefb38474024989060200160405180910390a15050565b6113bb6118bc611930565b8234611a97565b600054760100000000000000000000000000000000000000000000900460ff1615610cc15760405162461bcd60e51b815260206004820152601060248201527f5061757361626c653a207061757365640000000000000000000000000000000060448201526064016105d8565b600061193a611d77565b905090565b60ff831660009081526005602052604090205473ffffffffffffffffffffffffffffffffffffffff16806119b55760405162461bcd60e51b815260206004820181905260248201527f4f72646572426f6f6b3a20696e76616c6964206f726465722068616e646c657260448201526064016105d8565b6040517f7f3c6b3f00000000000000000000000000000000000000000000000000000000815273ffffffffffffffffffffffffffffffffffffffff821690637f3c6b3f90611a0990869086906004016129e7565b600060405180830381600087803b158015611a2357600080fd5b505af1158015611a37573d6000803e3d6000fd5b5050505050505050565b600080821215611a935760405162461bcd60e51b815260206004820181905260248201527f53616665436173743a2076616c7565206d75737420626520706f73697469766560448201526064016105d8565b5090565b73ffffffffffffffffffffffffffffffffffffffff831615801590611ad1575073ffffffffffffffffffffffffffffffffffffffff821615155b611b1d5760405162461bcd60e51b815260206004820152600c60248201527f6e756c6c2061646472657373000000000000000000000000000000000000000060448201526064016105d8565b73ffffffffffffffffffffffffffffffffffffffff80841660008181526002602090815260408083209487168084529490915280822080547fffffffffffffffffffffffffffffffffffffffffffffffffffffffffffffff00166001179055517f127538a71ef93940b0451bcc3b77d6e1767e7ab8ffff7178ecbec460ce7dbcd09190a38015611c7d5760008273ffffffffffffffffffffffffffffffffffffffff168260405160006040518083038185875af1925050503d8060008114611c01576040519150601f19603f3d011682016040523d82523d6000602084013e611c06565b606091505b505090508061127a5760405162461bcd60e51b815260206004820152602d60248201527f4f72646572426f6f6b3a206661696c656420746f2061697264726f702067617360448201527f20746f20617574686f726974790000000000000000000000000000000000000060648201526084016105d8565b505050565b611c8a611df7565b600080547fffffffffffffffffff00ffffffffffffffffffffffffffffffffffffffffffff1690557f5db9ee0a495bf2e6ff9c91a7834c1ba4fdd244a5e8aa4e537bd38aeae4b073aa611cdb611930565b60405173ffffffffffffffffffffffffffffffffffffffff909116815260200160405180910390a1565b611d0d6118c3565b600080547fffffffffffffffffff00ffffffffffffffffffffffffffffffffffffffffffff167601000000000000000000000000000000000000000000001790557f62e78cea01bee320cd4e420270b5ea74000d11b0c9f74754ebdbfc544b05a258611cdb611930565b60007f000000000000000000000000000000000000000000000000000000000000000073ffffffffffffffffffffffffffffffffffffffff1633148015611dbf575060143610155b15611def57507fffffffffffffffffffffffffffffffffffffffffffffffffffffffffffffffec36013560601c90565b503390565b90565b600054760100000000000000000000000000000000000000000000900460ff16610cc15760405162461bcd60e51b815260206004820152601460248201527f5061757361626c653a206e6f742070617573656400000000000000000000000060448201526064016105d8565b73ffffffffffffffffffffffffffffffffffffffff811681146113bb57600080fd5b60008060408385031215611e9857600080fd5b8235611ea381611e63565b91506020830135611eb381611e63565b809150509250929050565b60008060408385031215611ed157600080fd5b823567ffffffffffffffff811115611ee857600080fd5b830160408101851015611efa57600080fd5b946020939093013593505050565b600060208284031215611f1a57600080fd5b8135611f2581611e63565b9392505050565b60008060008060608587031215611f4257600080fd5b8435611f4d81611e63565b9350602085013567ffffffffffffffff80821115611f6a57600080fd5b818701915087601f830112611f7e57600080fd5b813581811115611f8d57600080fd5b886020828501011115611f9f57600080fd5b95986020929092019750949560400135945092505050565b7f4e487b7100000000000000000000000000000000000000000000000000000000600052604160045260246000fd5b6080810181811067ffffffffffffffff8211171561200657612006611fb7565b60405250565b60a0810181811067ffffffffffffffff8211171561200657612006611fb7565b6040810181811067ffffffffffffffff8211171561200657612006611fb7565b601f19601f830116810181811067ffffffffffffffff8211171561207257612072611fb7565b6040525050565b600067ffffffffffffffff82111561209357612093611fb7565b50601f01601f191660200190565b6000602082840312156120b357600080fd5b813567ffffffffffffffff8111156120ca57600080fd5b8201601f810184136120db57600080fd5b80356120e681612079565b6040516120f3828261204c565b82815286602084860101111561210857600080fd5b8260208501602083013760009281016020019290925250949350505050565b60005b8381101561214257818101518382015260200161212a565b8381111561127a5750506000910152565b6000815180845261216b816020860160208601612127565b601f01601f19169290920160200192915050565b8281526040602082015260006121986040830184612153565b949350505050565b60ff811681146113bb57600080fd5b6000602082840312156121c157600080fd5b8135611f25816121a0565b600080604083850312156121df57600080fd5b8235611ea3816121a0565b600080604083850312156121fd57600080fd5b823561220881611e63565b915060208301358015158114611eb357600080fd5b818352818160208501375060006020828401015260006020601f19601f840116840101905092915050565b60408082526000906080830190830185835b6002811015612308577fffffffffffffffffffffffffffffffffffffffffffffffffffffffffffffffc086850301835281357fffffffffffffffffffffffffffffffffffffffffffffffffffffffffffffffe18936030181126122bc57600080fd5b88018035602067ffffffffffffffff8211156122d757600080fd5b8136038b13156122e657600080fd5b6122f3878383860161221d565b9650948501949390930192505060010161225a565b5050506020929092019290925292915050565b600082601f83011261232c57600080fd5b815161233781612079565b604051612344828261204c565b82815285602084870101111561235957600080fd5b61236a836020830160208801612127565b95945050505050565b600481106113bb57600080fd5b60006080828403121561239257600080fd5b60405161239e81611fe6565b8091508251815260208301516123b381611e63565b60208201526040838101519082015260608301516123d081612373565b6060919091015292915050565b600082601f8301126123ee57600080fd5b6040516123fa8161202c565b80604084018581111561240c57600080fd5b845b8181101561242f578051612421816121a0565b83526020928301920161240e565b509195945050505050565b600082601f83011261244b57600080fd5b6040516124578161202c565b80604084018581111561246957600080fd5b845b8181101561242f57805167ffffffffffffffff81111561248b5760008081fd5b6124978882890161231b565b8452506020928301920161246b565b6000806000606084860312156124bb57600080fd5b835167ffffffffffffffff808211156124d357600080fd5b6124df8783880161231b565b945060209150818601516124f281612373565b60408701519094508181111561250757600080fd5b8601610180818903121561251a57600080fd5b60405161252681611fe6565b88601f83011261253557600080fd5b6040516125418161202c565b8061010084018b81111561255457600080fd5b845b81811015612576576125688d82612380565b835291870191608001612556565b508284526125848c826123dd565b878501525050506101408201519350828411156125a057600080fd5b6125ac8985840161243a565b60408201526101608201516060820152809450505050509250925092565b7f4e487b7100000000000000000000000000000000000000000000000000000000600052602160045260246000fd5b7f4e487b7100000000000000000000000000000000000000000000000000000000600052603260045260246000fd5b602081526000611f256020830184612153565b8051825273ffffffffffffffffffffffffffffffffffffffff6020820151166020830152604081015160408301526060810151600481106126a5577f4e487b7100000000000000000000000000000000000000000000000000000000600052602160045260246000fd5b806060840152505050565b6101408101818560005b60028110156126e4576126ce83835161263b565b60809290920191602091909101906001016126ba565b5050506101008201939093526101200152919050565b60006020828403121561270c57600080fd5b5051919050565b600060033d1115611df45760046000803e5060005160e01c90565b600060443d101561273c5790565b6040517ffffffffffffffffffffffffffffffffffffffffffffffffffffffffffffffffc803d016004833e81513d67ffffffffffffffff816024840111818411171561278a57505050505090565b82850191508151818111156127a25750505050505090565b843d87010160208285010111156127bc5750505050505090565b6127cb6020828601018761204c565b509095945050505050565b600080604083850312156127e957600080fd5b82519150602083015167ffffffffffffffff81111561280757600080fd5b6128138582860161231b565b9150509250929050565b60007f8000000000000000000000000000000000000000000000000000000000000000821415612876577f4e487b7100000000000000000000000000000000000000000000000000000000600052601160045260246000fd5b5060000390565b60408152600061289160408301858761221d565b9050826020830152949350505050565b6000806000606084860312156128b657600080fd5b835167ffffffffffffffff808211156128ce57600080fd5b6128da8783880161231b565b9450602086015191506128ec82612373565b60408601519193508082111561290157600080fd5b90850190610100828803121561291657600080fd5b6040516129228161200c565b61292c8884612380565b8152608083015161293c816121a0565b602082015260a08301518281111561295357600080fd5b61295f8982860161231b565b60408301525060c0830151606082015260e083015160808201528093505050509250925092565b6040815260006129996040830185612153565b90508260208301529392505050565b60e081016129b6828761263b565b8460808301528360a083015273ffffffffffffffffffffffffffffffffffffffff831660c083015295945050505050565b6040815260006129fa6040830185612153565b828103602084015261236a818561215356fea26469706673582212200b57ff376d18f51c2e09b4723c65f429c0de3b2c93345b721a076caae26c0ab664736f6c63430008090033",
  "linkReferences": {},
  "deployedLinkReferences": {}
}