{
  "_format": "hh-sol-artifact-1",
  "contractName": "FeeSink",
  "sourceName": "contracts/FeeSink.sol",
  "abi": [
    {
      "inputs": [
        {
          "internalType": "address",
          "name": "_insuranceFund",
          "type": "address"
        },
        {
          "internalType": "address",
          "name": "_vusd",
          "type": "address"
        },
        {
          "internalType": "address",
          "name": "_clearingHouse",
          "type": "address"
        }
      ],
      "stateMutability": "nonpayable",
      "type": "constructor"
    },
    {
      "anonymous": false,
      "inputs": [
        {
          "indexed": false,
          "internalType": "uint8",
          "name": "version",
          "type": "uint8"
        }
      ],
      "name": "Initialized",
      "type": "event"
    },
    {
      "anonymous": false,
      "inputs": [
        {
          "indexed": false,
          "internalType": "address",
          "name": "account",
          "type": "address"
        }
      ],
      "name": "Paused",
      "type": "event"
    },
    {
      "anonymous": false,
      "inputs": [
        {
          "indexed": false,
          "internalType": "address",
          "name": "account",
          "type": "address"
        }
      ],
      "name": "Unpaused",
      "type": "event"
    },
    {
      "inputs": [],
      "name": "calculateNetOpenInterest",
      "outputs": [
        {
          "internalType": "uint256",
          "name": "netOpenInterest",
          "type": "uint256"
        }
      ],
      "stateMutability": "view",
      "type": "function"
    },
    {
      "inputs": [],
      "name": "clearingHouse",
      "outputs": [
        {
          "internalType": "contract IClearingHouse",
          "name": "",
          "type": "address"
        }
      ],
      "stateMutability": "view",
      "type": "function"
    },
    {
      "inputs": [],
      "name": "distributeFunds",
      "outputs": [],
      "stateMutability": "nonpayable",
      "type": "function"
    },
    {
      "inputs": [],
      "name": "governance",
      "outputs": [
        {
          "internalType": "address",
          "name": "",
          "type": "address"
        }
      ],
      "stateMutability": "view",
      "type": "function"
    },
    {
      "inputs": [
        {
          "internalType": "address",
          "name": "_governance",
          "type": "address"
        },
        {
          "internalType": "address",
          "name": "_treasury",
          "type": "address"
        }
      ],
      "name": "initialize",
      "outputs": [],
      "stateMutability": "nonpayable",
      "type": "function"
    },
    {
      "inputs": [],
      "name": "insuranceFund",
      "outputs": [
        {
          "internalType": "address",
          "name": "",
          "type": "address"
        }
      ],
      "stateMutability": "view",
      "type": "function"
    },
    {
      "inputs": [],
      "name": "insuranceFundToOpenInterestTargetRatio",
      "outputs": [
        {
          "internalType": "uint256",
          "name": "",
          "type": "uint256"
        }
      ],
      "stateMutability": "view",
      "type": "function"
    },
    {
      "inputs": [],
      "name": "maxFeePercentageForInsuranceFund",
      "outputs": [
        {
          "internalType": "uint256",
          "name": "",
          "type": "uint256"
        }
      ],
      "stateMutability": "view",
      "type": "function"
    },
    {
      "inputs": [],
      "name": "pause",
      "outputs": [],
      "stateMutability": "nonpayable",
      "type": "function"
    },
    {
      "inputs": [],
      "name": "paused",
      "outputs": [
        {
          "internalType": "bool",
          "name": "",
          "type": "bool"
        }
      ],
      "stateMutability": "view",
      "type": "function"
    },
    {
      "inputs": [
        {
          "internalType": "address",
          "name": "__governance",
          "type": "address"
        }
      ],
      "name": "setGovernace",
      "outputs": [],
      "stateMutability": "nonpayable",
      "type": "function"
    },
    {
      "inputs": [
        {
          "internalType": "uint256",
          "name": "_insuranceFundToOpenInterestTargetRatio",
          "type": "uint256"
        }
      ],
      "name": "setInsuranceFundToOpenInterestTargetRatio",
      "outputs": [],
      "stateMutability": "nonpayable",
      "type": "function"
    },
    {
      "inputs": [
        {
          "internalType": "uint256",
          "name": "_maxFeePercentageForInsuranceFund",
          "type": "uint256"
        }
      ],
      "name": "setMaxFeePercentageForInsuranceFund",
      "outputs": [],
      "stateMutability": "nonpayable",
      "type": "function"
    },
    {
      "inputs": [
        {
          "internalType": "address",
          "name": "_treasury",
          "type": "address"
        }
      ],
      "name": "setTreasury",
      "outputs": [],
      "stateMutability": "nonpayable",
      "type": "function"
    },
    {
      "inputs": [
        {
          "internalType": "address",
          "name": "_fundsDistributor",
          "type": "address"
        },
        {
          "internalType": "bool",
          "name": "_valid",
          "type": "bool"
        }
      ],
      "name": "setValidFundsDistributors",
      "outputs": [],
      "stateMutability": "nonpayable",
      "type": "function"
    },
    {
      "inputs": [],
      "name": "treasury",
      "outputs": [
        {
          "internalType": "address",
          "name": "",
          "type": "address"
        }
      ],
      "stateMutability": "view",
      "type": "function"
    },
    {
      "inputs": [],
      "name": "unpause",
      "outputs": [],
      "stateMutability": "nonpayable",
      "type": "function"
    },
    {
      "inputs": [
        {
          "internalType": "address",
          "name": "",
          "type": "address"
        }
      ],
      "name": "validFundsDistributors",
      "outputs": [
        {
          "internalType": "bool",
          "name": "",
          "type": "bool"
        }
      ],
      "stateMutability": "view",
      "type": "function"
    },
    {
      "inputs": [],
      "name": "vusd",
      "outputs": [
        {
          "internalType": "contract IERC20FlexibleSupply",
          "name": "",
          "type": "address"
        }
      ],
      "stateMutability": "view",
      "type": "function"
    }
  ],
  "bytecode": "0x60e06040523480156200001157600080fd5b5060405162001c7438038062001c7483398101604081905262000034916200007c565b6000805460ff60b01b191690556001600160a01b0392831660c05290821660a05216608052620000c6565b80516001600160a01b03811681146200007757600080fd5b919050565b6000806000606084860312156200009257600080fd5b6200009d846200005f565b9250620000ad602085016200005f565b9150620000bd604085016200005f565b90509250925092565b60805160a05160c051611b386200013c600039600081816102ce01528181610500015261108a0152600081816103080152818161041a015281816104de0152818161054301528181610fc901526110bf015260008181610191015281816107ea01528181610aa10152610e730152611b386000f3fe608060405234801561001057600080fd5b506004361061014f5760003560e01c806361d027b3116100cd578063b7515d5811610081578063e247694f11610066578063e247694f146102f0578063edac520314610303578063f0f442601461032a57600080fd5b8063b7515d58146102c0578063b7902303146102c957600080fd5b80638456cb59116100b25780638456cb591461029d578063851e3ca5146102a5578063a246fe17146102b857600080fd5b806361d027b31461026a5780637f1734c31461028a57600080fd5b80633f4ba83a116101245780635aa6e675116101095780635aa6e675146102145780635c975abb1461023257806360a667501461025757600080fd5b80633f4ba83a146101f9578063485cc9551461020157600080fd5b80619784146101545780630af968001461018c5780633a426b9d146101d85780633a6a4d2e146101ef575b600080fd5b610177610162366004611700565b60026020526000908152604090205460ff1681565b60405190151581526020015b60405180910390f35b6101b37f000000000000000000000000000000000000000000000000000000000000000081565b60405173ffffffffffffffffffffffffffffffffffffffff9091168152602001610183565b6101e160045481565b604051908152602001610183565b6101f761033d565b005b6101f7610572565b6101f761020f366004611724565b6105e1565b60005473ffffffffffffffffffffffffffffffffffffffff166101b3565b600054760100000000000000000000000000000000000000000000900460ff16610177565b6101f761026536600461175d565b6108a8565b6001546101b39073ffffffffffffffffffffffffffffffffffffffff1681565b6101f761029836600461175d565b610914565b6101f7610980565b6101f76102b3366004611700565b6109ef565b6101e1610a9c565b6101e160035481565b6101b37f000000000000000000000000000000000000000000000000000000000000000081565b6101f76102fe366004611784565b610cc9565b6101b37f000000000000000000000000000000000000000000000000000000000000000081565b6101f7610338366004611700565b610d86565b60005473ffffffffffffffffffffffffffffffffffffffff1633148061037257503360009081526002602052604090205460ff165b6103e95760405162461bcd60e51b815260206004820152602c60248201527f46656553696e6b3a206e6f7420616c6c6f77656420657865637574652064697360448201527f7472696275746546756e6473000000000000000000000000000000000000000060648201526084015b60405180910390fd5b6040517f70a082310000000000000000000000000000000000000000000000000000000081523060048201526000907f000000000000000000000000000000000000000000000000000000000000000073ffffffffffffffffffffffffffffffffffffffff16906370a082319060240160206040518083038186803b15801561047157600080fd5b505afa158015610485573d6000803e3d6000fd5b505050506040513d601f19601f820116820180604052508101906104a991906117b2565b9050806104b35750565b6000806104bf83610e34565b909250905061052573ffffffffffffffffffffffffffffffffffffffff7f0000000000000000000000000000000000000000000000000000000000000000167f0000000000000000000000000000000000000000000000000000000000000000846111d7565b60015461056c9073ffffffffffffffffffffffffffffffffffffffff7f000000000000000000000000000000000000000000000000000000000000000081169116836111d7565b5050505b565b60005473ffffffffffffffffffffffffffffffffffffffff1633146105d95760405162461bcd60e51b815260206004820152600f60248201527f4f4e4c595f474f5645524e414e4345000000000000000000000000000000000060448201526064016103e0565b610570611264565b6000547501000000000000000000000000000000000000000000900460ff161580801561062c575060005460017401000000000000000000000000000000000000000090910460ff16105b8061065e5750303b15801561065e575060005474010000000000000000000000000000000000000000900460ff166001145b6106d05760405162461bcd60e51b815260206004820152602e60248201527f496e697469616c697a61626c653a20636f6e747261637420697320616c72656160448201527f647920696e697469616c697a656400000000000000000000000000000000000060648201526084016103e0565b600080547fffffffffffffffffffffff00ffffffffffffffffffffffffffffffffffffffff1674010000000000000000000000000000000000000000179055801561075657600080547fffffffffffffffffffff00ffffffffffffffffffffffffffffffffffffffffff1675010000000000000000000000000000000000000000001790555b600080547fffffffffffffffffffffffff00000000000000000000000000000000000000001673ffffffffffffffffffffffffffffffffffffffff8516179055600180547fffffffffffffffffffffffff00000000000000000000000000000000000000001673ffffffffffffffffffffffffffffffffffffffff848116919091178255620186a060035562061a806004557f000000000000000000000000000000000000000000000000000000000000000016600090815260026020526040902080547fffffffffffffffffffffffffffffffffffffffffffffffffffffffffffffff00169091179055801561056c57600080547fffffffffffffffffffff00ffffffffffffffffffffffffffffffffffffffffff169055604051600181527f7f26b83ff96e1f2b6a682f133852f6798a09c465da95921460cefb38474024989060200160405180910390a1505050565b60005473ffffffffffffffffffffffffffffffffffffffff16331461090f5760405162461bcd60e51b815260206004820152600f60248201527f4f4e4c595f474f5645524e414e4345000000000000000000000000000000000060448201526064016103e0565b600355565b60005473ffffffffffffffffffffffffffffffffffffffff16331461097b5760405162461bcd60e51b815260206004820152600f60248201527f4f4e4c595f474f5645524e414e4345000000000000000000000000000000000060448201526064016103e0565b600455565b60005473ffffffffffffffffffffffffffffffffffffffff1633146109e75760405162461bcd60e51b815260206004820152600f60248201527f4f4e4c595f474f5645524e414e4345000000000000000000000000000000000060448201526064016103e0565b6105706112e1565b60005473ffffffffffffffffffffffffffffffffffffffff163314610a565760405162461bcd60e51b815260206004820152600f60248201527f4f4e4c595f474f5645524e414e4345000000000000000000000000000000000060448201526064016103e0565b600080547fffffffffffffffffffffffff00000000000000000000000000000000000000001673ffffffffffffffffffffffffffffffffffffffff831617905550565b50565b6000807f000000000000000000000000000000000000000000000000000000000000000073ffffffffffffffffffffffffffffffffffffffff166344f65a1f6040518163ffffffff1660e01b815260040160006040518083038186803b158015610b0557600080fd5b505afa158015610b19573d6000803e3d6000fd5b505050506040513d6000823e601f3d9081017fffffffffffffffffffffffffffffffffffffffffffffffffffffffffffffffe0168201604052610b5f919081019061180a565b905060005b8151811015610cc4576000828281518110610b8157610b816118ed565b60200260200101519050670de0b6b3a76400008173ffffffffffffffffffffffffffffffffffffffff16632565382b6040518163ffffffff1660e01b815260040160206040518083038186803b158015610bda57600080fd5b505afa158015610bee573d6000803e3d6000fd5b505050506040513d601f19601f82011682018060405250810190610c1291906117b2565b8273ffffffffffffffffffffffffffffffffffffffff1663468f02d26040518163ffffffff1660e01b815260040160206040518083038186803b158015610c5857600080fd5b505afa158015610c6c573d6000803e3d6000fd5b505050506040513d601f19601f82011682018060405250810190610c9091906117b2565b610c9a919061194b565b610ca49190611988565b610cae90856119c3565b9350508080610cbc906119db565b915050610b64565b505090565b60005473ffffffffffffffffffffffffffffffffffffffff163314610d305760405162461bcd60e51b815260206004820152600f60248201527f4f4e4c595f474f5645524e414e4345000000000000000000000000000000000060448201526064016103e0565b73ffffffffffffffffffffffffffffffffffffffff91909116600090815260026020526040902080547fffffffffffffffffffffffffffffffffffffffffffffffffffffffffffffff0016911515919091179055565b60005473ffffffffffffffffffffffffffffffffffffffff163314610ded5760405162461bcd60e51b815260206004820152600f60248201527f4f4e4c595f474f5645524e414e4345000000000000000000000000000000000060448201526064016103e0565b600180547fffffffffffffffffffffffff00000000000000000000000000000000000000001673ffffffffffffffffffffffffffffffffffffffff92909216919091179055565b60008060035460001480610e485750600454155b15610e5557506000929050565b6000610e5f610a9c565b905080610e6f5750600093915050565b60007f000000000000000000000000000000000000000000000000000000000000000073ffffffffffffffffffffffffffffffffffffffff1663f742269d6040518163ffffffff1660e01b815260040160206040518083038186803b158015610ed757600080fd5b505afa158015610eeb573d6000803e3d6000fd5b505050506040513d601f19601f82011682018060405250810190610f0f9190611a14565b73ffffffffffffffffffffffffffffffffffffffff16637dc0d1d06040518163ffffffff1660e01b815260040160206040518083038186803b158015610f5457600080fd5b505afa158015610f68573d6000803e3d6000fd5b505050506040513d601f19601f82011682018060405250810190610f8c9190611a14565b6040517ffc57d4df00000000000000000000000000000000000000000000000000000000815273ffffffffffffffffffffffffffffffffffffffff7f000000000000000000000000000000000000000000000000000000000000000081166004830152919091169063fc57d4df9060240160206040518083038186803b15801561101557600080fd5b505afa158015611029573d6000803e3d6000fd5b505050506040513d601f19601f8201168201806040525081019061104d91906117b2565b6040517f70a0823100000000000000000000000000000000000000000000000000000000815273ffffffffffffffffffffffffffffffffffffffff7f000000000000000000000000000000000000000000000000000000000000000081166004830152919250600091620f42409184917f000000000000000000000000000000000000000000000000000000000000000016906370a082319060240160206040518083038186803b15801561110157600080fd5b505afa158015611115573d6000803e3d6000fd5b505050506040513d601f19601f8201168201806040525081019061113991906117b2565b611143919061194b565b61114d9190611988565b905060008361115f83620f424061194b565b6111699190611988565b905060045481106111805750600096945050505050565b60045461119090620f424061194b565b87600354836004546111a29190611a31565b6111ac919061194b565b6111b6919061194b565b6111c09190611988565b95506111cc8688611a31565b945050505050915091565b6040805173ffffffffffffffffffffffffffffffffffffffff8416602482015260448082018490528251808303909101815260649091019091526020810180517bffffffffffffffffffffffffffffffffffffffffffffffffffffffff167fa9059cbb0000000000000000000000000000000000000000000000000000000017905261056c908490611352565b61126c611447565b600080547fffffffffffffffffff00ffffffffffffffffffffffffffffffffffffffffffff1690557f5db9ee0a495bf2e6ff9c91a7834c1ba4fdd244a5e8aa4e537bd38aeae4b073aa335b60405173ffffffffffffffffffffffffffffffffffffffff909116815260200160405180910390a1565b6112e96114b3565b600080547fffffffffffffffffff00ffffffffffffffffffffffffffffffffffffffffffff167601000000000000000000000000000000000000000000001790557f62e78cea01bee320cd4e420270b5ea74000d11b0c9f74754ebdbfc544b05a2586112b73390565b60006113b4826040518060400160405280602081526020017f5361666545524332303a206c6f772d6c6576656c2063616c6c206661696c65648152508573ffffffffffffffffffffffffffffffffffffffff166115209092919063ffffffff16565b90508051600014806113d55750808060200190518101906113d59190611a48565b61056c5760405162461bcd60e51b815260206004820152602a60248201527f5361666545524332303a204552433230206f7065726174696f6e20646964206e60448201527f6f7420737563636565640000000000000000000000000000000000000000000060648201526084016103e0565b600054760100000000000000000000000000000000000000000000900460ff166105705760405162461bcd60e51b815260206004820152601460248201527f5061757361626c653a206e6f742070617573656400000000000000000000000060448201526064016103e0565b600054760100000000000000000000000000000000000000000000900460ff16156105705760405162461bcd60e51b815260206004820152601060248201527f5061757361626c653a207061757365640000000000000000000000000000000060448201526064016103e0565b606061152f8484600085611537565b949350505050565b6060824710156115af5760405162461bcd60e51b815260206004820152602660248201527f416464726573733a20696e73756666696369656e742062616c616e636520666f60448201527f722063616c6c000000000000000000000000000000000000000000000000000060648201526084016103e0565b6000808673ffffffffffffffffffffffffffffffffffffffff1685876040516115d89190611a95565b60006040518083038185875af1925050503d8060008114611615576040519150601f19603f3d011682016040523d82523d6000602084013e61161a565b606091505b509150915061162b87838387611636565b979650505050505050565b606083156116af5782516116a85773ffffffffffffffffffffffffffffffffffffffff85163b6116a85760405162461bcd60e51b815260206004820152601d60248201527f416464726573733a2063616c6c20746f206e6f6e2d636f6e747261637400000060448201526064016103e0565b508161152f565b61152f83838151156116c45781518083602001fd5b8060405162461bcd60e51b81526004016103e09190611ab1565b73ffffffffffffffffffffffffffffffffffffffff81168114610a9957600080fd5b60006020828403121561171257600080fd5b813561171d816116de565b9392505050565b6000806040838503121561173757600080fd5b8235611742816116de565b91506020830135611752816116de565b809150509250929050565b60006020828403121561176f57600080fd5b5035919050565b8015158114610a9957600080fd5b6000806040838503121561179757600080fd5b82356117a2816116de565b9150602083013561175281611776565b6000602082840312156117c457600080fd5b5051919050565b7f4e487b7100000000000000000000000000000000000000000000000000000000600052604160045260246000fd5b8051611805816116de565b919050565b6000602080838503121561181d57600080fd5b825167ffffffffffffffff8082111561183557600080fd5b818501915085601f83011261184957600080fd5b81518181111561185b5761185b6117cb565b8060051b6040517fffffffffffffffffffffffffffffffffffffffffffffffffffffffffffffffe0603f8301168101818110858211171561189e5761189e6117cb565b6040529182528482019250838101850191888311156118bc57600080fd5b938501935b828510156118e1576118d2856117fa565b845293850193928501926118c1565b98975050505050505050565b7f4e487b7100000000000000000000000000000000000000000000000000000000600052603260045260246000fd5b7f4e487b7100000000000000000000000000000000000000000000000000000000600052601160045260246000fd5b6000817fffffffffffffffffffffffffffffffffffffffffffffffffffffffffffffffff04831182151516156119835761198361191c565b500290565b6000826119be577f4e487b7100000000000000000000000000000000000000000000000000000000600052601260045260246000fd5b500490565b600082198211156119d6576119d661191c565b500190565b60007fffffffffffffffffffffffffffffffffffffffffffffffffffffffffffffffff821415611a0d57611a0d61191c565b5060010190565b600060208284031215611a2657600080fd5b815161171d816116de565b600082821015611a4357611a4361191c565b500390565b600060208284031215611a5a57600080fd5b815161171d81611776565b60005b83811015611a80578181015183820152602001611a68565b83811115611a8f576000848401525b50505050565b60008251611aa7818460208701611a65565b9190910192915050565b6020815260008251806020840152611ad0816040850160208701611a65565b601f017fffffffffffffffffffffffffffffffffffffffffffffffffffffffffffffffe016919091016040019291505056fea264697066735822122033fac377f417f8cbee4017d1a6fa59697de0e8a25c94e5b9a5c10ed71d003d3f64736f6c63430008090033",
  "linkReferences": {},
  "deployedLinkReferences": {}
}