{
  "_format": "hh-sol-artifact-1",
  "contractName": "GenesisTUP",
  "sourceName": "contracts/GenesisTUP.sol",
  "abi": [
    {
      "inputs": [],
      "stateMutability": "nonpayable",
      "type": "constructor"
    },
    {
      "anonymous": false,
      "inputs": [
        {
          "indexed": false,
          "internalType": "address",
          "name": "previousAdmin",
          "type": "address"
        },
        {
          "indexed": false,
          "internalType": "address",
          "name": "newAdmin",
          "type": "address"
        }
      ],
      "name": "AdminChanged",
      "type": "event"
    },
    {
      "anonymous": false,
      "inputs": [
        {
          "indexed": true,
          "internalType": "address",
          "name": "beacon",
          "type": "address"
        }
      ],
      "name": "BeaconUpgraded",
      "type": "event"
    },
    {
      "anonymous": false,
      "inputs": [
        {
          "indexed": true,
          "internalType": "address",
          "name": "implementation",
          "type": "address"
        }
      ],
      "name": "Upgraded",
      "type": "event"
    },
    {
      "stateMutability": "payable",
      "type": "fallback"
    },
    {
      "inputs": [
        {
          "internalType": "address",
          "name": "admin_",
          "type": "address"
        }
      ],
      "name": "setGenesisAdmin",
      "outputs": [],
      "stateMutability": "nonpayable",
      "type": "function"
    },
    {
      "stateMutability": "payable",
      "type": "receive"
    }
  ],
  "bytecode": "0x60806040523480156200001157600080fd5b506000806040518060200160405280600081525082816200003b828260006200005260201b60201c565b50620000499050826200008f565b505050620004c2565b6200005d83620000ea565b6000825111806200006b5750805b156200008a576200008883836200012c60201b620003921760201c565b505b505050565b7f7e644d79422f17c01e4894b5f4f588d331ebfa28653d42ae832dc59e38c9798f620000ba6200015b565b604080516001600160a01b03928316815291841660208301520160405180910390a1620000e78162000194565b50565b620000f58162000249565b6040516001600160a01b038216907fbc7cd75a20ee27fd9adebab32041f755214dbc6bffa90cc0225b39da2e5c2d3b90600090a250565b60606200015483836040518060600160405280602781526020016200114d60279139620002fd565b9392505050565b6000620001856000805160206200112d83398151915260001b6200037c60201b620003be1760201c565b546001600160a01b0316919050565b6001600160a01b038116620001ff5760405162461bcd60e51b815260206004820152602660248201527f455243313936373a206e65772061646d696e20697320746865207a65726f206160448201526564647265737360d01b60648201526084015b60405180910390fd5b80620002286000805160206200112d83398151915260001b6200037c60201b620003be1760201c565b80546001600160a01b0319166001600160a01b039290921691909117905550565b6200025f816200037f60201b620003c11760201c565b620002c35760405162461bcd60e51b815260206004820152602d60248201527f455243313936373a206e657720696d706c656d656e746174696f6e206973206e60448201526c1bdd08184818dbdb9d1c9858dd609a1b6064820152608401620001f6565b80620002287f360894a13ba1a3210667c828492db98dca3e2076cc3735a920a3ca505d382bbc60001b6200037c60201b620003be1760201c565b6060600080856001600160a01b0316856040516200031c91906200046f565b600060405180830381855af49150503d806000811462000359576040519150601f19603f3d011682016040523d82523d6000602084013e6200035e565b606091505b50909250905062000372868383876200038e565b9695505050505050565b90565b6001600160a01b03163b151590565b60608315620003ff578251620003f7576001600160a01b0385163b620003f75760405162461bcd60e51b815260206004820152601d60248201527f416464726573733a2063616c6c20746f206e6f6e2d636f6e74726163740000006044820152606401620001f6565b50816200040b565b6200040b838362000413565b949350505050565b815115620004245781518083602001fd5b8060405162461bcd60e51b8152600401620001f691906200048d565b60005b838110156200045d57818101518382015260200162000443565b83811115620000885750506000910152565b600082516200048381846020870162000440565b9190910192915050565b6020815260008251806020840152620004ae81604085016020870162000440565b601f01601f19169190910160400192915050565b610c5b80620004d26000396000f3fe6080604052600436106100225760003560e01c80632c6eefd51461003957610031565b366100315761002f610059565b005b61002f610059565b34801561004557600080fd5b5061002f610054366004610a0d565b6102ff565b6100616103dd565b73ffffffffffffffffffffffffffffffffffffffff163373ffffffffffffffffffffffffffffffffffffffff1614156102f55760607fffffffff00000000000000000000000000000000000000000000000000000000600035167f3659cfe6000000000000000000000000000000000000000000000000000000008114156100f2576100eb61041d565b91506102ed565b7fffffffff0000000000000000000000000000000000000000000000000000000081167f4f1ef286000000000000000000000000000000000000000000000000000000001415610144576100eb610474565b7fffffffff0000000000000000000000000000000000000000000000000000000081167f8f283970000000000000000000000000000000000000000000000000000000001415610196576100eb6104ba565b7fffffffff0000000000000000000000000000000000000000000000000000000081167ff851a4400000000000000000000000000000000000000000000000000000000014156101e8576100eb6104eb565b7fffffffff0000000000000000000000000000000000000000000000000000000081167f5c60da1b00000000000000000000000000000000000000000000000000000000141561023a576100eb610538565b6040517f08c379a000000000000000000000000000000000000000000000000000000000815260206004820152604260248201527f5472616e73706172656e745570677261646561626c6550726f78793a2061646d60448201527f696e2063616e6e6f742066616c6c6261636b20746f2070726f7879207461726760648201527f6574000000000000000000000000000000000000000000000000000000000000608482015260a4015b60405180910390fd5b815160208301f35b6102fd61054c565b565b600061030961055c565b73ffffffffffffffffffffffffffffffffffffffff1614610386576040517f08c379a000000000000000000000000000000000000000000000000000000000815260206004820152601360248201527f616c726561647920696e697469616c697a65640000000000000000000000000060448201526064016102e4565b61038f8161056b565b50565b60606103b78383604051806060016040528060278152602001610bff602791396105cc565b9392505050565b90565b73ffffffffffffffffffffffffffffffffffffffff163b151590565b60007fb53127684a568b3173ae13b9f8a6016e243e63b6e8ee1178d6a717850b5d61035b5473ffffffffffffffffffffffffffffffffffffffff16919050565b6060610427610651565b60006104363660048184610a2a565b8101906104439190610a0d565b90506104608160405180602001604052806000815250600061065c565b505060408051602081019091526000815290565b60606000806104863660048184610a2a565b8101906104939190610a83565b915091506104a38282600161065c565b604051806020016040528060008152509250505090565b60606104c4610651565b60006104d33660048184610a2a565b8101906104e09190610a0d565b90506104608161056b565b60606104f5610651565b60006104ff6103dd565b6040805173ffffffffffffffffffffffffffffffffffffffff831660208201529192500160405160208183030381529060405291505090565b6060610542610651565b60006104ff610688565b6102fd610557610688565b610692565b60006105666103dd565b905090565b7f7e644d79422f17c01e4894b5f4f588d331ebfa28653d42ae832dc59e38c9798f6105946103dd565b6040805173ffffffffffffffffffffffffffffffffffffffff928316815291841660208301520160405180910390a161038f816106b6565b60606000808573ffffffffffffffffffffffffffffffffffffffff16856040516105f69190610b91565b600060405180830381855af49150503d8060008114610631576040519150601f19603f3d011682016040523d82523d6000602084013e610636565b606091505b5091509150610647868383876107c2565b9695505050505050565b34156102fd57600080fd5b61066583610867565b6000825111806106725750805b15610683576106818383610392565b505b505050565b60006105666108b4565b3660008037600080366000845af43d6000803e8080156106b1573d6000f35b3d6000fd5b73ffffffffffffffffffffffffffffffffffffffff8116610759576040517f08c379a000000000000000000000000000000000000000000000000000000000815260206004820152602660248201527f455243313936373a206e65772061646d696e20697320746865207a65726f206160448201527f646472657373000000000000000000000000000000000000000000000000000060648201526084016102e4565b807fb53127684a568b3173ae13b9f8a6016e243e63b6e8ee1178d6a717850b5d61035b80547fffffffffffffffffffffffff00000000000000000000000000000000000000001673ffffffffffffffffffffffffffffffffffffffff9290921691909117905550565b6060831561085557825161084e5773ffffffffffffffffffffffffffffffffffffffff85163b61084e576040517f08c379a000000000000000000000000000000000000000000000000000000000815260206004820152601d60248201527f416464726573733a2063616c6c20746f206e6f6e2d636f6e747261637400000060448201526064016102e4565b508161085f565b61085f83836108dc565b949350505050565b61087081610920565b60405173ffffffffffffffffffffffffffffffffffffffff8216907fbc7cd75a20ee27fd9adebab32041f755214dbc6bffa90cc0225b39da2e5c2d3b90600090a250565b60007f360894a13ba1a3210667c828492db98dca3e2076cc3735a920a3ca505d382bbc610401565b8151156108ec5781518083602001fd5b806040517f08c379a00000000000000000000000000000000000000000000000000000000081526004016102e49190610bad565b73ffffffffffffffffffffffffffffffffffffffff81163b6109c4576040517f08c379a000000000000000000000000000000000000000000000000000000000815260206004820152602d60248201527f455243313936373a206e657720696d706c656d656e746174696f6e206973206e60448201527f6f74206120636f6e74726163740000000000000000000000000000000000000060648201526084016102e4565b807f360894a13ba1a3210667c828492db98dca3e2076cc3735a920a3ca505d382bbc61077c565b73ffffffffffffffffffffffffffffffffffffffff8116811461038f57600080fd5b600060208284031215610a1f57600080fd5b81356103b7816109eb565b60008085851115610a3a57600080fd5b83861115610a4757600080fd5b5050820193919092039150565b7f4e487b7100000000000000000000000000000000000000000000000000000000600052604160045260246000fd5b60008060408385031215610a9657600080fd5b8235610aa1816109eb565b9150602083013567ffffffffffffffff80821115610abe57600080fd5b818501915085601f830112610ad257600080fd5b813581811115610ae457610ae4610a54565b604051601f82017fffffffffffffffffffffffffffffffffffffffffffffffffffffffffffffffe0908116603f01168101908382118183101715610b2a57610b2a610a54565b81604052828152886020848701011115610b4357600080fd5b8260208601602083013760006020848301015280955050505050509250929050565b60005b83811015610b80578181015183820152602001610b68565b838111156106815750506000910152565b60008251610ba3818460208701610b65565b9190910192915050565b6020815260008251806020840152610bcc816040850160208701610b65565b601f017fffffffffffffffffffffffffffffffffffffffffffffffffffffffffffffffe016919091016040019291505056fe416464726573733a206c6f772d6c6576656c2064656c65676174652063616c6c206661696c6564a2646970667358221220f0615509625d5c778aaa121e1a0b9159aad18e369892546a297620d3087557f164736f6c63430008090033b53127684a568b3173ae13b9f8a6016e243e63b6e8ee1178d6a717850b5d6103416464726573733a206c6f772d6c6576656c2064656c65676174652063616c6c206661696c6564",
  "linkReferences": {},
  "deployedLinkReferences": {}
}