{
  "_format": "hh-sol-artifact-1",
  "contractName": "Disperse",
  "sourceName": "contracts/tests/Disperse.sol",
  "abi": [
    {
      "inputs": [
        {
          "internalType": "address[]",
          "name": "recipients",
          "type": "address[]"
        },
        {
          "internalType": "uint256[]",
          "name": "values",
          "type": "uint256[]"
        }
      ],
      "name": "disperseEther",
      "outputs": [],
      "stateMutability": "payable",
      "type": "function"
    },
    {
      "inputs": [
        {
          "internalType": "contract IERC20",
          "name": "token",
          "type": "address"
        },
        {
          "internalType": "address[]",
          "name": "recipients",
          "type": "address[]"
        },
        {
          "internalType": "uint256[]",
          "name": "values",
          "type": "uint256[]"
        }
      ],
      "name": "disperseToken",
      "outputs": [],
      "stateMutability": "nonpayable",
      "type": "function"
    },
    {
      "inputs": [
        {
          "internalType": "contract IERC20",
          "name": "token",
          "type": "address"
        },
        {
          "internalType": "address[]",
          "name": "recipients",
          "type": "address[]"
        },
        {
          "internalType": "uint256",
          "name": "amount",
          "type": "uint256"
        }
      ],
      "name": "disperseTokenEqual",
      "outputs": [],
      "stateMutability": "nonpayable",
      "type": "function"
    },
    {
      "inputs": [
        {
          "internalType": "contract IERC20",
          "name": "token",
          "type": "address"
        },
        {
          "internalType": "address[]",
          "name": "recipients",
          "type": "address[]"
        },
        {
          "internalType": "uint256[]",
          "name": "values",
          "type": "uint256[]"
        }
      ],
      "name": "disperseTokenSimple",
      "outputs": [],
      "stateMutability": "nonpayable",
      "type": "function"
    }
  ],
  "bytecode": "0x608060405234801561001057600080fd5b50610a08806100206000396000f3fe60806040526004361061003f5760003560e01c806351ba162c14610044578063b1521cf614610066578063c73a2d6014610086578063e63d38ed146100a6575b600080fd5b34801561005057600080fd5b5061006461005f366004610755565b6100b9565b005b34801561007257600080fd5b506100646100813660046107d8565b6101f1565b34801561009257600080fd5b506100646100a1366004610755565b6103e3565b6100646100b4366004610834565b61060d565b60005b838110156101e9578573ffffffffffffffffffffffffffffffffffffffff166323b872dd338787858181106100f3576100f36108a0565b905060200201602081019061010891906108cf565b86868681811061011a5761011a6108a0565b6040517fffffffff0000000000000000000000000000000000000000000000000000000060e088901b16815273ffffffffffffffffffffffffffffffffffffffff958616600482015294909316602485015250602090910201356044820152606401602060405180830381600087803b15801561019657600080fd5b505af11580156101aa573d6000803e3d6000fd5b505050506040513d601f19601f820116820180604052508101906101ce91906108f3565b6101d757600080fd5b806101e181610944565b9150506100bc565b505050505050565b73ffffffffffffffffffffffffffffffffffffffff84166323b872dd3330610219868661097d565b6040517fffffffff0000000000000000000000000000000000000000000000000000000060e086901b16815273ffffffffffffffffffffffffffffffffffffffff93841660048201529290911660248301526044820152606401602060405180830381600087803b15801561028d57600080fd5b505af11580156102a1573d6000803e3d6000fd5b505050506040513d601f19601f820116820180604052508101906102c591906108f3565b6102ce57600080fd5b60005b828110156103dc578473ffffffffffffffffffffffffffffffffffffffff1663a9059cbb858584818110610307576103076108a0565b905060200201602081019061031c91906108cf565b6040517fffffffff0000000000000000000000000000000000000000000000000000000060e084901b16815273ffffffffffffffffffffffffffffffffffffffff909116600482015260248101859052604401602060405180830381600087803b15801561038957600080fd5b505af115801561039d573d6000803e3d6000fd5b505050506040513d601f19601f820116820180604052508101906103c191906108f3565b6103ca57600080fd5b806103d481610944565b9150506102d1565b5050505050565b6000805b8481101561042757838382818110610401576104016108a0565b905060200201358261041391906109ba565b91508061041f81610944565b9150506103e7565b506040517f23b872dd0000000000000000000000000000000000000000000000000000000081523360048201523060248201526044810182905273ffffffffffffffffffffffffffffffffffffffff8716906323b872dd90606401602060405180830381600087803b15801561049c57600080fd5b505af11580156104b0573d6000803e3d6000fd5b505050506040513d601f19601f820116820180604052508101906104d491906108f3565b6104dd57600080fd5b60005b84811015610604578673ffffffffffffffffffffffffffffffffffffffff1663a9059cbb878784818110610516576105166108a0565b905060200201602081019061052b91906108cf565b86868581811061053d5761053d6108a0565b6040517fffffffff0000000000000000000000000000000000000000000000000000000060e087901b16815273ffffffffffffffffffffffffffffffffffffffff90941660048501526020029190910135602483015250604401602060405180830381600087803b1580156105b157600080fd5b505af11580156105c5573d6000803e3d6000fd5b505050506040513d601f19601f820116820180604052508101906105e991906108f3565b6105f257600080fd5b806105fc81610944565b9150506104e0565b50505050505050565b60005b838110156106af5784848281811061062a5761062a6108a0565b905060200201602081019061063f91906108cf565b73ffffffffffffffffffffffffffffffffffffffff166108fc84848481811061066a5761066a6108a0565b905060200201359081150290604051600060405180830381858888f1935050505015801561069c573d6000803e3d6000fd5b50806106a781610944565b915050610610565b504780156103dc57604051339082156108fc029083906000818181858888f193505050501580156101e9573d6000803e3d6000fd5b73ffffffffffffffffffffffffffffffffffffffff8116811461070657600080fd5b50565b60008083601f84011261071b57600080fd5b50813567ffffffffffffffff81111561073357600080fd5b6020830191508360208260051b850101111561074e57600080fd5b9250929050565b60008060008060006060868803121561076d57600080fd5b8535610778816106e4565b9450602086013567ffffffffffffffff8082111561079557600080fd5b6107a189838a01610709565b909650945060408801359150808211156107ba57600080fd5b506107c788828901610709565b969995985093965092949392505050565b600080600080606085870312156107ee57600080fd5b84356107f9816106e4565b9350602085013567ffffffffffffffff81111561081557600080fd5b61082187828801610709565b9598909750949560400135949350505050565b6000806000806040858703121561084a57600080fd5b843567ffffffffffffffff8082111561086257600080fd5b61086e88838901610709565b9096509450602087013591508082111561088757600080fd5b5061089487828801610709565b95989497509550505050565b7f4e487b7100000000000000000000000000000000000000000000000000000000600052603260045260246000fd5b6000602082840312156108e157600080fd5b81356108ec816106e4565b9392505050565b60006020828403121561090557600080fd5b815180151581146108ec57600080fd5b7f4e487b7100000000000000000000000000000000000000000000000000000000600052601160045260246000fd5b60007fffffffffffffffffffffffffffffffffffffffffffffffffffffffffffffffff82141561097657610976610915565b5060010190565b6000817fffffffffffffffffffffffffffffffffffffffffffffffffffffffffffffffff04831182151516156109b5576109b5610915565b500290565b600082198211156109cd576109cd610915565b50019056fea26469706673582212207706e8405d40ae971c8df398ba93a23aba06a40acd856fe50b3028355e7109b264736f6c63430008090033",
  "linkReferences": {},
  "deployedLinkReferences": {}
}