{
  "_format": "hh-sol-artifact-1",
  "contractName": "BlackList",
  "sourceName": "contracts/tests/BlackList.sol",
  "abi": [
    {
      "anonymous": false,
      "inputs": [
        {
          "indexed": true,
          "internalType": "address",
          "name": "previousOwner",
          "type": "address"
        },
        {
          "indexed": true,
          "internalType": "address",
          "name": "newOwner",
          "type": "address"
        }
      ],
      "name": "OwnershipTransferred",
      "type": "event"
    },
    {
      "inputs": [
        {
          "internalType": "address",
          "name": "",
          "type": "address"
        }
      ],
      "name": "isBlocked",
      "outputs": [
        {
          "internalType": "bool",
          "name": "",
          "type": "bool"
        }
      ],
      "stateMutability": "view",
      "type": "function"
    },
    {
      "inputs": [],
      "name": "owner",
      "outputs": [
        {
          "internalType": "address",
          "name": "",
          "type": "address"
        }
      ],
      "stateMutability": "view",
      "type": "function"
    },
    {
      "inputs": [],
      "name": "renounceOwnership",
      "outputs": [],
      "stateMutability": "nonpayable",
      "type": "function"
    },
    {
      "inputs": [
        {
          "internalType": "address[]",
          "name": "user",
          "type": "address[]"
        },
        {
          "internalType": "bool",
          "name": "status",
          "type": "bool"
        }
      ],
      "name": "setIsBlocked",
      "outputs": [],
      "stateMutability": "nonpayable",
      "type": "function"
    },
    {
      "inputs": [
        {
          "internalType": "address",
          "name": "newOwner",
          "type": "address"
        }
      ],
      "name": "transferOwnership",
      "outputs": [],
      "stateMutability": "nonpayable",
      "type": "function"
    }
  ],
  "bytecode": "0x608060405234801561001057600080fd5b5061001a3361001f565b61006f565b600080546001600160a01b038381166001600160a01b0319831681178455604051919092169283917f8be0079c531659141344cd1fd0a4f28419497f9722a3daafe3b4186f6b6457e09190a35050565b6104f98061007e6000396000f3fe608060405234801561001057600080fd5b50600436106100675760003560e01c8063d9a2d67011610050578063d9a2d670146100a3578063f2fde38b146100b6578063fbac3951146100c957600080fd5b8063715018a61461006c5780638da5cb5b14610076575b600080fd5b6100746100fc565b005b60005460405173ffffffffffffffffffffffffffffffffffffffff90911681526020015b60405180910390f35b6100746100b136600461036c565b610110565b6100746100c43660046103f7565b6101ba565b6100ec6100d73660046103f7565b60016020526000908152604090205460ff1681565b604051901515815260200161009a565b610104610276565b61010e60006102f7565b565b610118610276565b60005b828110156101b457816001600086868581811061013a5761013a610434565b905060200201602081019061014f91906103f7565b73ffffffffffffffffffffffffffffffffffffffff168152602081019190915260400160002080547fffffffffffffffffffffffffffffffffffffffffffffffffffffffffffffff0016911515919091179055806101ac81610463565b91505061011b565b50505050565b6101c2610276565b73ffffffffffffffffffffffffffffffffffffffff811661026a576040517f08c379a000000000000000000000000000000000000000000000000000000000815260206004820152602660248201527f4f776e61626c653a206e6577206f776e657220697320746865207a65726f206160448201527f646472657373000000000000000000000000000000000000000000000000000060648201526084015b60405180910390fd5b610273816102f7565b50565b60005473ffffffffffffffffffffffffffffffffffffffff16331461010e576040517f08c379a000000000000000000000000000000000000000000000000000000000815260206004820181905260248201527f4f776e61626c653a2063616c6c6572206973206e6f7420746865206f776e65726044820152606401610261565b6000805473ffffffffffffffffffffffffffffffffffffffff8381167fffffffffffffffffffffffff0000000000000000000000000000000000000000831681178455604051919092169283917f8be0079c531659141344cd1fd0a4f28419497f9722a3daafe3b4186f6b6457e09190a35050565b60008060006040848603121561038157600080fd5b833567ffffffffffffffff8082111561039957600080fd5b818601915086601f8301126103ad57600080fd5b8135818111156103bc57600080fd5b8760208260051b85010111156103d157600080fd5b6020928301955093505084013580151581146103ec57600080fd5b809150509250925092565b60006020828403121561040957600080fd5b813573ffffffffffffffffffffffffffffffffffffffff8116811461042d57600080fd5b9392505050565b7f4e487b7100000000000000000000000000000000000000000000000000000000600052603260045260246000fd5b60007fffffffffffffffffffffffffffffffffffffffffffffffffffffffffffffffff8214156104bc577f4e487b7100000000000000000000000000000000000000000000000000000000600052601160045260246000fd5b506001019056fea2646970667358221220c8a6f07e1bdcead142ca639d968965372fbb413550e6f93d7c5b7c5696f84c1264736f6c63430008090033",
  "linkReferences": {},
  "deployedLinkReferences": {}
}