{
  "_format": "hh-sol-artifact-1",
  "contractName": "MarginAccountHelper",
  "sourceName": "contracts/MarginAccountHelper.sol",
  "abi": [
    {
      "anonymous": false,
      "inputs": [
        {
          "indexed": false,
          "internalType": "uint8",
          "name": "version",
          "type": "uint8"
        }
      ],
      "name": "Initialized",
      "type": "event"
    },
    {
      "anonymous": false,
      "inputs": [
        {
          "indexed": false,
          "internalType": "address",
          "name": "account",
          "type": "address"
        }
      ],
      "name": "Paused",
      "type": "event"
    },
    {
      "anonymous": false,
      "inputs": [
        {
          "indexed": false,
          "internalType": "address",
          "name": "account",
          "type": "address"
        }
      ],
      "name": "Unpaused",
      "type": "event"
    },
    {
      "inputs": [
        {
          "internalType": "uint256",
          "name": "amount",
          "type": "uint256"
        },
        {
          "internalType": "address",
          "name": "to",
          "type": "address"
        }
      ],
      "name": "addVUSDMarginWithReserve",
      "outputs": [],
      "stateMutability": "payable",
      "type": "function"
    },
    {
      "inputs": [
        {
          "internalType": "address",
          "name": "token",
          "type": "address"
        },
        {
          "internalType": "address",
          "name": "spender",
          "type": "address"
        },
        {
          "internalType": "uint256",
          "name": "amount",
          "type": "uint256"
        }
      ],
      "name": "approveToken",
      "outputs": [],
      "stateMutability": "nonpayable",
      "type": "function"
    },
    {
      "inputs": [
        {
          "internalType": "uint256",
          "name": "amount",
          "type": "uint256"
        },
        {
          "internalType": "address",
          "name": "to",
          "type": "address"
        }
      ],
      "name": "depositToInsuranceFund",
      "outputs": [],
      "stateMutability": "payable",
      "type": "function"
    },
    {
      "inputs": [],
      "name": "governance",
      "outputs": [
        {
          "internalType": "address",
          "name": "",
          "type": "address"
        }
      ],
      "stateMutability": "view",
      "type": "function"
    },
    {
      "inputs": [],
      "name": "hgt",
      "outputs": [
        {
          "internalType": "contract IHGT",
          "name": "",
          "type": "address"
        }
      ],
      "stateMutability": "view",
      "type": "function"
    },
    {
      "inputs": [
        {
          "internalType": "address",
          "name": "_governance",
          "type": "address"
        },
        {
          "internalType": "address",
          "name": "_vusd",
          "type": "address"
        },
        {
          "internalType": "address",
          "name": "_marginAccount",
          "type": "address"
        },
        {
          "internalType": "address",
          "name": "_insuranceFund",
          "type": "address"
        },
        {
          "internalType": "address",
          "name": "_hgt",
          "type": "address"
        }
      ],
      "name": "initialize",
      "outputs": [],
      "stateMutability": "nonpayable",
      "type": "function"
    },
    {
      "inputs": [],
      "name": "insuranceFund",
      "outputs": [
        {
          "internalType": "contract IInsuranceFund",
          "name": "",
          "type": "address"
        }
      ],
      "stateMutability": "view",
      "type": "function"
    },
    {
      "inputs": [],
      "name": "marginAccount",
      "outputs": [
        {
          "internalType": "contract IMarginAccount",
          "name": "",
          "type": "address"
        }
      ],
      "stateMutability": "view",
      "type": "function"
    },
    {
      "inputs": [],
      "name": "pause",
      "outputs": [],
      "stateMutability": "nonpayable",
      "type": "function"
    },
    {
      "inputs": [],
      "name": "paused",
      "outputs": [
        {
          "internalType": "bool",
          "name": "",
          "type": "bool"
        }
      ],
      "stateMutability": "view",
      "type": "function"
    },
    {
      "inputs": [
        {
          "internalType": "uint256",
          "name": "amount",
          "type": "uint256"
        }
      ],
      "name": "removeMarginInUSD",
      "outputs": [],
      "stateMutability": "nonpayable",
      "type": "function"
    },
    {
      "inputs": [
        {
          "internalType": "address",
          "name": "__governance",
          "type": "address"
        }
      ],
      "name": "setGovernace",
      "outputs": [],
      "stateMutability": "nonpayable",
      "type": "function"
    },
    {
      "inputs": [
        {
          "internalType": "address",
          "name": "_hgt",
          "type": "address"
        }
      ],
      "name": "setHGT",
      "outputs": [],
      "stateMutability": "nonpayable",
      "type": "function"
    },
    {
      "inputs": [
        {
          "internalType": "address",
          "name": "_registry",
          "type": "address"
        }
      ],
      "name": "syncDeps",
      "outputs": [],
      "stateMutability": "nonpayable",
      "type": "function"
    },
    {
      "inputs": [],
      "name": "unpause",
      "outputs": [],
      "stateMutability": "nonpayable",
      "type": "function"
    },
    {
      "inputs": [],
      "name": "vusd",
      "outputs": [
        {
          "internalType": "contract IVUSD",
          "name": "",
          "type": "address"
        }
      ],
      "stateMutability": "view",
      "type": "function"
    },
    {
      "inputs": [
        {
          "internalType": "uint256",
          "name": "shares",
          "type": "uint256"
        }
      ],
      "name": "withdrawFromInsuranceFund",
      "outputs": [],
      "stateMutability": "nonpayable",
      "type": "function"
    },
    {
      "inputs": [
        {
          "internalType": "address",
          "name": "to",
          "type": "address"
        },
        {
          "internalType": "uint256",
          "name": "shares",
          "type": "uint256"
        },
        {
          "internalType": "uint16",
          "name": "dstChainId",
          "type": "uint16"
        },
        {
          "internalType": "uint16",
          "name": "secondHopChainId",
          "type": "uint16"
        },
        {
          "internalType": "uint256",
          "name": "amountMin",
          "type": "uint256"
        },
        {
          "internalType": "uint256",
          "name": "dstPoolId",
          "type": "uint256"
        },
        {
          "internalType": "bytes",
          "name": "adapterParams",
          "type": "bytes"
        }
      ],
      "name": "withdrawFromInsuranceFundToChain",
      "outputs": [],
      "stateMutability": "payable",
      "type": "function"
    },
    {
      "inputs": [
        {
          "internalType": "address",
          "name": "to",
          "type": "address"
        },
        {
          "internalType": "uint256",
          "name": "amount",
          "type": "uint256"
        },
        {
          "internalType": "uint256",
          "name": "tokenIdx",
          "type": "uint256"
        },
        {
          "internalType": "uint16",
          "name": "dstChainId",
          "type": "uint16"
        },
        {
          "internalType": "uint16",
          "name": "secondHopChainId",
          "type": "uint16"
        },
        {
          "internalType": "uint256",
          "name": "amountMin",
          "type": "uint256"
        },
        {
          "internalType": "uint256",
          "name": "dstPoolId",
          "type": "uint256"
        },
        {
          "internalType": "bytes",
          "name": "adapterParams",
          "type": "bytes"
        }
      ],
      "name": "withdrawMarginToChain",
      "outputs": [],
      "stateMutability": "payable",
      "type": "function"
    },
    {
      "stateMutability": "payable",
      "type": "receive"
    }
  ],
  "bytecode": "0x608060405234801561001057600080fd5b506000805460ff60b01b191690556122018061002d6000396000f3fe6080604052600436106101485760003560e01c80639b6323fa116100c0578063c74a96eb11610074578063edac520311610059578063edac52031461034d578063f742269d1461036d578063fbf301d81461038d57600080fd5b8063c74a96eb1461030d578063da3e33971461032d57600080fd5b8063ac89894d116100a5578063ac89894d146102ad578063b7902303146102cd578063b97d5dbe146102ed57600080fd5b80639b6323fa1461026d578063a4b52ef21461028d57600080fd5b80635c975abb116101175780638456cb59116100fc5780638456cb5914610225578063851e3ca51461023a578063933486061461025a57600080fd5b80635c975abb146101d557806363207e281461021257600080fd5b80631459457a146101545780633f4ba83a14610176578063425afdaa1461018b5780635aa6e6751461019e57600080fd5b3661014f57005b600080fd5b34801561016057600080fd5b5061017461016f366004611cd0565b6103a0565b005b34801561018257600080fd5b50610174610677565b610174610199366004611da1565b6106db565b3480156101aa57600080fd5b506000546001600160a01b03165b6040516001600160a01b0390911681526020015b60405180910390f35b3480156101e157600080fd5b50600054760100000000000000000000000000000000000000000000900460ff1660405190151581526020016101cc565b610174610220366004611e35565b610896565b34801561023157600080fd5b50610174610999565b34801561024657600080fd5b50610174610255366004611e65565b6109fb565b610174610268366004611e35565b610a8e565b34801561027957600080fd5b50610174610288366004611e89565b610b60565b34801561029957600080fd5b506004546101b8906001600160a01b031681565b3480156102b957600080fd5b506101746102c8366004611e65565b610cb4565b3480156102d957600080fd5b506003546101b8906001600160a01b031681565b3480156102f957600080fd5b50610174610308366004611e89565b610eee565b34801561031957600080fd5b50610174610328366004611e65565b610eff565b34801561033957600080fd5b50610174610348366004611ea2565b610f93565b34801561035957600080fd5b506002546101b8906001600160a01b031681565b34801561037957600080fd5b506001546101b8906001600160a01b031681565b61017461039b366004611ee3565b611001565b6000547501000000000000000000000000000000000000000000900460ff16158080156103eb575060005460017401000000000000000000000000000000000000000090910460ff16105b8061041d5750303b15801561041d575060005474010000000000000000000000000000000000000000900460ff166001145b6104945760405162461bcd60e51b815260206004820152602e60248201527f496e697469616c697a61626c653a20636f6e747261637420697320616c72656160448201527f647920696e697469616c697a656400000000000000000000000000000000000060648201526084015b60405180910390fd5b600080547fffffffffffffffffffffff00ffffffffffffffffffffffffffffffffffffffff1674010000000000000000000000000000000000000000179055801561051a57600080547fffffffffffffffffffff00ffffffffffffffffffffffffffffffffffffffffff1675010000000000000000000000000000000000000000001790555b600080547fffffffffffffffffffffffff0000000000000000000000000000000000000000166001600160a01b038816179055600280546001600160a01b038088167fffffffffffffffffffffffff00000000000000000000000000000000000000009283168117909355600180548883169084161790556003805487831690841617905560048054918616919092161790556105d890857fffffffffffffffffffffffffffffffffffffffffffffffffffffffffffffffff611551565b61060c6001600160a01b038616847fffffffffffffffffffffffffffffffffffffffffffffffffffffffffffffffff611551565b801561066f57600080547fffffffffffffffffffff00ffffffffffffffffffffffffffffffffffffffffff169055604051600181527f7f26b83ff96e1f2b6a682f133852f6798a09c465da95921460cefb38474024989060200160405180910390a15b505050505050565b6000546001600160a01b031633146106d15760405162461bcd60e51b815260206004820152600f60248201527f4f4e4c595f474f5645524e414e43450000000000000000000000000000000000604482015260640161048b565b6106d96116e5565b565b3360006106e9898330611755565b90506106fa64e8d4a5100082611fb3565b90506107068134611ff0565b47101561077b5760405162461bcd60e51b815260206004820152602960248201527f4d617267696e4163636f756e7448656c7065723a20494620776974686472617760448201527f616c206661696c65640000000000000000000000000000000000000000000000606482015260840161048b565b60006040518061014001604052808a61ffff1681526020018961ffff1681526020018781526020018c6001600160a01b0316815260200160008152602001838152602001888152602001846001600160a01b0316815260200160006001600160a01b0316815260200186868080601f01602080910402602001604051908101604052809392919081815260200183838082843760009201919091525050509152506004549091506001600160a01b031663660927f061083a8434611ff0565b836040518363ffffffff1660e01b81526004016108579190612082565b6000604051808303818588803b15801561087057600080fd5b505af1158015610884573d6000803e3d6000fd5b50505050505050505050505050505050565b6002546040517ff99bbc07000000000000000000000000000000000000000000000000000000008152306004820152602481018490526001600160a01b039091169063f99bbc079034906044016000604051808303818588803b1580156108fc57600080fd5b505af1158015610910573d6000803e3d6000fd5b50506001546040517f6141cc1c00000000000000000000000000000000000000000000000000000000815260006004820152602481018790526001600160a01b0386811660448301529091169350636141cc1c925060640190505b600060405180830381600087803b15801561098557600080fd5b505af115801561066f573d6000803e3d6000fd5b6000546001600160a01b031633146109f35760405162461bcd60e51b815260206004820152600f60248201527f4f4e4c595f474f5645524e414e43450000000000000000000000000000000000604482015260640161048b565b6106d96118e5565b6000546001600160a01b03163314610a555760405162461bcd60e51b815260206004820152600f60248201527f4f4e4c595f474f5645524e414e43450000000000000000000000000000000000604482015260640161048b565b600080547fffffffffffffffffffffffff0000000000000000000000000000000000000000166001600160a01b03831617905550565b50565b6002546040517ff99bbc07000000000000000000000000000000000000000000000000000000008152306004820152602481018490526001600160a01b039091169063f99bbc079034906044016000604051808303818588803b158015610af457600080fd5b505af1158015610b08573d6000803e3d6000fd5b50506003546040517f2f4f21e20000000000000000000000000000000000000000000000000000000081526001600160a01b038681166004830152602482018890529091169350632f4f21e29250604401905061096b565b6001546040517f2a4ec40e00000000000000000000000000000000000000000000000000000000815260006004820152602481018390523360448201819052916001600160a01b031690632a4ec40e90606401600060405180830381600087803b158015610bcd57600080fd5b505af1158015610be1573d6000803e3d6000fd5b50506002546040517f205c28780000000000000000000000000000000000000000000000000000000081526001600160a01b03858116600483015260248201879052909116925063205c28789150604401600060405180830381600087803b158015610c4c57600080fd5b505af1158015610c60573d6000803e3d6000fd5b50505050600260009054906101000a90046001600160a01b03166001600160a01b0316632a228fc26040518163ffffffff1660e01b8152600401600060405180830381600087803b15801561098557600080fd5b6000546001600160a01b03163314610d0e5760405162461bcd60e51b815260206004820152600f60248201527f4f4e4c595f474f5645524e414e43450000000000000000000000000000000000604482015260640161048b565b6000819050806001600160a01b031663edac52036040518163ffffffff1660e01b815260040160206040518083038186803b158015610d4c57600080fd5b505afa158015610d60573d6000803e3d6000fd5b505050506040513d601f19601f82011682018060405250810190610d849190612144565b600260006101000a8154816001600160a01b0302191690836001600160a01b03160217905550806001600160a01b031663f742269d6040518163ffffffff1660e01b815260040160206040518083038186803b158015610de357600080fd5b505afa158015610df7573d6000803e3d6000fd5b505050506040513d601f19601f82011682018060405250810190610e1b9190612144565b600160006101000a8154816001600160a01b0302191690836001600160a01b03160217905550806001600160a01b031663b79023036040518163ffffffff1660e01b815260040160206040518083038186803b158015610e7a57600080fd5b505afa158015610e8e573d6000803e3d6000fd5b505050506040513d601f19601f82011682018060405250810190610eb29190612144565b600380547fffffffffffffffffffffffff0000000000000000000000000000000000000000166001600160a01b03929092169190911790555050565b33610efa828280611755565b505050565b6000546001600160a01b03163314610f595760405162461bcd60e51b815260206004820152600f60248201527f4f4e4c595f474f5645524e414e43450000000000000000000000000000000000604482015260640161048b565b600480547fffffffffffffffffffffffff0000000000000000000000000000000000000000166001600160a01b0392909216919091179055565b6000546001600160a01b03163314610fed5760405162461bcd60e51b815260206004820152600f60248201527f4f4e4c595f474f5645524e414e43450000000000000000000000000000000000604482015260640161048b565b610efa6001600160a01b0384168383611551565b600033905060006040518061014001604052808961ffff1681526020018861ffff1681526020018681526020018c6001600160a01b031681526020018a81526020018b8152602001878152602001836001600160a01b0316815260200160006001600160a01b0316815260200185858080601f01602080910402602001604051908101604052809392919081815260200183838082843760009201919091525050509152506001546040517f2a4ec40e000000000000000000000000000000000000000000000000000000008152600481018c9052602481018d90526001600160a01b038581166044830152929350911690632a4ec40e90606401600060405180830381600087803b15801561111657600080fd5b505af115801561112a573d6000803e3d6000fd5b505050506000891415611327576002546040517f205c2878000000000000000000000000000000000000000000000000000000008152306004820152602481018c90526001600160a01b039091169063205c287890604401600060405180830381600087803b15801561119c57600080fd5b505af11580156111b0573d6000803e3d6000fd5b50505050600260009054906101000a90046001600160a01b03166001600160a01b0316632a228fc26040518163ffffffff1660e01b8152600401600060405180830381600087803b15801561120457600080fd5b505af1158015611218573d6000803e3d6000fd5b50505050600064e8d4a510008b61122f9190611fb3565b905061123b8134611ff0565b4710156112b05760405162461bcd60e51b815260206004820152602d60248201527f4d617267696e4163636f756e7448656c7065723a204d617267696e207769746860448201527f64726177616c206661696c656400000000000000000000000000000000000000606482015260840161048b565b60a082018190526004546001600160a01b031663660927f06112d28334611ff0565b846040518363ffffffff1660e01b81526004016112ef9190612082565b6000604051808303818588803b15801561130857600080fd5b505af115801561131c573d6000803e3d6000fd5b505050505050611544565b6001546040517f55a89617000000000000000000000000000000000000000000000000000000008152600481018b90526000916001600160a01b0316906355a896179060240160206040518083038186803b15801561138557600080fd5b505afa158015611399573d6000803e3d6000fd5b505050506040513d601f19601f820116820180604052508101906113bd9190612144565b6040517f70a082310000000000000000000000000000000000000000000000000000000081523060048201529091508b906001600160a01b038316906370a082319060240160206040518083038186803b15801561141a57600080fd5b505afa15801561142e573d6000803e3d6000fd5b505050506040513d601f19601f820116820180604052508101906114529190612161565b10156114c65760405162461bcd60e51b815260206004820152602d60248201527f4d617267696e4163636f756e7448656c7065723a204d617267696e207769746860448201527f64726177616c206661696c656400000000000000000000000000000000000000606482015260840161048b565b600480546040517f660927f00000000000000000000000000000000000000000000000000000000081526001600160a01b039091169163660927f091349161151091879101612082565b6000604051808303818588803b15801561152957600080fd5b505af115801561153d573d6000803e3d6000fd5b5050505050505b5050505050505050505050565b8015806115f357506040517fdd62ed3e0000000000000000000000000000000000000000000000000000000081523060048201526001600160a01b03838116602483015284169063dd62ed3e9060440160206040518083038186803b1580156115b957600080fd5b505afa1580156115cd573d6000803e3d6000fd5b505050506040513d601f19601f820116820180604052508101906115f19190612161565b155b6116655760405162461bcd60e51b815260206004820152603660248201527f5361666545524332303a20617070726f76652066726f6d206e6f6e2d7a65726f60448201527f20746f206e6f6e2d7a65726f20616c6c6f77616e636500000000000000000000606482015260840161048b565b604080516001600160a01b038416602482015260448082018490528251808303909101815260649091019091526020810180517bffffffffffffffffffffffffffffffffffffffffffffffffffffffff167f095ea7b300000000000000000000000000000000000000000000000000000000179052610efa908490611956565b6116ed611a3e565b600080547fffffffffffffffffff00ffffffffffffffffffffffffffffffffffffffffffff1690557f5db9ee0a495bf2e6ff9c91a7834c1ba4fdd244a5e8aa4e537bd38aeae4b073aa335b6040516001600160a01b03909116815260200160405180910390a1565b6003546040517fdb518db20000000000000000000000000000000000000000000000000000000081526001600160a01b03848116600483015260248201869052600092169063db518db290604401602060405180830381600087803b1580156117bd57600080fd5b505af11580156117d1573d6000803e3d6000fd5b505050506040513d601f19601f820116820180604052508101906117f59190612161565b6002546040517f205c28780000000000000000000000000000000000000000000000000000000081526001600160a01b0385811660048301526024820184905292935091169063205c287890604401600060405180830381600087803b15801561185e57600080fd5b505af1158015611872573d6000803e3d6000fd5b50505050600260009054906101000a90046001600160a01b03166001600160a01b0316632a228fc26040518163ffffffff1660e01b8152600401600060405180830381600087803b1580156118c657600080fd5b505af11580156118da573d6000803e3d6000fd5b505050509392505050565b6118ed611aaa565b600080547fffffffffffffffffff00ffffffffffffffffffffffffffffffffffffffffffff167601000000000000000000000000000000000000000000001790557f62e78cea01bee320cd4e420270b5ea74000d11b0c9f74754ebdbfc544b05a2586117383390565b60006119ab826040518060400160405280602081526020017f5361666545524332303a206c6f772d6c6576656c2063616c6c206661696c6564815250856001600160a01b0316611b179092919063ffffffff16565b90508051600014806119cc5750808060200190518101906119cc919061217a565b610efa5760405162461bcd60e51b815260206004820152602a60248201527f5361666545524332303a204552433230206f7065726174696f6e20646964206e60448201527f6f74207375636365656400000000000000000000000000000000000000000000606482015260840161048b565b600054760100000000000000000000000000000000000000000000900460ff166106d95760405162461bcd60e51b815260206004820152601460248201527f5061757361626c653a206e6f7420706175736564000000000000000000000000604482015260640161048b565b600054760100000000000000000000000000000000000000000000900460ff16156106d95760405162461bcd60e51b815260206004820152601060248201527f5061757361626c653a2070617573656400000000000000000000000000000000604482015260640161048b565b6060611b268484600085611b2e565b949350505050565b606082471015611ba65760405162461bcd60e51b815260206004820152602660248201527f416464726573733a20696e73756666696369656e742062616c616e636520666f60448201527f722063616c6c0000000000000000000000000000000000000000000000000000606482015260840161048b565b600080866001600160a01b03168587604051611bc2919061219c565b60006040518083038185875af1925050503d8060008114611bff576040519150601f19603f3d011682016040523d82523d6000602084013e611c04565b606091505b5091509150611c1587838387611c20565b979650505050505050565b60608315611c8c578251611c85576001600160a01b0385163b611c855760405162461bcd60e51b815260206004820152601d60248201527f416464726573733a2063616c6c20746f206e6f6e2d636f6e7472616374000000604482015260640161048b565b5081611b26565b611b268383815115611ca15781518083602001fd5b8060405162461bcd60e51b815260040161048b91906121b8565b6001600160a01b0381168114610a8b57600080fd5b600080600080600060a08688031215611ce857600080fd5b8535611cf381611cbb565b94506020860135611d0381611cbb565b93506040860135611d1381611cbb565b92506060860135611d2381611cbb565b91506080860135611d3381611cbb565b809150509295509295909350565b803561ffff81168114611d5357600080fd5b919050565b60008083601f840112611d6a57600080fd5b50813567ffffffffffffffff811115611d8257600080fd5b602083019150836020828501011115611d9a57600080fd5b9250929050565b60008060008060008060008060e0898b031215611dbd57600080fd5b8835611dc881611cbb565b975060208901359650611ddd60408a01611d41565b9550611deb60608a01611d41565b94506080890135935060a0890135925060c089013567ffffffffffffffff811115611e1557600080fd5b611e218b828c01611d58565b999c989b5096995094979396929594505050565b60008060408385031215611e4857600080fd5b823591506020830135611e5a81611cbb565b809150509250929050565b600060208284031215611e7757600080fd5b8135611e8281611cbb565b9392505050565b600060208284031215611e9b57600080fd5b5035919050565b600080600060608486031215611eb757600080fd5b8335611ec281611cbb565b92506020840135611ed281611cbb565b929592945050506040919091013590565b60008060008060008060008060006101008a8c031215611f0257600080fd5b8935611f0d81611cbb565b985060208a0135975060408a01359650611f2960608b01611d41565b9550611f3760808b01611d41565b945060a08a0135935060c08a0135925060e08a013567ffffffffffffffff811115611f6157600080fd5b611f6d8c828d01611d58565b915080935050809150509295985092959850929598565b7f4e487b7100000000000000000000000000000000000000000000000000000000600052601160045260246000fd5b6000817fffffffffffffffffffffffffffffffffffffffffffffffffffffffffffffffff0483118215151615611feb57611feb611f84565b500290565b6000821982111561200357612003611f84565b500190565b60005b8381101561202357818101518382015260200161200b565b83811115612032576000848401525b50505050565b60008151808452612050816020860160208601612008565b601f017fffffffffffffffffffffffffffffffffffffffffffffffffffffffffffffffe0169290920160200192915050565b6020815261209760208201835161ffff169052565b600060208301516120ae604084018261ffff169052565b506040830151606083015260608301516120d360808401826001600160a01b03169052565b50608083015160a083015260a083015160c083015260c083015160e083015260e083015161010061210e818501836001600160a01b03169052565b840151905061012061212a848201836001600160a01b03169052565b840151610140848101529050611b26610160840182612038565b60006020828403121561215657600080fd5b8151611e8281611cbb565b60006020828403121561217357600080fd5b5051919050565b60006020828403121561218c57600080fd5b81518015158114611e8257600080fd5b600082516121ae818460208701612008565b9190910192915050565b602081526000611e82602083018461203856fea2646970667358221220a0c23b162d7cbab0e6a4e630cd432f6c4eaf52eaef95d4bf05a03839df61e55d64736f6c63430008090033",
  "linkReferences": {},
  "deployedLinkReferences": {}
}