{
  "_format": "hh-sol-artifact-1",
  "contractName": "OrderBookRollup",
  "sourceName": "contracts/orderbooks/OrderBookRollup.sol",
  "abi": [
    {
      "inputs": [
        {
          "internalType": "address",
          "name": "_defaultOrderBook",
          "type": "address"
        }
      ],
      "stateMutability": "nonpayable",
      "type": "constructor"
    },
    {
      "anonymous": false,
      "inputs": [
        {
          "indexed": false,
          "internalType": "uint8",
          "name": "version",
          "type": "uint8"
        }
      ],
      "name": "Initialized",
      "type": "event"
    },
    {
      "anonymous": false,
      "inputs": [
        {
          "indexed": true,
          "internalType": "address",
          "name": "trader",
          "type": "address"
        },
        {
          "indexed": true,
          "internalType": "bytes32",
          "name": "orderHash",
          "type": "bytes32"
        },
        {
          "indexed": false,
          "internalType": "uint256",
          "name": "timestamp",
          "type": "uint256"
        }
      ],
      "name": "OrderCancelled",
      "type": "event"
    },
    {
      "anonymous": false,
      "inputs": [
        {
          "indexed": true,
          "internalType": "address",
          "name": "relayer",
          "type": "address"
        }
      ],
      "name": "OrdersPlaced",
      "type": "event"
    },
    {
      "anonymous": false,
      "inputs": [
        {
          "indexed": false,
          "internalType": "address",
          "name": "account",
          "type": "address"
        }
      ],
      "name": "Paused",
      "type": "event"
    },
    {
      "anonymous": false,
      "inputs": [
        {
          "indexed": false,
          "internalType": "address",
          "name": "account",
          "type": "address"
        }
      ],
      "name": "Unpaused",
      "type": "event"
    },
    {
      "inputs": [
        {
          "components": [
            {
              "internalType": "uint8",
              "name": "orderType",
              "type": "uint8"
            },
            {
              "internalType": "uint256",
              "name": "ammIndex",
              "type": "uint256"
            },
            {
              "internalType": "address",
              "name": "trader",
              "type": "address"
            },
            {
              "internalType": "int256",
              "name": "baseAssetQuantity",
              "type": "int256"
            },
            {
              "internalType": "uint256",
              "name": "price",
              "type": "uint256"
            },
            {
              "internalType": "uint256",
              "name": "salt",
              "type": "uint256"
            },
            {
              "internalType": "bool",
              "name": "reduceOnly",
              "type": "bool"
            },
            {
              "internalType": "uint256",
              "name": "validUntil",
              "type": "uint256"
            }
          ],
          "internalType": "struct IOrderBookRollup.Order[]",
          "name": "",
          "type": "tuple[]"
        }
      ],
      "name": "cancelOrders",
      "outputs": [],
      "stateMutability": "nonpayable",
      "type": "function"
    },
    {
      "inputs": [],
      "name": "defaultOrderBook",
      "outputs": [
        {
          "internalType": "address",
          "name": "",
          "type": "address"
        }
      ],
      "stateMutability": "view",
      "type": "function"
    },
    {
      "inputs": [],
      "name": "governance",
      "outputs": [
        {
          "internalType": "address",
          "name": "",
          "type": "address"
        }
      ],
      "stateMutability": "view",
      "type": "function"
    },
    {
      "inputs": [
        {
          "internalType": "address",
          "name": "_governance",
          "type": "address"
        },
        {
          "internalType": "address",
          "name": "_juror",
          "type": "address"
        }
      ],
      "name": "initialize",
      "outputs": [],
      "stateMutability": "nonpayable",
      "type": "function"
    },
    {
      "inputs": [],
      "name": "juror",
      "outputs": [
        {
          "internalType": "contract IJuror",
          "name": "",
          "type": "address"
        }
      ],
      "stateMutability": "view",
      "type": "function"
    },
    {
      "inputs": [
        {
          "internalType": "bytes32",
          "name": "orderHash",
          "type": "bytes32"
        }
      ],
      "name": "orderStatus",
      "outputs": [
        {
          "components": [
            {
              "internalType": "int256",
              "name": "filledAmount",
              "type": "int256"
            },
            {
              "internalType": "bool",
              "name": "isCancelled",
              "type": "bool"
            }
          ],
          "internalType": "struct IOrderBookRollup.OrderInfo",
          "name": "",
          "type": "tuple"
        }
      ],
      "stateMutability": "view",
      "type": "function"
    },
    {
      "inputs": [],
      "name": "paused",
      "outputs": [
        {
          "internalType": "bool",
          "name": "",
          "type": "bool"
        }
      ],
      "stateMutability": "view",
      "type": "function"
    },
    {
      "inputs": [
        {
          "components": [
            {
              "internalType": "uint8",
              "name": "orderType",
              "type": "uint8"
            },
            {
              "internalType": "uint256",
              "name": "ammIndex",
              "type": "uint256"
            },
            {
              "internalType": "address",
              "name": "trader",
              "type": "address"
            },
            {
              "internalType": "int256",
              "name": "baseAssetQuantity",
              "type": "int256"
            },
            {
              "internalType": "uint256",
              "name": "price",
              "type": "uint256"
            },
            {
              "internalType": "uint256",
              "name": "salt",
              "type": "uint256"
            },
            {
              "internalType": "bool",
              "name": "reduceOnly",
              "type": "bool"
            },
            {
              "internalType": "uint256",
              "name": "validUntil",
              "type": "uint256"
            }
          ],
          "internalType": "struct IOrderBookRollup.Order[]",
          "name": "",
          "type": "tuple[]"
        },
        {
          "internalType": "bytes[]",
          "name": "",
          "type": "bytes[]"
        }
      ],
      "name": "placeOrders",
      "outputs": [],
      "stateMutability": "nonpayable",
      "type": "function"
    },
    {
      "inputs": [
        {
          "internalType": "address",
          "name": "__governance",
          "type": "address"
        }
      ],
      "name": "setGovernace",
      "outputs": [],
      "stateMutability": "nonpayable",
      "type": "function"
    },
    {
      "inputs": [
        {
          "internalType": "bytes",
          "name": "",
          "type": "bytes"
        },
        {
          "internalType": "bytes",
          "name": "metadata",
          "type": "bytes"
        }
      ],
      "name": "updateOrder",
      "outputs": [],
      "stateMutability": "nonpayable",
      "type": "function"
    }
  ],
  "bytecode": "0x60a060405234801561001057600080fd5b50604051610b7c380380610b7c83398101604081905261002f9161004d565b6000805460ff60b01b191690556001600160a01b031660805261007d565b60006020828403121561005f57600080fd5b81516001600160a01b038116811461007657600080fd5b9392505050565b608051610ade61009e6000396000818160c801526105840152610ade6000f3fe608060405234801561001057600080fd5b50600436106100be5760003560e01c80635aa6e675116100765780637f3c6b3f1161005b5780637f3c6b3f1461020b578063851e3ca51461021e57806397814b721461023157600080fd5b80635aa6e675146101bd5780635c975abb146101db57600080fd5b8063405ade93116100a7578063405ade93146101825780634550af2c14610197578063485cc955146101aa57600080fd5b80631a12edf5146100c35780632dff692d14610114575b600080fd5b6100ea7f000000000000000000000000000000000000000000000000000000000000000081565b60405173ffffffffffffffffffffffffffffffffffffffff90911681526020015b60405180910390f35b61016561012236600461070e565b6040805180820190915260008082526020820152506000908152600160208181526040928390208351808501909452805484529091015460ff1615159082015290565b60408051825181526020928301511515928101929092520161010b565b610195610190366004610773565b610251565b005b6101956101a53660046107b5565b6102bf565b6101956101b8366004610878565b6102f0565b60005473ffffffffffffffffffffffffffffffffffffffff166100ea565b600054760100000000000000000000000000000000000000000000900460ff16604051901515815260200161010b565b6101956102193660046108ed565b61056c565b61019561022c366004610959565b61064a565b6002546100ea9073ffffffffffffffffffffffffffffffffffffffff1681565b606060005b81518110156102b95760018060008484815181106102765761027661097b565b6020026020010151815260200190815260200160002060010160006101000a81548160ff02191690831515021790555080806102b1906109d9565b915050610256565b50505050565b60405133907faf1b621e86ef07f89dbfc7b62a83be186c16d015ece7ded1aa22648d7f27da2490600090a250505050565b6000547501000000000000000000000000000000000000000000900460ff161580801561033b575060005460017401000000000000000000000000000000000000000090910460ff16105b8061036d5750303b15801561036d575060005474010000000000000000000000000000000000000000900460ff166001145b6103fe576040517f08c379a000000000000000000000000000000000000000000000000000000000815260206004820152602e60248201527f496e697469616c697a61626c653a20636f6e747261637420697320616c72656160448201527f647920696e697469616c697a656400000000000000000000000000000000000060648201526084015b60405180910390fd5b600080547fffffffffffffffffffffff00ffffffffffffffffffffffffffffffffffffffff1674010000000000000000000000000000000000000000179055801561048457600080547fffffffffffffffffffff00ffffffffffffffffffffffffffffffffffffffffff1675010000000000000000000000000000000000000000001790555b600080547fffffffffffffffffffffffff00000000000000000000000000000000000000001673ffffffffffffffffffffffffffffffffffffffff8516179055600280547fffffffffffffffffffffffff00000000000000000000000000000000000000001673ffffffffffffffffffffffffffffffffffffffff8416179055801561056757600080547fffffffffffffffffffff00ffffffffffffffffffffffffffffffffffffffffff169055604051600181527f7f26b83ff96e1f2b6a682f133852f6798a09c465da95921460cefb38474024989060200160405180910390a15b505050565b3373ffffffffffffffffffffffffffffffffffffffff7f0000000000000000000000000000000000000000000000000000000000000000161461060b576040517f08c379a000000000000000000000000000000000000000000000000000000000815260206004820152601660248201527f6f6e6c792064656661756c74206f72646572426f6f6b0000000000000000000060448201526064016103f5565b60008061061a83850185610a12565b60008281526001602052604081208054939550919350839261063d908490610a34565b9091555050505050505050565b60005473ffffffffffffffffffffffffffffffffffffffff1633146106cb576040517f08c379a000000000000000000000000000000000000000000000000000000000815260206004820152600f60248201527f4f4e4c595f474f5645524e414e4345000000000000000000000000000000000060448201526064016103f5565b600080547fffffffffffffffffffffffff00000000000000000000000000000000000000001673ffffffffffffffffffffffffffffffffffffffff831617905550565b60006020828403121561072057600080fd5b5035919050565b60008083601f84011261073957600080fd5b50813567ffffffffffffffff81111561075157600080fd5b6020830191508360208260081b850101111561076c57600080fd5b9250929050565b6000806020838503121561078657600080fd5b823567ffffffffffffffff81111561079d57600080fd5b6107a985828601610727565b90969095509350505050565b600080600080604085870312156107cb57600080fd5b843567ffffffffffffffff808211156107e357600080fd5b6107ef88838901610727565b9096509450602087013591508082111561080857600080fd5b818701915087601f83011261081c57600080fd5b81358181111561082b57600080fd5b8860208260051b850101111561084057600080fd5b95989497505060200194505050565b803573ffffffffffffffffffffffffffffffffffffffff8116811461087357600080fd5b919050565b6000806040838503121561088b57600080fd5b6108948361084f565b91506108a26020840161084f565b90509250929050565b60008083601f8401126108bd57600080fd5b50813567ffffffffffffffff8111156108d557600080fd5b60208301915083602082850101111561076c57600080fd5b6000806000806040858703121561090357600080fd5b843567ffffffffffffffff8082111561091b57600080fd5b610927888389016108ab565b9096509450602087013591508082111561094057600080fd5b5061094d878288016108ab565b95989497509550505050565b60006020828403121561096b57600080fd5b6109748261084f565b9392505050565b7f4e487b7100000000000000000000000000000000000000000000000000000000600052603260045260246000fd5b7f4e487b7100000000000000000000000000000000000000000000000000000000600052601160045260246000fd5b60007fffffffffffffffffffffffffffffffffffffffffffffffffffffffffffffffff821415610a0b57610a0b6109aa565b5060010190565b60008060408385031215610a2557600080fd5b50508035926020909101359150565b6000808212827f7fffffffffffffffffffffffffffffffffffffffffffffffffffffffffffffff03841381151615610a6e57610a6e6109aa565b827f8000000000000000000000000000000000000000000000000000000000000000038412811615610aa257610aa26109aa565b5050019056fea2646970667358221220772c840658bef659187788343e0aa129f227481ab2986eaf26b531eb1f6f3dcd64736f6c63430008090033",
  "linkReferences": {},
  "deployedLinkReferences": {}
}