{
  "_format": "hh-sol-artifact-1",
  "contractName": "LimitOrderBook",
  "sourceName": "contracts/orderbooks/LimitOrderBook.sol",
  "abi": [
    {
      "inputs": [
        {
          "internalType": "address",
          "name": "_clearingHouse",
          "type": "address"
        },
        {
          "internalType": "address",
          "name": "_marginAccount",
          "type": "address"
        },
        {
          "internalType": "address",
          "name": "_trustedForwarder",
          "type": "address"
        }
      ],
      "stateMutability": "nonpayable",
      "type": "constructor"
    },
    {
      "anonymous": false,
      "inputs": [
        {
          "indexed": false,
          "internalType": "uint8",
          "name": "version",
          "type": "uint8"
        }
      ],
      "name": "Initialized",
      "type": "event"
    },
    {
      "anonymous": false,
      "inputs": [
        {
          "indexed": true,
          "internalType": "address",
          "name": "trader",
          "type": "address"
        },
        {
          "indexed": true,
          "internalType": "bytes32",
          "name": "orderHash",
          "type": "bytes32"
        },
        {
          "components": [
            {
              "internalType": "uint256",
              "name": "ammIndex",
              "type": "uint256"
            },
            {
              "internalType": "address",
              "name": "trader",
              "type": "address"
            },
            {
              "internalType": "int256",
              "name": "baseAssetQuantity",
              "type": "int256"
            },
            {
              "internalType": "uint256",
              "name": "price",
              "type": "uint256"
            },
            {
              "internalType": "uint256",
              "name": "salt",
              "type": "uint256"
            },
            {
              "internalType": "bool",
              "name": "reduceOnly",
              "type": "bool"
            },
            {
              "internalType": "bool",
              "name": "postOnly",
              "type": "bool"
            }
          ],
          "indexed": false,
          "internalType": "struct ILimitOrderBook.Order",
          "name": "order",
          "type": "tuple"
        },
        {
          "indexed": false,
          "internalType": "uint256",
          "name": "timestamp",
          "type": "uint256"
        }
      ],
      "name": "OrderAccepted",
      "type": "event"
    },
    {
      "anonymous": false,
      "inputs": [
        {
          "indexed": true,
          "internalType": "address",
          "name": "trader",
          "type": "address"
        },
        {
          "indexed": true,
          "internalType": "bytes32",
          "name": "orderHash",
          "type": "bytes32"
        },
        {
          "indexed": false,
          "internalType": "uint256",
          "name": "timestamp",
          "type": "uint256"
        },
        {
          "indexed": false,
          "internalType": "bool",
          "name": "isAutoCancelled",
          "type": "bool"
        }
      ],
      "name": "OrderCancelAccepted",
      "type": "event"
    },
    {
      "anonymous": false,
      "inputs": [
        {
          "indexed": true,
          "internalType": "address",
          "name": "trader",
          "type": "address"
        },
        {
          "indexed": true,
          "internalType": "bytes32",
          "name": "orderHash",
          "type": "bytes32"
        },
        {
          "indexed": false,
          "internalType": "uint256",
          "name": "timestamp",
          "type": "uint256"
        },
        {
          "indexed": false,
          "internalType": "string",
          "name": "err",
          "type": "string"
        }
      ],
      "name": "OrderCancelRejected",
      "type": "event"
    },
    {
      "anonymous": false,
      "inputs": [
        {
          "indexed": true,
          "internalType": "address",
          "name": "trader",
          "type": "address"
        },
        {
          "indexed": true,
          "internalType": "bytes32",
          "name": "orderHash",
          "type": "bytes32"
        },
        {
          "components": [
            {
              "internalType": "uint256",
              "name": "ammIndex",
              "type": "uint256"
            },
            {
              "internalType": "address",
              "name": "trader",
              "type": "address"
            },
            {
              "internalType": "int256",
              "name": "baseAssetQuantity",
              "type": "int256"
            },
            {
              "internalType": "uint256",
              "name": "price",
              "type": "uint256"
            },
            {
              "internalType": "uint256",
              "name": "salt",
              "type": "uint256"
            },
            {
              "internalType": "bool",
              "name": "reduceOnly",
              "type": "bool"
            },
            {
              "internalType": "bool",
              "name": "postOnly",
              "type": "bool"
            }
          ],
          "indexed": false,
          "internalType": "struct ILimitOrderBook.Order",
          "name": "order",
          "type": "tuple"
        },
        {
          "indexed": false,
          "internalType": "uint256",
          "name": "timestamp",
          "type": "uint256"
        },
        {
          "indexed": false,
          "internalType": "string",
          "name": "err",
          "type": "string"
        }
      ],
      "name": "OrderRejected",
      "type": "event"
    },
    {
      "anonymous": false,
      "inputs": [
        {
          "indexed": false,
          "internalType": "address",
          "name": "account",
          "type": "address"
        }
      ],
      "name": "Paused",
      "type": "event"
    },
    {
      "anonymous": false,
      "inputs": [
        {
          "indexed": false,
          "internalType": "address",
          "name": "account",
          "type": "address"
        }
      ],
      "name": "Unpaused",
      "type": "event"
    },
    {
      "inputs": [
        {
          "components": [
            {
              "internalType": "uint256",
              "name": "ammIndex",
              "type": "uint256"
            },
            {
              "internalType": "address",
              "name": "trader",
              "type": "address"
            },
            {
              "internalType": "int256",
              "name": "baseAssetQuantity",
              "type": "int256"
            },
            {
              "internalType": "uint256",
              "name": "price",
              "type": "uint256"
            },
            {
              "internalType": "uint256",
              "name": "salt",
              "type": "uint256"
            },
            {
              "internalType": "bool",
              "name": "reduceOnly",
              "type": "bool"
            },
            {
              "internalType": "bool",
              "name": "postOnly",
              "type": "bool"
            }
          ],
          "internalType": "struct ILimitOrderBook.Order[]",
          "name": "orders",
          "type": "tuple[]"
        }
      ],
      "name": "cancelOrders",
      "outputs": [],
      "stateMutability": "nonpayable",
      "type": "function"
    },
    {
      "inputs": [
        {
          "components": [
            {
              "internalType": "uint256",
              "name": "ammIndex",
              "type": "uint256"
            },
            {
              "internalType": "address",
              "name": "trader",
              "type": "address"
            },
            {
              "internalType": "int256",
              "name": "baseAssetQuantity",
              "type": "int256"
            },
            {
              "internalType": "uint256",
              "name": "price",
              "type": "uint256"
            },
            {
              "internalType": "uint256",
              "name": "salt",
              "type": "uint256"
            },
            {
              "internalType": "bool",
              "name": "reduceOnly",
              "type": "bool"
            },
            {
              "internalType": "bool",
              "name": "postOnly",
              "type": "bool"
            }
          ],
          "internalType": "struct ILimitOrderBook.Order[]",
          "name": "orders",
          "type": "tuple[]"
        }
      ],
      "name": "cancelOrdersWithLowMargin",
      "outputs": [],
      "stateMutability": "nonpayable",
      "type": "function"
    },
    {
      "inputs": [],
      "name": "clearingHouse",
      "outputs": [
        {
          "internalType": "contract IClearingHouse",
          "name": "",
          "type": "address"
        }
      ],
      "stateMutability": "view",
      "type": "function"
    },
    {
      "inputs": [],
      "name": "defaultOrderBook",
      "outputs": [
        {
          "internalType": "address",
          "name": "",
          "type": "address"
        }
      ],
      "stateMutability": "view",
      "type": "function"
    },
    {
      "inputs": [
        {
          "components": [
            {
              "internalType": "uint256",
              "name": "ammIndex",
              "type": "uint256"
            },
            {
              "internalType": "address",
              "name": "trader",
              "type": "address"
            },
            {
              "internalType": "int256",
              "name": "baseAssetQuantity",
              "type": "int256"
            },
            {
              "internalType": "uint256",
              "name": "price",
              "type": "uint256"
            },
            {
              "internalType": "uint256",
              "name": "salt",
              "type": "uint256"
            },
            {
              "internalType": "bool",
              "name": "reduceOnly",
              "type": "bool"
            },
            {
              "internalType": "bool",
              "name": "postOnly",
              "type": "bool"
            }
          ],
          "internalType": "struct ILimitOrderBook.Order",
          "name": "order",
          "type": "tuple"
        }
      ],
      "name": "getOrderHash",
      "outputs": [
        {
          "internalType": "bytes32",
          "name": "",
          "type": "bytes32"
        }
      ],
      "stateMutability": "pure",
      "type": "function"
    },
    {
      "inputs": [],
      "name": "governance",
      "outputs": [
        {
          "internalType": "address",
          "name": "",
          "type": "address"
        }
      ],
      "stateMutability": "view",
      "type": "function"
    },
    {
      "inputs": [
        {
          "internalType": "address",
          "name": "_governance",
          "type": "address"
        },
        {
          "internalType": "address",
          "name": "_defaultOrderBook",
          "type": "address"
        },
        {
          "internalType": "address",
          "name": "_juror",
          "type": "address"
        }
      ],
      "name": "initialize",
      "outputs": [],
      "stateMutability": "nonpayable",
      "type": "function"
    },
    {
      "inputs": [
        {
          "internalType": "address",
          "name": "forwarder",
          "type": "address"
        }
      ],
      "name": "isTrustedForwarder",
      "outputs": [
        {
          "internalType": "bool",
          "name": "",
          "type": "bool"
        }
      ],
      "stateMutability": "view",
      "type": "function"
    },
    {
      "inputs": [],
      "name": "juror",
      "outputs": [
        {
          "internalType": "contract IJuror",
          "name": "",
          "type": "address"
        }
      ],
      "stateMutability": "view",
      "type": "function"
    },
    {
      "inputs": [
        {
          "internalType": "address",
          "name": "",
          "type": "address"
        },
        {
          "internalType": "uint256",
          "name": "",
          "type": "uint256"
        }
      ],
      "name": "longOpenOrdersAmount",
      "outputs": [
        {
          "internalType": "uint256",
          "name": "",
          "type": "uint256"
        }
      ],
      "stateMutability": "view",
      "type": "function"
    },
    {
      "inputs": [],
      "name": "marginAccount",
      "outputs": [
        {
          "internalType": "contract IMarginAccount",
          "name": "",
          "type": "address"
        }
      ],
      "stateMutability": "view",
      "type": "function"
    },
    {
      "inputs": [
        {
          "internalType": "bytes32",
          "name": "",
          "type": "bytes32"
        }
      ],
      "name": "orderInfo",
      "outputs": [
        {
          "internalType": "uint256",
          "name": "blockPlaced",
          "type": "uint256"
        },
        {
          "internalType": "int256",
          "name": "filledAmount",
          "type": "int256"
        },
        {
          "internalType": "uint256",
          "name": "reservedMargin",
          "type": "uint256"
        },
        {
          "internalType": "enum IOrderHandler.OrderStatus",
          "name": "status",
          "type": "uint8"
        }
      ],
      "stateMutability": "view",
      "type": "function"
    },
    {
      "inputs": [
        {
          "internalType": "bytes32",
          "name": "orderHash",
          "type": "bytes32"
        }
      ],
      "name": "orderStatus",
      "outputs": [
        {
          "components": [
            {
              "internalType": "uint256",
              "name": "blockPlaced",
              "type": "uint256"
            },
            {
              "internalType": "int256",
              "name": "filledAmount",
              "type": "int256"
            },
            {
              "internalType": "uint256",
              "name": "reservedMargin",
              "type": "uint256"
            },
            {
              "internalType": "enum IOrderHandler.OrderStatus",
              "name": "status",
              "type": "uint8"
            }
          ],
          "internalType": "struct ILimitOrderBook.OrderInfo",
          "name": "",
          "type": "tuple"
        }
      ],
      "stateMutability": "view",
      "type": "function"
    },
    {
      "inputs": [],
      "name": "pause",
      "outputs": [],
      "stateMutability": "nonpayable",
      "type": "function"
    },
    {
      "inputs": [],
      "name": "paused",
      "outputs": [
        {
          "internalType": "bool",
          "name": "",
          "type": "bool"
        }
      ],
      "stateMutability": "view",
      "type": "function"
    },
    {
      "inputs": [
        {
          "components": [
            {
              "internalType": "uint256",
              "name": "ammIndex",
              "type": "uint256"
            },
            {
              "internalType": "address",
              "name": "trader",
              "type": "address"
            },
            {
              "internalType": "int256",
              "name": "baseAssetQuantity",
              "type": "int256"
            },
            {
              "internalType": "uint256",
              "name": "price",
              "type": "uint256"
            },
            {
              "internalType": "uint256",
              "name": "salt",
              "type": "uint256"
            },
            {
              "internalType": "bool",
              "name": "reduceOnly",
              "type": "bool"
            },
            {
              "internalType": "bool",
              "name": "postOnly",
              "type": "bool"
            }
          ],
          "internalType": "struct ILimitOrderBook.Order[]",
          "name": "orders",
          "type": "tuple[]"
        }
      ],
      "name": "placeOrders",
      "outputs": [],
      "stateMutability": "nonpayable",
      "type": "function"
    },
    {
      "inputs": [
        {
          "internalType": "address",
          "name": "",
          "type": "address"
        },
        {
          "internalType": "uint256",
          "name": "",
          "type": "uint256"
        }
      ],
      "name": "reduceOnlyAmount",
      "outputs": [
        {
          "internalType": "int256",
          "name": "",
          "type": "int256"
        }
      ],
      "stateMutability": "view",
      "type": "function"
    },
    {
      "inputs": [
        {
          "internalType": "address",
          "name": "__governance",
          "type": "address"
        }
      ],
      "name": "setGovernace",
      "outputs": [],
      "stateMutability": "nonpayable",
      "type": "function"
    },
    {
      "inputs": [
        {
          "internalType": "address",
          "name": "_juror",
          "type": "address"
        }
      ],
      "name": "setJuror",
      "outputs": [],
      "stateMutability": "nonpayable",
      "type": "function"
    },
    {
      "inputs": [
        {
          "internalType": "address",
          "name": "",
          "type": "address"
        },
        {
          "internalType": "uint256",
          "name": "",
          "type": "uint256"
        }
      ],
      "name": "shortOpenOrdersAmount",
      "outputs": [
        {
          "internalType": "uint256",
          "name": "",
          "type": "uint256"
        }
      ],
      "stateMutability": "view",
      "type": "function"
    },
    {
      "inputs": [],
      "name": "unpause",
      "outputs": [],
      "stateMutability": "nonpayable",
      "type": "function"
    },
    {
      "inputs": [
        {
          "internalType": "bytes",
          "name": "encodedOrder",
          "type": "bytes"
        },
        {
          "internalType": "bytes",
          "name": "metadata",
          "type": "bytes"
        }
      ],
      "name": "updateOrder",
      "outputs": [],
      "stateMutability": "nonpayable",
      "type": "function"
    }
  ],
  "bytecode": "0x60e06040523480156200001157600080fd5b50604051620028983803806200289883398101604081905262000034916200007c565b6000805460ff60b01b191690556001600160a01b0390811660805291821660a0521660c052620000c6565b80516001600160a01b03811681146200007757600080fd5b919050565b6000806000606084860312156200009257600080fd5b6200009d846200005f565b9250620000ad602085016200005f565b9150620000bd604085016200005f565b90509250925092565b60805160a05160c051612786620001126000396000818161045f0152818161138a01526117c201526000818161018c01526107ad01526000818161028e0152611ace01526127866000f3fe608060405234801561001057600080fd5b50600436106101825760003560e01c8063715d587c116100d857806397814b721161008c578063c0c53b8b11610066578063c0c53b8b14610434578063d06b659614610447578063f742269d1461045a57600080fd5b806397814b72146103d6578063a0da683a146103f6578063be1316e11461040957600080fd5b806381d5702b116100bd57806381d5702b146103905780638456cb59146103bb578063851e3ca5146103c357600080fd5b8063715d587c1461036a5780637f3c6b3f1461037d57600080fd5b80633f4ba83a1161013a5780635c975abb116101145780635c975abb146102f957806363ec32cc1461031e57806364aacef01461033157600080fd5b80633f4ba83a14610276578063572b6c051461027e5780635aa6e675146102db57600080fd5b8063238e203f1161016b578063238e203f146101f85780632dff692d146102415780633705db7a1461026157600080fd5b80630af96800146101875780631a12edf5146101d8575b600080fd5b6101ae7f000000000000000000000000000000000000000000000000000000000000000081565b60405173ffffffffffffffffffffffffffffffffffffffff90911681526020015b60405180910390f35b6006546101ae9073ffffffffffffffffffffffffffffffffffffffff1681565b610231610206366004611b7f565b6001602081905260009182526040909120805491810154600282015460039092015490919060ff1684565b6040516101cf9493929190611c02565b61025461024f366004611b7f565b610481565b6040516101cf9190611c2d565b61027461026f366004611c66565b610503565b005b610274610564565b6102cb61028c366004611cfd565b7f000000000000000000000000000000000000000000000000000000000000000073ffffffffffffffffffffffffffffffffffffffff90811691161490565b60405190151581526020016101cf565b60005473ffffffffffffffffffffffffffffffffffffffff166101ae565b600054760100000000000000000000000000000000000000000000900460ff166102cb565b61027461032c366004611c66565b6105f4565b61035c61033f366004611d21565b600460209081526000928352604080842090915290825290205481565b6040519081526020016101cf565b61035c610378366004611ea4565b61064f565b61027461038b366004611f09565b61067f565b61035c61039e366004611d21565b600260209081526000928352604080842090915290825290205481565b61027461086c565b6102746103d1366004611cfd565b6108f5565b6003546101ae9073ffffffffffffffffffffffffffffffffffffffff1681565b610274610404366004611cfd565b6109bc565b61035c610417366004611d21565b600560209081526000928352604080842090915290825290205481565b610274610442366004611f75565b610a84565b610274610455366004611fc0565b610cdc565b6101ae7f000000000000000000000000000000000000000000000000000000000000000081565b610489611b47565b600160008381526020019081526020016000206040518060800160405290816000820154815260200160018201548152602001600282015481526020016003820160009054906101000a900460ff1660038111156104e9576104e9611b98565b60038111156104fa576104fa611b98565b90525092915050565b6105608282808060200260200160405190810160405280939291908181526020016000905b828210156105545761054560e08302860136819003810190611ea4565b81526020019060010190610528565b50505050506001610ce3565b5050565b60005473ffffffffffffffffffffffffffffffffffffffff1633146105ea576040517f08c379a000000000000000000000000000000000000000000000000000000000815260206004820152600f60248201527f4f4e4c595f474f5645524e414e4345000000000000000000000000000000000060448201526064015b60405180910390fd5b6105f2610f6d565b565b6105608282808060200260200160405190810160405280939291908181526020016000905b828210156106455761063660e08302860136819003810190611ea4565b81526020019060010190610619565b5050505050610ff0565b6000816040516020016106629190612070565b604051602081830303815290604052805190602001209050919050565b60065473ffffffffffffffffffffffffffffffffffffffff163314610700576040517f08c379a000000000000000000000000000000000000000000000000000000000815260206004820152601660248201527f6f6e6c792064656661756c74206f72646572426f6f6b0000000000000000000060448201526064016105e1565b600061070e84860186611ea4565b905060008061071f848601866120d7565b6000828152600160208190526040822001549294509092506107418383612128565b6000858152600160208190526040808320909101839055870151919250908214156107a55750600084815260016020819052604090912060030180547fffffffffffffffffffffffffffffffffffffffffffffffffffffffffffffff001660021790555b6108608686867f000000000000000000000000000000000000000000000000000000000000000073ffffffffffffffffffffffffffffffffffffffff166386a8cdbc8b600001516040518263ffffffff1660e01b815260040161080a91815260200190565b60206040518083038186803b15801561082257600080fd5b505afa158015610836573d6000803e3d6000fd5b505050506040513d601f19601f8201168201806040525081019061085a919061219c565b85611651565b50505050505050505050565b60005473ffffffffffffffffffffffffffffffffffffffff1633146108ed576040517f08c379a000000000000000000000000000000000000000000000000000000000815260206004820152600f60248201527f4f4e4c595f474f5645524e414e4345000000000000000000000000000000000060448201526064016105e1565b6105f2611920565b60005473ffffffffffffffffffffffffffffffffffffffff163314610976576040517f08c379a000000000000000000000000000000000000000000000000000000000815260206004820152600f60248201527f4f4e4c595f474f5645524e414e4345000000000000000000000000000000000060448201526064016105e1565b600080547fffffffffffffffffffffffff00000000000000000000000000000000000000001673ffffffffffffffffffffffffffffffffffffffff831617905550565b50565b60005473ffffffffffffffffffffffffffffffffffffffff163314610a3d576040517f08c379a000000000000000000000000000000000000000000000000000000000815260206004820152600f60248201527f4f4e4c595f474f5645524e414e4345000000000000000000000000000000000060448201526064016105e1565b600380547fffffffffffffffffffffffff00000000000000000000000000000000000000001673ffffffffffffffffffffffffffffffffffffffff92909216919091179055565b6000547501000000000000000000000000000000000000000000900460ff1615808015610acf575060005460017401000000000000000000000000000000000000000090910460ff16105b80610b015750303b158015610b01575060005474010000000000000000000000000000000000000000900460ff166001145b610b8d576040517f08c379a000000000000000000000000000000000000000000000000000000000815260206004820152602e60248201527f496e697469616c697a61626c653a20636f6e747261637420697320616c72656160448201527f647920696e697469616c697a656400000000000000000000000000000000000060648201526084016105e1565b600080547fffffffffffffffffffffff00ffffffffffffffffffffffffffffffffffffffff16740100000000000000000000000000000000000000001790558015610c1357600080547fffffffffffffffffffff00ffffffffffffffffffffffffffffffffffffffffff1675010000000000000000000000000000000000000000001790555b6000805473ffffffffffffffffffffffffffffffffffffffff8681167fffffffffffffffffffffffff000000000000000000000000000000000000000092831617909255600380548216858416179055600680549091169185169190911790558015610cd657600080547fffffffffffffffffffff00ffffffffffffffffffffffffffffffffffffffffff169055604051600181527f7f26b83ff96e1f2b6a682f133852f6798a09c465da95921460cefb38474024989060200160405180910390a15b50505050565b6109b98160005b6000610ced61198e565b60408051808201909152600080825260208201819052919250429160609160005b8751811015610f6357600354885173ffffffffffffffffffffffffffffffffffffffff9091169063cd6bf62a908a9084908110610d4d57610d4d6121b9565b6020026020010151888a6040518463ffffffff1660e01b8152600401610d75939291906121e8565b60006040518083038186803b158015610d8d57600080fd5b505afa158015610da1573d6000803e3d6000fd5b505050506040513d6000823e601f3d9081017fffffffffffffffffffffffffffffffffffffffffffffffffffffffffffffffe0168201604052610de79190810190612333565b8251929650909450925015610e695782888281518110610e0957610e096121b9565b60200260200101516020015173ffffffffffffffffffffffffffffffffffffffff167fa5dd0fc45b7b1c8be5aa9ca7f866d71366c62b1c2f4fb4a9b9141e8a0b4c7dae8787604051610e5c92919061241f565b60405180910390a3610f51565b6000838152600160205260409020600390810180547fffffffffffffffffffffffffffffffffffffffffffffffffffffffffffffff001690911790558751610ed790899083908110610ebd57610ebd6121b9565b602002602001015184846000015185602001516001611651565b82888281518110610eea57610eea6121b9565b60200260200101516020015173ffffffffffffffffffffffffffffffffffffffff167f2005982fcb193372ea51f8d6fae4654f0fd572e5308631703b595e8e31ec3a78878a604051610f489291909182521515602082015260400190565b60405180910390a35b80610f5b81612438565b915050610d0e565b5050505050505050565b610f7561199d565b600080547fffffffffffffffffff00ffffffffffffffffffffffffffffffffffffffffffff1690557f5db9ee0a495bf2e6ff9c91a7834c1ba4fdd244a5e8aa4e537bd38aeae4b073aa610fc661198e565b60405173ffffffffffffffffffffffffffffffffffffffff909116815260200160405180910390a1565b6040805180820190915260008082526020820181905243914291606091600061101761198e565b905060005b8751811015610f63576000888281518110611039576110396121b9565b6020026020010151602001519050600360009054906101000a900473ffffffffffffffffffffffffffffffffffffffff1673ffffffffffffffffffffffffffffffffffffffff1663e5fe7ef48a8481518110611097576110976121b9565b6020026020010151856040518363ffffffff1660e01b81526004016110bd929190612471565b60006040518083038186803b1580156110d557600080fd5b505afa1580156110e9573d6000803e3d6000fd5b505050506040513d6000823e601f3d9081017fffffffffffffffffffffffffffffffffffffffffffffffffffffffffffffffe016820160405261112f9190810190612333565b82519298509096509450156111b057848173ffffffffffffffffffffffffffffffffffffffff167f0f70e12573dbd7d6da04bde9091679ea3c43cfc35d19e8066954f9dd96863fad8b8581518110611189576111896121b9565b60200260200101518a8a6040516111a2939291906124fc565b60405180910390a35061163f565b6000808a84815181106111c5576111c56121b9565b6020026020010151604001511390508983815181106111e6576111e66121b9565b602002602001015160a001516113ee57806112925789838151811061120d5761120d6121b9565b60200260200101516040015161122290612587565b73ffffffffffffffffffffffffffffffffffffffff831660009081526005602052604081208c519091908d908790811061125e5761125e6121b9565b6020026020010151600001518152602001908152602001600020600082825461128791906125c0565b925050819055611333565b8983815181106112a4576112a46121b9565b602002602001015160400151600460008473ffffffffffffffffffffffffffffffffffffffff1673ffffffffffffffffffffffffffffffffffffffff16815260200190815260200160002060008c8681518110611303576113036121b9565b6020026020010151600001518152602001908152602001600020600082825461132c91906125c0565b9250508190555b508451156113e95784516040517f7569f4c800000000000000000000000000000000000000000000000000000000815273ffffffffffffffffffffffffffffffffffffffff848116600483015260248201929092527f000000000000000000000000000000000000000000000000000000000000000090911690637569f4c890604401600060405180830381600087803b1580156113d057600080fd5b505af11580156113e4573d6000803e3d6000fd5b505050505b61148e565b898381518110611400576114006121b9565b602002602001015160400151600260008473ffffffffffffffffffffffffffffffffffffffff1673ffffffffffffffffffffffffffffffffffffffff16815260200190815260200160002060008c868151811061145f5761145f6121b9565b602002602001015160000151815260200190815260200160002060008282546114889190612128565b90915550505b604080516080810182528a81526000602080830182815289518486019081526001606086018181528d865293819052959093208451815590518186015591516002830155516003808301805494959394929390927fffffffffffffffffffffffffffffffffffffffffffffffffffffffffffffff001691849081111561151657611516611b98565b0217905550905050846020015173ffffffffffffffffffffffffffffffffffffffff16633ab71ce88b8581518110611550576115506121b9565b6020026020010151606001518c868151811061156e5761156e6121b9565b6020026020010151604001516040518363ffffffff1660e01b81526004016115a0929190918252602082015260400190565b600060405180830381600087803b1580156115ba57600080fd5b505af11580156115ce573d6000803e3d6000fd5b50505050858273ffffffffffffffffffffffffffffffffffffffff167f70efd0c97c9e59c5cbc4bd4e40365b942df3603cd71c223f6940e3fca16356358c868151811061161d5761161d6121b9565b60200260200101518b6040516116349291906125d8565b60405180910390a350505b8061164981612438565b91505061101c565b6020850151600061166185611a23565b905060008088604001511390508760a001516118265780156116c95773ffffffffffffffffffffffffffffffffffffffff831660009081526004602090815260408083208b518452909152812080548492906116be90849061264d565b909155506117109050565b73ffffffffffffffffffffffffffffffffffffffff831660009081526005602090815260408083208b5184529091528120805484929061170a90849061264d565b90915550505b600087815260016020526040812060020154908515611730575080611770565b61173d8a60400151611a23565b6117478386612664565b61175191906126a1565b905061175d818361264d565b60008a8152600160205260409020600201555b801561181f576040517f9101e5b300000000000000000000000000000000000000000000000000000000815273ffffffffffffffffffffffffffffffffffffffff8681166004830152602482018390527f00000000000000000000000000000000000000000000000000000000000000001690639101e5b390604401600060405180830381600087803b15801561180657600080fd5b505af115801561181a573d6000803e3d6000fd5b505050505b505061186d565b73ffffffffffffffffffffffffffffffffffffffff831660009081526002602090815260408083208b518452909152812080548892906118679084906126dc565b90915550505b8315611889576000878152600160205260408120818155600201555b60608801516040517ff77b6ac900000000000000000000000000000000000000000000000000000000815260048101919091526024810187905273ffffffffffffffffffffffffffffffffffffffff86169063f77b6ac990604401600060405180830381600087803b1580156118fe57600080fd5b505af1158015611912573d6000803e3d6000fd5b505050505050505050505050565b611928611a43565b600080547fffffffffffffffffff00ffffffffffffffffffffffffffffffffffffffffffff167601000000000000000000000000000000000000000000001790557f62e78cea01bee320cd4e420270b5ea74000d11b0c9f74754ebdbfc544b05a258610fc65b6000611998611aca565b905090565b600054760100000000000000000000000000000000000000000000900460ff166105f2576040517f08c379a000000000000000000000000000000000000000000000000000000000815260206004820152601460248201527f5061757361626c653a206e6f742070617573656400000000000000000000000060448201526064016105e1565b600080821215611a3b57611a3682612587565b611a3d565b815b92915050565b600054760100000000000000000000000000000000000000000000900460ff16156105f2576040517f08c379a000000000000000000000000000000000000000000000000000000000815260206004820152601060248201527f5061757361626c653a207061757365640000000000000000000000000000000060448201526064016105e1565b60007f000000000000000000000000000000000000000000000000000000000000000073ffffffffffffffffffffffffffffffffffffffff1633148015611b12575060143610155b15611b4257507fffffffffffffffffffffffffffffffffffffffffffffffffffffffffffffffec36013560601c90565b503390565b604051806080016040528060008152602001600081526020016000815260200160006003811115611b7a57611b7a611b98565b905290565b600060208284031215611b9157600080fd5b5035919050565b7f4e487b7100000000000000000000000000000000000000000000000000000000600052602160045260246000fd5b60048110611bfe577f4e487b7100000000000000000000000000000000000000000000000000000000600052602160045260246000fd5b9052565b848152602081018490526040810183905260808101611c246060830184611bc7565b95945050505050565b60006080820190508251825260208301516020830152604083015160408301526060830151611c5f6060840182611bc7565b5092915050565b60008060208385031215611c7957600080fd5b823567ffffffffffffffff80821115611c9157600080fd5b818501915085601f830112611ca557600080fd5b813581811115611cb457600080fd5b86602060e083028501011115611cc957600080fd5b60209290920196919550909350505050565b73ffffffffffffffffffffffffffffffffffffffff811681146109b957600080fd5b600060208284031215611d0f57600080fd5b8135611d1a81611cdb565b9392505050565b60008060408385031215611d3457600080fd5b8235611d3f81611cdb565b946020939093013593505050565b7f4e487b7100000000000000000000000000000000000000000000000000000000600052604160045260246000fd5b6040805190810167ffffffffffffffff81118282101715611d9f57611d9f611d4d565b60405290565b604051601f82017fffffffffffffffffffffffffffffffffffffffffffffffffffffffffffffffe016810167ffffffffffffffff81118282101715611dec57611dec611d4d565b604052919050565b80358015158114611e0457600080fd5b919050565b600060e08284031215611e1b57600080fd5b60405160e0810181811067ffffffffffffffff82111715611e3e57611e3e611d4d565b604052823581529050806020830135611e5681611cdb565b80602083015250604083013560408201526060830135606082015260808301356080820152611e8760a08401611df4565b60a0820152611e9860c08401611df4565b60c08201525092915050565b600060e08284031215611eb657600080fd5b611d1a8383611e09565b60008083601f840112611ed257600080fd5b50813567ffffffffffffffff811115611eea57600080fd5b602083019150836020828501011115611f0257600080fd5b9250929050565b60008060008060408587031215611f1f57600080fd5b843567ffffffffffffffff80821115611f3757600080fd5b611f4388838901611ec0565b90965094506020870135915080821115611f5c57600080fd5b50611f6987828801611ec0565b95989497509550505050565b600080600060608486031215611f8a57600080fd5b8335611f9581611cdb565b92506020840135611fa581611cdb565b91506040840135611fb581611cdb565b809150509250925092565b60006020808385031215611fd357600080fd5b823567ffffffffffffffff80821115611feb57600080fd5b818501915085601f830112611fff57600080fd5b81358181111561201157612011611d4d565b61201f848260051b01611da5565b818152848101925060e091820284018501918883111561203e57600080fd5b938501935b82851015612064576120558986611e09565b84529384019392850192612043565b50979650505050505050565b60e08101611a3d82848051825273ffffffffffffffffffffffffffffffffffffffff602082015116602083015260408101516040830152606081015160608301526080810151608083015260a0810151151560a083015260c0810151151560c08301525050565b600080604083850312156120ea57600080fd5b50508035926020909101359150565b7f4e487b7100000000000000000000000000000000000000000000000000000000600052601160045260246000fd5b6000808212827f7fffffffffffffffffffffffffffffffffffffffffffffffffffffffffffffff03841381151615612162576121626120f9565b827f8000000000000000000000000000000000000000000000000000000000000000038412811615612196576121966120f9565b50500190565b6000602082840312156121ae57600080fd5b8151611d1a81611cdb565b7f4e487b7100000000000000000000000000000000000000000000000000000000600052603260045260246000fd5b610120810161225082868051825273ffffffffffffffffffffffffffffffffffffffff602082015116602083015260408101516040830152606081015160608301526080810151608083015260a0810151151560a083015260c0810151151560c08301525050565b73ffffffffffffffffffffffffffffffffffffffff841660e0830152821515610100830152949350505050565b60005b83811015612298578181015183820152602001612280565b83811115610cd65750506000910152565b600082601f8301126122ba57600080fd5b815167ffffffffffffffff8111156122d4576122d4611d4d565b61230560207fffffffffffffffffffffffffffffffffffffffffffffffffffffffffffffffe0601f84011601611da5565b81815284602083860101111561231a57600080fd5b61232b82602083016020870161227d565b949350505050565b6000806000838503608081121561234957600080fd5b845167ffffffffffffffff81111561236057600080fd5b61236c878288016122a9565b9450506020850151925060407fffffffffffffffffffffffffffffffffffffffffffffffffffffffffffffffc0820112156123a657600080fd5b506123af611d7c565b6040850151815260608501516123c481611cdb565b602082015292959194509192509050565b600081518084526123ed81602086016020860161227d565b601f017fffffffffffffffffffffffffffffffffffffffffffffffffffffffffffffffe0169290920160200192915050565b82815260406020820152600061232b60408301846123d5565b60007fffffffffffffffffffffffffffffffffffffffffffffffffffffffffffffffff82141561246a5761246a6120f9565b5060010190565b61010081016124d982858051825273ffffffffffffffffffffffffffffffffffffffff602082015116602083015260408101516040830152606081015160608301526080810151608083015260a0810151151560a083015260c0810151151560c08301525050565b73ffffffffffffffffffffffffffffffffffffffff831660e08301529392505050565b600061012061256483878051825273ffffffffffffffffffffffffffffffffffffffff602082015116602083015260408101516040830152606081015160608301526080810151608083015260a0810151151560a083015260c0810151151560c08301525050565b8460e08401528061010084015261257d818401856123d5565b9695505050505050565b60007f80000000000000000000000000000000000000000000000000000000000000008214156125b9576125b96120f9565b5060000390565b600082198211156125d3576125d36120f9565b500190565b610100810161264082858051825273ffffffffffffffffffffffffffffffffffffffff602082015116602083015260408101516040830152606081015160608301526080810151608083015260a0810151151560a083015260c0810151151560c08301525050565b8260e08301529392505050565b60008282101561265f5761265f6120f9565b500390565b6000817fffffffffffffffffffffffffffffffffffffffffffffffffffffffffffffffff048311821515161561269c5761269c6120f9565b500290565b6000826126d7577f4e487b7100000000000000000000000000000000000000000000000000000000600052601260045260246000fd5b500490565b6000808312837f800000000000000000000000000000000000000000000000000000000000000001831281151615612716576127166120f9565b837f7fffffffffffffffffffffffffffffffffffffffffffffffffffffffffffffff01831381161561274a5761274a6120f9565b5050039056fea26469706673582212202d4ef95d1eb06a0d773479dd405646143eea434c419d3e415405655cb712cb1c64736f6c63430008090033",
  "linkReferences": {},
  "deployedLinkReferences": {}
}