{
  "_format": "hh-sol-artifact-1",
  "contractName": "Executor",
  "sourceName": "contracts/tests/Executor.sol",
  "abi": [
    {
      "inputs": [],
      "stateMutability": "nonpayable",
      "type": "constructor"
    },
    {
      "anonymous": false,
      "inputs": [
        {
          "indexed": true,
          "internalType": "bytes32",
          "name": "role",
          "type": "bytes32"
        },
        {
          "indexed": true,
          "internalType": "bytes32",
          "name": "previousAdminRole",
          "type": "bytes32"
        },
        {
          "indexed": true,
          "internalType": "bytes32",
          "name": "newAdminRole",
          "type": "bytes32"
        }
      ],
      "name": "RoleAdminChanged",
      "type": "event"
    },
    {
      "anonymous": false,
      "inputs": [
        {
          "indexed": true,
          "internalType": "bytes32",
          "name": "role",
          "type": "bytes32"
        },
        {
          "indexed": true,
          "internalType": "address",
          "name": "account",
          "type": "address"
        },
        {
          "indexed": true,
          "internalType": "address",
          "name": "sender",
          "type": "address"
        }
      ],
      "name": "RoleGranted",
      "type": "event"
    },
    {
      "anonymous": false,
      "inputs": [
        {
          "indexed": true,
          "internalType": "bytes32",
          "name": "role",
          "type": "bytes32"
        },
        {
          "indexed": true,
          "internalType": "address",
          "name": "account",
          "type": "address"
        },
        {
          "indexed": true,
          "internalType": "address",
          "name": "sender",
          "type": "address"
        }
      ],
      "name": "RoleRevoked",
      "type": "event"
    },
    {
      "inputs": [],
      "name": "DEFAULT_ADMIN_ROLE",
      "outputs": [
        {
          "internalType": "bytes32",
          "name": "",
          "type": "bytes32"
        }
      ],
      "stateMutability": "view",
      "type": "function"
    },
    {
      "inputs": [
        {
          "internalType": "address[]",
          "name": "targets",
          "type": "address[]"
        },
        {
          "internalType": "bytes[]",
          "name": "data",
          "type": "bytes[]"
        }
      ],
      "name": "execute",
      "outputs": [],
      "stateMutability": "nonpayable",
      "type": "function"
    },
    {
      "inputs": [
        {
          "internalType": "bytes32",
          "name": "role",
          "type": "bytes32"
        }
      ],
      "name": "getRoleAdmin",
      "outputs": [
        {
          "internalType": "bytes32",
          "name": "",
          "type": "bytes32"
        }
      ],
      "stateMutability": "view",
      "type": "function"
    },
    {
      "inputs": [
        {
          "internalType": "bytes32",
          "name": "role",
          "type": "bytes32"
        },
        {
          "internalType": "address",
          "name": "account",
          "type": "address"
        }
      ],
      "name": "grantRole",
      "outputs": [],
      "stateMutability": "nonpayable",
      "type": "function"
    },
    {
      "inputs": [
        {
          "internalType": "bytes32",
          "name": "role",
          "type": "bytes32"
        },
        {
          "internalType": "address",
          "name": "account",
          "type": "address"
        }
      ],
      "name": "hasRole",
      "outputs": [
        {
          "internalType": "bool",
          "name": "",
          "type": "bool"
        }
      ],
      "stateMutability": "view",
      "type": "function"
    },
    {
      "inputs": [
        {
          "internalType": "bytes32",
          "name": "role",
          "type": "bytes32"
        },
        {
          "internalType": "address",
          "name": "account",
          "type": "address"
        }
      ],
      "name": "renounceRole",
      "outputs": [],
      "stateMutability": "nonpayable",
      "type": "function"
    },
    {
      "inputs": [
        {
          "internalType": "bytes32",
          "name": "role",
          "type": "bytes32"
        },
        {
          "internalType": "address",
          "name": "account",
          "type": "address"
        }
      ],
      "name": "revokeRole",
      "outputs": [],
      "stateMutability": "nonpayable",
      "type": "function"
    },
    {
      "inputs": [
        {
          "internalType": "bytes4",
          "name": "interfaceId",
          "type": "bytes4"
        }
      ],
      "name": "supportsInterface",
      "outputs": [
        {
          "internalType": "bool",
          "name": "",
          "type": "bool"
        }
      ],
      "stateMutability": "view",
      "type": "function"
    }
  ],
  "bytecode": "0x608060405234801561001057600080fd5b5061001c600033610021565b6100cd565b61002b828261002f565b5050565b6000828152602081815260408083206001600160a01b038516845290915290205460ff1661002b576000828152602081815260408083206001600160a01b03851684529091529020805460ff191660011790556100893390565b6001600160a01b0316816001600160a01b0316837f2f8788117e7eff1d82e926ec794901d17c78024a50270940304540a733656f0d60405160405180910390a45050565b610ecb806100dc6000396000f3fe608060405234801561001057600080fd5b50600436106100885760003560e01c806391d148541161005b57806391d148541461010e578063a217fddf14610152578063c8d18a451461015a578063d547741f1461016d57600080fd5b806301ffc9a71461008d578063248a9ca3146100b55780632f2ff15d146100e657806336568abe146100fb575b600080fd5b6100a061009b36600461097c565b610180565b60405190151581526020015b60405180910390f35b6100d86100c33660046109be565b60009081526020819052604090206001015490565b6040519081526020016100ac565b6100f96100f4366004610a00565b610219565b005b6100f9610109366004610a00565b610243565b6100a061011c366004610a00565b60009182526020828152604080842073ffffffffffffffffffffffffffffffffffffffff93909316845291905290205460ff1690565b6100d8600081565b6100f9610168366004610aaa565b6102fb565b6100f961017b366004610a00565b610482565b60007fffffffff0000000000000000000000000000000000000000000000000000000082167f7965db0b00000000000000000000000000000000000000000000000000000000148061021357507f01ffc9a7000000000000000000000000000000000000000000000000000000007fffffffff000000000000000000000000000000000000000000000000000000008316145b92915050565b600082815260208190526040902060010154610234816104a7565b61023e83836104b4565b505050565b73ffffffffffffffffffffffffffffffffffffffff811633146102ed576040517f08c379a000000000000000000000000000000000000000000000000000000000815260206004820152602f60248201527f416363657373436f6e74726f6c3a2063616e206f6e6c792072656e6f756e636560448201527f20726f6c657320666f722073656c66000000000000000000000000000000000060648201526084015b60405180910390fd5b6102f782826105a4565b5050565b6000610306816104a7565b81516000906060908514610376576040517f08c379a000000000000000000000000000000000000000000000000000000000815260206004820152600d60248201527f494e56414c49445f494e5055540000000000000000000000000000000000000060448201526064016102e4565b60005b858110156104795786868281811061039357610393610c3b565b90506020020160208101906103a89190610c6a565b73ffffffffffffffffffffffffffffffffffffffff168582815181106103d0576103d0610c3b565b60200260200101516040516103e59190610cb5565b6000604051808303816000865af19150503d8060008114610422576040519150601f19603f3d011682016040523d82523d6000602084013e610427565b606091505b5090935091508183610466576040517f08c379a00000000000000000000000000000000000000000000000000000000081526004016102e49190610cd1565b508061047181610d51565b915050610379565b50505050505050565b60008281526020819052604090206001015461049d816104a7565b61023e83836105a4565b6104b1813361065b565b50565b60008281526020818152604080832073ffffffffffffffffffffffffffffffffffffffff8516845290915290205460ff166102f75760008281526020818152604080832073ffffffffffffffffffffffffffffffffffffffff85168452909152902080547fffffffffffffffffffffffffffffffffffffffffffffffffffffffffffffff001660011790556105463390565b73ffffffffffffffffffffffffffffffffffffffff168173ffffffffffffffffffffffffffffffffffffffff16837f2f8788117e7eff1d82e926ec794901d17c78024a50270940304540a733656f0d60405160405180910390a45050565b60008281526020818152604080832073ffffffffffffffffffffffffffffffffffffffff8516845290915290205460ff16156102f75760008281526020818152604080832073ffffffffffffffffffffffffffffffffffffffff8516808552925280832080547fffffffffffffffffffffffffffffffffffffffffffffffffffffffffffffff0016905551339285917ff6391f5c32d9c69d2a47ea670b442974b53935d1edc7fd64eb21e047a839171b9190a45050565b60008281526020818152604080832073ffffffffffffffffffffffffffffffffffffffff8516845290915290205460ff166102f75761069981610713565b6106a4836020610732565b6040516020016106b5929190610d8a565b604080517fffffffffffffffffffffffffffffffffffffffffffffffffffffffffffffffe0818403018152908290527f08c379a00000000000000000000000000000000000000000000000000000000082526102e491600401610cd1565b606061021373ffffffffffffffffffffffffffffffffffffffff831660145b60606000610741836002610e0b565b61074c906002610e48565b67ffffffffffffffff81111561076457610764610a2c565b6040519080825280601f01601f19166020018201604052801561078e576020820181803683370190505b5090507f3000000000000000000000000000000000000000000000000000000000000000816000815181106107c5576107c5610c3b565b60200101907effffffffffffffffffffffffffffffffffffffffffffffffffffffffffffff1916908160001a9053507f78000000000000000000000000000000000000000000000000000000000000008160018151811061082857610828610c3b565b60200101907effffffffffffffffffffffffffffffffffffffffffffffffffffffffffffff1916908160001a9053506000610864846002610e0b565b61086f906001610e48565b90505b600181111561090c577f303132333435363738396162636465660000000000000000000000000000000085600f16601081106108b0576108b0610c3b565b1a60f81b8282815181106108c6576108c6610c3b565b60200101907effffffffffffffffffffffffffffffffffffffffffffffffffffffffffffff1916908160001a90535060049490941c9361090581610e60565b9050610872565b508315610975576040517f08c379a000000000000000000000000000000000000000000000000000000000815260206004820181905260248201527f537472696e67733a20686578206c656e67746820696e73756666696369656e7460448201526064016102e4565b9392505050565b60006020828403121561098e57600080fd5b81357fffffffff000000000000000000000000000000000000000000000000000000008116811461097557600080fd5b6000602082840312156109d057600080fd5b5035919050565b803573ffffffffffffffffffffffffffffffffffffffff811681146109fb57600080fd5b919050565b60008060408385031215610a1357600080fd5b82359150610a23602084016109d7565b90509250929050565b7f4e487b7100000000000000000000000000000000000000000000000000000000600052604160045260246000fd5b604051601f82017fffffffffffffffffffffffffffffffffffffffffffffffffffffffffffffffe016810167ffffffffffffffff81118282101715610aa257610aa2610a2c565b604052919050565b60008060006040808587031215610ac057600080fd5b843567ffffffffffffffff80821115610ad857600080fd5b818701915087601f830112610aec57600080fd5b813581811115610afb57600080fd5b602089818360051b8601011115610b1157600080fd5b808401975081965080890135935082841115610b2c57600080fd5b838901935089601f850112610b4057600080fd5b8335915082821115610b5457610b54610a2c565b8160051b610b63828201610a5b565b928352848101820192828101908c851115610b7d57600080fd5b83870192505b84831015610c2957823586811115610b9b5760008081fd5b8701603f81018e13610bad5760008081fd5b8481013587811115610bc157610bc1610a2c565b610bf1867fffffffffffffffffffffffffffffffffffffffffffffffffffffffffffffffe0601f84011601610a5b565b8181528f8b838501011115610c065760008081fd5b818b84018883013760009181018701919091528352509183019190830190610b83565b80985050505050505050509250925092565b7f4e487b7100000000000000000000000000000000000000000000000000000000600052603260045260246000fd5b600060208284031215610c7c57600080fd5b610975826109d7565b60005b83811015610ca0578181015183820152602001610c88565b83811115610caf576000848401525b50505050565b60008251610cc7818460208701610c85565b9190910192915050565b6020815260008251806020840152610cf0816040850160208701610c85565b601f017fffffffffffffffffffffffffffffffffffffffffffffffffffffffffffffffe0169190910160400192915050565b7f4e487b7100000000000000000000000000000000000000000000000000000000600052601160045260246000fd5b60007fffffffffffffffffffffffffffffffffffffffffffffffffffffffffffffffff821415610d8357610d83610d22565b5060010190565b7f416363657373436f6e74726f6c3a206163636f756e7420000000000000000000815260008351610dc2816017850160208801610c85565b7f206973206d697373696e6720726f6c65200000000000000000000000000000006017918401918201528351610dff816028840160208801610c85565b01602801949350505050565b6000817fffffffffffffffffffffffffffffffffffffffffffffffffffffffffffffffff0483118215151615610e4357610e43610d22565b500290565b60008219821115610e5b57610e5b610d22565b500190565b600081610e6f57610e6f610d22565b507fffffffffffffffffffffffffffffffffffffffffffffffffffffffffffffffff019056fea26469706673582212207a92d4dfc529f38f9a8a0ea76b4417cde539957f63663c7f05f3cb62c103a60164736f6c63430008090033",
  "linkReferences": {},
  "deployedLinkReferences": {}
}