{
  "_format": "hh-sol-artifact-1",
  "contractName": "HubbleBase",
  "sourceName": "contracts/legos/HubbleBase.sol",
  "abi": [
    {
      "anonymous": false,
      "inputs": [
        {
          "indexed": false,
          "internalType": "uint8",
          "name": "version",
          "type": "uint8"
        }
      ],
      "name": "Initialized",
      "type": "event"
    },
    {
      "anonymous": false,
      "inputs": [
        {
          "indexed": false,
          "internalType": "address",
          "name": "account",
          "type": "address"
        }
      ],
      "name": "Paused",
      "type": "event"
    },
    {
      "anonymous": false,
      "inputs": [
        {
          "indexed": false,
          "internalType": "address",
          "name": "account",
          "type": "address"
        }
      ],
      "name": "Unpaused",
      "type": "event"
    },
    {
      "inputs": [],
      "name": "governance",
      "outputs": [
        {
          "internalType": "address",
          "name": "",
          "type": "address"
        }
      ],
      "stateMutability": "view",
      "type": "function"
    },
    {
      "inputs": [],
      "name": "pause",
      "outputs": [],
      "stateMutability": "nonpayable",
      "type": "function"
    },
    {
      "inputs": [],
      "name": "paused",
      "outputs": [
        {
          "internalType": "bool",
          "name": "",
          "type": "bool"
        }
      ],
      "stateMutability": "view",
      "type": "function"
    },
    {
      "inputs": [
        {
          "internalType": "address",
          "name": "__governance",
          "type": "address"
        }
      ],
      "name": "setGovernace",
      "outputs": [],
      "stateMutability": "nonpayable",
      "type": "function"
    },
    {
      "inputs": [],
      "name": "unpause",
      "outputs": [],
      "stateMutability": "nonpayable",
      "type": "function"
    }
  ],
  "bytecode": "0x608060405234801561001057600080fd5b506000805460ff60b01b191690556105398061002d6000396000f3fe608060405234801561001057600080fd5b50600436106100675760003560e01c80635c975abb116100505780635c975abb146100a35780638456cb59146100d3578063851e3ca5146100db57600080fd5b80633f4ba83a1461006c5780635aa6e67514610076575b600080fd5b6100746100ee565b005b60005460405173ffffffffffffffffffffffffffffffffffffffff90911681526020015b60405180910390f35b600054760100000000000000000000000000000000000000000000900460ff16604051901515815260200161009a565b61007461017e565b6100746100e93660046104c6565b610207565b60005473ffffffffffffffffffffffffffffffffffffffff163314610174576040517f08c379a000000000000000000000000000000000000000000000000000000000815260206004820152600f60248201527f4f4e4c595f474f5645524e414e4345000000000000000000000000000000000060448201526064015b60405180910390fd5b61017c6102cb565b565b60005473ffffffffffffffffffffffffffffffffffffffff1633146101ff576040517f08c379a000000000000000000000000000000000000000000000000000000000815260206004820152600f60248201527f4f4e4c595f474f5645524e414e43450000000000000000000000000000000000604482015260640161016b565b61017c610348565b60005473ffffffffffffffffffffffffffffffffffffffff163314610288576040517f08c379a000000000000000000000000000000000000000000000000000000000815260206004820152600f60248201527f4f4e4c595f474f5645524e414e43450000000000000000000000000000000000604482015260640161016b565b600080547fffffffffffffffffffffffff00000000000000000000000000000000000000001673ffffffffffffffffffffffffffffffffffffffff831617905550565b6102d36103b9565b600080547fffffffffffffffffff00ffffffffffffffffffffffffffffffffffffffffffff1690557f5db9ee0a495bf2e6ff9c91a7834c1ba4fdd244a5e8aa4e537bd38aeae4b073aa335b60405173ffffffffffffffffffffffffffffffffffffffff909116815260200160405180910390a1565b61035061043f565b600080547fffffffffffffffffff00ffffffffffffffffffffffffffffffffffffffffffff167601000000000000000000000000000000000000000000001790557f62e78cea01bee320cd4e420270b5ea74000d11b0c9f74754ebdbfc544b05a25861031e3390565b600054760100000000000000000000000000000000000000000000900460ff1661017c576040517f08c379a000000000000000000000000000000000000000000000000000000000815260206004820152601460248201527f5061757361626c653a206e6f7420706175736564000000000000000000000000604482015260640161016b565b600054760100000000000000000000000000000000000000000000900460ff161561017c576040517f08c379a000000000000000000000000000000000000000000000000000000000815260206004820152601060248201527f5061757361626c653a2070617573656400000000000000000000000000000000604482015260640161016b565b6000602082840312156104d857600080fd5b813573ffffffffffffffffffffffffffffffffffffffff811681146104fc57600080fd5b939250505056fea2646970667358221220f36201f048ff64dd79d9c51cd0d188fb81294054ef54b5e827b7a8a2678f246364736f6c63430008090033",
  "linkReferences": {},
  "deployedLinkReferences": {}
}