{
  "_format": "hh-sol-artifact-1",
  "contractName": "MetaHubbleBase",
  "sourceName": "contracts/legos/HubbleBase.sol",
  "abi": [
    {
      "inputs": [
        {
          "internalType": "address",
          "name": "_trustedForwarder",
          "type": "address"
        }
      ],
      "stateMutability": "nonpayable",
      "type": "constructor"
    },
    {
      "anonymous": false,
      "inputs": [
        {
          "indexed": false,
          "internalType": "uint8",
          "name": "version",
          "type": "uint8"
        }
      ],
      "name": "Initialized",
      "type": "event"
    },
    {
      "anonymous": false,
      "inputs": [
        {
          "indexed": false,
          "internalType": "address",
          "name": "account",
          "type": "address"
        }
      ],
      "name": "Paused",
      "type": "event"
    },
    {
      "anonymous": false,
      "inputs": [
        {
          "indexed": false,
          "internalType": "address",
          "name": "account",
          "type": "address"
        }
      ],
      "name": "Unpaused",
      "type": "event"
    },
    {
      "inputs": [],
      "name": "governance",
      "outputs": [
        {
          "internalType": "address",
          "name": "",
          "type": "address"
        }
      ],
      "stateMutability": "view",
      "type": "function"
    },
    {
      "inputs": [
        {
          "internalType": "address",
          "name": "forwarder",
          "type": "address"
        }
      ],
      "name": "isTrustedForwarder",
      "outputs": [
        {
          "internalType": "bool",
          "name": "",
          "type": "bool"
        }
      ],
      "stateMutability": "view",
      "type": "function"
    },
    {
      "inputs": [],
      "name": "pause",
      "outputs": [],
      "stateMutability": "nonpayable",
      "type": "function"
    },
    {
      "inputs": [],
      "name": "paused",
      "outputs": [
        {
          "internalType": "bool",
          "name": "",
          "type": "bool"
        }
      ],
      "stateMutability": "view",
      "type": "function"
    },
    {
      "inputs": [
        {
          "internalType": "address",
          "name": "__governance",
          "type": "address"
        }
      ],
      "name": "setGovernace",
      "outputs": [],
      "stateMutability": "nonpayable",
      "type": "function"
    },
    {
      "inputs": [],
      "name": "unpause",
      "outputs": [],
      "stateMutability": "nonpayable",
      "type": "function"
    }
  ],
  "bytecode": "0x60a060405234801561001057600080fd5b506040516106c73803806106c783398101604081905261002f9161004d565b6000805460ff60b01b191690556001600160a01b031660805261007d565b60006020828403121561005f57600080fd5b81516001600160a01b038116811461007657600080fd5b9392505050565b60805161062961009e600039600081816091015261053d01526106296000f3fe608060405234801561001057600080fd5b50600436106100725760003560e01c80635c975abb116100505780635c975abb1461010b5780638456cb5914610130578063851e3ca51461013857600080fd5b80633f4ba83a14610077578063572b6c05146100815780635aa6e675146100e3575b600080fd5b61007f61014b565b005b6100ce61008f3660046105b6565b7f000000000000000000000000000000000000000000000000000000000000000073ffffffffffffffffffffffffffffffffffffffff90811691161490565b60405190151581526020015b60405180910390f35b60005460405173ffffffffffffffffffffffffffffffffffffffff90911681526020016100da565b600054760100000000000000000000000000000000000000000000900460ff166100ce565b61007f6101db565b61007f6101463660046105b6565b610264565b60005473ffffffffffffffffffffffffffffffffffffffff1633146101d1576040517f08c379a000000000000000000000000000000000000000000000000000000000815260206004820152600f60248201527f4f4e4c595f474f5645524e414e4345000000000000000000000000000000000060448201526064015b60405180910390fd5b6101d9610328565b565b60005473ffffffffffffffffffffffffffffffffffffffff16331461025c576040517f08c379a000000000000000000000000000000000000000000000000000000000815260206004820152600f60248201527f4f4e4c595f474f5645524e414e4345000000000000000000000000000000000060448201526064016101c8565b6101d96103ab565b60005473ffffffffffffffffffffffffffffffffffffffff1633146102e5576040517f08c379a000000000000000000000000000000000000000000000000000000000815260206004820152600f60248201527f4f4e4c595f474f5645524e414e4345000000000000000000000000000000000060448201526064016101c8565b600080547fffffffffffffffffffffffff00000000000000000000000000000000000000001673ffffffffffffffffffffffffffffffffffffffff831617905550565b61033061041d565b600080547fffffffffffffffffff00ffffffffffffffffffffffffffffffffffffffffffff1690557f5db9ee0a495bf2e6ff9c91a7834c1ba4fdd244a5e8aa4e537bd38aeae4b073aa6103816104a3565b60405173ffffffffffffffffffffffffffffffffffffffff909116815260200160405180910390a1565b6103b36104b2565b600080547fffffffffffffffffff00ffffffffffffffffffffffffffffffffffffffffffff167601000000000000000000000000000000000000000000001790557f62e78cea01bee320cd4e420270b5ea74000d11b0c9f74754ebdbfc544b05a2586103816104a3565b600054760100000000000000000000000000000000000000000000900460ff166101d9576040517f08c379a000000000000000000000000000000000000000000000000000000000815260206004820152601460248201527f5061757361626c653a206e6f742070617573656400000000000000000000000060448201526064016101c8565b60006104ad610539565b905090565b600054760100000000000000000000000000000000000000000000900460ff16156101d9576040517f08c379a000000000000000000000000000000000000000000000000000000000815260206004820152601060248201527f5061757361626c653a207061757365640000000000000000000000000000000060448201526064016101c8565b60007f000000000000000000000000000000000000000000000000000000000000000073ffffffffffffffffffffffffffffffffffffffff1633148015610581575060143610155b156105b157507fffffffffffffffffffffffffffffffffffffffffffffffffffffffffffffffec36013560601c90565b503390565b6000602082840312156105c857600080fd5b813573ffffffffffffffffffffffffffffffffffffffff811681146105ec57600080fd5b939250505056fea2646970667358221220efb91fbfe17b10ff4f567a74f77b9b16b6bd3f82184f54a79c274165f477a40264736f6c63430008090033",
  "linkReferences": {},
  "deployedLinkReferences": {}
}