{
  "_format": "hh-sol-artifact-1",
  "contractName": "RestrictedErc20",
  "sourceName": "contracts/tests/ERC20Mintable.sol",
  "abi": [
    {
      "inputs": [
        {
          "internalType": "string",
          "name": "name_",
          "type": "string"
        },
        {
          "internalType": "string",
          "name": "symbol_",
          "type": "string"
        },
        {
          "internalType": "uint8",
          "name": "decimals_",
          "type": "uint8"
        }
      ],
      "stateMutability": "nonpayable",
      "type": "constructor"
    },
    {
      "anonymous": false,
      "inputs": [
        {
          "indexed": true,
          "internalType": "address",
          "name": "owner",
          "type": "address"
        },
        {
          "indexed": true,
          "internalType": "address",
          "name": "spender",
          "type": "address"
        },
        {
          "indexed": false,
          "internalType": "uint256",
          "name": "value",
          "type": "uint256"
        }
      ],
      "name": "Approval",
      "type": "event"
    },
    {
      "anonymous": false,
      "inputs": [
        {
          "indexed": false,
          "internalType": "address",
          "name": "account",
          "type": "address"
        }
      ],
      "name": "Paused",
      "type": "event"
    },
    {
      "anonymous": false,
      "inputs": [
        {
          "indexed": true,
          "internalType": "bytes32",
          "name": "role",
          "type": "bytes32"
        },
        {
          "indexed": true,
          "internalType": "bytes32",
          "name": "previousAdminRole",
          "type": "bytes32"
        },
        {
          "indexed": true,
          "internalType": "bytes32",
          "name": "newAdminRole",
          "type": "bytes32"
        }
      ],
      "name": "RoleAdminChanged",
      "type": "event"
    },
    {
      "anonymous": false,
      "inputs": [
        {
          "indexed": true,
          "internalType": "bytes32",
          "name": "role",
          "type": "bytes32"
        },
        {
          "indexed": true,
          "internalType": "address",
          "name": "account",
          "type": "address"
        },
        {
          "indexed": true,
          "internalType": "address",
          "name": "sender",
          "type": "address"
        }
      ],
      "name": "RoleGranted",
      "type": "event"
    },
    {
      "anonymous": false,
      "inputs": [
        {
          "indexed": true,
          "internalType": "bytes32",
          "name": "role",
          "type": "bytes32"
        },
        {
          "indexed": true,
          "internalType": "address",
          "name": "account",
          "type": "address"
        },
        {
          "indexed": true,
          "internalType": "address",
          "name": "sender",
          "type": "address"
        }
      ],
      "name": "RoleRevoked",
      "type": "event"
    },
    {
      "anonymous": false,
      "inputs": [
        {
          "indexed": true,
          "internalType": "address",
          "name": "from",
          "type": "address"
        },
        {
          "indexed": true,
          "internalType": "address",
          "name": "to",
          "type": "address"
        },
        {
          "indexed": false,
          "internalType": "uint256",
          "name": "value",
          "type": "uint256"
        }
      ],
      "name": "Transfer",
      "type": "event"
    },
    {
      "anonymous": false,
      "inputs": [
        {
          "indexed": false,
          "internalType": "address",
          "name": "account",
          "type": "address"
        }
      ],
      "name": "Unpaused",
      "type": "event"
    },
    {
      "inputs": [],
      "name": "DEFAULT_ADMIN_ROLE",
      "outputs": [
        {
          "internalType": "bytes32",
          "name": "",
          "type": "bytes32"
        }
      ],
      "stateMutability": "view",
      "type": "function"
    },
    {
      "inputs": [],
      "name": "MINTER_ROLE",
      "outputs": [
        {
          "internalType": "bytes32",
          "name": "",
          "type": "bytes32"
        }
      ],
      "stateMutability": "view",
      "type": "function"
    },
    {
      "inputs": [],
      "name": "PAUSER_ROLE",
      "outputs": [
        {
          "internalType": "bytes32",
          "name": "",
          "type": "bytes32"
        }
      ],
      "stateMutability": "view",
      "type": "function"
    },
    {
      "inputs": [],
      "name": "TRANSFER_ROLE",
      "outputs": [
        {
          "internalType": "bytes32",
          "name": "",
          "type": "bytes32"
        }
      ],
      "stateMutability": "view",
      "type": "function"
    },
    {
      "inputs": [],
      "name": "allowTransfers",
      "outputs": [],
      "stateMutability": "nonpayable",
      "type": "function"
    },
    {
      "inputs": [
        {
          "internalType": "address",
          "name": "owner",
          "type": "address"
        },
        {
          "internalType": "address",
          "name": "spender",
          "type": "address"
        }
      ],
      "name": "allowance",
      "outputs": [
        {
          "internalType": "uint256",
          "name": "",
          "type": "uint256"
        }
      ],
      "stateMutability": "view",
      "type": "function"
    },
    {
      "inputs": [
        {
          "internalType": "address",
          "name": "spender",
          "type": "address"
        },
        {
          "internalType": "uint256",
          "name": "amount",
          "type": "uint256"
        }
      ],
      "name": "approve",
      "outputs": [
        {
          "internalType": "bool",
          "name": "",
          "type": "bool"
        }
      ],
      "stateMutability": "nonpayable",
      "type": "function"
    },
    {
      "inputs": [
        {
          "internalType": "address",
          "name": "account",
          "type": "address"
        }
      ],
      "name": "balanceOf",
      "outputs": [
        {
          "internalType": "uint256",
          "name": "",
          "type": "uint256"
        }
      ],
      "stateMutability": "view",
      "type": "function"
    },
    {
      "inputs": [
        {
          "internalType": "uint256",
          "name": "amount",
          "type": "uint256"
        }
      ],
      "name": "burn",
      "outputs": [],
      "stateMutability": "nonpayable",
      "type": "function"
    },
    {
      "inputs": [
        {
          "internalType": "address",
          "name": "account",
          "type": "address"
        },
        {
          "internalType": "uint256",
          "name": "amount",
          "type": "uint256"
        }
      ],
      "name": "burnFrom",
      "outputs": [],
      "stateMutability": "nonpayable",
      "type": "function"
    },
    {
      "inputs": [],
      "name": "decimals",
      "outputs": [
        {
          "internalType": "uint8",
          "name": "",
          "type": "uint8"
        }
      ],
      "stateMutability": "view",
      "type": "function"
    },
    {
      "inputs": [
        {
          "internalType": "address",
          "name": "spender",
          "type": "address"
        },
        {
          "internalType": "uint256",
          "name": "subtractedValue",
          "type": "uint256"
        }
      ],
      "name": "decreaseAllowance",
      "outputs": [
        {
          "internalType": "bool",
          "name": "",
          "type": "bool"
        }
      ],
      "stateMutability": "nonpayable",
      "type": "function"
    },
    {
      "inputs": [
        {
          "internalType": "bytes32",
          "name": "role",
          "type": "bytes32"
        }
      ],
      "name": "getRoleAdmin",
      "outputs": [
        {
          "internalType": "bytes32",
          "name": "",
          "type": "bytes32"
        }
      ],
      "stateMutability": "view",
      "type": "function"
    },
    {
      "inputs": [
        {
          "internalType": "bytes32",
          "name": "role",
          "type": "bytes32"
        },
        {
          "internalType": "uint256",
          "name": "index",
          "type": "uint256"
        }
      ],
      "name": "getRoleMember",
      "outputs": [
        {
          "internalType": "address",
          "name": "",
          "type": "address"
        }
      ],
      "stateMutability": "view",
      "type": "function"
    },
    {
      "inputs": [
        {
          "internalType": "bytes32",
          "name": "role",
          "type": "bytes32"
        }
      ],
      "name": "getRoleMemberCount",
      "outputs": [
        {
          "internalType": "uint256",
          "name": "",
          "type": "uint256"
        }
      ],
      "stateMutability": "view",
      "type": "function"
    },
    {
      "inputs": [
        {
          "internalType": "bytes32",
          "name": "role",
          "type": "bytes32"
        },
        {
          "internalType": "address",
          "name": "account",
          "type": "address"
        }
      ],
      "name": "grantRole",
      "outputs": [],
      "stateMutability": "nonpayable",
      "type": "function"
    },
    {
      "inputs": [
        {
          "internalType": "bytes32",
          "name": "role",
          "type": "bytes32"
        },
        {
          "internalType": "address",
          "name": "account",
          "type": "address"
        }
      ],
      "name": "hasRole",
      "outputs": [
        {
          "internalType": "bool",
          "name": "",
          "type": "bool"
        }
      ],
      "stateMutability": "view",
      "type": "function"
    },
    {
      "inputs": [
        {
          "internalType": "address",
          "name": "spender",
          "type": "address"
        },
        {
          "internalType": "uint256",
          "name": "addedValue",
          "type": "uint256"
        }
      ],
      "name": "increaseAllowance",
      "outputs": [
        {
          "internalType": "bool",
          "name": "",
          "type": "bool"
        }
      ],
      "stateMutability": "nonpayable",
      "type": "function"
    },
    {
      "inputs": [
        {
          "internalType": "address",
          "name": "to",
          "type": "address"
        },
        {
          "internalType": "uint256",
          "name": "amount",
          "type": "uint256"
        }
      ],
      "name": "mint",
      "outputs": [],
      "stateMutability": "nonpayable",
      "type": "function"
    },
    {
      "inputs": [],
      "name": "name",
      "outputs": [
        {
          "internalType": "string",
          "name": "",
          "type": "string"
        }
      ],
      "stateMutability": "view",
      "type": "function"
    },
    {
      "inputs": [],
      "name": "pause",
      "outputs": [],
      "stateMutability": "nonpayable",
      "type": "function"
    },
    {
      "inputs": [],
      "name": "paused",
      "outputs": [
        {
          "internalType": "bool",
          "name": "",
          "type": "bool"
        }
      ],
      "stateMutability": "view",
      "type": "function"
    },
    {
      "inputs": [
        {
          "internalType": "bytes32",
          "name": "role",
          "type": "bytes32"
        },
        {
          "internalType": "address",
          "name": "account",
          "type": "address"
        }
      ],
      "name": "renounceRole",
      "outputs": [],
      "stateMutability": "nonpayable",
      "type": "function"
    },
    {
      "inputs": [
        {
          "internalType": "bytes32",
          "name": "role",
          "type": "bytes32"
        },
        {
          "internalType": "address",
          "name": "account",
          "type": "address"
        }
      ],
      "name": "revokeRole",
      "outputs": [],
      "stateMutability": "nonpayable",
      "type": "function"
    },
    {
      "inputs": [
        {
          "internalType": "bytes4",
          "name": "interfaceId",
          "type": "bytes4"
        }
      ],
      "name": "supportsInterface",
      "outputs": [
        {
          "internalType": "bool",
          "name": "",
          "type": "bool"
        }
      ],
      "stateMutability": "view",
      "type": "function"
    },
    {
      "inputs": [],
      "name": "symbol",
      "outputs": [
        {
          "internalType": "string",
          "name": "",
          "type": "string"
        }
      ],
      "stateMutability": "view",
      "type": "function"
    },
    {
      "inputs": [],
      "name": "totalSupply",
      "outputs": [
        {
          "internalType": "uint256",
          "name": "",
          "type": "uint256"
        }
      ],
      "stateMutability": "view",
      "type": "function"
    },
    {
      "inputs": [
        {
          "internalType": "address",
          "name": "to",
          "type": "address"
        },
        {
          "internalType": "uint256",
          "name": "amount",
          "type": "uint256"
        }
      ],
      "name": "transfer",
      "outputs": [
        {
          "internalType": "bool",
          "name": "",
          "type": "bool"
        }
      ],
      "stateMutability": "nonpayable",
      "type": "function"
    },
    {
      "inputs": [
        {
          "internalType": "address",
          "name": "from",
          "type": "address"
        },
        {
          "internalType": "address",
          "name": "to",
          "type": "address"
        },
        {
          "internalType": "uint256",
          "name": "amount",
          "type": "uint256"
        }
      ],
      "name": "transferFrom",
      "outputs": [
        {
          "internalType": "bool",
          "name": "",
          "type": "bool"
        }
      ],
      "stateMutability": "nonpayable",
      "type": "function"
    },
    {
      "inputs": [],
      "name": "transfersAllowed",
      "outputs": [
        {
          "internalType": "bool",
          "name": "",
          "type": "bool"
        }
      ],
      "stateMutability": "view",
      "type": "function"
    },
    {
      "inputs": [],
      "name": "unpause",
      "outputs": [],
      "stateMutability": "nonpayable",
      "type": "function"
    }
  ],
  "bytecode": "0x60806040523480156200001157600080fd5b5060405162002599380380620025998339810160408190526200003491620003db565b8282828282818181600590805190602001906200005392919062000268565b5080516200006990600690602084019062000268565b50506007805460ff19169055506200008360003362000103565b620000af7f9f2df0fed2c77648de5860a4cc508cd0818c85b8b8a1ab4ceeef8d981c8956a63362000103565b620000db7f65d7a28e3265b37a6474929f336521b332c1681b933f6cb9f3376673440d862a3362000103565b50506007805460ff9092166101000261ff0019909216919091179055506200049d9350505050565b6200010f828262000113565b5050565b6200012a82826200015660201b62000b3d1760201c565b60008281526001602090815260409091206200015191839062000c2d620001f6821b17901c565b505050565b6000828152602081815260408083206001600160a01b038516845290915290205460ff166200010f576000828152602081815260408083206001600160a01b03851684529091529020805460ff19166001179055620001b23390565b6001600160a01b0316816001600160a01b0316837f2f8788117e7eff1d82e926ec794901d17c78024a50270940304540a733656f0d60405160405180910390a45050565b60006200020d836001600160a01b03841662000216565b90505b92915050565b60008181526001830160205260408120546200025f5750815460018181018455600084815260208082209093018490558454848252828601909352604090209190915562000210565b50600062000210565b828054620002769062000460565b90600052602060002090601f0160209004810192826200029a5760008555620002e5565b82601f10620002b557805160ff1916838001178555620002e5565b82800160010185558215620002e5579182015b82811115620002e5578251825591602001919060010190620002c8565b50620002f3929150620002f7565b5090565b5b80821115620002f35760008155600101620002f8565b634e487b7160e01b600052604160045260246000fd5b600082601f8301126200033657600080fd5b81516001600160401b03808211156200035357620003536200030e565b604051601f8301601f19908116603f011681019082821181831017156200037e576200037e6200030e565b816040528381526020925086838588010111156200039b57600080fd5b600091505b83821015620003bf5785820183015181830184015290820190620003a0565b83821115620003d15760008385830101525b9695505050505050565b600080600060608486031215620003f157600080fd5b83516001600160401b03808211156200040957600080fd5b620004178783880162000324565b945060208601519150808211156200042e57600080fd5b506200043d8682870162000324565b925050604084015160ff811681146200045557600080fd5b809150509250925092565b600181811c908216806200047557607f821691505b602082108114156200049757634e487b7160e01b600052602260045260246000fd5b50919050565b6120ec80620004ad6000396000f3fe608060405234801561001057600080fd5b50600436106101e55760003560e01c80635c975abb1161010f578063a457c2d7116100a2578063d539139311610071578063d53913931461046b578063d547741f14610492578063dd62ed3e146104a5578063e63ab1e9146104eb57600080fd5b8063a457c2d71461041f578063a9059cbb14610432578063b0660c3d14610445578063ca15c8731461045857600080fd5b80639010d07c116100de5780639010d07c1461039357806391d14854146103cb57806395d89b411461040f578063a217fddf1461041757600080fd5b80635c975abb1461033757806370a082311461034257806379cc6790146103785780638456cb591461038b57600080fd5b8063248a9ca311610187578063395093511161015657806339509351146102f65780633f4ba83a1461030957806340c10f191461031157806342966c681461032457600080fd5b8063248a9ca3146102905780632f2ff15d146102b3578063313ce567146102c657806336568abe146102e357600080fd5b806318160ddd116101c357806318160ddd1461023a578063206b60f91461024c5780632185810b1461027357806323b872dd1461027d57600080fd5b806301ffc9a7146101ea57806306fdde0314610212578063095ea7b314610227575b600080fd5b6101fd6101f8366004611c8a565b610512565b60405190151581526020015b60405180910390f35b61021a61056e565b6040516102099190611cf8565b6101fd610235366004611d72565b610600565b6004545b604051908152602001610209565b61023e7f8502233096d909befbda0999bb8ea2f3a6be3c138b9fbf003752a4c8bce86f6c81565b61027b610618565b005b6101fd61028b366004611d9c565b6106c9565b61023e61029e366004611dd8565b60009081526020819052604090206001015490565b61027b6102c1366004611df1565b6106ed565b600754610100900460ff1660405160ff9091168152602001610209565b61027b6102f1366004611df1565b610717565b6101fd610304366004611d72565b6107b0565b61027b6107fc565b61027b61031f366004611d72565b6108a2565b61027b610332366004611dd8565b610948565b60075460ff166101fd565b61023e610350366004611e1d565b73ffffffffffffffffffffffffffffffffffffffff1660009081526002602052604090205490565b61027b610386366004611d72565b610955565b61027b61096a565b6103a66103a1366004611e38565b610a0e565b60405173ffffffffffffffffffffffffffffffffffffffff9091168152602001610209565b6101fd6103d9366004611df1565b60009182526020828152604080842073ffffffffffffffffffffffffffffffffffffffff93909316845291905290205460ff1690565b61021a610a2d565b61023e600081565b6101fd61042d366004611d72565b610a3c565b6101fd610440366004611d72565b610af3565b6007546101fd9062010000900460ff1681565b61023e610466366004611dd8565b610b01565b61023e7f9f2df0fed2c77648de5860a4cc508cd0818c85b8b8a1ab4ceeef8d981c8956a681565b61027b6104a0366004611df1565b610b18565b61023e6104b3366004611e5a565b73ffffffffffffffffffffffffffffffffffffffff918216600090815260036020908152604080832093909416825291909152205490565b61023e7f65d7a28e3265b37a6474929f336521b332c1681b933f6cb9f3376673440d862a81565b60007fffffffff0000000000000000000000000000000000000000000000000000000082167f5a05180f000000000000000000000000000000000000000000000000000000001480610568575061056882610c4f565b92915050565b60606005805461057d90611e84565b80601f01602080910402602001604051908101604052809291908181526020018280546105a990611e84565b80156105f65780601f106105cb576101008083540402835291602001916105f6565b820191906000526020600020905b8154815290600101906020018083116105d957829003601f168201915b5050505050905090565b60003361060e818585610ce6565b5060019392505050565b6106236000336103d9565b61069a5760405162461bcd60e51b815260206004820152602160248201527f487562626c6545726332302e616c6c6f775472616e73666572732e6e6f41757460448201527f680000000000000000000000000000000000000000000000000000000000000060648201526084015b60405180910390fd5b600780547fffffffffffffffffffffffffffffffffffffffffffffffffffffffffff00ffff1662010000179055565b6000336106d7858285610e65565b6106e2858585610f22565b506001949350505050565b60008281526020819052604090206001015461070881611155565b610712838361115f565b505050565b73ffffffffffffffffffffffffffffffffffffffff811633146107a25760405162461bcd60e51b815260206004820152602f60248201527f416363657373436f6e74726f6c3a2063616e206f6e6c792072656e6f756e636560448201527f20726f6c657320666f722073656c6600000000000000000000000000000000006064820152608401610691565b6107ac8282611181565b5050565b33600081815260036020908152604080832073ffffffffffffffffffffffffffffffffffffffff8716845290915281205490919061060e90829086906107f7908790611f07565b610ce6565b6108267f65d7a28e3265b37a6474929f336521b332c1681b933f6cb9f3376673440d862a336103d9565b6108985760405162461bcd60e51b815260206004820152603960248201527f45524332305072657365744d696e7465725061757365723a206d75737420686160448201527f76652070617573657220726f6c6520746f20756e7061757365000000000000006064820152608401610691565b6108a06111a3565b565b6108cc7f9f2df0fed2c77648de5860a4cc508cd0818c85b8b8a1ab4ceeef8d981c8956a6336103d9565b61093e5760405162461bcd60e51b815260206004820152603660248201527f45524332305072657365744d696e7465725061757365723a206d75737420686160448201527f7665206d696e74657220726f6c6520746f206d696e74000000000000000000006064820152608401610691565b6107ac8282611220565b6109523382611307565b50565b610960823383610e65565b6107ac8282611307565b6109947f65d7a28e3265b37a6474929f336521b332c1681b933f6cb9f3376673440d862a336103d9565b610a065760405162461bcd60e51b815260206004820152603760248201527f45524332305072657365744d696e7465725061757365723a206d75737420686160448201527f76652070617573657220726f6c6520746f2070617573650000000000000000006064820152608401610691565b6108a06114a5565b6000828152600160205260408120610a269083611500565b9392505050565b60606006805461057d90611e84565b33600081815260036020908152604080832073ffffffffffffffffffffffffffffffffffffffff8716845290915281205490919083811015610ae65760405162461bcd60e51b815260206004820152602560248201527f45524332303a2064656372656173656420616c6c6f77616e63652062656c6f7760448201527f207a65726f0000000000000000000000000000000000000000000000000000006064820152608401610691565b6106e28286868403610ce6565b60003361060e818585610f22565b60008181526001602052604081206105689061150c565b600082815260208190526040902060010154610b3381611155565b6107128383611181565b60008281526020818152604080832073ffffffffffffffffffffffffffffffffffffffff8516845290915290205460ff166107ac5760008281526020818152604080832073ffffffffffffffffffffffffffffffffffffffff85168452909152902080547fffffffffffffffffffffffffffffffffffffffffffffffffffffffffffffff00166001179055610bcf3390565b73ffffffffffffffffffffffffffffffffffffffff168173ffffffffffffffffffffffffffffffffffffffff16837f2f8788117e7eff1d82e926ec794901d17c78024a50270940304540a733656f0d60405160405180910390a45050565b6000610a268373ffffffffffffffffffffffffffffffffffffffff8416611516565b60007fffffffff0000000000000000000000000000000000000000000000000000000082167f7965db0b00000000000000000000000000000000000000000000000000000000148061056857507f01ffc9a7000000000000000000000000000000000000000000000000000000007fffffffff00000000000000000000000000000000000000000000000000000000831614610568565b73ffffffffffffffffffffffffffffffffffffffff8316610d6e5760405162461bcd60e51b8152602060048201526024808201527f45524332303a20617070726f76652066726f6d20746865207a65726f2061646460448201527f72657373000000000000000000000000000000000000000000000000000000006064820152608401610691565b73ffffffffffffffffffffffffffffffffffffffff8216610df75760405162461bcd60e51b815260206004820152602260248201527f45524332303a20617070726f766520746f20746865207a65726f20616464726560448201527f73730000000000000000000000000000000000000000000000000000000000006064820152608401610691565b73ffffffffffffffffffffffffffffffffffffffff83811660008181526003602090815260408083209487168084529482529182902085905590518481527f8c5be1e5ebec7d5bd14f71427d1e84f3dd0314c0f7b2291e5b200ac8c7c3b925910160405180910390a3505050565b73ffffffffffffffffffffffffffffffffffffffff8381166000908152600360209081526040808320938616835292905220547fffffffffffffffffffffffffffffffffffffffffffffffffffffffffffffffff8114610f1c5781811015610f0f5760405162461bcd60e51b815260206004820152601d60248201527f45524332303a20696e73756666696369656e7420616c6c6f77616e63650000006044820152606401610691565b610f1c8484848403610ce6565b50505050565b73ffffffffffffffffffffffffffffffffffffffff8316610fab5760405162461bcd60e51b815260206004820152602560248201527f45524332303a207472616e736665722066726f6d20746865207a65726f20616460448201527f64726573730000000000000000000000000000000000000000000000000000006064820152608401610691565b73ffffffffffffffffffffffffffffffffffffffff82166110345760405162461bcd60e51b815260206004820152602360248201527f45524332303a207472616e7366657220746f20746865207a65726f206164647260448201527f65737300000000000000000000000000000000000000000000000000000000006064820152608401610691565b61103f838383611565565b73ffffffffffffffffffffffffffffffffffffffff8316600090815260026020526040902054818110156110db5760405162461bcd60e51b815260206004820152602660248201527f45524332303a207472616e7366657220616d6f756e742065786365656473206260448201527f616c616e636500000000000000000000000000000000000000000000000000006064820152608401610691565b73ffffffffffffffffffffffffffffffffffffffff80851660008181526002602052604080822086860390559286168082529083902080548601905591517fddf252ad1be2c89b69c2b068fc378daa952ba7f163c4a11628f55a4df523b3ef906111489086815260200190565b60405180910390a3610f1c565b6109528133611685565b6111698282610b3d565b60008281526001602052604090206107129082610c2d565b61118b8282611723565b600082815260016020526040902061071290826117da565b6111ab6117fc565b600780547fffffffffffffffffffffffffffffffffffffffffffffffffffffffffffffff001690557f5db9ee0a495bf2e6ff9c91a7834c1ba4fdd244a5e8aa4e537bd38aeae4b073aa335b60405173ffffffffffffffffffffffffffffffffffffffff909116815260200160405180910390a1565b73ffffffffffffffffffffffffffffffffffffffff82166112835760405162461bcd60e51b815260206004820152601f60248201527f45524332303a206d696e7420746f20746865207a65726f2061646472657373006044820152606401610691565b61128f60008383611565565b80600460008282546112a19190611f07565b909155505073ffffffffffffffffffffffffffffffffffffffff82166000818152600260209081526040808320805486019055518481527fddf252ad1be2c89b69c2b068fc378daa952ba7f163c4a11628f55a4df523b3ef910160405180910390a35050565b73ffffffffffffffffffffffffffffffffffffffff82166113905760405162461bcd60e51b815260206004820152602160248201527f45524332303a206275726e2066726f6d20746865207a65726f2061646472657360448201527f73000000000000000000000000000000000000000000000000000000000000006064820152608401610691565b61139c82600083611565565b73ffffffffffffffffffffffffffffffffffffffff8216600090815260026020526040902054818110156114385760405162461bcd60e51b815260206004820152602260248201527f45524332303a206275726e20616d6f756e7420657863656564732062616c616e60448201527f63650000000000000000000000000000000000000000000000000000000000006064820152608401610691565b73ffffffffffffffffffffffffffffffffffffffff831660008181526002602090815260408083208686039055600480548790039055518581529192917fddf252ad1be2c89b69c2b068fc378daa952ba7f163c4a11628f55a4df523b3ef910160405180910390a3505050565b6114ad61184e565b600780547fffffffffffffffffffffffffffffffffffffffffffffffffffffffffffffff001660011790557f62e78cea01bee320cd4e420270b5ea74000d11b0c9f74754ebdbfc544b05a2586111f63390565b6000610a2683836118a1565b6000610568825490565b600081815260018301602052604081205461155d57508154600181810184556000848152602080822090930184905584548482528286019093526040902091909155610568565b506000610568565b6115708383836118cb565b60075462010000900460ff168061159b575073ffffffffffffffffffffffffffffffffffffffff8316155b806115ea575073ffffffffffffffffffffffffffffffffffffffff831660009081527f7c7a990f752005aea38438cc35abc5417bd322e6c964ec21d52573494225142c602052604090205460ff165b80611639575073ffffffffffffffffffffffffffffffffffffffff821660009081527f7c7a990f752005aea38438cc35abc5417bd322e6c964ec21d52573494225142c602052604090205460ff165b6107125760405162461bcd60e51b815260206004820152601d60248201527f487562626c6545726332302e7472616e736665727344697361626c65640000006044820152606401610691565b60008281526020818152604080832073ffffffffffffffffffffffffffffffffffffffff8516845290915290205460ff166107ac576116c3816118d6565b6116ce8360206118f5565b6040516020016116df929190611f1f565b604080517fffffffffffffffffffffffffffffffffffffffffffffffffffffffffffffffe08184030181529082905262461bcd60e51b825261069191600401611cf8565b60008281526020818152604080832073ffffffffffffffffffffffffffffffffffffffff8516845290915290205460ff16156107ac5760008281526020818152604080832073ffffffffffffffffffffffffffffffffffffffff8516808552925280832080547fffffffffffffffffffffffffffffffffffffffffffffffffffffffffffffff0016905551339285917ff6391f5c32d9c69d2a47ea670b442974b53935d1edc7fd64eb21e047a839171b9190a45050565b6000610a268373ffffffffffffffffffffffffffffffffffffffff8416611b1e565b60075460ff166108a05760405162461bcd60e51b815260206004820152601460248201527f5061757361626c653a206e6f74207061757365640000000000000000000000006044820152606401610691565b60075460ff16156108a05760405162461bcd60e51b815260206004820152601060248201527f5061757361626c653a20706175736564000000000000000000000000000000006044820152606401610691565b60008260000182815481106118b8576118b8611fa0565b9060005260206000200154905092915050565b610712838383611c11565b606061056873ffffffffffffffffffffffffffffffffffffffff831660145b60606000611904836002611fcf565b61190f906002611f07565b67ffffffffffffffff8111156119275761192761200c565b6040519080825280601f01601f191660200182016040528015611951576020820181803683370190505b5090507f30000000000000000000000000000000000000000000000000000000000000008160008151811061198857611988611fa0565b60200101907effffffffffffffffffffffffffffffffffffffffffffffffffffffffffffff1916908160001a9053507f7800000000000000000000000000000000000000000000000000000000000000816001815181106119eb576119eb611fa0565b60200101907effffffffffffffffffffffffffffffffffffffffffffffffffffffffffffff1916908160001a9053506000611a27846002611fcf565b611a32906001611f07565b90505b6001811115611acf577f303132333435363738396162636465660000000000000000000000000000000085600f1660108110611a7357611a73611fa0565b1a60f81b828281518110611a8957611a89611fa0565b60200101907effffffffffffffffffffffffffffffffffffffffffffffffffffffffffffff1916908160001a90535060049490941c93611ac88161203b565b9050611a35565b508315610a265760405162461bcd60e51b815260206004820181905260248201527f537472696e67733a20686578206c656e67746820696e73756666696369656e746044820152606401610691565b60008181526001830160205260408120548015611c07576000611b42600183612070565b8554909150600090611b5690600190612070565b9050818114611bbb576000866000018281548110611b7657611b76611fa0565b9060005260206000200154905080876000018481548110611b9957611b99611fa0565b6000918252602080832090910192909255918252600188019052604090208390555b8554869080611bcc57611bcc612087565b600190038181906000526020600020016000905590558560010160008681526020019081526020016000206000905560019350505050610568565b6000915050610568565b60075460ff16156107125760405162461bcd60e51b815260206004820152602a60248201527f45524332305061757361626c653a20746f6b656e207472616e7366657220776860448201527f696c6520706175736564000000000000000000000000000000000000000000006064820152608401610691565b600060208284031215611c9c57600080fd5b81357fffffffff0000000000000000000000000000000000000000000000000000000081168114610a2657600080fd5b60005b83811015611ce7578181015183820152602001611ccf565b83811115610f1c5750506000910152565b6020815260008251806020840152611d17816040850160208701611ccc565b601f017fffffffffffffffffffffffffffffffffffffffffffffffffffffffffffffffe0169190910160400192915050565b803573ffffffffffffffffffffffffffffffffffffffff81168114611d6d57600080fd5b919050565b60008060408385031215611d8557600080fd5b611d8e83611d49565b946020939093013593505050565b600080600060608486031215611db157600080fd5b611dba84611d49565b9250611dc860208501611d49565b9150604084013590509250925092565b600060208284031215611dea57600080fd5b5035919050565b60008060408385031215611e0457600080fd5b82359150611e1460208401611d49565b90509250929050565b600060208284031215611e2f57600080fd5b610a2682611d49565b60008060408385031215611e4b57600080fd5b50508035926020909101359150565b60008060408385031215611e6d57600080fd5b611e7683611d49565b9150611e1460208401611d49565b600181811c90821680611e9857607f821691505b60208210811415611ed2577f4e487b7100000000000000000000000000000000000000000000000000000000600052602260045260246000fd5b50919050565b7f4e487b7100000000000000000000000000000000000000000000000000000000600052601160045260246000fd5b60008219821115611f1a57611f1a611ed8565b500190565b7f416363657373436f6e74726f6c3a206163636f756e7420000000000000000000815260008351611f57816017850160208801611ccc565b7f206973206d697373696e6720726f6c65200000000000000000000000000000006017918401918201528351611f94816028840160208801611ccc565b01602801949350505050565b7f4e487b7100000000000000000000000000000000000000000000000000000000600052603260045260246000fd5b6000817fffffffffffffffffffffffffffffffffffffffffffffffffffffffffffffffff048311821515161561200757612007611ed8565b500290565b7f4e487b7100000000000000000000000000000000000000000000000000000000600052604160045260246000fd5b60008161204a5761204a611ed8565b507fffffffffffffffffffffffffffffffffffffffffffffffffffffffffffffffff0190565b60008282101561208257612082611ed8565b500390565b7f4e487b7100000000000000000000000000000000000000000000000000000000600052603160045260246000fdfea26469706673582212200ed6dfea35d806c0f054c45799da89b30b11a4c6ee0dd690dbb995bb7b21dfad64736f6c63430008090033",
  "linkReferences": {},
  "deployedLinkReferences": {}
}