{
  "_format": "hh-sol-artifact-1",
  "contractName": "RestrictedVusd",
  "sourceName": "contracts/tests/ERC20Mintable.sol",
  "abi": [
    {
      "anonymous": false,
      "inputs": [
        {
          "indexed": true,
          "internalType": "address",
          "name": "owner",
          "type": "address"
        },
        {
          "indexed": true,
          "internalType": "address",
          "name": "spender",
          "type": "address"
        },
        {
          "indexed": false,
          "internalType": "uint256",
          "name": "value",
          "type": "uint256"
        }
      ],
      "name": "Approval",
      "type": "event"
    },
    {
      "anonymous": false,
      "inputs": [
        {
          "indexed": false,
          "internalType": "uint8",
          "name": "version",
          "type": "uint8"
        }
      ],
      "name": "Initialized",
      "type": "event"
    },
    {
      "anonymous": false,
      "inputs": [
        {
          "indexed": false,
          "internalType": "address",
          "name": "account",
          "type": "address"
        }
      ],
      "name": "Paused",
      "type": "event"
    },
    {
      "anonymous": false,
      "inputs": [
        {
          "indexed": true,
          "internalType": "bytes32",
          "name": "role",
          "type": "bytes32"
        },
        {
          "indexed": true,
          "internalType": "bytes32",
          "name": "previousAdminRole",
          "type": "bytes32"
        },
        {
          "indexed": true,
          "internalType": "bytes32",
          "name": "newAdminRole",
          "type": "bytes32"
        }
      ],
      "name": "RoleAdminChanged",
      "type": "event"
    },
    {
      "anonymous": false,
      "inputs": [
        {
          "indexed": true,
          "internalType": "bytes32",
          "name": "role",
          "type": "bytes32"
        },
        {
          "indexed": true,
          "internalType": "address",
          "name": "account",
          "type": "address"
        },
        {
          "indexed": true,
          "internalType": "address",
          "name": "sender",
          "type": "address"
        }
      ],
      "name": "RoleGranted",
      "type": "event"
    },
    {
      "anonymous": false,
      "inputs": [
        {
          "indexed": true,
          "internalType": "bytes32",
          "name": "role",
          "type": "bytes32"
        },
        {
          "indexed": true,
          "internalType": "address",
          "name": "account",
          "type": "address"
        },
        {
          "indexed": true,
          "internalType": "address",
          "name": "sender",
          "type": "address"
        }
      ],
      "name": "RoleRevoked",
      "type": "event"
    },
    {
      "anonymous": false,
      "inputs": [
        {
          "indexed": true,
          "internalType": "address",
          "name": "from",
          "type": "address"
        },
        {
          "indexed": true,
          "internalType": "address",
          "name": "to",
          "type": "address"
        },
        {
          "indexed": false,
          "internalType": "uint256",
          "name": "value",
          "type": "uint256"
        }
      ],
      "name": "Transfer",
      "type": "event"
    },
    {
      "anonymous": false,
      "inputs": [
        {
          "indexed": false,
          "internalType": "address",
          "name": "account",
          "type": "address"
        }
      ],
      "name": "Unpaused",
      "type": "event"
    },
    {
      "anonymous": false,
      "inputs": [
        {
          "indexed": true,
          "internalType": "address",
          "name": "trader",
          "type": "address"
        },
        {
          "indexed": false,
          "internalType": "uint256",
          "name": "amount",
          "type": "uint256"
        }
      ],
      "name": "WithdrawalFailed",
      "type": "event"
    },
    {
      "inputs": [],
      "name": "DEFAULT_ADMIN_ROLE",
      "outputs": [
        {
          "internalType": "bytes32",
          "name": "",
          "type": "bytes32"
        }
      ],
      "stateMutability": "view",
      "type": "function"
    },
    {
      "inputs": [],
      "name": "MINTER_ROLE",
      "outputs": [
        {
          "internalType": "bytes32",
          "name": "",
          "type": "bytes32"
        }
      ],
      "stateMutability": "view",
      "type": "function"
    },
    {
      "inputs": [],
      "name": "PAUSER_ROLE",
      "outputs": [
        {
          "internalType": "bytes32",
          "name": "",
          "type": "bytes32"
        }
      ],
      "stateMutability": "view",
      "type": "function"
    },
    {
      "inputs": [],
      "name": "TRANSFER_ROLE",
      "outputs": [
        {
          "internalType": "bytes32",
          "name": "",
          "type": "bytes32"
        }
      ],
      "stateMutability": "view",
      "type": "function"
    },
    {
      "inputs": [],
      "name": "allowTransfers",
      "outputs": [],
      "stateMutability": "nonpayable",
      "type": "function"
    },
    {
      "inputs": [
        {
          "internalType": "address",
          "name": "owner",
          "type": "address"
        },
        {
          "internalType": "address",
          "name": "spender",
          "type": "address"
        }
      ],
      "name": "allowance",
      "outputs": [
        {
          "internalType": "uint256",
          "name": "",
          "type": "uint256"
        }
      ],
      "stateMutability": "view",
      "type": "function"
    },
    {
      "inputs": [
        {
          "internalType": "address",
          "name": "spender",
          "type": "address"
        },
        {
          "internalType": "uint256",
          "name": "amount",
          "type": "uint256"
        }
      ],
      "name": "approve",
      "outputs": [
        {
          "internalType": "bool",
          "name": "",
          "type": "bool"
        }
      ],
      "stateMutability": "nonpayable",
      "type": "function"
    },
    {
      "inputs": [
        {
          "internalType": "address",
          "name": "account",
          "type": "address"
        }
      ],
      "name": "balanceOf",
      "outputs": [
        {
          "internalType": "uint256",
          "name": "",
          "type": "uint256"
        }
      ],
      "stateMutability": "view",
      "type": "function"
    },
    {
      "inputs": [
        {
          "internalType": "uint256",
          "name": "amount",
          "type": "uint256"
        }
      ],
      "name": "burn",
      "outputs": [],
      "stateMutability": "nonpayable",
      "type": "function"
    },
    {
      "inputs": [
        {
          "internalType": "address",
          "name": "account",
          "type": "address"
        },
        {
          "internalType": "uint256",
          "name": "amount",
          "type": "uint256"
        }
      ],
      "name": "burnFrom",
      "outputs": [],
      "stateMutability": "nonpayable",
      "type": "function"
    },
    {
      "inputs": [],
      "name": "decimals",
      "outputs": [
        {
          "internalType": "uint8",
          "name": "",
          "type": "uint8"
        }
      ],
      "stateMutability": "pure",
      "type": "function"
    },
    {
      "inputs": [
        {
          "internalType": "address",
          "name": "spender",
          "type": "address"
        },
        {
          "internalType": "uint256",
          "name": "subtractedValue",
          "type": "uint256"
        }
      ],
      "name": "decreaseAllowance",
      "outputs": [
        {
          "internalType": "bool",
          "name": "",
          "type": "bool"
        }
      ],
      "stateMutability": "nonpayable",
      "type": "function"
    },
    {
      "inputs": [
        {
          "internalType": "address",
          "name": "",
          "type": "address"
        }
      ],
      "name": "failedWithdrawals",
      "outputs": [
        {
          "internalType": "uint256",
          "name": "",
          "type": "uint256"
        }
      ],
      "stateMutability": "view",
      "type": "function"
    },
    {
      "inputs": [
        {
          "internalType": "bytes32",
          "name": "role",
          "type": "bytes32"
        }
      ],
      "name": "getRoleAdmin",
      "outputs": [
        {
          "internalType": "bytes32",
          "name": "",
          "type": "bytes32"
        }
      ],
      "stateMutability": "view",
      "type": "function"
    },
    {
      "inputs": [
        {
          "internalType": "bytes32",
          "name": "role",
          "type": "bytes32"
        },
        {
          "internalType": "uint256",
          "name": "index",
          "type": "uint256"
        }
      ],
      "name": "getRoleMember",
      "outputs": [
        {
          "internalType": "address",
          "name": "",
          "type": "address"
        }
      ],
      "stateMutability": "view",
      "type": "function"
    },
    {
      "inputs": [
        {
          "internalType": "bytes32",
          "name": "role",
          "type": "bytes32"
        }
      ],
      "name": "getRoleMemberCount",
      "outputs": [
        {
          "internalType": "uint256",
          "name": "",
          "type": "uint256"
        }
      ],
      "stateMutability": "view",
      "type": "function"
    },
    {
      "inputs": [
        {
          "internalType": "bytes32",
          "name": "role",
          "type": "bytes32"
        },
        {
          "internalType": "address",
          "name": "account",
          "type": "address"
        }
      ],
      "name": "grantRole",
      "outputs": [],
      "stateMutability": "nonpayable",
      "type": "function"
    },
    {
      "inputs": [
        {
          "internalType": "bytes32[]",
          "name": "roles",
          "type": "bytes32[]"
        },
        {
          "internalType": "address[]",
          "name": "accounts",
          "type": "address[]"
        }
      ],
      "name": "grantRoles",
      "outputs": [],
      "stateMutability": "nonpayable",
      "type": "function"
    },
    {
      "inputs": [
        {
          "internalType": "bytes32",
          "name": "role",
          "type": "bytes32"
        },
        {
          "internalType": "address",
          "name": "account",
          "type": "address"
        }
      ],
      "name": "hasRole",
      "outputs": [
        {
          "internalType": "bool",
          "name": "",
          "type": "bool"
        }
      ],
      "stateMutability": "view",
      "type": "function"
    },
    {
      "inputs": [
        {
          "internalType": "address",
          "name": "spender",
          "type": "address"
        },
        {
          "internalType": "uint256",
          "name": "addedValue",
          "type": "uint256"
        }
      ],
      "name": "increaseAllowance",
      "outputs": [
        {
          "internalType": "bool",
          "name": "",
          "type": "bool"
        }
      ],
      "stateMutability": "nonpayable",
      "type": "function"
    },
    {
      "inputs": [
        {
          "internalType": "string",
          "name": "name",
          "type": "string"
        },
        {
          "internalType": "string",
          "name": "symbol",
          "type": "string"
        }
      ],
      "name": "initialize",
      "outputs": [],
      "stateMutability": "nonpayable",
      "type": "function"
    },
    {
      "inputs": [],
      "name": "maxGas",
      "outputs": [
        {
          "internalType": "uint256",
          "name": "",
          "type": "uint256"
        }
      ],
      "stateMutability": "view",
      "type": "function"
    },
    {
      "inputs": [],
      "name": "maxWithdrawalProcesses",
      "outputs": [
        {
          "internalType": "uint256",
          "name": "",
          "type": "uint256"
        }
      ],
      "stateMutability": "view",
      "type": "function"
    },
    {
      "inputs": [
        {
          "internalType": "address",
          "name": "to",
          "type": "address"
        },
        {
          "internalType": "uint256",
          "name": "amount",
          "type": "uint256"
        }
      ],
      "name": "mint",
      "outputs": [],
      "stateMutability": "nonpayable",
      "type": "function"
    },
    {
      "inputs": [
        {
          "internalType": "address",
          "name": "to",
          "type": "address"
        },
        {
          "internalType": "uint256",
          "name": "amount",
          "type": "uint256"
        }
      ],
      "name": "mintWithReserve",
      "outputs": [],
      "stateMutability": "payable",
      "type": "function"
    },
    {
      "inputs": [],
      "name": "name",
      "outputs": [
        {
          "internalType": "string",
          "name": "",
          "type": "string"
        }
      ],
      "stateMutability": "view",
      "type": "function"
    },
    {
      "inputs": [],
      "name": "pause",
      "outputs": [],
      "stateMutability": "nonpayable",
      "type": "function"
    },
    {
      "inputs": [],
      "name": "paused",
      "outputs": [
        {
          "internalType": "bool",
          "name": "",
          "type": "bool"
        }
      ],
      "stateMutability": "view",
      "type": "function"
    },
    {
      "inputs": [],
      "name": "processWithdrawals",
      "outputs": [],
      "stateMutability": "nonpayable",
      "type": "function"
    },
    {
      "inputs": [
        {
          "internalType": "bytes32",
          "name": "role",
          "type": "bytes32"
        },
        {
          "internalType": "address",
          "name": "account",
          "type": "address"
        }
      ],
      "name": "renounceRole",
      "outputs": [],
      "stateMutability": "nonpayable",
      "type": "function"
    },
    {
      "inputs": [
        {
          "internalType": "address",
          "name": "user",
          "type": "address"
        }
      ],
      "name": "rescueFailedWithdrawal",
      "outputs": [],
      "stateMutability": "nonpayable",
      "type": "function"
    },
    {
      "inputs": [
        {
          "internalType": "bytes32",
          "name": "role",
          "type": "bytes32"
        },
        {
          "internalType": "address",
          "name": "account",
          "type": "address"
        }
      ],
      "name": "revokeRole",
      "outputs": [],
      "stateMutability": "nonpayable",
      "type": "function"
    },
    {
      "inputs": [
        {
          "internalType": "uint256",
          "name": "_maxGas",
          "type": "uint256"
        }
      ],
      "name": "setMaxGas",
      "outputs": [],
      "stateMutability": "nonpayable",
      "type": "function"
    },
    {
      "inputs": [
        {
          "internalType": "uint256",
          "name": "_maxWithdrawalProcesses",
          "type": "uint256"
        }
      ],
      "name": "setMaxWithdrawalProcesses",
      "outputs": [],
      "stateMutability": "nonpayable",
      "type": "function"
    },
    {
      "inputs": [],
      "name": "start",
      "outputs": [
        {
          "internalType": "uint256",
          "name": "",
          "type": "uint256"
        }
      ],
      "stateMutability": "view",
      "type": "function"
    },
    {
      "inputs": [
        {
          "internalType": "bytes4",
          "name": "interfaceId",
          "type": "bytes4"
        }
      ],
      "name": "supportsInterface",
      "outputs": [
        {
          "internalType": "bool",
          "name": "",
          "type": "bool"
        }
      ],
      "stateMutability": "view",
      "type": "function"
    },
    {
      "inputs": [],
      "name": "symbol",
      "outputs": [
        {
          "internalType": "string",
          "name": "",
          "type": "string"
        }
      ],
      "stateMutability": "view",
      "type": "function"
    },
    {
      "inputs": [],
      "name": "totalSupply",
      "outputs": [
        {
          "internalType": "uint256",
          "name": "",
          "type": "uint256"
        }
      ],
      "stateMutability": "view",
      "type": "function"
    },
    {
      "inputs": [
        {
          "internalType": "address",
          "name": "to",
          "type": "address"
        },
        {
          "internalType": "uint256",
          "name": "amount",
          "type": "uint256"
        }
      ],
      "name": "transfer",
      "outputs": [
        {
          "internalType": "bool",
          "name": "",
          "type": "bool"
        }
      ],
      "stateMutability": "nonpayable",
      "type": "function"
    },
    {
      "inputs": [
        {
          "internalType": "address",
          "name": "from",
          "type": "address"
        },
        {
          "internalType": "address",
          "name": "to",
          "type": "address"
        },
        {
          "internalType": "uint256",
          "name": "amount",
          "type": "uint256"
        }
      ],
      "name": "transferFrom",
      "outputs": [
        {
          "internalType": "bool",
          "name": "",
          "type": "bool"
        }
      ],
      "stateMutability": "nonpayable",
      "type": "function"
    },
    {
      "inputs": [],
      "name": "transfersAllowed",
      "outputs": [
        {
          "internalType": "bool",
          "name": "",
          "type": "bool"
        }
      ],
      "stateMutability": "view",
      "type": "function"
    },
    {
      "inputs": [],
      "name": "unpause",
      "outputs": [],
      "stateMutability": "nonpayable",
      "type": "function"
    },
    {
      "inputs": [
        {
          "internalType": "uint256",
          "name": "amount",
          "type": "uint256"
        }
      ],
      "name": "withdraw",
      "outputs": [],
      "stateMutability": "nonpayable",
      "type": "function"
    },
    {
      "inputs": [
        {
          "internalType": "address",
          "name": "to",
          "type": "address"
        },
        {
          "internalType": "uint256",
          "name": "amount",
          "type": "uint256"
        }
      ],
      "name": "withdrawTo",
      "outputs": [],
      "stateMutability": "nonpayable",
      "type": "function"
    },
    {
      "inputs": [],
      "name": "withdrawalQLength",
      "outputs": [
        {
          "internalType": "uint256",
          "name": "",
          "type": "uint256"
        }
      ],
      "stateMutability": "view",
      "type": "function"
    },
    {
      "inputs": [],
      "name": "withdrawalQueue",
      "outputs": [
        {
          "components": [
            {
              "internalType": "address",
              "name": "usr",
              "type": "address"
            },
            {
              "internalType": "uint256",
              "name": "amount",
              "type": "uint256"
            }
          ],
          "internalType": "struct VUSD.Withdrawal[]",
          "name": "queue",
          "type": "tuple[]"
        }
      ],
      "stateMutability": "view",
      "type": "function"
    },
    {
      "inputs": [
        {
          "internalType": "uint256",
          "name": "",
          "type": "uint256"
        }
      ],
      "name": "withdrawals",
      "outputs": [
        {
          "internalType": "address",
          "name": "usr",
          "type": "address"
        },
        {
          "internalType": "uint256",
          "name": "amount",
          "type": "uint256"
        }
      ],
      "stateMutability": "view",
      "type": "function"
    }
  ],
  "bytecode": "0x608060405234801561001057600080fd5b5060016101c3556136d0806100266000396000f3fe6080604052600436106103085760003560e01c8063549d9a0f1161019a578063a217fddf116100e1578063ca15c8731161008a578063dd62ed3e11610064578063dd62ed3e14610921578063e63ab1e914610974578063f99bbc07146109a857600080fd5b8063ca15c873146108ad578063d5391393146108cd578063d547741f1461090157600080fd5b8063a9059cbb116100bb578063a9059cbb1461085b578063b0660c3d1461087b578063be9a65551461089657600080fd5b8063a217fddf1461080f578063a2ca056e14610824578063a457c2d71461083b57600080fd5b80638456cb59116101435780639010d07c1161011d5780639010d07c1461076257806391d14854146107a757806395d89b41146107fa57600080fd5b80638456cb591461070d5780638dcb6b87146107225780638e9280761461074257600080fd5b806370a082311161017457806370a082311461069457806373019d09146106d757806379cc6790146106ed57600080fd5b8063549d9a0f1461060f5780635c975abb1461062f5780635cc070761461064857600080fd5b80632a228fc21161025e578063395093511161020757806342966c68116101e157806342966c68146105b85780634cd88b76146105d8578063501d815c146105f857600080fd5b806339509351146105635780633f4ba83a1461058357806340c10f191461059857600080fd5b8063313ce56711610238578063313ce5671461050557806336568abe1461052157806337d5fe991461054157600080fd5b80632a228fc2146104b05780632e1a7d4d146104c55780632f2ff15d146104e557600080fd5b806318160ddd116102c05780632185810b1161029a5780632185810b1461044b57806323b872dd14610460578063248a9ca31461048057600080fd5b806318160ddd146103e2578063205c2878146103f7578063206b60f91461041757600080fd5b8063095ea7b3116102f1578063095ea7b3146103645780630e54e58d146103845780631380faa1146103a657600080fd5b806301ffc9a71461030d57806306fdde0314610342575b600080fd5b34801561031957600080fd5b5061032d610328366004612f70565b6109bb565b60405190151581526020015b60405180910390f35b34801561034e57600080fd5b50610357610a17565b6040516103399190612fde565b34801561037057600080fd5b5061032d61037f366004613058565b610aa9565b34801561039057600080fd5b506103a461039f3660046130ce565b610ac1565b005b3480156103b257600080fd5b506103d46103c136600461313a565b6101c86020526000908152604090205481565b604051908152602001610339565b3480156103ee57600080fd5b5060cb546103d4565b34801561040357600080fd5b506103a4610412366004613058565b610b7c565b34801561042357600080fd5b506103d47f8502233096d909befbda0999bb8ea2f3a6be3c138b9fbf003752a4c8bce86f6c81565b34801561045757600080fd5b506103a4610ba5565b34801561046c57600080fd5b5061032d61047b366004613155565b610c32565b34801561048c57600080fd5b506103d461049b366004613191565b60009081526065602052604090206001015490565b3480156104bc57600080fd5b506103a4610c56565b3480156104d157600080fd5b506103a46104e0366004613191565b610e98565b3480156104f157600080fd5b506103a46105003660046131aa565b610ec0565b34801561051157600080fd5b5060405160068152602001610339565b34801561052d57600080fd5b506103a461053c3660046131aa565b610eea565b34801561054d57600080fd5b50610556610f7f565b60405161033991906131d6565b34801561056f57600080fd5b5061032d61057e366004613058565b6110aa565b34801561058f57600080fd5b506103a46110f6565b3480156105a457600080fd5b506103a46105b3366004613058565b61119a565b3480156105c457600080fd5b506103a46105d3366004613191565b611240565b3480156105e457600080fd5b506103a46105f3366004613315565b61124a565b34801561060457600080fd5b506103d46101c75481565b34801561061b57600080fd5b506103a461062a36600461313a565b61127e565b34801561063b57600080fd5b5061012d5460ff1661032d565b34801561065457600080fd5b50610668610663366004613191565b611446565b6040805173ffffffffffffffffffffffffffffffffffffffff9093168352602083019190915201610339565b3480156106a057600080fd5b506103d46106af36600461313a565b73ffffffffffffffffffffffffffffffffffffffff16600090815260c9602052604090205490565b3480156106e357600080fd5b506101c4546103d4565b3480156106f957600080fd5b506103a4610708366004613058565b61148c565b34801561071957600080fd5b506103a46114a1565b34801561072e57600080fd5b506103a461073d366004613191565b611545565b34801561074e57600080fd5b506103a461075d366004613191565b6115c8565b34801561076e57600080fd5b5061078261077d366004613379565b61164b565b60405173ffffffffffffffffffffffffffffffffffffffff9091168152602001610339565b3480156107b357600080fd5b5061032d6107c23660046131aa565b600091825260656020908152604080842073ffffffffffffffffffffffffffffffffffffffff93909316845291905290205460ff1690565b34801561080657600080fd5b5061035761166a565b34801561081b57600080fd5b506103d4600081565b34801561083057600080fd5b506103d46101c65481565b34801561084757600080fd5b5061032d610856366004613058565b611679565b34801561086757600080fd5b5061032d610876366004613058565b611730565b34801561088757600080fd5b506101fb5461032d9060ff1681565b3480156108a257600080fd5b506103d46101c55481565b3480156108b957600080fd5b506103d46108c8366004613191565b61173e565b3480156108d957600080fd5b506103d47f9f2df0fed2c77648de5860a4cc508cd0818c85b8b8a1ab4ceeef8d981c8956a681565b34801561090d57600080fd5b506103a461091c3660046131aa565b611755565b34801561092d57600080fd5b506103d461093c36600461339b565b73ffffffffffffffffffffffffffffffffffffffff918216600090815260ca6020908152604080832093909416825291909152205490565b34801561098057600080fd5b506103d47f65d7a28e3265b37a6474929f336521b332c1681b933f6cb9f3376673440d862a81565b6103a46109b6366004613058565b61177a565b60007fffffffff0000000000000000000000000000000000000000000000000000000082167f5a05180f000000000000000000000000000000000000000000000000000000001480610a115750610a1182611817565b92915050565b606060cc8054610a26906133c5565b80601f0160208091040260200160405190810160405280929190818152602001828054610a52906133c5565b8015610a9f5780601f10610a7457610100808354040283529160200191610a9f565b820191906000526020600020905b815481529060010190602001808311610a8257829003601f168201915b5050505050905090565b600033610ab78185856118ae565b5060019392505050565b828114610b155760405162461bcd60e51b815260206004820152600760248201527f496e76616c69640000000000000000000000000000000000000000000000000060448201526064015b60405180910390fd5b60005b83811015610b7557610b63858583818110610b3557610b35613419565b90506020020135848484818110610b4e57610b4e613419565b9050602002016020810190610500919061313a565b80610b6d81613477565b915050610b18565b5050505050565b610b84611a2d565b610b8c611a81565b610b968282611add565b610ba160016101c355565b5050565b610bb06000336107c2565b610c225760405162461bcd60e51b815260206004820152602160248201527f487562626c6545726332302e616c6c6f775472616e73666572732e6e6f41757460448201527f68000000000000000000000000000000000000000000000000000000000000006064820152608401610b0c565b6101fb805460ff19166001179055565b600033610c40858285611c05565b610c4b858585611ca4565b506001949350505050565b610c5e611a2d565b610c66611a81565b6101c5546101c480544792908110610c8057610c80613419565b906000526020600020906002020160010154811015610d075760405162461bcd60e51b815260206004820152603b60248201527f43616e6e6f742070726f63657373207769746864726177616c7320617420746860448201527f69732074696d653a204e6f7420656e6f7567682062616c616e636500000000006064820152608401610b0c565b6101c5545b6101c45481108015610d2d57506101c6546101c554610d2b9083613492565b105b15610e865760006101c48281548110610d4857610d48613419565b600091825260209182902060408051808201909152600290920201805473ffffffffffffffffffffffffffffffffffffffff168252600101549181018290529150831015610d965750610e86565b610da16001836134a9565b91506000610dcb82600001516101c754846020015160405180602001604052806000815250611ed7565b90508015610de9576020820151610de29085613492565b9350610e7f565b602080830151835173ffffffffffffffffffffffffffffffffffffffff1660009081526101c890925260408220805491929091610e279084906134a9565b9091555050815160208084015160405190815273ffffffffffffffffffffffffffffffffffffffff909216917f92873d130824b495f22ad10f7f14028200557770e5986714318e78c54f3aa83c910160405180910390a25b5050610d0c565b6101c55550610e9660016101c355565b565b610ea0611a2d565b610ea8611a81565b610eb23382611add565b610ebd60016101c355565b50565b600082815260656020526040902060010154610edb81611ef1565b610ee58383611efb565b505050565b73ffffffffffffffffffffffffffffffffffffffff81163314610f755760405162461bcd60e51b815260206004820152602f60248201527f416363657373436f6e74726f6c3a2063616e206f6e6c792072656e6f756e636560448201527f20726f6c657320666f722073656c6600000000000000000000000000000000006064820152608401610b0c565b610ba18282611f1d565b6101c5546101c454606091600091610fa391610f9a91613492565b6101c654611f3f565b90508067ffffffffffffffff811115610fbe57610fbe61323b565b60405190808252806020026020018201604052801561100357816020015b6040805180820190915260008082526020820152815260200190600190039081610fdc5790505b50915060005b818110156110a5576101c4816101c55461102391906134a9565b8154811061103357611033613419565b600091825260209182902060408051808201909152600290920201805473ffffffffffffffffffffffffffffffffffffffff1682526001015491810191909152835184908390811061108757611087613419565b6020026020010181905250808061109d90613477565b915050611009565b505090565b33600081815260ca6020908152604080832073ffffffffffffffffffffffffffffffffffffffff87168452909152812054909190610ab790829086906110f19087906134a9565b6118ae565b6111207f65d7a28e3265b37a6474929f336521b332c1681b933f6cb9f3376673440d862a336107c2565b6111925760405162461bcd60e51b815260206004820152603960248201527f45524332305072657365744d696e7465725061757365723a206d75737420686160448201527f76652070617573657220726f6c6520746f20756e7061757365000000000000006064820152608401610b0c565b610e96611f55565b6111c47f9f2df0fed2c77648de5860a4cc508cd0818c85b8b8a1ab4ceeef8d981c8956a6336107c2565b6112365760405162461bcd60e51b815260206004820152603660248201527f45524332305072657365744d696e7465725061757365723a206d75737420686160448201527f7665206d696e74657220726f6c6520746f206d696e74000000000000000000006064820152608401610b0c565b610ba18282611fb5565b610ebd338261209c565b611254828261223a565b610ba17f9f2df0fed2c77648de5860a4cc508cd0818c85b8b8a1ab4ceeef8d981c8956a633611efb565b611286611a81565b6112916000336107c2565b6112dd5760405162461bcd60e51b815260206004820152601a60248201527f565553443a206d75737420686176652061646d696e20726f6c650000000000006044820152606401610b0c565b73ffffffffffffffffffffffffffffffffffffffff811660009081526101c86020526040902054806113515760405162461bcd60e51b815260206004820152601a60248201527f565553443a204e6f206661696c6564207769746864726177616c0000000000006044820152606401610b0c565b804710156113a15760405162461bcd60e51b815260206004820152601a60248201527f565553443a20496e73756666696369656e7420726573657276650000000000006044820152606401610b0c565b73ffffffffffffffffffffffffffffffffffffffff821660009081526101c8602090815260408083208390556101c75481519283019091528282526113ea918591908590611ed7565b9050806114395760405162461bcd60e51b815260206004820152601360248201527f565553443a20526573637565206661696c6564000000000000000000000000006044820152606401610b0c565b5050610ebd60016101c355565b6101c4818154811061145757600080fd5b60009182526020909120600290910201805460019091015473ffffffffffffffffffffffffffffffffffffffff909116915082565b611497823383611c05565b610ba1828261209c565b6114cb7f65d7a28e3265b37a6474929f336521b332c1681b933f6cb9f3376673440d862a336107c2565b61153d5760405162461bcd60e51b815260206004820152603760248201527f45524332305072657365744d696e7465725061757365723a206d75737420686160448201527f76652070617573657220726f6c6520746f2070617573650000000000000000006064820152608401610b0c565b610e9661227f565b6115506000336107c2565b6115c25760405162461bcd60e51b815260206004820152602d60248201527f45524332305072657365744d696e7465725061757365723a206d75737420686160448201527f76652061646d696e20726f6c65000000000000000000000000000000000000006064820152608401610b0c565b6101c655565b6115d36000336107c2565b6116455760405162461bcd60e51b815260206004820152602d60248201527f45524332305072657365744d696e7465725061757365723a206d75737420686160448201527f76652061646d696e20726f6c65000000000000000000000000000000000000006064820152608401610b0c565b6101c755565b600082815260976020526040812061166390836122bd565b9392505050565b606060cd8054610a26906133c5565b33600081815260ca6020908152604080832073ffffffffffffffffffffffffffffffffffffffff87168452909152812054909190838110156117235760405162461bcd60e51b815260206004820152602560248201527f45524332303a2064656372656173656420616c6c6f77616e63652062656c6f7760448201527f207a65726f0000000000000000000000000000000000000000000000000000006064820152608401610b0c565b610c4b82868684036118ae565b600033610ab7818585611ca4565b6000818152609760205260408120610a11906122c9565b60008281526065602052604090206001015461177081611ef1565b610ee58383611f1d565b611782611a2d565b61178a611a81565b61179964e8d4a51000826134c1565b341461180d5760405162461bcd60e51b815260206004820152602560248201527f765553443a20496e73756666696369656e7420616d6f756e74207472616e736660448201527f65727265640000000000000000000000000000000000000000000000000000006064820152608401610b0c565b610b968282611fb5565b60007fffffffff0000000000000000000000000000000000000000000000000000000082167f7965db0b000000000000000000000000000000000000000000000000000000001480610a1157507f01ffc9a7000000000000000000000000000000000000000000000000000000007fffffffff00000000000000000000000000000000000000000000000000000000831614610a11565b73ffffffffffffffffffffffffffffffffffffffff83166119365760405162461bcd60e51b8152602060048201526024808201527f45524332303a20617070726f76652066726f6d20746865207a65726f2061646460448201527f72657373000000000000000000000000000000000000000000000000000000006064820152608401610b0c565b73ffffffffffffffffffffffffffffffffffffffff82166119bf5760405162461bcd60e51b815260206004820152602260248201527f45524332303a20617070726f766520746f20746865207a65726f20616464726560448201527f73730000000000000000000000000000000000000000000000000000000000006064820152608401610b0c565b73ffffffffffffffffffffffffffffffffffffffff838116600081815260ca602090815260408083209487168084529482529182902085905590518481527f8c5be1e5ebec7d5bd14f71427d1e84f3dd0314c0f7b2291e5b200ac8c7c3b925910160405180910390a3505050565b61012d5460ff1615610e965760405162461bcd60e51b815260206004820152601060248201527f5061757361626c653a20706175736564000000000000000000000000000000006044820152606401610b0c565b60026101c3541415611ad55760405162461bcd60e51b815260206004820152601f60248201527f5265656e7472616e637947756172643a207265656e7472616e742063616c6c006044820152606401610b0c565b60026101c355565b611ae96006600a6135c4565b611af49060056134c1565b81101580611b095750611b06336106af565b81145b611b555760405162461bcd60e51b815260206004820152601f60248201527f565553443a207769746864726177206d696e696d756d2035206f7220616c6c006044820152606401610b0c565b611b5e81611240565b6101c460405180604001604052808473ffffffffffffffffffffffffffffffffffffffff16815260200164e8d4a5100084611b9991906134c1565b90528154600180820184556000938452602093849020835160029093020180547fffffffffffffffffffffffff00000000000000000000000000000000000000001673ffffffffffffffffffffffffffffffffffffffff90931692909217825591909201519101555050565b73ffffffffffffffffffffffffffffffffffffffff838116600090815260ca60209081526040808320938616835292905220546000198114611c9e5781811015611c915760405162461bcd60e51b815260206004820152601d60248201527f45524332303a20696e73756666696369656e7420616c6c6f77616e63650000006044820152606401610b0c565b611c9e84848484036118ae565b50505050565b73ffffffffffffffffffffffffffffffffffffffff8316611d2d5760405162461bcd60e51b815260206004820152602560248201527f45524332303a207472616e736665722066726f6d20746865207a65726f20616460448201527f64726573730000000000000000000000000000000000000000000000000000006064820152608401610b0c565b73ffffffffffffffffffffffffffffffffffffffff8216611db65760405162461bcd60e51b815260206004820152602360248201527f45524332303a207472616e7366657220746f20746865207a65726f206164647260448201527f65737300000000000000000000000000000000000000000000000000000000006064820152608401610b0c565b611dc18383836122d3565b73ffffffffffffffffffffffffffffffffffffffff8316600090815260c9602052604090205481811015611e5d5760405162461bcd60e51b815260206004820152602660248201527f45524332303a207472616e7366657220616d6f756e742065786365656473206260448201527f616c616e636500000000000000000000000000000000000000000000000000006064820152608401610b0c565b73ffffffffffffffffffffffffffffffffffffffff808516600081815260c9602052604080822086860390559286168082529083902080548601905591517fddf252ad1be2c89b69c2b068fc378daa952ba7f163c4a11628f55a4df523b3ef90611eca9086815260200190565b60405180910390a3611c9e565b600080600080845160208601878a8af19695505050505050565b610ebd81336123ee565b611f05828261248e565b6000828152609760205260409020610ee59082612564565b611f278282612586565b6000828152609760205260409020610ee59082612623565b6000818310611f4e5781611663565b5090919050565b611f5d612645565b61012d805460ff191690557f5db9ee0a495bf2e6ff9c91a7834c1ba4fdd244a5e8aa4e537bd38aeae4b073aa335b60405173ffffffffffffffffffffffffffffffffffffffff909116815260200160405180910390a1565b73ffffffffffffffffffffffffffffffffffffffff82166120185760405162461bcd60e51b815260206004820152601f60248201527f45524332303a206d696e7420746f20746865207a65726f2061646472657373006044820152606401610b0c565b612024600083836122d3565b8060cb600082825461203691906134a9565b909155505073ffffffffffffffffffffffffffffffffffffffff8216600081815260c960209081526040808320805486019055518481527fddf252ad1be2c89b69c2b068fc378daa952ba7f163c4a11628f55a4df523b3ef910160405180910390a35050565b73ffffffffffffffffffffffffffffffffffffffff82166121255760405162461bcd60e51b815260206004820152602160248201527f45524332303a206275726e2066726f6d20746865207a65726f2061646472657360448201527f73000000000000000000000000000000000000000000000000000000000000006064820152608401610b0c565b612131826000836122d3565b73ffffffffffffffffffffffffffffffffffffffff8216600090815260c96020526040902054818110156121cd5760405162461bcd60e51b815260206004820152602260248201527f45524332303a206275726e20616d6f756e7420657863656564732062616c616e60448201527f63650000000000000000000000000000000000000000000000000000000000006064820152608401610b0c565b73ffffffffffffffffffffffffffffffffffffffff8316600081815260c960209081526040808320868603905560cb80548790039055518581529192917fddf252ad1be2c89b69c2b068fc378daa952ba7f163c4a11628f55a4df523b3ef910160405180910390a3505050565b6122448282612698565b61226e7f9f2df0fed2c77648de5860a4cc508cd0818c85b8b8a1ab4ceeef8d981c8956a633611f1d565b505060646101c655610bb86101c755565b612287611a2d565b61012d805460ff191660011790557f62e78cea01bee320cd4e420270b5ea74000d11b0c9f74754ebdbfc544b05a258611f8b3390565b600061166383836127f5565b6000610a11825490565b6122de83838361281f565b6101fb5460ff1680612304575073ffffffffffffffffffffffffffffffffffffffff8316155b80612353575073ffffffffffffffffffffffffffffffffffffffff831660009081527f2bec0cbd41c20dc66ebdfa21b764cc6f8a94975c558341c61b9762627f58ab38602052604090205460ff165b806123a2575073ffffffffffffffffffffffffffffffffffffffff821660009081527f2bec0cbd41c20dc66ebdfa21b764cc6f8a94975c558341c61b9762627f58ab38602052604090205460ff165b610ee55760405162461bcd60e51b815260206004820181905260248201527f52657374726963746564567573642e7472616e736665727344697361626c65646044820152606401610b0c565b600082815260656020908152604080832073ffffffffffffffffffffffffffffffffffffffff8516845290915290205460ff16610ba15761242e8161282a565b612439836020612849565b60405160200161244a9291906135d3565b604080517fffffffffffffffffffffffffffffffffffffffffffffffffffffffffffffffe08184030181529082905262461bcd60e51b8252610b0c91600401612fde565b600082815260656020908152604080832073ffffffffffffffffffffffffffffffffffffffff8516845290915290205460ff16610ba157600082815260656020908152604080832073ffffffffffffffffffffffffffffffffffffffff851684529091529020805460ff191660011790556125063390565b73ffffffffffffffffffffffffffffffffffffffff168173ffffffffffffffffffffffffffffffffffffffff16837f2f8788117e7eff1d82e926ec794901d17c78024a50270940304540a733656f0d60405160405180910390a45050565b60006116638373ffffffffffffffffffffffffffffffffffffffff8416612a72565b600082815260656020908152604080832073ffffffffffffffffffffffffffffffffffffffff8516845290915290205460ff1615610ba157600082815260656020908152604080832073ffffffffffffffffffffffffffffffffffffffff85168085529252808320805460ff1916905551339285917ff6391f5c32d9c69d2a47ea670b442974b53935d1edc7fd64eb21e047a839171b9190a45050565b60006116638373ffffffffffffffffffffffffffffffffffffffff8416612ac1565b61012d5460ff16610e965760405162461bcd60e51b815260206004820152601460248201527f5061757361626c653a206e6f74207061757365640000000000000000000000006044820152606401610b0c565b600054610100900460ff16158080156126b85750600054600160ff909116105b806126d25750303b1580156126d2575060005460ff166001145b6127445760405162461bcd60e51b815260206004820152602e60248201527f496e697469616c697a61626c653a20636f6e747261637420697320616c72656160448201527f647920696e697469616c697a65640000000000000000000000000000000000006064820152608401610b0c565b6000805460ff19166001179055801561278457600080547fffffffffffffffffffffffffffffffffffffffffffffffffffffffffffff00ff166101001790555b61278e8383612bb4565b8015610ee557600080547fffffffffffffffffffffffffffffffffffffffffffffffffffffffffffff00ff169055604051600181527f7f26b83ff96e1f2b6a682f133852f6798a09c465da95921460cefb38474024989060200160405180910390a1505050565b600082600001828154811061280c5761280c613419565b9060005260206000200154905092915050565b610ee5838383612c4d565b6060610a1173ffffffffffffffffffffffffffffffffffffffff831660145b606060006128588360026134c1565b6128639060026134a9565b67ffffffffffffffff81111561287b5761287b61323b565b6040519080825280601f01601f1916602001820160405280156128a5576020820181803683370190505b5090507f3000000000000000000000000000000000000000000000000000000000000000816000815181106128dc576128dc613419565b60200101907effffffffffffffffffffffffffffffffffffffffffffffffffffffffffffff1916908160001a9053507f78000000000000000000000000000000000000000000000000000000000000008160018151811061293f5761293f613419565b60200101907effffffffffffffffffffffffffffffffffffffffffffffffffffffffffffff1916908160001a905350600061297b8460026134c1565b6129869060016134a9565b90505b6001811115612a23577f303132333435363738396162636465660000000000000000000000000000000085600f16601081106129c7576129c7613419565b1a60f81b8282815181106129dd576129dd613419565b60200101907effffffffffffffffffffffffffffffffffffffffffffffffffffffffffffff1916908160001a90535060049490941c93612a1c81613654565b9050612989565b5083156116635760405162461bcd60e51b815260206004820181905260248201527f537472696e67733a20686578206c656e67746820696e73756666696369656e746044820152606401610b0c565b6000818152600183016020526040812054612ab957508154600181810184556000848152602080822090930184905584548482528286019093526040902091909155610a11565b506000610a11565b60008181526001830160205260408120548015612baa576000612ae5600183613492565b8554909150600090612af990600190613492565b9050818114612b5e576000866000018281548110612b1957612b19613419565b9060005260206000200154905080876000018481548110612b3c57612b3c613419565b6000918252602080832090910192909255918252600188019052604090208390555b8554869080612b6f57612b6f61366b565b600190038181906000526020600020016000905590558560010160008681526020019081526020016000206000905560019350505050610a11565b6000915050610a11565b600054610100900460ff16612c315760405162461bcd60e51b815260206004820152602b60248201527f496e697469616c697a61626c653a20636f6e7472616374206973206e6f74206960448201527f6e697469616c697a696e670000000000000000000000000000000000000000006064820152608401610b0c565b612c3b8282612cc7565b612c43612d6b565b610ba18282612df5565b61012d5460ff1615610ee55760405162461bcd60e51b815260206004820152602a60248201527f45524332305061757361626c653a20746f6b656e207472616e7366657220776860448201527f696c6520706175736564000000000000000000000000000000000000000000006064820152608401610b0c565b600054610100900460ff16612d445760405162461bcd60e51b815260206004820152602b60248201527f496e697469616c697a61626c653a20636f6e7472616374206973206e6f74206960448201527f6e697469616c697a696e670000000000000000000000000000000000000000006064820152608401610b0c565b8151612d579060cc906020850190612ed7565b508051610ee59060cd906020840190612ed7565b600054610100900460ff16612de85760405162461bcd60e51b815260206004820152602b60248201527f496e697469616c697a61626c653a20636f6e7472616374206973206e6f74206960448201527f6e697469616c697a696e670000000000000000000000000000000000000000006064820152608401610b0c565b61012d805460ff19169055565b600054610100900460ff16612e725760405162461bcd60e51b815260206004820152602b60248201527f496e697469616c697a61626c653a20636f6e7472616374206973206e6f74206960448201527f6e697469616c697a696e670000000000000000000000000000000000000000006064820152608401610b0c565b612e7d600033612ecd565b612ea77f9f2df0fed2c77648de5860a4cc508cd0818c85b8b8a1ab4ceeef8d981c8956a633612ecd565b610ba17f65d7a28e3265b37a6474929f336521b332c1681b933f6cb9f3376673440d862a335b610ba18282611efb565b828054612ee3906133c5565b90600052602060002090601f016020900481019282612f055760008555612f4b565b82601f10612f1e57805160ff1916838001178555612f4b565b82800160010185558215612f4b579182015b82811115612f4b578251825591602001919060010190612f30565b50612f57929150612f5b565b5090565b5b80821115612f575760008155600101612f5c565b600060208284031215612f8257600080fd5b81357fffffffff000000000000000000000000000000000000000000000000000000008116811461166357600080fd5b60005b83811015612fcd578181015183820152602001612fb5565b83811115611c9e5750506000910152565b6020815260008251806020840152612ffd816040850160208701612fb2565b601f017fffffffffffffffffffffffffffffffffffffffffffffffffffffffffffffffe0169190910160400192915050565b803573ffffffffffffffffffffffffffffffffffffffff8116811461305357600080fd5b919050565b6000806040838503121561306b57600080fd5b6130748361302f565b946020939093013593505050565b60008083601f84011261309457600080fd5b50813567ffffffffffffffff8111156130ac57600080fd5b6020830191508360208260051b85010111156130c757600080fd5b9250929050565b600080600080604085870312156130e457600080fd5b843567ffffffffffffffff808211156130fc57600080fd5b61310888838901613082565b9096509450602087013591508082111561312157600080fd5b5061312e87828801613082565b95989497509550505050565b60006020828403121561314c57600080fd5b6116638261302f565b60008060006060848603121561316a57600080fd5b6131738461302f565b92506131816020850161302f565b9150604084013590509250925092565b6000602082840312156131a357600080fd5b5035919050565b600080604083850312156131bd57600080fd5b823591506131cd6020840161302f565b90509250929050565b602080825282518282018190526000919060409081850190868401855b8281101561322e578151805173ffffffffffffffffffffffffffffffffffffffff1685528601518685015292840192908501906001016131f3565b5091979650505050505050565b7f4e487b7100000000000000000000000000000000000000000000000000000000600052604160045260246000fd5b600082601f83011261327b57600080fd5b813567ffffffffffffffff808211156132965761329661323b565b604051601f83017fffffffffffffffffffffffffffffffffffffffffffffffffffffffffffffffe0908116603f011681019082821181831017156132dc576132dc61323b565b816040528381528660208588010111156132f557600080fd5b836020870160208301376000602085830101528094505050505092915050565b6000806040838503121561332857600080fd5b823567ffffffffffffffff8082111561334057600080fd5b61334c8683870161326a565b9350602085013591508082111561336257600080fd5b5061336f8582860161326a565b9150509250929050565b6000806040838503121561338c57600080fd5b50508035926020909101359150565b600080604083850312156133ae57600080fd5b6133b78361302f565b91506131cd6020840161302f565b600181811c908216806133d957607f821691505b60208210811415613413577f4e487b7100000000000000000000000000000000000000000000000000000000600052602260045260246000fd5b50919050565b7f4e487b7100000000000000000000000000000000000000000000000000000000600052603260045260246000fd5b7f4e487b7100000000000000000000000000000000000000000000000000000000600052601160045260246000fd5b600060001982141561348b5761348b613448565b5060010190565b6000828210156134a4576134a4613448565b500390565b600082198211156134bc576134bc613448565b500190565b60008160001904831182151516156134db576134db613448565b500290565b600181815b8085111561351b57816000190482111561350157613501613448565b8085161561350e57918102915b93841c93908002906134e5565b509250929050565b60008261353257506001610a11565b8161353f57506000610a11565b8160018114613555576002811461355f5761357b565b6001915050610a11565b60ff84111561357057613570613448565b50506001821b610a11565b5060208310610133831016604e8410600b841016171561359e575081810a610a11565b6135a883836134e0565b80600019048211156135bc576135bc613448565b029392505050565b600061166360ff841683613523565b7f416363657373436f6e74726f6c3a206163636f756e742000000000000000000081526000835161360b816017850160208801612fb2565b7f206973206d697373696e6720726f6c65200000000000000000000000000000006017918401918201528351613648816028840160208801612fb2565b01602801949350505050565b60008161366357613663613448565b506000190190565b7f4e487b7100000000000000000000000000000000000000000000000000000000600052603160045260246000fdfea2646970667358221220e33fb9d4494353d1b3775acb7a9dfbeaee3efb83b0c292a7f47f23103b0c6c4064736f6c63430008090033",
  "linkReferences": {},
  "deployedLinkReferences": {}
}