{
  "_format": "hh-sol-artifact-1",
  "contractName": "HubbleViewer",
  "sourceName": "contracts/HubbleViewer.sol",
  "abi": [
    {
      "inputs": [
        {
          "internalType": "address",
          "name": "_clearingHouse",
          "type": "address"
        },
        {
          "internalType": "address",
          "name": "_marginAccount",
          "type": "address"
        },
        {
          "internalType": "address",
          "name": "_registry",
          "type": "address"
        }
      ],
      "stateMutability": "nonpayable",
      "type": "constructor"
    },
    {
      "inputs": [],
      "name": "clearingHouse",
      "outputs": [
        {
          "internalType": "contract IClearingHouse",
          "name": "",
          "type": "address"
        }
      ],
      "stateMutability": "view",
      "type": "function"
    },
    {
      "inputs": [
        {
          "internalType": "address",
          "name": "trader",
          "type": "address"
        }
      ],
      "name": "getAccountInfo",
      "outputs": [
        {
          "internalType": "int256",
          "name": "totalCollateral",
          "type": "int256"
        },
        {
          "internalType": "int256",
          "name": "freeMargin",
          "type": "int256"
        },
        {
          "internalType": "int256",
          "name": "marginFraction",
          "type": "int256"
        },
        {
          "internalType": "uint256",
          "name": "notionalPosition",
          "type": "uint256"
        },
        {
          "internalType": "int256",
          "name": "unrealizedPnl",
          "type": "int256"
        },
        {
          "internalType": "int256",
          "name": "marginFractionLiquidation",
          "type": "int256"
        }
      ],
      "stateMutability": "view",
      "type": "function"
    },
    {
      "inputs": [
        {
          "internalType": "uint256",
          "name": "quoteAssetQuantity",
          "type": "uint256"
        },
        {
          "internalType": "uint256",
          "name": "idx",
          "type": "uint256"
        },
        {
          "internalType": "bool",
          "name": "isLong",
          "type": "bool"
        }
      ],
      "name": "getBase",
      "outputs": [
        {
          "internalType": "int256",
          "name": "",
          "type": "int256"
        }
      ],
      "stateMutability": "view",
      "type": "function"
    },
    {
      "inputs": [
        {
          "internalType": "address[]",
          "name": "traders",
          "type": "address[]"
        }
      ],
      "name": "getMarginFractions",
      "outputs": [
        {
          "internalType": "int256[]",
          "name": "fractions",
          "type": "int256[]"
        }
      ],
      "stateMutability": "view",
      "type": "function"
    },
    {
      "inputs": [
        {
          "internalType": "address",
          "name": "trader",
          "type": "address"
        }
      ],
      "name": "getMarkPriceBasedPnl",
      "outputs": [
        {
          "internalType": "uint256",
          "name": "notionalPosition",
          "type": "uint256"
        },
        {
          "internalType": "int256",
          "name": "unrealizedPnl",
          "type": "int256"
        }
      ],
      "stateMutability": "view",
      "type": "function"
    },
    {
      "inputs": [
        {
          "internalType": "address[]",
          "name": "traders",
          "type": "address[]"
        }
      ],
      "name": "getPendingFundings",
      "outputs": [
        {
          "internalType": "int256[][]",
          "name": "takerFundings",
          "type": "int256[][]"
        }
      ],
      "stateMutability": "view",
      "type": "function"
    },
    {
      "inputs": [
        {
          "internalType": "int256",
          "name": "baseAssetQuantity",
          "type": "int256"
        },
        {
          "internalType": "uint256",
          "name": "idx",
          "type": "uint256"
        }
      ],
      "name": "getQuote",
      "outputs": [
        {
          "internalType": "uint256",
          "name": "quoteAssetQuantity",
          "type": "uint256"
        }
      ],
      "stateMutability": "view",
      "type": "function"
    },
    {
      "inputs": [],
      "name": "marginAccount",
      "outputs": [
        {
          "internalType": "contract IMarginAccount",
          "name": "",
          "type": "address"
        }
      ],
      "stateMutability": "view",
      "type": "function"
    },
    {
      "inputs": [
        {
          "internalType": "address[]",
          "name": "traders",
          "type": "address[]"
        }
      ],
      "name": "marginAccountLiquidatationStatus",
      "outputs": [
        {
          "internalType": "enum IMarginAccount.LiquidationStatus[]",
          "name": "isLiquidatable",
          "type": "uint8[]"
        },
        {
          "internalType": "uint256[]",
          "name": "repayAmount",
          "type": "uint256[]"
        },
        {
          "internalType": "uint256[]",
          "name": "incentivePerDollar",
          "type": "uint256[]"
        }
      ],
      "stateMutability": "view",
      "type": "function"
    },
    {
      "inputs": [],
      "name": "markets",
      "outputs": [
        {
          "components": [
            {
              "internalType": "address",
              "name": "amm",
              "type": "address"
            },
            {
              "internalType": "address",
              "name": "underlying",
              "type": "address"
            }
          ],
          "internalType": "struct HubbleViewer.MarketInfo[]",
          "name": "_markets",
          "type": "tuple[]"
        }
      ],
      "stateMutability": "view",
      "type": "function"
    },
    {
      "inputs": [],
      "name": "registry",
      "outputs": [
        {
          "internalType": "address",
          "name": "",
          "type": "address"
        }
      ],
      "stateMutability": "view",
      "type": "function"
    },
    {
      "inputs": [
        {
          "internalType": "address",
          "name": "trader",
          "type": "address"
        }
      ],
      "name": "userInfo",
      "outputs": [
        {
          "internalType": "int256[]",
          "name": "",
          "type": "int256[]"
        }
      ],
      "stateMutability": "view",
      "type": "function"
    },
    {
      "inputs": [
        {
          "internalType": "address",
          "name": "trader",
          "type": "address"
        }
      ],
      "name": "userPositions",
      "outputs": [
        {
          "components": [
            {
              "internalType": "int256",
              "name": "size",
              "type": "int256"
            },
            {
              "internalType": "uint256",
              "name": "openNotional",
              "type": "uint256"
            },
            {
              "internalType": "int256",
              "name": "unrealizedPnl",
              "type": "int256"
            },
            {
              "internalType": "uint256",
              "name": "avgOpen",
              "type": "uint256"
            },
            {
              "internalType": "int256",
              "name": "funding",
              "type": "int256"
            }
          ],
          "internalType": "struct HubbleViewer.Position[]",
          "name": "positions",
          "type": "tuple[]"
        }
      ],
      "stateMutability": "view",
      "type": "function"
    }
  ],
  "bytecode": "0x60e06040523480156200001157600080fd5b50604051620028ac380380620028ac83398101604081905262000034916200006f565b6001600160a01b0392831660805290821660a0521660c052620000b9565b80516001600160a01b03811681146200006a57600080fd5b919050565b6000806000606084860312156200008557600080fd5b620000908462000052565b9250620000a06020850162000052565b9150620000b06040850162000052565b90509250925092565b60805160a05160c0516127316200017b60003960006101b70152600081816102a7015281816102cf015281816104c2015281816105bb015281816112d401528181611398015261166c01526000818160e9015281816103fa01528181610672015281816107ae0152818161093901528181610a9301528181610dee01528181610ecc015281816110420152818161112e015281816112120152818161148201528181611850015281816119a101528181611b370152611d5501526127316000f3fe608060405234801561001057600080fd5b50600436106100df5760003560e01c80637b510fe81161008c578063a1da781811610066578063a1da78181461024e578063c51fbbe41461026f578063c724ce181461028f578063f742269d146102a257600080fd5b80637b510fe8146101d957806380fccb4c14610219578063929e0c731461022c57600080fd5b8063613cf420116100bd578063613cf4201461016a578063797c96ce1461018a5780637b103999146101b257600080fd5b80630af96800146100e45780631959a002146101355780633ac2a03214610155575b600080fd5b61010b7f000000000000000000000000000000000000000000000000000000000000000081565b60405173ffffffffffffffffffffffffffffffffffffffff90911681526020015b60405180910390f35b610148610143366004611fe8565b6102c9565b60405161012c9190612005565b61015d61066c565b60405161012c9190612049565b61017d610178366004611fe8565b610933565b60405161012c91906120b2565b61019d610198366004611fe8565b610de7565b6040805192835260208301919091520161012c565b61010b7f000000000000000000000000000000000000000000000000000000000000000081565b6101ec6101e7366004611fe8565b611037565b604080519687526020870195909552938501929092526060840152608083015260a082015260c00161012c565b610148610227366004612113565b61142d565b61023f61023a366004612113565b61158c565b60405161012c939291906121f2565b61026161025c36600461226e565b611807565b60405190815260200161012c565b61028261027d366004612113565b61199b565b60405161012c91906122ac565b61026161029d366004612354565b611d0c565b61010b7f000000000000000000000000000000000000000000000000000000000000000081565b606060007f000000000000000000000000000000000000000000000000000000000000000073ffffffffffffffffffffffffffffffffffffffff166381d6dd8b6040518163ffffffff1660e01b815260040160206040518083038186803b15801561033357600080fd5b505afa158015610347573d6000803e3d6000fd5b505050506040513d601f19601f8201168201806040525081019061036b9190612376565b905060008167ffffffffffffffff8111156103885761038861238f565b6040519080825280602002602001820160405280156103b1578160200160208202803683370190505b506040517fe239e84000000000000000000000000000000000000000000000000000000000815273ffffffffffffffffffffffffffffffffffffffff86811660048301529192507f00000000000000000000000000000000000000000000000000000000000000009091169063e239e8409060240160206040518083038186803b15801561043e57600080fd5b505afa158015610452573d6000803e3d6000fd5b505050506040513d601f19601f820116820180604052508101906104769190612376565b6040517f873490ea0000000000000000000000000000000000000000000000000000000081526000600482015273ffffffffffffffffffffffffffffffffffffffff86811660248301527f0000000000000000000000000000000000000000000000000000000000000000169063873490ea9060440160206040518083038186803b15801561050457600080fd5b505afa158015610518573d6000803e3d6000fd5b505050506040513d601f19601f8201168201806040525081019061053c9190612376565b61054691906123ed565b8160008151811061055957610559612461565b602090810291909101015260015b82811015610664576040517f873490ea0000000000000000000000000000000000000000000000000000000081526004810182905273ffffffffffffffffffffffffffffffffffffffff86811660248301527f0000000000000000000000000000000000000000000000000000000000000000169063873490ea9060440160206040518083038186803b1580156105fd57600080fd5b505afa158015610611573d6000803e3d6000fd5b505050506040513d601f19601f820116820180604052508101906106359190612376565b82828151811061064757610647612461565b60209081029190910101528061065c81612490565b915050610567565b509392505050565b606060007f000000000000000000000000000000000000000000000000000000000000000073ffffffffffffffffffffffffffffffffffffffff166321db76ff6040518163ffffffff1660e01b815260040160206040518083038186803b1580156106d657600080fd5b505afa1580156106ea573d6000803e3d6000fd5b505050506040513d601f19601f8201168201806040525081019061070e9190612376565b90508067ffffffffffffffff8111156107295761072961238f565b60405190808252806020026020018201604052801561076e57816020015b60408051808201909152600080825260208201528152602001906001900390816107475790505b50915060005b8181101561092e576040517f86a8cdbc000000000000000000000000000000000000000000000000000000008152600481018290526000907f000000000000000000000000000000000000000000000000000000000000000073ffffffffffffffffffffffffffffffffffffffff16906386a8cdbc9060240160206040518083038186803b15801561080557600080fd5b505afa158015610819573d6000803e3d6000fd5b505050506040513d601f19601f8201168201806040525081019061083d91906124c9565b905060405180604001604052808273ffffffffffffffffffffffffffffffffffffffff1681526020018273ffffffffffffffffffffffffffffffffffffffff16637158da7c6040518163ffffffff1660e01b815260040160206040518083038186803b1580156108ac57600080fd5b505afa1580156108c0573d6000803e3d6000fd5b505050506040513d601f19601f820116820180604052508101906108e491906124c9565b73ffffffffffffffffffffffffffffffffffffffff1681525084838151811061090f5761090f612461565b602002602001018190525050808061092690612490565b915050610774565b505090565b606060007f000000000000000000000000000000000000000000000000000000000000000073ffffffffffffffffffffffffffffffffffffffff166321db76ff6040518163ffffffff1660e01b815260040160206040518083038186803b15801561099d57600080fd5b505afa1580156109b1573d6000803e3d6000fd5b505050506040513d601f19601f820116820180604052508101906109d59190612376565b90508067ffffffffffffffff8111156109f0576109f061238f565b604051908082528060200260200182016040528015610a5357816020015b610a406040518060a0016040528060008152602001600081526020016000815260200160008152602001600081525090565b815260200190600190039081610a0e5790505b50915060005b81811015610de0576040517f86a8cdbc000000000000000000000000000000000000000000000000000000008152600481018290526000907f000000000000000000000000000000000000000000000000000000000000000073ffffffffffffffffffffffffffffffffffffffff16906386a8cdbc9060240160206040518083038186803b158015610aea57600080fd5b505afa158015610afe573d6000803e3d6000fd5b505050506040513d601f19601f82011682018060405250810190610b2291906124c9565b6040517f55f5751000000000000000000000000000000000000000000000000000000000815273ffffffffffffffffffffffffffffffffffffffff8781166004830152919250908216906355f575109060240160806040518083038186803b158015610b8d57600080fd5b505afa158015610ba1573d6000803e3d6000fd5b505050506040513d601f19601f82011682018060405250810190610bc591906124e6565b905050858481518110610bda57610bda612461565b6020026020010151600001868581518110610bf757610bf7612461565b602002602001015160200182815250828152505050838281518110610c1e57610c1e612461565b60200260200101516000015160001415610c7f576000848381518110610c4657610c46612461565b602002602001015160400181815250506000848381518110610c6a57610c6a612461565b60200260200101516060018181525050610dcd565b6040517f16f086b700000000000000000000000000000000000000000000000000000000815273ffffffffffffffffffffffffffffffffffffffff86811660048301528216906316f086b790602401604080518083038186803b158015610ce557600080fd5b505afa158015610cf9573d6000803e3d6000fd5b505050506040513d601f19601f82011682018060405250810190610d1d919061251c565b9050848381518110610d3157610d31612461565b60200260200101516040018181525050610d6f610d6a858481518110610d5957610d59612461565b602002602001015160000151611e80565b611ea0565b848381518110610d8157610d81612461565b602002602001015160200151670de0b6b3a7640000610da09190612540565b610daa919061257d565b848381518110610dbc57610dbc612461565b602002602001015160600181815250505b5080610dd881612490565b915050610a59565b5050919050565b60008060007f000000000000000000000000000000000000000000000000000000000000000073ffffffffffffffffffffffffffffffffffffffff166321db76ff6040518163ffffffff1660e01b815260040160206040518083038186803b158015610e5257600080fd5b505afa158015610e66573d6000803e3d6000fd5b505050506040513d601f19601f82011682018060405250810190610e8a9190612376565b905060008060005b8381101561102e576040517f86a8cdbc000000000000000000000000000000000000000000000000000000008152600481018290526000907f000000000000000000000000000000000000000000000000000000000000000073ffffffffffffffffffffffffffffffffffffffff16906386a8cdbc9060240160206040518083038186803b158015610f2357600080fd5b505afa158015610f37573d6000803e3d6000fd5b505050506040513d601f19601f82011682018060405250810190610f5b91906124c9565b6040517f16f086b700000000000000000000000000000000000000000000000000000000815273ffffffffffffffffffffffffffffffffffffffff8a81166004830152919250908216906316f086b790602401604080518083038186803b158015610fc557600080fd5b505afa158015610fd9573d6000803e3d6000fd5b505050506040513d601f19601f82011682018060405250810190610ffd919061251c565b909450925061100c84886125b8565b965061101883876125d0565b955050808061102690612490565b915050610e92565b50505050915091565b6000806000806000807f000000000000000000000000000000000000000000000000000000000000000073ffffffffffffffffffffffffffffffffffffffff16633be4a5b3886001806040518463ffffffff1660e01b815260040161109e93929190612644565b60206040518083038186803b1580156110b657600080fd5b505afa1580156110ca573d6000803e3d6000fd5b505050506040513d601f19601f820116820180604052508101906110ee9190612376565b6040517f3be4a5b300000000000000000000000000000000000000000000000000000000815290945073ffffffffffffffffffffffffffffffffffffffff7f00000000000000000000000000000000000000000000000000000000000000001690633be4a5b390611169908a90600190600090600401612644565b60206040518083038186803b15801561118157600080fd5b505afa158015611195573d6000803e3d6000fd5b505050506040513d601f19601f820116820180604052508101906111b99190612376565b90506111c487610de7565b6040517fe239e84000000000000000000000000000000000000000000000000000000000815273ffffffffffffffffffffffffffffffffffffffff8a811660048301529295509093506000917f0000000000000000000000000000000000000000000000000000000000000000169063e239e8409060240160206040518083038186803b15801561125457600080fd5b505afa158015611268573d6000803e3d6000fd5b505050506040513d601f19601f8201168201806040525081019061128c9190612376565b6040517fc1c7c9dd00000000000000000000000000000000000000000000000000000000815273ffffffffffffffffffffffffffffffffffffffff8a811660048301529192507f00000000000000000000000000000000000000000000000000000000000000009091169063c1c7c9dd9060240160206040518083038186803b15801561131857600080fd5b505afa15801561132c573d6000803e3d6000fd5b505050506040513d601f19601f820116820180604052508101906113509190612376565b6040517fe2c9713b00000000000000000000000000000000000000000000000000000000815273ffffffffffffffffffffffffffffffffffffffff8a811660048301529197507f00000000000000000000000000000000000000000000000000000000000000009091169063e2c9713b90602401604080518083038186803b1580156113db57600080fd5b505afa1580156113ef573d6000803e3d6000fd5b505050506040513d601f19601f82011682018060405250810190611413919061251c565b9750611421905081886123ed565b96505091939550919395565b6060818067ffffffffffffffff8111156114495761144961238f565b604051908082528060200260200182016040528015611472578160200160208202803683370190505b50915060005b81811015611584577f000000000000000000000000000000000000000000000000000000000000000073ffffffffffffffffffffffffffffffffffffffff16633be4a5b38686848181106114ce576114ce612461565b90506020020160208101906114e39190611fe8565b600160006040518463ffffffff1660e01b815260040161150593929190612644565b60206040518083038186803b15801561151d57600080fd5b505afa158015611531573d6000803e3d6000fd5b505050506040513d601f19601f820116820180604052508101906115559190612376565b83828151811061156757611567612461565b60209081029190910101528061157c81612490565b915050611478565b505092915050565b606080808367ffffffffffffffff8111156115a9576115a961238f565b6040519080825280602002602001820160405280156115d2578160200160208202803683370190505b5092508367ffffffffffffffff8111156115ee576115ee61238f565b604051908082528060200260200182016040528015611617578160200160208202803683370190505b5091508367ffffffffffffffff8111156116335761163361238f565b60405190808252806020026020018201604052801561165c578160200160208202803683370190505b50905060005b848110156117ff577f000000000000000000000000000000000000000000000000000000000000000073ffffffffffffffffffffffffffffffffffffffff1663500b22658787848181106116b8576116b8612461565b90506020020160208101906116cd9190611fe8565b6040517fffffffff0000000000000000000000000000000000000000000000000000000060e084901b16815273ffffffffffffffffffffffffffffffffffffffff90911660048201526001602482015260440160606040518083038186803b15801561173857600080fd5b505afa15801561174c573d6000803e3d6000fd5b505050506040513d601f19601f820116820180604052508101906117709190612687565b86848151811061178257611782612461565b6020026020010186858151811061179b5761179b612461565b602002602001018686815181106117b4576117b4612461565b6020026020010183815250838152508360038111156117d5576117d5612188565b60038111156117e6576117e6612188565b81525050505080806117f790612490565b915050611662565b509250925092565b6040517f86a8cdbc00000000000000000000000000000000000000000000000000000000815260048101839052600090819073ffffffffffffffffffffffffffffffffffffffff7f000000000000000000000000000000000000000000000000000000000000000016906386a8cdbc9060240160206040518083038186803b15801561189257600080fd5b505afa1580156118a6573d6000803e3d6000fd5b505050506040513d601f19601f820116820180604052508101906118ca91906124c9565b905060008173ffffffffffffffffffffffffffffffffffffffff1663053f14da6040518163ffffffff1660e01b815260040160206040518083038186803b15801561191457600080fd5b505afa158015611928573d6000803e3d6000fd5b505050506040513d601f19601f8201168201806040525081019061194c9190612376565b611959620f424088612540565b611963919061257d565b9050831561197d5761197481611f11565b92505050611994565b61198681611f11565b61198f906126c2565b925050505b9392505050565b606060007f000000000000000000000000000000000000000000000000000000000000000073ffffffffffffffffffffffffffffffffffffffff166321db76ff6040518163ffffffff1660e01b815260040160206040518083038186803b158015611a0557600080fd5b505afa158015611a19573d6000803e3d6000fd5b505050506040513d601f19601f82011682018060405250810190611a3d9190612376565b9050828067ffffffffffffffff811115611a5957611a5961238f565b604051908082528060200260200182016040528015611a8c57816020015b6060815260200190600190039081611a775790505b50925060005b81811015611d03578267ffffffffffffffff811115611ab357611ab361238f565b604051908082528060200260200182016040528015611adc578160200160208202803683370190505b50848281518110611aef57611aef612461565b602002602001018190525060005b83811015611cf0576040517f86a8cdbc000000000000000000000000000000000000000000000000000000008152600481018290526000907f000000000000000000000000000000000000000000000000000000000000000073ffffffffffffffffffffffffffffffffffffffff16906386a8cdbc9060240160206040518083038186803b158015611b8e57600080fd5b505afa158015611ba2573d6000803e3d6000fd5b505050506040513d601f19601f82011682018060405250810190611bc691906124c9565b90508073ffffffffffffffffffffffffffffffffffffffff1663b72e1b48898986818110611bf657611bf6612461565b9050602002016020810190611c0b9190611fe8565b6040517fffffffff0000000000000000000000000000000000000000000000000000000060e084901b16815273ffffffffffffffffffffffffffffffffffffffff9091166004820152602401604080518083038186803b158015611c6e57600080fd5b505afa158015611c82573d6000803e3d6000fd5b505050506040513d601f19601f82011682018060405250810190611ca6919061251c565b50868481518110611cb957611cb9612461565b60200260200101518381518110611cd257611cd2612461565b60209081029190910101525080611ce881612490565b915050611afd565b5080611cfb81612490565b915050611a92565b50505092915050565b6040517f86a8cdbc00000000000000000000000000000000000000000000000000000000815260048101829052600090819073ffffffffffffffffffffffffffffffffffffffff7f000000000000000000000000000000000000000000000000000000000000000016906386a8cdbc9060240160206040518083038186803b158015611d9757600080fd5b505afa158015611dab573d6000803e3d6000fd5b505050506040513d601f19601f82011682018060405250810190611dcf91906124c9565b9050670de0b6b3a76400008173ffffffffffffffffffffffffffffffffffffffff1663053f14da6040518163ffffffff1660e01b815260040160206040518083038186803b158015611e2057600080fd5b505afa158015611e34573d6000803e3d6000fd5b505050506040513d601f19601f82011682018060405250810190611e589190612376565b611e64610d6a87611e80565b611e6e9190612540565b611e78919061257d565b949350505050565b600080821215611e9857611e93826126c2565b611e9a565b815b92915050565b600080821215611e98576040517f08c379a000000000000000000000000000000000000000000000000000000000815260206004820181905260248201527f53616665436173743a2076616c7565206d75737420626520706f73697469766560448201526064015b60405180910390fd5b60007f7fffffffffffffffffffffffffffffffffffffffffffffffffffffffffffffff821115611e98576040517f08c379a000000000000000000000000000000000000000000000000000000000815260206004820152602860248201527f53616665436173743a2076616c756520646f65736e27742066697420696e206160448201527f6e20696e743235360000000000000000000000000000000000000000000000006064820152608401611f08565b73ffffffffffffffffffffffffffffffffffffffff81168114611fe557600080fd5b50565b600060208284031215611ffa57600080fd5b813561199481611fc3565b6020808252825182820181905260009190848201906040850190845b8181101561203d57835183529284019291840191600101612021565b50909695505050505050565b602080825282518282018190526000919060409081850190868401855b828110156120a5578151805173ffffffffffffffffffffffffffffffffffffffff90811686529087015116868501529284019290850190600101612066565b5091979650505050505050565b602080825282518282018190526000919060409081850190868401855b828110156120a55781518051855286810151878601528581015186860152606080820151908601526080908101519085015260a090930192908501906001016120cf565b6000806020838503121561212657600080fd5b823567ffffffffffffffff8082111561213e57600080fd5b818501915085601f83011261215257600080fd5b81358181111561216157600080fd5b8660208260051b850101111561217657600080fd5b60209290920196919550909350505050565b7f4e487b7100000000000000000000000000000000000000000000000000000000600052602160045260246000fd5b600081518084526020808501945080840160005b838110156121e7578151875295820195908201906001016121cb565b509495945050505050565b606080825284519082018190526000906020906080840190828801845b8281101561223b5781516004811061222957612229612188565b8452928401929084019060010161220f565b5050508381038285015261224f81876121b7565b915050828103604084015261226481856121b7565b9695505050505050565b60008060006060848603121561228357600080fd5b8335925060208401359150604084013580151581146122a157600080fd5b809150509250925092565b6000602080830181845280855180835260408601915060408160051b87010192508387016000805b83811015612346578886037fffffffffffffffffffffffffffffffffffffffffffffffffffffffffffffffc0018552825180518088529088019088880190845b818110156123305783518352928a0192918a0191600101612314565b50909750505093860193918601916001016122d4565b509398975050505050505050565b6000806040838503121561236757600080fd5b50508035926020909101359150565b60006020828403121561238857600080fd5b5051919050565b7f4e487b7100000000000000000000000000000000000000000000000000000000600052604160045260246000fd5b7f4e487b7100000000000000000000000000000000000000000000000000000000600052601160045260246000fd5b6000808312837f800000000000000000000000000000000000000000000000000000000000000001831281151615612427576124276123be565b837f7fffffffffffffffffffffffffffffffffffffffffffffffffffffffffffffff01831381161561245b5761245b6123be565b50500390565b7f4e487b7100000000000000000000000000000000000000000000000000000000600052603260045260246000fd5b60007fffffffffffffffffffffffffffffffffffffffffffffffffffffffffffffffff8214156124c2576124c26123be565b5060010190565b6000602082840312156124db57600080fd5b815161199481611fc3565b600080600080608085870312156124fc57600080fd5b505082516020840151604085015160609095015191969095509092509050565b6000806040838503121561252f57600080fd5b505080516020909101519092909150565b6000817fffffffffffffffffffffffffffffffffffffffffffffffffffffffffffffffff0483118215151615612578576125786123be565b500290565b6000826125b3577f4e487b7100000000000000000000000000000000000000000000000000000000600052601260045260246000fd5b500490565b600082198211156125cb576125cb6123be565b500190565b6000808212827f7fffffffffffffffffffffffffffffffffffffffffffffffffffffffffffffff0384138115161561260a5761260a6123be565b827f800000000000000000000000000000000000000000000000000000000000000003841281161561263e5761263e6123be565b50500190565b73ffffffffffffffffffffffffffffffffffffffff841681528215156020820152606081016002831061267957612679612188565b826040830152949350505050565b60008060006060848603121561269c57600080fd5b8351600481106126ab57600080fd5b602085015160409095015190969495509392505050565b60007f80000000000000000000000000000000000000000000000000000000000000008214156126f4576126f46123be565b506000039056fea26469706673582212202c43558eeeca3b0608b30dbdbe964cf7aa801c2c16ea63f43b63e722537652c464736f6c63430008090033",
  "linkReferences": {},
  "deployedLinkReferences": {}
}