{
  "_format": "hh-sol-artifact-1",
  "contractName": "ImmediateOrCancelOrders",
  "sourceName": "contracts/orderbooks/ImmediateOrCancelOrders.sol",
  "abi": [
    {
      "inputs": [
        {
          "internalType": "address",
          "name": "_trustedForwarder",
          "type": "address"
        }
      ],
      "stateMutability": "nonpayable",
      "type": "constructor"
    },
    {
      "anonymous": false,
      "inputs": [
        {
          "indexed": false,
          "internalType": "uint8",
          "name": "version",
          "type": "uint8"
        }
      ],
      "name": "Initialized",
      "type": "event"
    },
    {
      "anonymous": false,
      "inputs": [
        {
          "indexed": true,
          "internalType": "address",
          "name": "trader",
          "type": "address"
        },
        {
          "indexed": true,
          "internalType": "bytes32",
          "name": "orderHash",
          "type": "bytes32"
        },
        {
          "components": [
            {
              "internalType": "uint8",
              "name": "orderType",
              "type": "uint8"
            },
            {
              "internalType": "uint256",
              "name": "expireAt",
              "type": "uint256"
            },
            {
              "internalType": "uint256",
              "name": "ammIndex",
              "type": "uint256"
            },
            {
              "internalType": "address",
              "name": "trader",
              "type": "address"
            },
            {
              "internalType": "int256",
              "name": "baseAssetQuantity",
              "type": "int256"
            },
            {
              "internalType": "uint256",
              "name": "price",
              "type": "uint256"
            },
            {
              "internalType": "uint256",
              "name": "salt",
              "type": "uint256"
            },
            {
              "internalType": "bool",
              "name": "reduceOnly",
              "type": "bool"
            }
          ],
          "indexed": false,
          "internalType": "struct IImmediateOrCancelOrders.Order",
          "name": "order",
          "type": "tuple"
        },
        {
          "indexed": false,
          "internalType": "uint256",
          "name": "timestamp",
          "type": "uint256"
        }
      ],
      "name": "OrderAccepted",
      "type": "event"
    },
    {
      "anonymous": false,
      "inputs": [
        {
          "indexed": true,
          "internalType": "address",
          "name": "trader",
          "type": "address"
        },
        {
          "indexed": true,
          "internalType": "bytes32",
          "name": "orderHash",
          "type": "bytes32"
        },
        {
          "components": [
            {
              "internalType": "uint8",
              "name": "orderType",
              "type": "uint8"
            },
            {
              "internalType": "uint256",
              "name": "expireAt",
              "type": "uint256"
            },
            {
              "internalType": "uint256",
              "name": "ammIndex",
              "type": "uint256"
            },
            {
              "internalType": "address",
              "name": "trader",
              "type": "address"
            },
            {
              "internalType": "int256",
              "name": "baseAssetQuantity",
              "type": "int256"
            },
            {
              "internalType": "uint256",
              "name": "price",
              "type": "uint256"
            },
            {
              "internalType": "uint256",
              "name": "salt",
              "type": "uint256"
            },
            {
              "internalType": "bool",
              "name": "reduceOnly",
              "type": "bool"
            }
          ],
          "indexed": false,
          "internalType": "struct IImmediateOrCancelOrders.Order",
          "name": "order",
          "type": "tuple"
        },
        {
          "indexed": false,
          "internalType": "uint256",
          "name": "timestamp",
          "type": "uint256"
        },
        {
          "indexed": false,
          "internalType": "string",
          "name": "err",
          "type": "string"
        }
      ],
      "name": "OrderRejected",
      "type": "event"
    },
    {
      "anonymous": false,
      "inputs": [
        {
          "indexed": false,
          "internalType": "address",
          "name": "account",
          "type": "address"
        }
      ],
      "name": "Paused",
      "type": "event"
    },
    {
      "anonymous": false,
      "inputs": [
        {
          "indexed": false,
          "internalType": "address",
          "name": "account",
          "type": "address"
        }
      ],
      "name": "Unpaused",
      "type": "event"
    },
    {
      "inputs": [],
      "name": "defaultOrderBook",
      "outputs": [
        {
          "internalType": "address",
          "name": "",
          "type": "address"
        }
      ],
      "stateMutability": "view",
      "type": "function"
    },
    {
      "inputs": [],
      "name": "expirationCap",
      "outputs": [
        {
          "internalType": "uint256",
          "name": "",
          "type": "uint256"
        }
      ],
      "stateMutability": "view",
      "type": "function"
    },
    {
      "inputs": [
        {
          "components": [
            {
              "internalType": "uint8",
              "name": "orderType",
              "type": "uint8"
            },
            {
              "internalType": "uint256",
              "name": "expireAt",
              "type": "uint256"
            },
            {
              "internalType": "uint256",
              "name": "ammIndex",
              "type": "uint256"
            },
            {
              "internalType": "address",
              "name": "trader",
              "type": "address"
            },
            {
              "internalType": "int256",
              "name": "baseAssetQuantity",
              "type": "int256"
            },
            {
              "internalType": "uint256",
              "name": "price",
              "type": "uint256"
            },
            {
              "internalType": "uint256",
              "name": "salt",
              "type": "uint256"
            },
            {
              "internalType": "bool",
              "name": "reduceOnly",
              "type": "bool"
            }
          ],
          "internalType": "struct IImmediateOrCancelOrders.Order",
          "name": "order",
          "type": "tuple"
        }
      ],
      "name": "getOrderHash",
      "outputs": [
        {
          "internalType": "bytes32",
          "name": "",
          "type": "bytes32"
        }
      ],
      "stateMutability": "pure",
      "type": "function"
    },
    {
      "inputs": [],
      "name": "governance",
      "outputs": [
        {
          "internalType": "address",
          "name": "",
          "type": "address"
        }
      ],
      "stateMutability": "view",
      "type": "function"
    },
    {
      "inputs": [
        {
          "internalType": "address",
          "name": "_governance",
          "type": "address"
        },
        {
          "internalType": "address",
          "name": "_defaultOrderBook",
          "type": "address"
        },
        {
          "internalType": "address",
          "name": "_juror",
          "type": "address"
        }
      ],
      "name": "initialize",
      "outputs": [],
      "stateMutability": "nonpayable",
      "type": "function"
    },
    {
      "inputs": [
        {
          "internalType": "address",
          "name": "forwarder",
          "type": "address"
        }
      ],
      "name": "isTrustedForwarder",
      "outputs": [
        {
          "internalType": "bool",
          "name": "",
          "type": "bool"
        }
      ],
      "stateMutability": "view",
      "type": "function"
    },
    {
      "inputs": [],
      "name": "juror",
      "outputs": [
        {
          "internalType": "contract IJuror",
          "name": "",
          "type": "address"
        }
      ],
      "stateMutability": "view",
      "type": "function"
    },
    {
      "inputs": [
        {
          "internalType": "bytes32",
          "name": "",
          "type": "bytes32"
        }
      ],
      "name": "orderInfo",
      "outputs": [
        {
          "internalType": "uint256",
          "name": "blockPlaced",
          "type": "uint256"
        },
        {
          "internalType": "int256",
          "name": "filledAmount",
          "type": "int256"
        },
        {
          "internalType": "enum IOrderHandler.OrderStatus",
          "name": "status",
          "type": "uint8"
        }
      ],
      "stateMutability": "view",
      "type": "function"
    },
    {
      "inputs": [
        {
          "internalType": "bytes32",
          "name": "orderHash",
          "type": "bytes32"
        }
      ],
      "name": "orderStatus",
      "outputs": [
        {
          "components": [
            {
              "internalType": "uint256",
              "name": "blockPlaced",
              "type": "uint256"
            },
            {
              "internalType": "int256",
              "name": "filledAmount",
              "type": "int256"
            },
            {
              "internalType": "enum IOrderHandler.OrderStatus",
              "name": "status",
              "type": "uint8"
            }
          ],
          "internalType": "struct IImmediateOrCancelOrders.OrderInfo",
          "name": "",
          "type": "tuple"
        }
      ],
      "stateMutability": "view",
      "type": "function"
    },
    {
      "inputs": [],
      "name": "pause",
      "outputs": [],
      "stateMutability": "nonpayable",
      "type": "function"
    },
    {
      "inputs": [],
      "name": "paused",
      "outputs": [
        {
          "internalType": "bool",
          "name": "",
          "type": "bool"
        }
      ],
      "stateMutability": "view",
      "type": "function"
    },
    {
      "inputs": [
        {
          "components": [
            {
              "internalType": "uint8",
              "name": "orderType",
              "type": "uint8"
            },
            {
              "internalType": "uint256",
              "name": "expireAt",
              "type": "uint256"
            },
            {
              "internalType": "uint256",
              "name": "ammIndex",
              "type": "uint256"
            },
            {
              "internalType": "address",
              "name": "trader",
              "type": "address"
            },
            {
              "internalType": "int256",
              "name": "baseAssetQuantity",
              "type": "int256"
            },
            {
              "internalType": "uint256",
              "name": "price",
              "type": "uint256"
            },
            {
              "internalType": "uint256",
              "name": "salt",
              "type": "uint256"
            },
            {
              "internalType": "bool",
              "name": "reduceOnly",
              "type": "bool"
            }
          ],
          "internalType": "struct IImmediateOrCancelOrders.Order[]",
          "name": "orders",
          "type": "tuple[]"
        }
      ],
      "name": "placeOrders",
      "outputs": [],
      "stateMutability": "nonpayable",
      "type": "function"
    },
    {
      "inputs": [
        {
          "internalType": "uint256",
          "name": "_expirationCap",
          "type": "uint256"
        }
      ],
      "name": "setExpirationCap",
      "outputs": [],
      "stateMutability": "nonpayable",
      "type": "function"
    },
    {
      "inputs": [
        {
          "internalType": "address",
          "name": "__governance",
          "type": "address"
        }
      ],
      "name": "setGovernace",
      "outputs": [],
      "stateMutability": "nonpayable",
      "type": "function"
    },
    {
      "inputs": [
        {
          "internalType": "address",
          "name": "_juror",
          "type": "address"
        }
      ],
      "name": "setJuror",
      "outputs": [],
      "stateMutability": "nonpayable",
      "type": "function"
    },
    {
      "inputs": [],
      "name": "unpause",
      "outputs": [],
      "stateMutability": "nonpayable",
      "type": "function"
    },
    {
      "inputs": [
        {
          "internalType": "bytes",
          "name": "encodedOrder",
          "type": "bytes"
        },
        {
          "internalType": "bytes",
          "name": "metadata",
          "type": "bytes"
        }
      ],
      "name": "updateOrder",
      "outputs": [],
      "stateMutability": "nonpayable",
      "type": "function"
    }
  ],
  "bytecode": "0x60a060405234801561001057600080fd5b5060405161181038038061181083398101604081905261002f9161004d565b6000805460ff60b01b191690556001600160a01b031660805261007d565b60006020828403121561005f57600080fd5b81516001600160a01b038116811461007657600080fd5b9392505050565b60805161177161009f600039600081816101fb0152610fa901526117716000f3fe608060405234801561001057600080fd5b506004361061011b5760003560e01c80637f3c6b3f116100b2578063a0da683a11610081578063e20be0ed11610066578063e20be0ed146102ff578063fc5dda2414610312578063fdf6a6261461032557600080fd5b8063a0da683a146102d9578063c0c53b8b146102ec57600080fd5b80637f3c6b3f1461028b5780638456cb591461029e578063851e3ca5146102a657806397814b72146102b957600080fd5b80633f4ba83a116100ee5780633f4ba83a146101e1578063572b6c05146101eb5780635aa6e675146102485780635c975abb1461026657600080fd5b80631a12edf514610120578063238e203f1461016a5780632a35d6c4146101aa5780632dff692d146101c1575b600080fd5b6003546101409073ffffffffffffffffffffffffffffffffffffffff1681565b60405173ffffffffffffffffffffffffffffffffffffffff90911681526020015b60405180910390f35b61019b610178366004611053565b600160208190526000918252604090912080549181015460029091015460ff1683565b604051610161939291906110d6565b6101b360025481565b604051908152602001610161565b6101d46101cf366004611053565b610338565b60405161016191906110f9565b6101e96103a4565b005b6102386101f9366004611151565b7f000000000000000000000000000000000000000000000000000000000000000073ffffffffffffffffffffffffffffffffffffffff90811691161490565b6040519015158152602001610161565b60005473ffffffffffffffffffffffffffffffffffffffff16610140565b600054760100000000000000000000000000000000000000000000900460ff16610238565b6101e96102993660046111bc565b610434565b6101e9610565565b6101e96102b4366004611151565b6105ee565b6004546101409073ffffffffffffffffffffffffffffffffffffffff1681565b6101e96102e7366004611151565b6106b2565b6101e96102fa366004611228565b61077a565b6101e961030d366004611053565b6109d7565b6101b36103203660046112bb565b610a5d565b6101e961033336600461135d565b610afc565b610340611022565b60008281526001602081815260409283902083516060810185528154815292810154918301919091526002810154919290919083019060ff16600381111561038a5761038a61106c565b600381111561039b5761039b61106c565b90525092915050565b60005473ffffffffffffffffffffffffffffffffffffffff16331461042a576040517f08c379a000000000000000000000000000000000000000000000000000000000815260206004820152600f60248201527f4f4e4c595f474f5645524e414e4345000000000000000000000000000000000060448201526064015b60405180910390fd5b610432610d98565b565b60035473ffffffffffffffffffffffffffffffffffffffff1633146104b5576040517f08c379a000000000000000000000000000000000000000000000000000000000815260206004820152601660248201527f6f6e6c792064656661756c74206f72646572426f6f6b000000000000000000006044820152606401610421565b6000806104c4838501856113d2565b6000828152600160208190526040822001805493955091935083926104ea908490611423565b90915550600090506104fe868801886112bb565b608081015160008581526001602081905260409091200154919250141561055c576000838152600160205260409020600290810180547fffffffffffffffffffffffffffffffffffffffffffffffffffffffffffffff001690911790555b50505050505050565b60005473ffffffffffffffffffffffffffffffffffffffff1633146105e6576040517f08c379a000000000000000000000000000000000000000000000000000000000815260206004820152600f60248201527f4f4e4c595f474f5645524e414e434500000000000000000000000000000000006044820152606401610421565b610432610e1b565b60005473ffffffffffffffffffffffffffffffffffffffff16331461066f576040517f08c379a000000000000000000000000000000000000000000000000000000000815260206004820152600f60248201527f4f4e4c595f474f5645524e414e434500000000000000000000000000000000006044820152606401610421565b600080547fffffffffffffffffffffffff00000000000000000000000000000000000000001673ffffffffffffffffffffffffffffffffffffffff831617905550565b60005473ffffffffffffffffffffffffffffffffffffffff163314610733576040517f08c379a000000000000000000000000000000000000000000000000000000000815260206004820152600f60248201527f4f4e4c595f474f5645524e414e434500000000000000000000000000000000006044820152606401610421565b600480547fffffffffffffffffffffffff00000000000000000000000000000000000000001673ffffffffffffffffffffffffffffffffffffffff92909216919091179055565b6000547501000000000000000000000000000000000000000000900460ff16158080156107c5575060005460017401000000000000000000000000000000000000000090910460ff16105b806107f75750303b1580156107f7575060005474010000000000000000000000000000000000000000900460ff166001145b610883576040517f08c379a000000000000000000000000000000000000000000000000000000000815260206004820152602e60248201527f496e697469616c697a61626c653a20636f6e747261637420697320616c72656160448201527f647920696e697469616c697a65640000000000000000000000000000000000006064820152608401610421565b600080547fffffffffffffffffffffff00ffffffffffffffffffffffffffffffffffffffff1674010000000000000000000000000000000000000000179055801561090957600080547fffffffffffffffffffff00ffffffffffffffffffffffffffffffffffffffffff1675010000000000000000000000000000000000000000001790555b6000805473ffffffffffffffffffffffffffffffffffffffff8681167fffffffffffffffffffffffff00000000000000000000000000000000000000009283161790925560038054821686841617905560048054909116918416919091179055601460025580156109d157600080547fffffffffffffffffffff00ffffffffffffffffffffffffffffffffffffffffff169055604051600181527f7f26b83ff96e1f2b6a682f133852f6798a09c465da95921460cefb38474024989060200160405180910390a15b50505050565b60005473ffffffffffffffffffffffffffffffffffffffff163314610a58576040517f08c379a000000000000000000000000000000000000000000000000000000000815260206004820152600f60248201527f4f4e4c595f474f5645524e414e434500000000000000000000000000000000006044820152606401610421565b600255565b600081604051602001610adf919060006101008201905060ff8351168252602083015160208301526040830151604083015273ffffffffffffffffffffffffffffffffffffffff60608401511660608301526080830151608083015260a083015160a083015260c083015160c083015260e0830151151560e083015292915050565b604051602081830303815290604052805190602001209050919050565b43426000606081610b0b610e89565b905060005b86811015610d8e576000888883818110610b2c57610b2c611497565b905061010002016060016020810190610b459190611151565b60045490915073ffffffffffffffffffffffffffffffffffffffff1663c5f37be68a8a85818110610b7857610b78611497565b90506101000201856040518363ffffffff1660e01b8152600401610b9d929190611544565b60006040518083038186803b158015610bb557600080fd5b505afa158015610bc9573d6000803e3d6000fd5b505050506040513d6000823e601f3d9081017fffffffffffffffffffffffffffffffffffffffffffffffffffffffffffffffe0168201604052610c0f91908101906115a3565b815190965090945015610c8d57848173ffffffffffffffffffffffffffffffffffffffff167ff1eae62b0225a704dcc8402916a7b4766ca59944f96fa5935ee6b8700917f8268b8b86818110610c6757610c67611497565b905061010002018988604051610c7f93929190611678565b60405180910390a350610d7c565b60408051606081018252888152600060208201529081016001905260008681526001602081815260409283902084518155908401518183015591830151600283018054919290917fffffffffffffffffffffffffffffffffffffffffffffffffffffffffffffff001690836003811115610d0957610d0961106c565b0217905550905050848173ffffffffffffffffffffffffffffffffffffffff167f6ee117b6cf7f00be55cf95ffb3cc7c2f73c4ad619142485f88a842b650e8d2868b8b86818110610d5c57610d5c611497565b9050610100020189604051610d729291906116e5565b60405180910390a3505b80610d8681611702565b915050610b10565b5050505050505050565b610da0610e98565b600080547fffffffffffffffffff00ffffffffffffffffffffffffffffffffffffffffffff1690557f5db9ee0a495bf2e6ff9c91a7834c1ba4fdd244a5e8aa4e537bd38aeae4b073aa610df1610e89565b60405173ffffffffffffffffffffffffffffffffffffffff909116815260200160405180910390a1565b610e23610f1e565b600080547fffffffffffffffffff00ffffffffffffffffffffffffffffffffffffffffffff167601000000000000000000000000000000000000000000001790557f62e78cea01bee320cd4e420270b5ea74000d11b0c9f74754ebdbfc544b05a258610df15b6000610e93610fa5565b905090565b600054760100000000000000000000000000000000000000000000900460ff16610432576040517f08c379a000000000000000000000000000000000000000000000000000000000815260206004820152601460248201527f5061757361626c653a206e6f74207061757365640000000000000000000000006044820152606401610421565b600054760100000000000000000000000000000000000000000000900460ff1615610432576040517f08c379a000000000000000000000000000000000000000000000000000000000815260206004820152601060248201527f5061757361626c653a20706175736564000000000000000000000000000000006044820152606401610421565b60007f000000000000000000000000000000000000000000000000000000000000000073ffffffffffffffffffffffffffffffffffffffff1633148015610fed575060143610155b1561101d57507fffffffffffffffffffffffffffffffffffffffffffffffffffffffffffffffec36013560601c90565b503390565b604051806060016040528060008152602001600081526020016000600381111561104e5761104e61106c565b905290565b60006020828403121561106557600080fd5b5035919050565b7f4e487b7100000000000000000000000000000000000000000000000000000000600052602160045260246000fd5b600481106110d2577f4e487b7100000000000000000000000000000000000000000000000000000000600052602160045260246000fd5b9052565b83815260208101839052606081016110f1604083018461109b565b949350505050565b600060608201905082518252602083015160208301526040830151611121604084018261109b565b5092915050565b803573ffffffffffffffffffffffffffffffffffffffff8116811461114c57600080fd5b919050565b60006020828403121561116357600080fd5b61116c82611128565b9392505050565b60008083601f84011261118557600080fd5b50813567ffffffffffffffff81111561119d57600080fd5b6020830191508360208285010111156111b557600080fd5b9250929050565b600080600080604085870312156111d257600080fd5b843567ffffffffffffffff808211156111ea57600080fd5b6111f688838901611173565b9096509450602087013591508082111561120f57600080fd5b5061121c87828801611173565b95989497509550505050565b60008060006060848603121561123d57600080fd5b61124684611128565b925061125460208501611128565b915061126260408501611128565b90509250925092565b7f4e487b7100000000000000000000000000000000000000000000000000000000600052604160045260246000fd5b803560ff8116811461114c57600080fd5b8035801515811461114c57600080fd5b60006101008083850312156112cf57600080fd5b6040519081019067ffffffffffffffff821181831017156112f2576112f261126b565b816040526112ff8461129a565b8152602084013560208201526040840135604082015261132160608501611128565b60608201526080840135608082015260a084013560a082015260c084013560c082015261135060e085016112ab565b60e0820152949350505050565b6000806020838503121561137057600080fd5b823567ffffffffffffffff8082111561138857600080fd5b818501915085601f83011261139c57600080fd5b8135818111156113ab57600080fd5b8660208260081b85010111156113c057600080fd5b60209290920196919550909350505050565b600080604083850312156113e557600080fd5b50508035926020909101359150565b7f4e487b7100000000000000000000000000000000000000000000000000000000600052601160045260246000fd5b6000808212827f7fffffffffffffffffffffffffffffffffffffffffffffffffffffffffffffff0384138115161561145d5761145d6113f4565b827f8000000000000000000000000000000000000000000000000000000000000000038412811615611491576114916113f4565b50500190565b7f4e487b7100000000000000000000000000000000000000000000000000000000600052603260045260246000fd5b60ff6114d18261129a565b168252602081013560208301526040810135604083015273ffffffffffffffffffffffffffffffffffffffff61150960608301611128565b1660608301526080810135608083015260a081013560a083015260c081013560c083015261153960e082016112ab565b151560e08301525050565b610120810161155382856114c6565b73ffffffffffffffffffffffffffffffffffffffff83166101008301529392505050565b60005b8381101561159257818101518382015260200161157a565b838111156109d15750506000910152565b600080604083850312156115b657600080fd5b825167ffffffffffffffff808211156115ce57600080fd5b818501915085601f8301126115e257600080fd5b8151818111156115f4576115f461126b565b604051601f82017fffffffffffffffffffffffffffffffffffffffffffffffffffffffffffffffe0908116603f0116810190838211818310171561163a5761163a61126b565b8160405282815288602084870101111561165357600080fd5b611664836020830160208801611577565b602097909701519698969750505050505050565b600061014061168783876114c6565b84610100840152806101208401528351808285015261016091506116b18183860160208801611577565b601f017fffffffffffffffffffffffffffffffffffffffffffffffffffffffffffffffe01692909201909101949350505050565b61012081016116f482856114c6565b826101008301529392505050565b60007fffffffffffffffffffffffffffffffffffffffffffffffffffffffffffffffff821415611734576117346113f4565b506001019056fea2646970667358221220cc0588f5fc0439ce4f5b8a079683501c5a0d71892a20bc48fb5276249a6ffcc564736f6c63430008090033",
  "linkReferences": {},
  "deployedLinkReferences": {}
}