{
  "_format": "hh-sol-artifact-1",
  "contractName": "TestOracle",
  "sourceName": "contracts/tests/TestOracle.sol",
  "abi": [
    {
      "inputs": [
        {
          "internalType": "address",
          "name": "_governance",
          "type": "address"
        }
      ],
      "stateMutability": "nonpayable",
      "type": "constructor"
    },
    {
      "anonymous": false,
      "inputs": [
        {
          "indexed": false,
          "internalType": "address",
          "name": "underlying",
          "type": "address"
        },
        {
          "indexed": false,
          "internalType": "int256",
          "name": "price",
          "type": "int256"
        }
      ],
      "name": "MockUnderlyingPriceUpdated",
      "type": "event"
    },
    {
      "anonymous": false,
      "inputs": [
        {
          "indexed": false,
          "internalType": "address",
          "name": "underlying",
          "type": "address"
        },
        {
          "indexed": false,
          "internalType": "int256",
          "name": "price",
          "type": "int256"
        }
      ],
      "name": "MockUnderlyingTwapPriceUpdated",
      "type": "event"
    },
    {
      "inputs": [
        {
          "internalType": "address",
          "name": "",
          "type": "address"
        }
      ],
      "name": "aggregatorMap",
      "outputs": [
        {
          "internalType": "bytes32",
          "name": "redstoneFeedId",
          "type": "bytes32"
        },
        {
          "internalType": "address",
          "name": "aggregator",
          "type": "address"
        },
        {
          "internalType": "uint256",
          "name": "heartbeat",
          "type": "uint256"
        }
      ],
      "stateMutability": "view",
      "type": "function"
    },
    {
      "inputs": [
        {
          "internalType": "address",
          "name": "underlying",
          "type": "address"
        }
      ],
      "name": "getUnderlyingPrice",
      "outputs": [
        {
          "internalType": "int256",
          "name": "answer",
          "type": "int256"
        }
      ],
      "stateMutability": "view",
      "type": "function"
    },
    {
      "inputs": [],
      "name": "governance",
      "outputs": [
        {
          "internalType": "address",
          "name": "",
          "type": "address"
        }
      ],
      "stateMutability": "view",
      "type": "function"
    },
    {
      "inputs": [
        {
          "internalType": "address",
          "name": "",
          "type": "address"
        }
      ],
      "name": "isUpdater",
      "outputs": [
        {
          "internalType": "bool",
          "name": "",
          "type": "bool"
        }
      ],
      "stateMutability": "view",
      "type": "function"
    },
    {
      "inputs": [],
      "name": "redStoneAdapter",
      "outputs": [
        {
          "internalType": "address",
          "name": "",
          "type": "address"
        }
      ],
      "stateMutability": "view",
      "type": "function"
    },
    {
      "inputs": [
        {
          "internalType": "address",
          "name": "underlying",
          "type": "address"
        },
        {
          "internalType": "address",
          "name": "aggregator",
          "type": "address"
        },
        {
          "internalType": "uint256",
          "name": "heartbeat",
          "type": "uint256"
        },
        {
          "internalType": "bytes32",
          "name": "redstoneFeedId",
          "type": "bytes32"
        }
      ],
      "name": "setAggregator",
      "outputs": [],
      "stateMutability": "nonpayable",
      "type": "function"
    },
    {
      "inputs": [
        {
          "internalType": "address",
          "name": "__governance",
          "type": "address"
        }
      ],
      "name": "setGovernace",
      "outputs": [],
      "stateMutability": "nonpayable",
      "type": "function"
    },
    {
      "inputs": [
        {
          "internalType": "address",
          "name": "_redStoneAdapter",
          "type": "address"
        }
      ],
      "name": "setRedStoneAdapterAddress",
      "outputs": [],
      "stateMutability": "nonpayable",
      "type": "function"
    },
    {
      "inputs": [
        {
          "internalType": "address",
          "name": "underlying",
          "type": "address"
        },
        {
          "internalType": "int256",
          "name": "_price",
          "type": "int256"
        }
      ],
      "name": "setUnderlyingPrice",
      "outputs": [],
      "stateMutability": "nonpayable",
      "type": "function"
    },
    {
      "inputs": [
        {
          "internalType": "address",
          "name": "updater",
          "type": "address"
        },
        {
          "internalType": "bool",
          "name": "enabled",
          "type": "bool"
        }
      ],
      "name": "setUpdater",
      "outputs": [],
      "stateMutability": "nonpayable",
      "type": "function"
    }
  ],
  "bytecode": "0x608060405234801561001057600080fd5b50604051610d19380380610d1983398101604081905261002f9161005c565b600080546001600160a01b03929092166001600160a01b031992831617905560028054909116905561008c565b60006020828403121561006e57600080fd5b81516001600160a01b038116811461008557600080fd5b9392505050565b610c7e8061009b6000396000f3fe608060405234801561001057600080fd5b50600436106100be5760003560e01c8063744280f611610076578063b01c44671161005b578063b01c446714610210578063f1566bbd14610223578063fc57d4df1461023657600080fd5b8063744280f614610186578063851e3ca5146101fd57600080fd5b8063265e2226116100a7578063265e2226146101225780634fdfb086146101355780635aa6e6751461016857600080fd5b806307572786146100c35780631a1533911461010d575b600080fd5b6002546100e39073ffffffffffffffffffffffffffffffffffffffff1681565b60405173ffffffffffffffffffffffffffffffffffffffff90911681526020015b60405180910390f35b61012061011b366004610af1565b610257565b005b610120610130366004610b2d565b610333565b610158610143366004610b6f565b60056020526000908152604090205460ff1681565b6040519015158152602001610104565b60005473ffffffffffffffffffffffffffffffffffffffff166100e3565b6101cd610194366004610b6f565b600160208190526000918252604090912080549181015460029091015473ffffffffffffffffffffffffffffffffffffffff9091169083565b6040805193845273ffffffffffffffffffffffffffffffffffffffff909216602084015290820152606001610104565b61012061020b366004610b6f565b6106e1565b61012061021e366004610b91565b6107a8565b610120610231366004610b6f565b6108a8565b610249610244366004610b6f565b610970565b604051908152602001610104565b60005473ffffffffffffffffffffffffffffffffffffffff1633146102dd576040517f08c379a000000000000000000000000000000000000000000000000000000000815260206004820152600f60248201527f4f4e4c595f474f5645524e414e4345000000000000000000000000000000000060448201526064015b60405180910390fd5b73ffffffffffffffffffffffffffffffffffffffff91909116600090815260056020526040902080547fffffffffffffffffffffffffffffffffffffffffffffffffffffffffffffff0016911515919091179055565b60005473ffffffffffffffffffffffffffffffffffffffff1633146103b4576040517f08c379a000000000000000000000000000000000000000000000000000000000815260206004820152600f60248201527f4f4e4c595f474f5645524e414e4345000000000000000000000000000000000060448201526064016102d4565b6103bd84610a4b565b6103c683610a4b565b603c821015610431576040517f08c379a000000000000000000000000000000000000000000000000000000000815260206004820152601160248201527f68656172746265617420746f6f206c6f7700000000000000000000000000000060448201526064016102d4565b801580610455575060025473ffffffffffffffffffffffffffffffffffffffff1615155b6104bb576040517f08c379a000000000000000000000000000000000000000000000000000000000815260206004820152601860248201527f72656473746f6e652061646170746572206e6f7420736574000000000000000060448201526064016102d4565b8273ffffffffffffffffffffffffffffffffffffffff1663313ce5676040518163ffffffff1660e01b815260040160206040518083038186803b15801561050157600080fd5b505afa158015610515573d6000803e3d6000fd5b505050506040513d601f19601f820116820180604052508101906105399190610bbb565b60ff166008146105cb576040517f08c379a000000000000000000000000000000000000000000000000000000000815260206004820152602260248201527f4578706563746564206f7261636c6520746f2068617665203820646563696d6160448201527f6c7300000000000000000000000000000000000000000000000000000000000060648201526084016102d4565b6040805160608101825282815273ffffffffffffffffffffffffffffffffffffffff8581166020808401918252838501878152898416600090815260019283905286902094518555915190840180547fffffffffffffffffffffffff000000000000000000000000000000000000000016919093169081179092555160029092019190915581517ffeaf968c0000000000000000000000000000000000000000000000000000000081529151909163feaf968c9160048083019260a0929190829003018186803b15801561069e57600080fd5b505afa1580156106b2573d6000803e3d6000fd5b505050506040513d601f19601f820116820180604052508101906106d69190610bf8565b505050505050505050565b60005473ffffffffffffffffffffffffffffffffffffffff163314610762576040517f08c379a000000000000000000000000000000000000000000000000000000000815260206004820152600f60248201527f4f4e4c595f474f5645524e414e4345000000000000000000000000000000000060448201526064016102d4565b600080547fffffffffffffffffffffffff00000000000000000000000000000000000000001673ffffffffffffffffffffffffffffffffffffffff831617905550565b50565b60005473ffffffffffffffffffffffffffffffffffffffff163314806107dd57503360009081526005602052604090205460ff165b610843576040517f08c379a000000000000000000000000000000000000000000000000000000000815260206004820152600b60248201527f6e6f745f7570646174657200000000000000000000000000000000000000000060448201526064016102d4565b73ffffffffffffffffffffffffffffffffffffffff8216600081815260036020908152604091829020849055815192835282018390527fc99de813021dfd9ce901f03ccd67d57e88103759fc64fe01df8459656142daf6910160405180910390a15050565b60005473ffffffffffffffffffffffffffffffffffffffff163314610929576040517f08c379a000000000000000000000000000000000000000000000000000000000815260206004820152600f60248201527f4f4e4c595f474f5645524e414e4345000000000000000000000000000000000060448201526064016102d4565b600280547fffffffffffffffffffffffff00000000000000000000000000000000000000001673ffffffffffffffffffffffffffffffffffffffff92909216919091179055565b73ffffffffffffffffffffffffffffffffffffffff8116600090815260036020526040812054610a22576040517f08c379a000000000000000000000000000000000000000000000000000000000815260206004820152602860248201527f756e6465726c79696e6720707269636520686173206e6f74206265656e20736560448201527f742061732079657400000000000000000000000000000000000000000000000060648201526084016102d4565b5073ffffffffffffffffffffffffffffffffffffffff1660009081526003602052604090205490565b73ffffffffffffffffffffffffffffffffffffffff81166107a5576040517f08c379a000000000000000000000000000000000000000000000000000000000815260206004820152600d60248201527f656d70747920616464726573730000000000000000000000000000000000000060448201526064016102d4565b803573ffffffffffffffffffffffffffffffffffffffff81168114610aec57600080fd5b919050565b60008060408385031215610b0457600080fd5b610b0d83610ac8565b915060208301358015158114610b2257600080fd5b809150509250929050565b60008060008060808587031215610b4357600080fd5b610b4c85610ac8565b9350610b5a60208601610ac8565b93969395505050506040820135916060013590565b600060208284031215610b8157600080fd5b610b8a82610ac8565b9392505050565b60008060408385031215610ba457600080fd5b610bad83610ac8565b946020939093013593505050565b600060208284031215610bcd57600080fd5b815160ff81168114610b8a57600080fd5b805169ffffffffffffffffffff81168114610aec57600080fd5b600080600080600060a08688031215610c1057600080fd5b610c1986610bde565b9450602086015193506040860151925060608601519150610c3c60808701610bde565b9050929550929590935056fea26469706673582212205100838e4940a0ef2c09ebff7221364ee24633bf1ba60be6d0d438e632f5cc9564736f6c63430008090033",
  "linkReferences": {},
  "deployedLinkReferences": {}
}