{
  "_format": "hh-sol-artifact-1",
  "contractName": "TestAmm",
  "sourceName": "contracts/tests/TestAmm.sol",
  "abi": [
    {
      "inputs": [
        {
          "internalType": "address",
          "name": "_clearingHouse",
          "type": "address"
        }
      ],
      "stateMutability": "nonpayable",
      "type": "constructor"
    },
    {
      "anonymous": false,
      "inputs": [
        {
          "indexed": false,
          "internalType": "uint8",
          "name": "version",
          "type": "uint8"
        }
      ],
      "name": "Initialized",
      "type": "event"
    },
    {
      "inputs": [
        {
          "internalType": "uint256",
          "name": "",
          "type": "uint256"
        }
      ],
      "name": "asks",
      "outputs": [
        {
          "internalType": "uint256",
          "name": "nextTick",
          "type": "uint256"
        },
        {
          "internalType": "uint256",
          "name": "amount",
          "type": "uint256"
        }
      ],
      "stateMutability": "view",
      "type": "function"
    },
    {
      "inputs": [],
      "name": "asksHead",
      "outputs": [
        {
          "internalType": "uint256",
          "name": "",
          "type": "uint256"
        }
      ],
      "stateMutability": "view",
      "type": "function"
    },
    {
      "inputs": [
        {
          "internalType": "uint256",
          "name": "",
          "type": "uint256"
        }
      ],
      "name": "bids",
      "outputs": [
        {
          "internalType": "uint256",
          "name": "nextTick",
          "type": "uint256"
        },
        {
          "internalType": "uint256",
          "name": "amount",
          "type": "uint256"
        }
      ],
      "stateMutability": "view",
      "type": "function"
    },
    {
      "inputs": [],
      "name": "bidsHead",
      "outputs": [
        {
          "internalType": "uint256",
          "name": "",
          "type": "uint256"
        }
      ],
      "stateMutability": "view",
      "type": "function"
    },
    {
      "inputs": [],
      "name": "clearingHouse",
      "outputs": [
        {
          "internalType": "address",
          "name": "",
          "type": "address"
        }
      ],
      "stateMutability": "view",
      "type": "function"
    },
    {
      "inputs": [],
      "name": "cumulativePremiumFraction",
      "outputs": [
        {
          "internalType": "int256",
          "name": "",
          "type": "int256"
        }
      ],
      "stateMutability": "view",
      "type": "function"
    },
    {
      "inputs": [],
      "name": "fundingPeriod",
      "outputs": [
        {
          "internalType": "uint256",
          "name": "",
          "type": "uint256"
        }
      ],
      "stateMutability": "view",
      "type": "function"
    },
    {
      "inputs": [],
      "name": "getAcceptableBounds",
      "outputs": [
        {
          "internalType": "uint256",
          "name": "upperBound",
          "type": "uint256"
        },
        {
          "internalType": "uint256",
          "name": "lowerBound",
          "type": "uint256"
        }
      ],
      "stateMutability": "view",
      "type": "function"
    },
    {
      "inputs": [],
      "name": "getAcceptableBoundsForLiquidation",
      "outputs": [
        {
          "internalType": "uint256",
          "name": "upperBound",
          "type": "uint256"
        },
        {
          "internalType": "uint256",
          "name": "lowerBound",
          "type": "uint256"
        }
      ],
      "stateMutability": "view",
      "type": "function"
    },
    {
      "inputs": [
        {
          "internalType": "address",
          "name": "trader",
          "type": "address"
        }
      ],
      "name": "getNotionalPositionAndUnrealizedPnl",
      "outputs": [
        {
          "internalType": "uint256",
          "name": "notionalPosition",
          "type": "uint256"
        },
        {
          "internalType": "int256",
          "name": "unrealizedPnl",
          "type": "int256"
        }
      ],
      "stateMutability": "view",
      "type": "function"
    },
    {
      "inputs": [
        {
          "internalType": "int256",
          "name": "positionSize",
          "type": "int256"
        },
        {
          "internalType": "uint256",
          "name": "openNotional",
          "type": "uint256"
        },
        {
          "internalType": "int256",
          "name": "unrealizedPnl",
          "type": "int256"
        },
        {
          "internalType": "int256",
          "name": "baseAssetQuantity",
          "type": "int256"
        }
      ],
      "name": "getOpenNotionalWhileReducingPosition",
      "outputs": [
        {
          "internalType": "uint256",
          "name": "remainOpenNotional",
          "type": "uint256"
        },
        {
          "internalType": "int256",
          "name": "realizedPnl",
          "type": "int256"
        }
      ],
      "stateMutability": "pure",
      "type": "function"
    },
    {
      "inputs": [
        {
          "internalType": "address",
          "name": "trader",
          "type": "address"
        },
        {
          "internalType": "int256",
          "name": "margin",
          "type": "int256"
        },
        {
          "internalType": "enum IClearingHouse.Mode",
          "name": "mode",
          "type": "uint8"
        }
      ],
      "name": "getOptimalPnl",
      "outputs": [
        {
          "internalType": "uint256",
          "name": "notionalPosition",
          "type": "uint256"
        },
        {
          "internalType": "int256",
          "name": "unrealizedPnl",
          "type": "int256"
        }
      ],
      "stateMutability": "view",
      "type": "function"
    },
    {
      "inputs": [
        {
          "internalType": "address",
          "name": "trader",
          "type": "address"
        },
        {
          "internalType": "int256",
          "name": "margin",
          "type": "int256"
        }
      ],
      "name": "getOracleBasedMarginFraction",
      "outputs": [
        {
          "internalType": "uint256",
          "name": "oracleBasedNotional",
          "type": "uint256"
        },
        {
          "internalType": "int256",
          "name": "oracleBasedUnrealizedPnl",
          "type": "int256"
        },
        {
          "internalType": "int256",
          "name": "marginFraction",
          "type": "int256"
        }
      ],
      "stateMutability": "view",
      "type": "function"
    },
    {
      "inputs": [
        {
          "internalType": "address",
          "name": "trader",
          "type": "address"
        }
      ],
      "name": "getPendingFundingPayment",
      "outputs": [
        {
          "internalType": "int256",
          "name": "takerFundingPayment",
          "type": "int256"
        },
        {
          "internalType": "int256",
          "name": "latestCumulativePremiumFraction",
          "type": "int256"
        }
      ],
      "stateMutability": "view",
      "type": "function"
    },
    {
      "inputs": [
        {
          "internalType": "uint256",
          "name": "price",
          "type": "uint256"
        },
        {
          "internalType": "uint256",
          "name": "openNotional",
          "type": "uint256"
        },
        {
          "internalType": "int256",
          "name": "size",
          "type": "int256"
        },
        {
          "internalType": "int256",
          "name": "margin",
          "type": "int256"
        }
      ],
      "name": "getPositionMetadata",
      "outputs": [
        {
          "internalType": "uint256",
          "name": "notionalPos",
          "type": "uint256"
        },
        {
          "internalType": "int256",
          "name": "uPnl",
          "type": "int256"
        },
        {
          "internalType": "int256",
          "name": "marginFraction",
          "type": "int256"
        }
      ],
      "stateMutability": "pure",
      "type": "function"
    },
    {
      "inputs": [],
      "name": "getUnderlyingPrice",
      "outputs": [
        {
          "internalType": "uint256",
          "name": "",
          "type": "uint256"
        }
      ],
      "stateMutability": "view",
      "type": "function"
    },
    {
      "inputs": [],
      "name": "governance",
      "outputs": [
        {
          "internalType": "address",
          "name": "",
          "type": "address"
        }
      ],
      "stateMutability": "view",
      "type": "function"
    },
    {
      "inputs": [],
      "name": "impactMarginNotional",
      "outputs": [
        {
          "internalType": "uint256",
          "name": "",
          "type": "uint256"
        }
      ],
      "stateMutability": "view",
      "type": "function"
    },
    {
      "inputs": [
        {
          "internalType": "string",
          "name": "_name",
          "type": "string"
        },
        {
          "internalType": "address",
          "name": "_underlyingAsset",
          "type": "address"
        },
        {
          "internalType": "uint256",
          "name": "_minSizeRequirement",
          "type": "uint256"
        },
        {
          "internalType": "address",
          "name": "_governance",
          "type": "address"
        },
        {
          "internalType": "uint256",
          "name": "_pricePrecision",
          "type": "uint256"
        },
        {
          "internalType": "address",
          "name": "_ticks",
          "type": "address"
        }
      ],
      "name": "initialize",
      "outputs": [],
      "stateMutability": "nonpayable",
      "type": "function"
    },
    {
      "inputs": [],
      "name": "interestRate",
      "outputs": [
        {
          "internalType": "int256",
          "name": "",
          "type": "int256"
        }
      ],
      "stateMutability": "view",
      "type": "function"
    },
    {
      "inputs": [],
      "name": "lastPrice",
      "outputs": [
        {
          "internalType": "uint256",
          "name": "",
          "type": "uint256"
        }
      ],
      "stateMutability": "view",
      "type": "function"
    },
    {
      "inputs": [
        {
          "internalType": "address",
          "name": "trader",
          "type": "address"
        },
        {
          "internalType": "uint256",
          "name": "price",
          "type": "uint256"
        },
        {
          "internalType": "int256",
          "name": "fillAmount",
          "type": "int256"
        }
      ],
      "name": "liquidatePosition",
      "outputs": [
        {
          "internalType": "int256",
          "name": "realizedPnl",
          "type": "int256"
        },
        {
          "internalType": "uint256",
          "name": "quoteAsset",
          "type": "uint256"
        },
        {
          "internalType": "int256",
          "name": "size",
          "type": "int256"
        },
        {
          "internalType": "uint256",
          "name": "openNotional",
          "type": "uint256"
        }
      ],
      "stateMutability": "nonpayable",
      "type": "function"
    },
    {
      "inputs": [],
      "name": "longOpenInterestNotional",
      "outputs": [
        {
          "internalType": "uint256",
          "name": "",
          "type": "uint256"
        }
      ],
      "stateMutability": "view",
      "type": "function"
    },
    {
      "inputs": [],
      "name": "marginAccount",
      "outputs": [
        {
          "internalType": "contract IMarginAccount",
          "name": "",
          "type": "address"
        }
      ],
      "stateMutability": "view",
      "type": "function"
    },
    {
      "inputs": [],
      "name": "maxFundingRate",
      "outputs": [
        {
          "internalType": "int256",
          "name": "",
          "type": "int256"
        }
      ],
      "stateMutability": "view",
      "type": "function"
    },
    {
      "inputs": [],
      "name": "maxLiquidationPriceSpread",
      "outputs": [
        {
          "internalType": "uint256",
          "name": "",
          "type": "uint256"
        }
      ],
      "stateMutability": "view",
      "type": "function"
    },
    {
      "inputs": [],
      "name": "maxLiquidationRatio",
      "outputs": [
        {
          "internalType": "uint256",
          "name": "",
          "type": "uint256"
        }
      ],
      "stateMutability": "view",
      "type": "function"
    },
    {
      "inputs": [],
      "name": "maxOracleSpreadRatio",
      "outputs": [
        {
          "internalType": "uint256",
          "name": "",
          "type": "uint256"
        }
      ],
      "stateMutability": "view",
      "type": "function"
    },
    {
      "inputs": [],
      "name": "midPrice",
      "outputs": [
        {
          "internalType": "uint256",
          "name": "",
          "type": "uint256"
        }
      ],
      "stateMutability": "view",
      "type": "function"
    },
    {
      "inputs": [],
      "name": "minSizeRequirement",
      "outputs": [
        {
          "internalType": "uint256",
          "name": "",
          "type": "uint256"
        }
      ],
      "stateMutability": "view",
      "type": "function"
    },
    {
      "inputs": [],
      "name": "multiplier",
      "outputs": [
        {
          "internalType": "uint256",
          "name": "",
          "type": "uint256"
        }
      ],
      "stateMutability": "view",
      "type": "function"
    },
    {
      "inputs": [],
      "name": "name",
      "outputs": [
        {
          "internalType": "string",
          "name": "",
          "type": "string"
        }
      ],
      "stateMutability": "view",
      "type": "function"
    },
    {
      "inputs": [],
      "name": "nextFundingTime",
      "outputs": [
        {
          "internalType": "uint256",
          "name": "",
          "type": "uint256"
        }
      ],
      "stateMutability": "view",
      "type": "function"
    },
    {
      "inputs": [],
      "name": "openInterestNotional",
      "outputs": [
        {
          "internalType": "uint256",
          "name": "",
          "type": "uint256"
        }
      ],
      "stateMutability": "view",
      "type": "function"
    },
    {
      "inputs": [
        {
          "internalType": "address",
          "name": "trader",
          "type": "address"
        },
        {
          "internalType": "int256",
          "name": "fillAmount",
          "type": "int256"
        },
        {
          "internalType": "uint256",
          "name": "fulfillPrice",
          "type": "uint256"
        },
        {
          "internalType": "bool",
          "name": "is2ndTrade",
          "type": "bool"
        }
      ],
      "name": "openPosition",
      "outputs": [
        {
          "internalType": "int256",
          "name": "realizedPnl",
          "type": "int256"
        },
        {
          "internalType": "bool",
          "name": "isPositionIncreased",
          "type": "bool"
        },
        {
          "internalType": "int256",
          "name": "size",
          "type": "int256"
        },
        {
          "internalType": "uint256",
          "name": "openNotional",
          "type": "uint256"
        },
        {
          "internalType": "uint256",
          "name": "openInterest",
          "type": "uint256"
        }
      ],
      "stateMutability": "nonpayable",
      "type": "function"
    },
    {
      "inputs": [],
      "name": "oracle",
      "outputs": [
        {
          "internalType": "contract IOracle",
          "name": "",
          "type": "address"
        }
      ],
      "stateMutability": "view",
      "type": "function"
    },
    {
      "inputs": [],
      "name": "piData",
      "outputs": [
        {
          "internalType": "int256",
          "name": "piTwap",
          "type": "int256"
        },
        {
          "internalType": "uint256",
          "name": "accTime",
          "type": "uint256"
        },
        {
          "internalType": "int256",
          "name": "piLast",
          "type": "int256"
        },
        {
          "internalType": "uint256",
          "name": "lastTS",
          "type": "uint256"
        }
      ],
      "stateMutability": "view",
      "type": "function"
    },
    {
      "inputs": [
        {
          "internalType": "address",
          "name": "",
          "type": "address"
        }
      ],
      "name": "positions",
      "outputs": [
        {
          "internalType": "int256",
          "name": "size",
          "type": "int256"
        },
        {
          "internalType": "uint256",
          "name": "openNotional",
          "type": "uint256"
        },
        {
          "internalType": "int256",
          "name": "lastPremiumFraction",
          "type": "int256"
        },
        {
          "internalType": "uint256",
          "name": "liquidationThreshold",
          "type": "uint256"
        }
      ],
      "stateMutability": "view",
      "type": "function"
    },
    {
      "inputs": [],
      "name": "samplePI",
      "outputs": [
        {
          "internalType": "bool",
          "name": "success",
          "type": "bool"
        },
        {
          "internalType": "int256",
          "name": "premiumIndex",
          "type": "int256"
        }
      ],
      "stateMutability": "nonpayable",
      "type": "function"
    },
    {
      "inputs": [
        {
          "internalType": "uint256",
          "name": "_fundingPeriod",
          "type": "uint256"
        },
        {
          "internalType": "int256",
          "name": "_maxFundingRate",
          "type": "int256"
        }
      ],
      "name": "setFundingParams",
      "outputs": [],
      "stateMutability": "nonpayable",
      "type": "function"
    },
    {
      "inputs": [
        {
          "internalType": "address",
          "name": "__governance",
          "type": "address"
        }
      ],
      "name": "setGovernace",
      "outputs": [],
      "stateMutability": "nonpayable",
      "type": "function"
    },
    {
      "inputs": [
        {
          "internalType": "uint256",
          "name": "_impactMarginNotional",
          "type": "uint256"
        }
      ],
      "name": "setImpactMarginNotional",
      "outputs": [],
      "stateMutability": "nonpayable",
      "type": "function"
    },
    {
      "inputs": [
        {
          "internalType": "int256",
          "name": "_interestRate",
          "type": "int256"
        }
      ],
      "name": "setInterestRate",
      "outputs": [],
      "stateMutability": "nonpayable",
      "type": "function"
    },
    {
      "inputs": [
        {
          "internalType": "uint256",
          "name": "_maxLiquidationRatio",
          "type": "uint256"
        }
      ],
      "name": "setLiquidationSizeRatio",
      "outputs": [],
      "stateMutability": "nonpayable",
      "type": "function"
    },
    {
      "inputs": [
        {
          "internalType": "uint256",
          "name": "_minSizeRequirement",
          "type": "uint256"
        }
      ],
      "name": "setMinSizeRequirement",
      "outputs": [],
      "stateMutability": "nonpayable",
      "type": "function"
    },
    {
      "inputs": [
        {
          "internalType": "uint256",
          "name": "_pricePrecision",
          "type": "uint256"
        }
      ],
      "name": "setPricePrecision",
      "outputs": [],
      "stateMutability": "nonpayable",
      "type": "function"
    },
    {
      "inputs": [
        {
          "internalType": "uint256",
          "name": "_maxOracleSpreadRatio",
          "type": "uint256"
        },
        {
          "internalType": "uint256",
          "name": "_maxLiquidationPriceSpread",
          "type": "uint256"
        }
      ],
      "name": "setPriceSpreadParams",
      "outputs": [],
      "stateMutability": "nonpayable",
      "type": "function"
    },
    {
      "inputs": [
        {
          "internalType": "address",
          "name": "_ticks",
          "type": "address"
        }
      ],
      "name": "setTicks",
      "outputs": [],
      "stateMutability": "nonpayable",
      "type": "function"
    },
    {
      "inputs": [],
      "name": "settleFunding",
      "outputs": [
        {
          "internalType": "int256",
          "name": "premiumFraction",
          "type": "int256"
        },
        {
          "internalType": "int256",
          "name": "underlyingPrice",
          "type": "int256"
        },
        {
          "internalType": "int256",
          "name": "",
          "type": "int256"
        },
        {
          "internalType": "uint256",
          "name": "",
          "type": "uint256"
        }
      ],
      "stateMutability": "nonpayable",
      "type": "function"
    },
    {
      "inputs": [],
      "name": "shortOpenInterestNotional",
      "outputs": [
        {
          "internalType": "uint256",
          "name": "",
          "type": "uint256"
        }
      ],
      "stateMutability": "view",
      "type": "function"
    },
    {
      "inputs": [
        {
          "internalType": "uint256",
          "name": "tick",
          "type": "uint256"
        },
        {
          "internalType": "int256",
          "name": "quantity",
          "type": "int256"
        }
      ],
      "name": "signalAddLiquidity",
      "outputs": [],
      "stateMutability": "nonpayable",
      "type": "function"
    },
    {
      "inputs": [
        {
          "internalType": "uint256",
          "name": "tick",
          "type": "uint256"
        },
        {
          "internalType": "int256",
          "name": "quantity",
          "type": "int256"
        }
      ],
      "name": "signalRemoveLiquidity",
      "outputs": [],
      "stateMutability": "nonpayable",
      "type": "function"
    },
    {
      "inputs": [],
      "name": "startFunding",
      "outputs": [
        {
          "internalType": "uint256",
          "name": "",
          "type": "uint256"
        }
      ],
      "stateMutability": "nonpayable",
      "type": "function"
    },
    {
      "inputs": [],
      "name": "ticks",
      "outputs": [
        {
          "internalType": "contract ITicks",
          "name": "",
          "type": "address"
        }
      ],
      "stateMutability": "view",
      "type": "function"
    },
    {
      "inputs": [
        {
          "internalType": "address",
          "name": "_orderBook",
          "type": "address"
        }
      ],
      "name": "toggleWhitelistedOrderBook",
      "outputs": [],
      "stateMutability": "nonpayable",
      "type": "function"
    },
    {
      "inputs": [],
      "name": "underlyingAsset",
      "outputs": [
        {
          "internalType": "address",
          "name": "",
          "type": "address"
        }
      ],
      "stateMutability": "view",
      "type": "function"
    },
    {
      "inputs": [
        {
          "internalType": "address",
          "name": "trader",
          "type": "address"
        }
      ],
      "name": "updatePosition",
      "outputs": [
        {
          "internalType": "bool",
          "name": "isUpdated",
          "type": "bool"
        },
        {
          "internalType": "int256",
          "name": "fundingPayment",
          "type": "int256"
        },
        {
          "internalType": "int256",
          "name": "latestCumulativePremiumFraction",
          "type": "int256"
        }
      ],
      "stateMutability": "nonpayable",
      "type": "function"
    },
    {
      "inputs": [
        {
          "internalType": "address",
          "name": "",
          "type": "address"
        }
      ],
      "name": "whitelistedOrderBooks",
      "outputs": [
        {
          "internalType": "bool",
          "name": "",
          "type": "bool"
        }
      ],
      "stateMutability": "view",
      "type": "function"
    }
  ],
  "bytecode": "0x60c06040523480156200001157600080fd5b5060405162003944380380620039448339810160408190526200003491620000f2565b80806001600160a01b03166080816001600160a01b031681525050806001600160a01b031663f742269d6040518163ffffffff1660e01b815260040160206040518083038186803b1580156200008957600080fd5b505afa1580156200009e573d6000803e3d6000fd5b505050506040513d601f19601f82011682018060405250810190620000c49190620000f2565b6001600160a01b031660a05250620001199050565b6001600160a01b0381168114620000ef57600080fd5b50565b6000602082840312156200010557600080fd5b81516200011281620000d9565b9392505050565b60805160a0516137d46200017060003960008181610818015261151601526000818161041a015281816108c101528181610c3d0152818161182301528181611afa0152818161206101526121a001526137d46000f3fe608060405234801561001057600080fd5b506004361061038e5760003560e01c806366398f1f116101de578063a999f4a21161010f578063df122d15116100ad578063ed9e55501161007c578063ed9e5550146107cd578063f40a55b4146107e0578063f742269d14610813578063f77b6ac91461083a57600080fd5b8063df122d1514610779578063e0037a6c1461078c578063e0beac7714610795578063ed83d79c146107c557600080fd5b8063b72e1b48116100e9578063b72e1b4814610741578063bb6e6e5314610754578063da8baea11461075d578063db16e9891461077057600080fd5b8063a999f4a2146106fc578063ab3188441461071b578063b3b57bad1461072e57600080fd5b8063851e3ca51161017c578063a2c41df111610156578063a2c41df114610677578063a2edc5fa14610680578063a634bbb1146106ae578063a7d41ea9146106e957600080fd5b8063851e3ca51461063e57806394aed90d146106515780639af16a951461066457600080fd5b806374d7c62b116101b857806374d7c62b146106115780637c3a00fd1461061a5780637cddd328146106235780637dc0d1d01461063657600080fd5b806366398f1f146105e35780636bdb678a146105f65780637158da7c146105fe57600080fd5b80632565382b116102c35780634423c5f11161026157806355f575101161023057806355f575101461057e5780635aa6e675146105b457806365fc4c02146105c5578063661903f4146105db57600080fd5b80634423c5f11461053357806345d089131461055a578063468f02d214610563578063511819d61461056b57600080fd5b806337292b601161029d57806337292b60146105055780633ab71ce81461050e5780633d385e4f146105215780633fb7b0291461052a57600080fd5b80632565382b146104d757806326c919ad146104df5780632cfffaf6146104f257600080fd5b80630cf0105111610330578063180d14a41161030a578063180d14a4146104b45780631b3ed722146104bc5780631c85c80a146104c5578063210fdd87146104ce57600080fd5b80630cf01051146104905780630d097e011461049857806316f086b7146104a157600080fd5b8063053f14da1161036c578063053f14da146103f757806306fdde03146104005780630af96800146104155780630b0c14931461045457600080fd5b806301e3e75d14610393578063029acde0146103a85780630476a695146103c4575b600080fd5b6103a66103a1366004612f44565b61084d565b005b6103b1600a5481565b6040519081526020015b60405180910390f35b6103d76103d2366004612f82565b6108b1565b6040805194855260208501939093529183015260608201526080016103bb565b6103b160145481565b610408610ba2565b6040516103bb9190612fb7565b61043c7f000000000000000000000000000000000000000000000000000000000000000081565b6040516001600160a01b0390911681526020016103bb565b61047b610462366004612f44565b6016602052600090815260409020805460019091015482565b604080519283526020830191909152016103bb565b6103b1610c30565b6103b160175481565b61047b6104af36600461302a565b610cd6565b61047b610d2c565b6103b1600c5481565b6103b160185481565b6103b160055481565b6103b1610d4a565b61047b6104ed366004613047565b610d61565b60195461043c906001600160a01b031681565b6103b160035481565b6103a661051c36600461308d565b610e67565b6103b160025481565b6103b160095481565b61047b610541366004612f44565b6015602052600090815260409020805460019091015482565b6103b160045481565b6103b1610eee565b6103a661057936600461308d565b610f8d565b6103d761058c36600461302a565b6001602081905260009182526040909120805491810154600282015460039092015490919084565b6000546001600160a01b031661043c565b600f546010546011546012546103d79392919084565b61047b610ff2565b6103a66105f136600461308d565b611008565b6103b1611199565b60065461043c906001600160a01b031681565b6103b1600d5481565b6103b1601b5481565b6103a66106313660046130de565b6111d8565b61043c611512565b6103a661064c36600461302a565b6115a5565b6103a661065f366004612f44565b611638565b61047b6106723660046131f1565b6116ff565b6103b160135481565b61069361068e366004613223565b6117ce565b604080519384526020840192909252908201526060016103bb565b6106c16106bc36600461324f565b611812565b604080519586529315156020860152928401919091526060830152608082015260a0016103bb565b6103a66106f7366004612f44565b611a8d565b610704611aec565b6040805192151583526020830191909152016103bb565b6103a6610729366004612f44565b611db6565b6103a661073c366004612f44565b611e15565b61047b61074f36600461302a565b611e74565b6103b1600b5481565b61069361076b3660046131f1565b611ef0565b6103b1600e5481565b6103a661078736600461302a565b611fbe565b6103b160085481565b6107a86107a336600461302a565b612052565b6040805193151584526020840192909252908201526060016103bb565b6103d7612190565b6103a66107db36600461302a565b612402565b6108036107ee36600461302a565b601a6020526000908152604090205460ff1681565b60405190151581526020016103bb565b61043c7f000000000000000000000000000000000000000000000000000000000000000081565b6103a661084836600461308d565b6124a3565b6000546001600160a01b031633146108ac5760405162461bcd60e51b815260206004820152600f60248201527f4f4e4c595f474f5645524e414e4345000000000000000000000000000000000060448201526064015b60405180910390fd5b600555565b6000808080336001600160a01b037f0000000000000000000000000000000000000000000000000000000000000000161461092e5760405162461bcd60e51b815260206004820152601260248201527f4f6e6c7920636c656172696e67486f757365000000000000000000000000000060448201526064016108a3565b6001600160a01b038716600090815260016020818152604080842081516080810183528154808252948201549381019390935260028101549183019190915260030154606082015291908112610985576000610988565b60015b905060006109998360000151612526565b905060006109ab828560600151612546565b9050806109bf6109ba8b612526565b61255e565b1115610a0d5760405162461bcd60e51b815260206004820181905260248201527f414d4d5f6c69717569646174696e675f746f6f5f6d7563685f61745f6f6e636560448201526064016108a3565b8215610ab75760008913610a895760405162461bcd60e51b815260206004820152602560248201527f414d4d5f6d61746368696e675f74726164655f73686f756c645f62655f6f707060448201527f6f7369746500000000000000000000000000000000000000000000000000000060648201526084016108a3565b670de0b6b3a76400008a610a9c8b61255e565b610aa691906132cd565b610ab09190613339565b9650610b5a565b60008912610b2d5760405162461bcd60e51b815260206004820152602560248201527f414d4d5f6d61746368696e675f74726164655f73686f756c645f62655f6f707060448201527f6f7369746500000000000000000000000000000000000000000000000000000060648201526084016108a3565b670de0b6b3a76400008a610b436109ba8c61334d565b610b4d91906132cd565b610b579190613339565b96505b610b6d8b610b678b61334d565b8c6125b0565b6001600160a01b03909b16600090815260016020819052604090912080549101549b9c979b909a509850959650505050505050565b60078054610baf90613386565b80601f0160208091040260200160405190810160405280929190818152602001828054610bdb90613386565b8015610c285780601f10610bfd57610100808354040283529160200191610c28565b820191906000526020600020905b815481529060010190602001808311610c0b57829003601f168201915b505050505081565b6000336001600160a01b037f00000000000000000000000000000000000000000000000000000000000000001614610caa5760405162461bcd60e51b815260206004820152601260248201527f4f6e6c7920636c656172696e67486f757365000000000000000000000000000060448201526064016108a3565b600d5480610cb881426133da565b610cc29190613339565b610ccc91906132cd565b6008819055905090565b6001600160a01b0381166000908152600160205260408120548190610d20610cfc611199565b6001600160a01b038616600090815260016020819052604082200154908490611ef0565b50909590945092505050565b600080610d42610d3a610eee565b600b5461268d565b915091509091565b6000600a54600954610d5c91906133da565b905090565b6001600160a01b03831660009081526001602081815260408084208151608081018352815480825294820154938101939093526002810154918301919091526003015460608201528291610dbc576000809250925050610e5f565b6000610dd6610dc9611199565b6020840151845189611ef0565b9195509350905060008080610df9610dec610eee565b602087015187518c611ef0565b919450925090506000886001811115610e1457610e146133f2565b148015610e2057508381135b80610e4657506001886001811115610e3a57610e3a6133f2565b148015610e4657508381125b15610e5957509094509250610e5f915050565b50505050505b935093915050565b336000908152601a602052604090205460ff16610ec65760405162461bcd60e51b815260206004820152601a60248201527f4f6e6c792077686974656c6973746564206f72646572426f6f6b00000000000060448201526064016108a3565b60008113610ee457610ee082610edb8361334d565b61271d565b5050565b610ee0828261288b565b6000610ef8611512565b6006546040517ffc57d4df0000000000000000000000000000000000000000000000000000000081526001600160a01b03918216600482015291169063fc57d4df9060240160206040518083038186803b158015610f5557600080fd5b505afa158015610f69573d6000803e3d6000fd5b505050506040513d601f19601f82011682018060405250810190610d5c9190613421565b6000546001600160a01b03163314610fe75760405162461bcd60e51b815260206004820152600f60248201527f4f4e4c595f474f5645524e414e4345000000000000000000000000000000000060448201526064016108a3565b600d91909155600e55565b600080610d42611000610eee565b60035461268d565b6000546001600160a01b031633146110625760405162461bcd60e51b815260206004820152600f60248201527f4f4e4c595f474f5645524e414e4345000000000000000000000000000000000060448201526064016108a3565b818111156110d85760405162461bcd60e51b815260206004820152603060248201527f6d61784c69717569646174696f6e5072696365537072656164203e206d61784f60448201527f7261636c65537072656164526174696f0000000000000000000000000000000060648201526084016108a3565b600382905560006110e7610ff2565b509050806111375760405162461bcd60e51b815260206004820152601060248201527f757070657220626f756e64203d3d20300000000000000000000000000000000060448201526064016108a3565b600b829055611144610d2c565b509050806111945760405162461bcd60e51b815260206004820152601060248201527f757070657220626f756e64203d3d20300000000000000000000000000000000060448201526064016108a3565b505050565b601854601754600091908115806111ae575080155b156111c2576111bb610eee565b9250505090565b60026111ce82846133da565b6111bb9190613339565b6000547501000000000000000000000000000000000000000000900460ff1615808015611223575060005460017401000000000000000000000000000000000000000090910460ff16105b806112555750303b158015611255575060005474010000000000000000000000000000000000000000900460ff166001145b6112c75760405162461bcd60e51b815260206004820152602e60248201527f496e697469616c697a61626c653a20636f6e747261637420697320616c72656160448201527f647920696e697469616c697a656400000000000000000000000000000000000060648201526084016108a3565b600080547fffffffffffffffffffffff00ffffffffffffffffffffffffffffffffffffffff1674010000000000000000000000000000000000000000179055801561134d57600080547fffffffffffffffffffff00ffffffffffffffffffffffffffffffffffffffffff1675010000000000000000000000000000000000000000001790555b86516113609060079060208a0190612eab565b50600680546001600160a01b0388167fffffffffffffffffffffffff000000000000000000000000000000000000000090911617905560058590556113da84600080546001600160a01b039092167fffffffffffffffffffffffff0000000000000000000000000000000000000000909216919091179055565b600683111561142b5760405162461bcd60e51b815260206004820152601f60248201527f707265636973696f6e5f73686f756c645f62655f6c6573735f7468616e5f360060448201526064016108a3565b61143683600661343a565b61144190600a613569565b600c55601980547fffffffffffffffffffffffff0000000000000000000000000000000000000000166001600160a01b03841617905562030d40600355612710600b556203d090600455610e10600d55631dcd65006013556104e2601b55620186a0600e55801561150957600080547fffffffffffffffffffff00ffffffffffffffffffffffffffffffffffffffffff169055604051600181527f7f26b83ff96e1f2b6a682f133852f6798a09c465da95921460cefb38474024989060200160405180910390a15b50505050505050565b60007f00000000000000000000000000000000000000000000000000000000000000006001600160a01b0316637dc0d1d06040518163ffffffff1660e01b815260040160206040518083038186803b15801561156d57600080fd5b505afa158015611581573d6000803e3d6000fd5b505050506040513d601f19601f82011682018060405250810190610d5c9190613575565b6000546001600160a01b031633146115ff5760405162461bcd60e51b815260206004820152600f60248201527f4f4e4c595f474f5645524e414e4345000000000000000000000000000000000060448201526064016108a3565b600080547fffffffffffffffffffffffff0000000000000000000000000000000000000000166001600160a01b03831617905550565b50565b6000546001600160a01b031633146116925760405162461bcd60e51b815260206004820152600f60248201527f4f4e4c595f474f5645524e414e4345000000000000000000000000000000000060448201526064016108a3565b60068111156116e35760405162461bcd60e51b815260206004820152601f60248201527f707265636973696f6e5f73686f756c645f62655f6c6573735f7468616e5f360060448201526064016108a3565b6116ee81600661343a565b6116f990600a613569565b600c5550565b60008061170b83612526565b61171487612526565b12156117625760405162461bcd60e51b815260206004820152601360248201527f414d4d2e4f4e4c595f5245445543455f504f530000000000000000000000000060448201526064016108a3565b61176b86612526565b61177484612526565b61177e9086613592565b611788919061364e565b905061179386612526565b61179c84612526565b6117a5876129e3565b6117af9190613592565b6117b9919061364e565b6117c3908661343a565b915094509492505050565b60008060006118056117de610eee565b6001600160a01b038716600090815260016020819052604090912090810154905487611ef0565b9250925092509250925092565b600080808080336001600160a01b037f000000000000000000000000000000000000000000000000000000000000000016146118905760405162461bcd60e51b815260206004820152601260248201527f4f6e6c7920636c656172696e67486f757365000000000000000000000000000060448201526064016108a3565b6001600160a01b03891660009081526001602081815260408084208151608081018352815480825294820154938101939093526002810154918301919091526003015460608201529190156118e65760006118e9565b60015b9050801561191257600280546001600160a01b038d166000908152600160205260409020909101555b6000808b13611922576001611925565b60005b905081806119665750806001811115611940576119406133f2565b8351600012611950576001611953565b60005b6001811115611964576119646133f2565b145b1561197f576119768c8c8c612a7b565b60019650611990565b61198a8c8c8c612b59565b90985096505b6001600160a01b038c1660009081526001602081905260408220805491015490975095506119bd87612526565b90508015806119ce57506005548110155b611a1a5760405162461bcd60e51b815260206004820152601a60248201527f706f736974696f6e5f6c6573735f7468616e5f6d696e53697a6500000000000060448201526064016108a3565b611a4c620f424060045483611a2f91906132cd565b611a399190613339565b611a449060016133da565b600554612c0c565b6001600160a01b038e166000908152600160205260409020600301558915611a7e5760148b9055611a7b610d4a565b94505b50505050945094509450945094565b6000546001600160a01b03163314611ae75760405162461bcd60e51b815260206004820152600f60248201527f4f4e4c595f474f5645524e414e4345000000000000000000000000000000000060448201526064016108a3565b601b55565b600080336001600160a01b037f00000000000000000000000000000000000000000000000000000000000000001614611b675760405162461bcd60e51b815260206004820152601260248201527f4f6e6c7920636c656172696e67486f757365000000000000000000000000000060448201526064016108a3565b6018541580611b765750601754155b15611b845750600090508091565b6019546040517fe08565d10000000000000000000000000000000000000000000000000000000081523060048201526000916001600160a01b03169063e08565d19060240160206040518083038186803b158015611be157600080fd5b505afa158015611bf5573d6000803e3d6000fd5b505050506040513d601f19601f82011682018060405250810190611c199190613421565b905080611c2b57506000928392509050565b6019546040517fe7f7b0c40000000000000000000000000000000000000000000000000000000081523060048201526000916001600160a01b03169063e7f7b0c49060240160206040518083038186803b158015611c8857600080fd5b505afa158015611c9c573d6000803e3d6000fd5b505050506040513d601f19601f82011682018060405250810190611cc09190613421565b905080611cd35750600093849350915050565b6000611cdd610eee565b905080611cf46000611cef85846136b6565b612c1b565b611d036000611cef85886136b6565b611d0d91906136b6565b611d1a90620f4240613592565b611d24919061364e565b60408051608081018252600f5481526010546020820152601154918101919091526012546060820181905291955090429015611da2576000826060015182611d6c919061343a565b9050808360400151611d7e9190613592565b8351611d8a919061372a565b600f556020830151611d9d9082906133da565b601055505b601186905560125550600194505050509091565b6000546001600160a01b03163314611e105760405162461bcd60e51b815260206004820152600f60248201527f4f4e4c595f474f5645524e414e4345000000000000000000000000000000000060448201526064016108a3565b600455565b6000546001600160a01b03163314611e6f5760405162461bcd60e51b815260206004820152600f60248201527f4f4e4c595f474f5645524e414e4345000000000000000000000000000000000060448201526064016108a3565b601355565b6001600160a01b038116600090815260016020818152604080842081516080810183528154808252948201549381019390935260028082015492840183905260039091015460608401525492670de0b6b3a764000091611ed490856136b6565b611ede9190613592565b611ee8919061364e565b925050915091565b6000806000670de0b6b3a7640000611f0a6109ba87612526565b611f1490896132cd565b611f1e9190613339565b925082611f3357506000915081905080611fb4565b6000851315611f5f57611f45866129e3565b611f4e846129e3565b611f5891906136b6565b9150611f87565b6000851215611f8757611f71836129e3565b611f7a876129e3565b611f8491906136b6565b91505b611f90836129e3565b611f9a838661372a565b611fa790620f4240613592565b611fb1919061364e565b90505b9450945094915050565b6000546001600160a01b031633146120185760405162461bcd60e51b815260206004820152600f60248201527f4f4e4c595f474f5645524e414e4345000000000000000000000000000000000060448201526064016108a3565b601980547fffffffffffffffffffffffff0000000000000000000000000000000000000000166001600160a01b0392909216919091179055565b60008080336001600160a01b037f000000000000000000000000000000000000000000000000000000000000000016146120ce5760405162461bcd60e51b815260206004820152601260248201527f4f6e6c7920636c656172696e67486f757365000000000000000000000000000060448201526064016108a3565b6001600160a01b038416600090815260016020526040902054806120fd57600080600093509350935050612189565b6001600160a01b038516600090815260016020526040902060029081015490549250828114156121395760008060009450945094505050612189565b670de0b6b3a76400008261214d83866136b6565b6121579190613592565b612161919061364e565b6001600160a01b03871660009081526001602081905260409091206002018590559550935050505b9193909250565b6000808080336001600160a01b037f0000000000000000000000000000000000000000000000000000000000000000161461220d5760405162461bcd60e51b815260206004820152601260248201527f4f6e6c7920636c656172696e67486f757365000000000000000000000000000060448201526064016108a3565b600854429081101561222d576000806000809450945094509450506123fc565b600d548061223b81846133da565b6122459190613339565b61224f91906132cd565b60085561225a610eee565b60408051608081018252600f5481526010546020820152601154918101919091526012546060820181905291955090600090612296908461343a565b90508082604001516122a89190613592565b82516122b4919061372a565b825260208201516122c69082906133da565b6020808401919091526040805160808101825260008082529281018390529081018290526060908101829052600f82905560108290556011829055601291909155820151158061231857506020820151155b156123355750506002546008546000965090935091506123fc9050565b602082015182516000919061234b906064613592565b612355919061364e565b9050600061239382601b5461236a91906136b6565b61c3507fffffffffffffffffffffffffffffffffffffffffffffffffffffffffffff3cb0612c2b565b61239d908361372a565b90506123b781600e54600e546123b29061334d565b612c2b565b90506305f5e1006123c88983613592565b6123d2919061364e565b985088600260008282546123e6919061372a565b9091555050600254600854909750955050505050505b90919293565b6000546001600160a01b0316331461245c5760405162461bcd60e51b815260206004820152600f60248201527f4f4e4c595f474f5645524e414e4345000000000000000000000000000000000060448201526064016108a3565b6001600160a01b03166000908152601a6020526040902080547fffffffffffffffffffffffffffffffffffffffffffffffffffffffffffffff00811660ff90911615179055565b336000908152601a602052604090205460ff166125025760405162461bcd60e51b815260206004820152601a60248201527f4f6e6c792077686974656c6973746564206f72646572426f6f6b00000000000060448201526064016108a3565b6000811361251c57610ee0826125178361334d565b612c48565b610ee08282612d73565b60008082121561253e576125398261334d565b612540565b815b92915050565b60008183106125555781612557565b825b9392505050565b60008082121561253e5760405162461bcd60e51b815260206004820181905260248201527f53616665436173743a2076616c7565206d75737420626520706f73697469766560448201526064016108a3565b6001600160a01b0383166000908152600160208190526040822090810154815483916125df9186919084611ef0565b509150506000808360000154136125f75760006125fa565b60015b9050801561262a5761260e6109ba8761334d565b6009600082825461261f919061343a565b9091555061264a9050565b6126338661255e565b600a6000828254612644919061343a565b90915550505b61265e8360000154846001015484896116ff565b600185019190915583549094508690849060009061267d90849061372a565b9091555093979650505050505050565b600080620f424061269e84826133da565b6126a890866132cd565b6126b29190613339565b600c549092506126c28184613339565b6126cc91906132cd565b50620f424083101561271657620f42406126e6848261343a565b6126f090866132cd565b6126fa9190613339565b600c5490915061270a8183613339565b61271491906132cd565b505b9250929050565b6000828152601660205260409020600101541561275e57600082815260166020526040812060010180548392906127559084906133da565b90915550505050565b601854158061276f57506018548211155b156127ab576040805180820182526018805482526020808301948552600086815260169091529290922090518155915160019092019190915555565b6019546040517f389857cd00000000000000000000000000000000000000000000000000000000815230600482015260006024820181905260448201859052916001600160a01b03169063389857cd9060640160206040518083038186803b15801561281657600080fd5b505afa15801561282a573d6000803e3d6000fd5b505050506040513d601f19601f8201168201806040525081019061284e9190613421565b6040805180820182526000838152601660208181528483208054855281850198895289845291905292812091518255945160019091015592525055565b600082815260156020526040902060010154156128c357600082815260156020526040812060010180548392906127559084906133da565b6017548210612903576040805180820182526017805482526020808301948552600086815260159091529290922090518155915160019092019190915555565b6019546040517f389857cd00000000000000000000000000000000000000000000000000000000815230600482015260016024820152604481018490526000916001600160a01b03169063389857cd9060640160206040518083038186803b15801561296e57600080fd5b505afa158015612982573d6000803e3d6000fd5b505050506040513d601f19601f820116820180604052508101906129a69190613421565b6040805180820182526000838152601560208181528483208054855281850198895289845291905292812091518255945160019091015592525055565b60007f7fffffffffffffffffffffffffffffffffffffffffffffffffffffffffffffff82111561253e5760405162461bcd60e51b815260206004820152602860248201527f53616665436173743a2076616c756520646f65736e27742066697420696e206160448201527f6e20696e7432353600000000000000000000000000000000000000000000000060648201526084016108a3565b6000821315612aa957612a8d8261255e565b60096000828254612a9e91906133da565b90915550612acc9050565b612ab56109ba8361334d565b600a6000828254612ac691906133da565b90915550505b6001600160a01b03831660009081526001602052604081208054849290612af490849061372a565b90915550670de0b6b3a7640000905081612b106109ba85612526565b612b1a91906132cd565b612b249190613339565b6001600160a01b03841660009081526001602081905260408220018054909190612b4f9084906133da565b9091555050505050565b6001600160a01b038316600090815260016020818152604080842081516080810183528154815293810154928401929092526002820154908301526003015460608201528190612ba885612526565b8151612bb390612526565b12612bca57612bc38686866125b0565b9250612c03565b612be2868260000151612bdc9061334d565b866125b0565b9250612bfe86826000015187612bf8919061372a565b86612a7b565b600191505b50935093915050565b60008183116125555781612557565b6000818312156125555781612557565b6000612c40612c3a8584612c1b565b84612e9c565b949350505050565b600082815260166020526040902060010154612c64828261343a565b600084815260166020908152604091829020600181018490558251808401909352548252810182905290612d6d57601854841415612ca6578051601855612d5d565b6019546040517f389857cd00000000000000000000000000000000000000000000000000000000815230600482015260006024820181905260448201879052916001600160a01b03169063389857cd9060640160206040518083038186803b158015612d1157600080fd5b505afa158015612d25573d6000803e3d6000fd5b505050506040513d601f19601f82011682018060405250810190612d499190613421565b825160009182526016602052604090912055505b6000848152601660205260408120555b50505050565b600082815260156020526040902060010154612d8f828261343a565b600084815260156020908152604091829020600181018490558251808401909352548252810182905290612d6d57601754841415612dd1578051601755612e88565b6019546040517f389857cd00000000000000000000000000000000000000000000000000000000815230600482015260016024820152604481018690526000916001600160a01b03169063389857cd9060640160206040518083038186803b158015612e3c57600080fd5b505afa158015612e50573d6000803e3d6000fd5b505050506040513d601f19601f82011682018060405250810190612e749190613421565b825160009182526015602052604090912055505b505050600090815260156020526040812055565b60008183126125555781612557565b828054612eb790613386565b90600052602060002090601f016020900481019282612ed95760008555612f1f565b82601f10612ef257805160ff1916838001178555612f1f565b82800160010185558215612f1f579182015b82811115612f1f578251825591602001919060010190612f04565b50612f2b929150612f2f565b5090565b5b80821115612f2b5760008155600101612f30565b600060208284031215612f5657600080fd5b5035919050565b6001600160a01b038116811461163557600080fd5b8035612f7d81612f5d565b919050565b600080600060608486031215612f9757600080fd5b8335612fa281612f5d565b95602085013595506040909401359392505050565b600060208083528351808285015260005b81811015612fe457858101830151858201604001528201612fc8565b81811115612ff6576000604083870101525b50601f017fffffffffffffffffffffffffffffffffffffffffffffffffffffffffffffffe016929092016040019392505050565b60006020828403121561303c57600080fd5b813561255781612f5d565b60008060006060848603121561305c57600080fd5b833561306781612f5d565b92506020840135915060408401356002811061308257600080fd5b809150509250925092565b600080604083850312156130a057600080fd5b50508035926020909101359150565b7f4e487b7100000000000000000000000000000000000000000000000000000000600052604160045260246000fd5b60008060008060008060c087890312156130f757600080fd5b863567ffffffffffffffff8082111561310f57600080fd5b818901915089601f83011261312357600080fd5b813581811115613135576131356130af565b604051601f82017fffffffffffffffffffffffffffffffffffffffffffffffffffffffffffffffe0908116603f0116810190838211818310171561317b5761317b6130af565b816040528281528c602084870101111561319457600080fd5b82602086016020830137600060208483010152809a5050505050506131bb60208801612f72565b9450604087013593506131d060608801612f72565b9250608087013591506131e560a08801612f72565b90509295509295509295565b6000806000806080858703121561320757600080fd5b5050823594602084013594506040840135936060013592509050565b6000806040838503121561323657600080fd5b823561324181612f5d565b946020939093013593505050565b6000806000806080858703121561326557600080fd5b843561327081612f5d565b935060208501359250604085013591506060850135801515811461329357600080fd5b939692955090935050565b7f4e487b7100000000000000000000000000000000000000000000000000000000600052601160045260246000fd5b6000817fffffffffffffffffffffffffffffffffffffffffffffffffffffffffffffffff04831182151516156133055761330561329e565b500290565b7f4e487b7100000000000000000000000000000000000000000000000000000000600052601260045260246000fd5b6000826133485761334861330a565b500490565b60007f800000000000000000000000000000000000000000000000000000000000000082141561337f5761337f61329e565b5060000390565b600181811c9082168061339a57607f821691505b602082108114156133d4577f4e487b7100000000000000000000000000000000000000000000000000000000600052602260045260246000fd5b50919050565b600082198211156133ed576133ed61329e565b500190565b7f4e487b7100000000000000000000000000000000000000000000000000000000600052602160045260246000fd5b60006020828403121561343357600080fd5b5051919050565b60008282101561344c5761344c61329e565b500390565b600181815b8085111561271457817fffffffffffffffffffffffffffffffffffffffffffffffffffffffffffffffff048211156134905761349061329e565b8085161561349d57918102915b93841c9390800290613456565b6000826134b957506001612540565b816134c657506000612540565b81600181146134dc57600281146134e657613502565b6001915050612540565b60ff8411156134f7576134f761329e565b50506001821b612540565b5060208310610133831016604e8410600b8410161715613525575081810a612540565b61352f8383613451565b807fffffffffffffffffffffffffffffffffffffffffffffffffffffffffffffffff048211156135615761356161329e565b029392505050565b600061255783836134aa565b60006020828403121561358757600080fd5b815161255781612f5d565b60007f7fffffffffffffffffffffffffffffffffffffffffffffffffffffffffffffff6000841360008413858304851182821616156135d3576135d361329e565b7f8000000000000000000000000000000000000000000000000000000000000000600087128682058812818416161561360e5761360e61329e565b6000871292508782058712848416161561362a5761362a61329e565b878505871281841616156136405761364061329e565b505050929093029392505050565b60008261365d5761365d61330a565b7fffffffffffffffffffffffffffffffffffffffffffffffffffffffffffffffff83147f8000000000000000000000000000000000000000000000000000000000000000831416156136b1576136b161329e565b500590565b6000808312837f8000000000000000000000000000000000000000000000000000000000000000018312811516156136f0576136f061329e565b837f7fffffffffffffffffffffffffffffffffffffffffffffffffffffffffffffff0183138116156137245761372461329e565b50500390565b6000808212827f7fffffffffffffffffffffffffffffffffffffffffffffffffffffffffffffff038413811516156137645761376461329e565b827f80000000000000000000000000000000000000000000000000000000000000000384128116156137985761379861329e565b5050019056fea2646970667358221220894a63dbd60ded85537e268ac62ba882ac934c03c5436b27724d738522dcbe7b64736f6c63430008090033",
  "linkReferences": {},
  "deployedLinkReferences": {}
}