{
  "_format": "hh-sol-artifact-1",
  "contractName": "VanillaGovernable",
  "sourceName": "contracts/legos/Governable.sol",
  "abi": [
    {
      "inputs": [],
      "name": "governance",
      "outputs": [
        {
          "internalType": "address",
          "name": "",
          "type": "address"
        }
      ],
      "stateMutability": "view",
      "type": "function"
    },
    {
      "inputs": [
        {
          "internalType": "address",
          "name": "__governance",
          "type": "address"
        }
      ],
      "name": "setGovernace",
      "outputs": [],
      "stateMutability": "nonpayable",
      "type": "function"
    }
  ],
  "bytecode": "0x608060405234801561001057600080fd5b506101b7806100206000396000f3fe608060405234801561001057600080fd5b50600436106100365760003560e01c80635aa6e6751461003b578063851e3ca514610067575b600080fd5b6000546040805173ffffffffffffffffffffffffffffffffffffffff9092168252519081900360200190f35b61007a610075366004610144565b61007c565b005b60005473ffffffffffffffffffffffffffffffffffffffff163314610101576040517f08c379a000000000000000000000000000000000000000000000000000000000815260206004820152600f60248201527f4f4e4c595f474f5645524e414e43450000000000000000000000000000000000604482015260640160405180910390fd5b600080547fffffffffffffffffffffffff00000000000000000000000000000000000000001673ffffffffffffffffffffffffffffffffffffffff831617905550565b60006020828403121561015657600080fd5b813573ffffffffffffffffffffffffffffffffffffffff8116811461017a57600080fd5b939250505056fea26469706673582212200f29c94636af5c59e17e1bd933c8298db1be5f45851d7d5e9ad902362977927464736f6c63430008090033",
  "linkReferences": {},
  "deployedLinkReferences": {}
}