{
  "_format": "hh-sol-artifact-1",
  "contractName": "CircuitBreaker",
  "sourceName": "contracts/circuitBreaker/eip-7265/src/core/CircuitBreaker.sol",
  "abi": [
    {
      "inputs": [],
      "name": "CooldownPeriodNotReached",
      "type": "error"
    },
    {
      "inputs": [],
      "name": "InvalidAdminAddress",
      "type": "error"
    },
    {
      "inputs": [],
      "name": "InvalidGracePeriodEnd",
      "type": "error"
    },
    {
      "inputs": [],
      "name": "InvalidMinimumLiquidityThreshold",
      "type": "error"
    },
    {
      "inputs": [],
      "name": "InvalidRecipientAddress",
      "type": "error"
    },
    {
      "inputs": [],
      "name": "LimiterAlreadyInitialized",
      "type": "error"
    },
    {
      "inputs": [],
      "name": "LimiterNotInitialized",
      "type": "error"
    },
    {
      "inputs": [],
      "name": "NativeTransferFailed",
      "type": "error"
    },
    {
      "inputs": [],
      "name": "NoLockedFunds",
      "type": "error"
    },
    {
      "inputs": [],
      "name": "NotAProtectedContract",
      "type": "error"
    },
    {
      "inputs": [],
      "name": "NotAdmin",
      "type": "error"
    },
    {
      "inputs": [],
      "name": "NotExploited",
      "type": "error"
    },
    {
      "inputs": [],
      "name": "NotRateLimited",
      "type": "error"
    },
    {
      "inputs": [],
      "name": "ProtocolWasExploited",
      "type": "error"
    },
    {
      "inputs": [],
      "name": "RateLimited",
      "type": "error"
    },
    {
      "inputs": [],
      "name": "TokenNotRateLimited",
      "type": "error"
    },
    {
      "anonymous": false,
      "inputs": [
        {
          "indexed": true,
          "internalType": "address",
          "name": "newAdmin",
          "type": "address"
        }
      ],
      "name": "AdminSet",
      "type": "event"
    },
    {
      "anonymous": false,
      "inputs": [
        {
          "indexed": true,
          "internalType": "address",
          "name": "token",
          "type": "address"
        },
        {
          "indexed": true,
          "internalType": "uint256",
          "name": "amount",
          "type": "uint256"
        }
      ],
      "name": "AssetInflow",
      "type": "event"
    },
    {
      "anonymous": false,
      "inputs": [
        {
          "indexed": true,
          "internalType": "address",
          "name": "asset",
          "type": "address"
        },
        {
          "indexed": false,
          "internalType": "uint256",
          "name": "timestamp",
          "type": "uint256"
        }
      ],
      "name": "AssetRateLimitBreached",
      "type": "event"
    },
    {
      "anonymous": false,
      "inputs": [
        {
          "indexed": true,
          "internalType": "address",
          "name": "asset",
          "type": "address"
        },
        {
          "indexed": false,
          "internalType": "uint256",
          "name": "metricThreshold",
          "type": "uint256"
        },
        {
          "indexed": false,
          "internalType": "uint256",
          "name": "minAmountToLimit",
          "type": "uint256"
        }
      ],
      "name": "AssetRegistered",
      "type": "event"
    },
    {
      "anonymous": false,
      "inputs": [
        {
          "indexed": true,
          "internalType": "address",
          "name": "asset",
          "type": "address"
        },
        {
          "indexed": true,
          "internalType": "address",
          "name": "recipient",
          "type": "address"
        },
        {
          "indexed": false,
          "internalType": "uint256",
          "name": "amount",
          "type": "uint256"
        }
      ],
      "name": "AssetWithdraw",
      "type": "event"
    },
    {
      "anonymous": false,
      "inputs": [
        {
          "indexed": false,
          "internalType": "uint256",
          "name": "gracePeriodEnd",
          "type": "uint256"
        }
      ],
      "name": "GracePeriodStarted",
      "type": "event"
    },
    {
      "anonymous": false,
      "inputs": [
        {
          "indexed": true,
          "internalType": "address",
          "name": "asset",
          "type": "address"
        },
        {
          "indexed": true,
          "internalType": "address",
          "name": "recipient",
          "type": "address"
        }
      ],
      "name": "LockedFundsClaimed",
      "type": "event"
    },
    {
      "anonymous": false,
      "inputs": [
        {
          "indexed": true,
          "internalType": "address",
          "name": "token",
          "type": "address"
        },
        {
          "indexed": false,
          "internalType": "uint256",
          "name": "timestamp",
          "type": "uint256"
        }
      ],
      "name": "TokenBacklogCleaned",
      "type": "event"
    },
    {
      "inputs": [],
      "name": "NATIVE_ADDRESS_PROXY",
      "outputs": [
        {
          "internalType": "address",
          "name": "",
          "type": "address"
        }
      ],
      "stateMutability": "view",
      "type": "function"
    },
    {
      "inputs": [],
      "name": "TICK_LENGTH",
      "outputs": [
        {
          "internalType": "uint256",
          "name": "",
          "type": "uint256"
        }
      ],
      "stateMutability": "view",
      "type": "function"
    },
    {
      "inputs": [],
      "name": "WITHDRAWAL_PERIOD",
      "outputs": [
        {
          "internalType": "uint256",
          "name": "",
          "type": "uint256"
        }
      ],
      "stateMutability": "view",
      "type": "function"
    },
    {
      "inputs": [
        {
          "internalType": "address[]",
          "name": "_ProtectedContracts",
          "type": "address[]"
        }
      ],
      "name": "addProtectedContracts",
      "outputs": [],
      "stateMutability": "nonpayable",
      "type": "function"
    },
    {
      "inputs": [],
      "name": "admin",
      "outputs": [
        {
          "internalType": "address",
          "name": "",
          "type": "address"
        }
      ],
      "stateMutability": "view",
      "type": "function"
    },
    {
      "inputs": [
        {
          "internalType": "address",
          "name": "_asset",
          "type": "address"
        },
        {
          "internalType": "address",
          "name": "_recipient",
          "type": "address"
        }
      ],
      "name": "claimLockedFunds",
      "outputs": [],
      "stateMutability": "nonpayable",
      "type": "function"
    },
    {
      "inputs": [
        {
          "internalType": "address",
          "name": "_token",
          "type": "address"
        },
        {
          "internalType": "uint256",
          "name": "_maxIterations",
          "type": "uint256"
        }
      ],
      "name": "clearBackLog",
      "outputs": [],
      "stateMutability": "nonpayable",
      "type": "function"
    },
    {
      "inputs": [],
      "name": "gracePeriodEndTimestamp",
      "outputs": [
        {
          "internalType": "uint256",
          "name": "",
          "type": "uint256"
        }
      ],
      "stateMutability": "view",
      "type": "function"
    },
    {
      "inputs": [],
      "name": "isInGracePeriod",
      "outputs": [
        {
          "internalType": "bool",
          "name": "",
          "type": "bool"
        }
      ],
      "stateMutability": "view",
      "type": "function"
    },
    {
      "inputs": [],
      "name": "isOperational",
      "outputs": [
        {
          "internalType": "bool",
          "name": "",
          "type": "bool"
        }
      ],
      "stateMutability": "view",
      "type": "function"
    },
    {
      "inputs": [
        {
          "internalType": "address",
          "name": "",
          "type": "address"
        }
      ],
      "name": "isProtectedContract",
      "outputs": [
        {
          "internalType": "bool",
          "name": "",
          "type": "bool"
        }
      ],
      "stateMutability": "view",
      "type": "function"
    },
    {
      "inputs": [
        {
          "internalType": "address",
          "name": "_asset",
          "type": "address"
        }
      ],
      "name": "isRateLimitTriggered",
      "outputs": [
        {
          "internalType": "bool",
          "name": "",
          "type": "bool"
        }
      ],
      "stateMutability": "view",
      "type": "function"
    },
    {
      "inputs": [],
      "name": "isRateLimited",
      "outputs": [
        {
          "internalType": "bool",
          "name": "",
          "type": "bool"
        }
      ],
      "stateMutability": "view",
      "type": "function"
    },
    {
      "inputs": [],
      "name": "lastRateLimitTimestamp",
      "outputs": [
        {
          "internalType": "uint256",
          "name": "",
          "type": "uint256"
        }
      ],
      "stateMutability": "view",
      "type": "function"
    },
    {
      "inputs": [
        {
          "internalType": "address",
          "name": "",
          "type": "address"
        },
        {
          "internalType": "address",
          "name": "",
          "type": "address"
        }
      ],
      "name": "lockedFunds",
      "outputs": [
        {
          "internalType": "uint256",
          "name": "",
          "type": "uint256"
        }
      ],
      "stateMutability": "view",
      "type": "function"
    },
    {
      "inputs": [],
      "name": "markAsNotOperational",
      "outputs": [],
      "stateMutability": "nonpayable",
      "type": "function"
    },
    {
      "inputs": [
        {
          "internalType": "address[]",
          "name": "_assets",
          "type": "address[]"
        },
        {
          "internalType": "address",
          "name": "_recoveryRecipient",
          "type": "address"
        }
      ],
      "name": "migrateFundsAfterExploit",
      "outputs": [],
      "stateMutability": "nonpayable",
      "type": "function"
    },
    {
      "inputs": [
        {
          "internalType": "uint256",
          "name": "_amount",
          "type": "uint256"
        }
      ],
      "name": "onNativeAssetInflow",
      "outputs": [],
      "stateMutability": "nonpayable",
      "type": "function"
    },
    {
      "inputs": [
        {
          "internalType": "address",
          "name": "_recipient",
          "type": "address"
        },
        {
          "internalType": "bool",
          "name": "_revertOnRateLimit",
          "type": "bool"
        }
      ],
      "name": "onNativeAssetOutflow",
      "outputs": [],
      "stateMutability": "payable",
      "type": "function"
    },
    {
      "inputs": [
        {
          "internalType": "address",
          "name": "_token",
          "type": "address"
        },
        {
          "internalType": "uint256",
          "name": "_amount",
          "type": "uint256"
        }
      ],
      "name": "onTokenInflow",
      "outputs": [],
      "stateMutability": "nonpayable",
      "type": "function"
    },
    {
      "inputs": [
        {
          "internalType": "address",
          "name": "_token",
          "type": "address"
        },
        {
          "internalType": "uint256",
          "name": "_amount",
          "type": "uint256"
        },
        {
          "internalType": "address",
          "name": "_recipient",
          "type": "address"
        },
        {
          "internalType": "bool",
          "name": "_revertOnRateLimit",
          "type": "bool"
        }
      ],
      "name": "onTokenOutflow",
      "outputs": [],
      "stateMutability": "nonpayable",
      "type": "function"
    },
    {
      "inputs": [],
      "name": "overrideExpiredRateLimit",
      "outputs": [],
      "stateMutability": "nonpayable",
      "type": "function"
    },
    {
      "inputs": [],
      "name": "overrideRateLimit",
      "outputs": [],
      "stateMutability": "nonpayable",
      "type": "function"
    },
    {
      "inputs": [],
      "name": "rateLimitCooldownPeriod",
      "outputs": [
        {
          "internalType": "uint256",
          "name": "",
          "type": "uint256"
        }
      ],
      "stateMutability": "view",
      "type": "function"
    },
    {
      "inputs": [
        {
          "internalType": "address",
          "name": "_asset",
          "type": "address"
        },
        {
          "internalType": "uint256",
          "name": "_minLiqRetainedBps",
          "type": "uint256"
        },
        {
          "internalType": "uint256",
          "name": "_limitBeginThreshold",
          "type": "uint256"
        }
      ],
      "name": "registerAsset",
      "outputs": [],
      "stateMutability": "nonpayable",
      "type": "function"
    },
    {
      "inputs": [
        {
          "internalType": "address[]",
          "name": "_ProtectedContracts",
          "type": "address[]"
        }
      ],
      "name": "removeProtectedContracts",
      "outputs": [],
      "stateMutability": "nonpayable",
      "type": "function"
    },
    {
      "inputs": [
        {
          "internalType": "address",
          "name": "_newAdmin",
          "type": "address"
        }
      ],
      "name": "setAdmin",
      "outputs": [],
      "stateMutability": "nonpayable",
      "type": "function"
    },
    {
      "inputs": [
        {
          "internalType": "uint256",
          "name": "_gracePeriodEndTimestamp",
          "type": "uint256"
        }
      ],
      "name": "startGracePeriod",
      "outputs": [],
      "stateMutability": "nonpayable",
      "type": "function"
    },
    {
      "inputs": [
        {
          "internalType": "address",
          "name": "",
          "type": "address"
        }
      ],
      "name": "tokenLimiters",
      "outputs": [
        {
          "internalType": "uint256",
          "name": "minLiqRetainedBps",
          "type": "uint256"
        },
        {
          "internalType": "uint256",
          "name": "limitBeginThreshold",
          "type": "uint256"
        },
        {
          "internalType": "int256",
          "name": "liqTotal",
          "type": "int256"
        },
        {
          "internalType": "int256",
          "name": "liqInPeriod",
          "type": "int256"
        },
        {
          "internalType": "uint256",
          "name": "listHead",
          "type": "uint256"
        },
        {
          "internalType": "uint256",
          "name": "listTail",
          "type": "uint256"
        }
      ],
      "stateMutability": "view",
      "type": "function"
    },
    {
      "inputs": [
        {
          "internalType": "address",
          "name": "_token",
          "type": "address"
        },
        {
          "internalType": "uint256",
          "name": "_tickTimestamp",
          "type": "uint256"
        }
      ],
      "name": "tokenLiquidityChanges",
      "outputs": [
        {
          "internalType": "uint256",
          "name": "nextTimestamp",
          "type": "uint256"
        },
        {
          "internalType": "int256",
          "name": "amount",
          "type": "int256"
        }
      ],
      "stateMutability": "view",
      "type": "function"
    },
    {
      "inputs": [
        {
          "internalType": "address",
          "name": "_asset",
          "type": "address"
        },
        {
          "internalType": "uint256",
          "name": "_minLiqRetainedBps",
          "type": "uint256"
        },
        {
          "internalType": "uint256",
          "name": "_limitBeginThreshold",
          "type": "uint256"
        }
      ],
      "name": "updateAssetParams",
      "outputs": [],
      "stateMutability": "nonpayable",
      "type": "function"
    }
  ],
  "bytecode": "0x60a0604052600160808190526009805460ff1916909117905534801561002457600080fd5b5060805161278561005c600039600081816102f201528181610866015281816109af01528181610f4601526116b901526127856000f3fe6080604052600436106101d85760003560e01c8063a04d9c8911610102578063df4675f011610095578063f851a44011610064578063f851a4401461060c578063fc8f8f3214610639578063fd0e8ba214610669578063fd8bb2fb1461067f57600080fd5b8063df4675f014610539578063e7e4654714610559578063f25f7d8a1461056f578063f635bbf31461058f57600080fd5b8063ceee7166116100d1578063ceee7166146104cc578063cf27d016146104ec578063d1c190c014610504578063d2645c691461051957600080fd5b8063a04d9c8914610467578063b6a910491461047c578063bd95840f1461049c578063cd905dff146104b257600080fd5b80633c0573581161017a5780634bdde1cf116101495780634bdde1cf146103e75780635d8261281461041f578063704b6c02146104345780637df5369b1461045457600080fd5b80633c057358146102e05780634088bddc1461033957806343e2a33d146103a757806345092543146103c757600080fd5b8063238296e8116101b6578063238296e81461025e57806333d1f0fd146102805780633567ee3a146102a057806337d0ed35146102c057600080fd5b80630bf390b8146101dd5780631b7253331461020657806320e3ee981461021c575b600080fd5b3480156101e957600080fd5b506101f360075481565b6040519081526020015b60405180910390f35b34801561021257600080fd5b506101f360055481565b34801561022857600080fd5b5060035461024e9074010000000000000000000000000000000000000000900460ff1681565b60405190151581526020016101fd565b34801561026a57600080fd5b5061027e6102793660046120ec565b61069f565b005b34801561028c57600080fd5b5061024e61029b366004612157565b610792565b3480156102ac57600080fd5b5061027e6102bb366004612172565b6107dc565b3480156102cc57600080fd5b5061027e6102db36600461218b565b61088e565b3480156102ec57600080fd5b506103147f000000000000000000000000000000000000000000000000000000000000000081565b60405173ffffffffffffffffffffffffffffffffffffffff90911681526020016101fd565b34801561034557600080fd5b5061039261035436600461218b565b73ffffffffffffffffffffffffffffffffffffffff909116600090815260208181526040808320938352600690930190522080546001909101549091565b604080519283526020830191909152016101fd565b3480156103b357600080fd5b5061027e6103c23660046121b5565b610914565b3480156103d357600080fd5b5061027e6103e2366004612209565b610b64565b3480156103f357600080fd5b506101f3610402366004612209565b600160209081526000928352604080842090915290825290205481565b34801561042b57600080fd5b5061027e610ccd565b34801561044057600080fd5b5061027e61044f366004612157565b610daf565b61027e61046236600461224a565b610ebc565b34801561047357600080fd5b5061027e610f71565b34801561048857600080fd5b5061027e610497366004612281565b611037565b3480156104a857600080fd5b506101f360065481565b3480156104be57600080fd5b5060095461024e9060ff1681565b3480156104d857600080fd5b5061027e6104e73660046122b4565b61110e565b3480156104f857600080fd5b5060065442111561024e565b34801561051057600080fd5b5061027e61119f565b34801561052557600080fd5b5061027e61053436600461218b565b61121a565b34801561054557600080fd5b5061027e610554366004612172565b6112a9565b34801561056557600080fd5b506101f360045481565b34801561057b57600080fd5b5061027e61058a366004612281565b61136e565b34801561059b57600080fd5b506105df6105aa366004612157565b600060208190529081526040902080546001820154600283015460038401546004850154600590950154939492939192909186565b604080519687526020870195909552938501929092526060840152608083015260a082015260c0016101fd565b34801561061857600080fd5b506003546103149073ffffffffffffffffffffffffffffffffffffffff1681565b34801561064557600080fd5b5061024e610654366004612157565b60026020526000908152604090205460ff1681565b34801561067557600080fd5b506101f360085481565b34801561068b57600080fd5b5061027e61069a3660046120ec565b6113fd565b60035473ffffffffffffffffffffffffffffffffffffffff1633146106f0576040517f7bfa4b9f00000000000000000000000000000000000000000000000000000000815260040160405180910390fd5b60005b8181101561078d5760006002600085858581811061071357610713612303565b90506020020160208101906107289190612157565b73ffffffffffffffffffffffffffffffffffffffff168152602081019190915260400160002080547fffffffffffffffffffffffffffffffffffffffffffffffffffffffffffffff00169115159190911790558061078581612361565b9150506106f3565b505050565b6000600373ffffffffffffffffffffffffffffffffffffffff831660009081526020819052604090206107c4906114eb565b60038111156107d5576107d561239a565b1492915050565b3360009081526002602052604090205460ff16610825576040517fadcbd16c00000000000000000000000000000000000000000000000000000000815260040160405180910390fd5b60095460ff16610861576040517f9167d6d200000000000000000000000000000000000000000000000000000000815260040160405180910390fd5b61088b7f00000000000000000000000000000000000000000000000000000000000000008261156c565b50565b60075473ffffffffffffffffffffffffffffffffffffffff831660009081526020819052604090206108c091836115ed565b8173ffffffffffffffffffffffffffffffffffffffff167f693de8467b3a88a065868f6f8c40bf477316bf111d6893b753ee9392d108a0c74260405161090891815260200190565b60405180910390a25050565b60035473ffffffffffffffffffffffffffffffffffffffff163314610965576040517f7bfa4b9f00000000000000000000000000000000000000000000000000000000815260040160405180910390fd5b60095460ff16156109a2576040517f69e105b100000000000000000000000000000000000000000000000000000000815260040160405180910390fd5b60005b82811015610b5e577f000000000000000000000000000000000000000000000000000000000000000073ffffffffffffffffffffffffffffffffffffffff168484838181106109f6576109f6612303565b9050602002016020810190610a0b9190612157565b73ffffffffffffffffffffffffffffffffffffffff161415610a6557478015610a5f57610a5f858584818110610a4357610a43612303565b9050602002016020810190610a589190612157565b84836116b1565b50610b4c565b6000848483818110610a7957610a79612303565b9050602002016020810190610a8e9190612157565b6040517f70a0823100000000000000000000000000000000000000000000000000000000815230600482015273ffffffffffffffffffffffffffffffffffffffff91909116906370a082319060240160206040518083038186803b158015610af557600080fd5b505afa158015610b09573d6000803e3d6000fd5b505050506040513d601f19601f82011682018060405250810190610b2d91906123c9565b90508015610b4a57610b4a858584818110610a4357610a43612303565b505b80610b5681612361565b9150506109a5565b50505050565b60095460ff16610ba0576040517f9167d6d200000000000000000000000000000000000000000000000000000000815260040160405180910390fd5b73ffffffffffffffffffffffffffffffffffffffff808216600090815260016020908152604080832093861683529290522054610c09576040517fcefac85200000000000000000000000000000000000000000000000000000000815260040160405180910390fd5b60035474010000000000000000000000000000000000000000900460ff1615610c5e576040517f3f7b7a6800000000000000000000000000000000000000000000000000000000815260040160405180910390fd5b73ffffffffffffffffffffffffffffffffffffffff81811660008181526001602090815260408083209487168084529490915280822080549083905590519093917fc1268883ab9744742fc9732dd92d12f51f48f50fa2f3d9fbcfaad07fd987d93c91a361078d8383836116b1565b60035473ffffffffffffffffffffffffffffffffffffffff163314610d1e576040517f7bfa4b9f00000000000000000000000000000000000000000000000000000000815260040160405180910390fd5b60035474010000000000000000000000000000000000000000900460ff16610d72576040517fe0da348b00000000000000000000000000000000000000000000000000000000815260040160405180910390fd5b600380547fffffffffffffffffffffff00ffffffffffffffffffffffffffffffffffffffff169055600754600554610daa91906123e2565b600655565b60035473ffffffffffffffffffffffffffffffffffffffff163314610e00576040517f7bfa4b9f00000000000000000000000000000000000000000000000000000000815260040160405180910390fd5b73ffffffffffffffffffffffffffffffffffffffff8116610e4d576040517f05bb467c00000000000000000000000000000000000000000000000000000000815260040160405180910390fd5b600380547fffffffffffffffffffffffff00000000000000000000000000000000000000001673ffffffffffffffffffffffffffffffffffffffff83169081179091556040517f8fe72c3e0020beb3234e76ae6676fa576fbfcae600af1c4fea44784cf0db329c90600090a250565b3360009081526002602052604090205460ff16610f05576040517fadcbd16c00000000000000000000000000000000000000000000000000000000815260040160405180910390fd5b60095460ff16610f41576040517f9167d6d200000000000000000000000000000000000000000000000000000000815260040160405180910390fd5b610f6d7f00000000000000000000000000000000000000000000000000000000000000003484846117c6565b5050565b60035474010000000000000000000000000000000000000000900460ff16610fc5576040517fe0da348b00000000000000000000000000000000000000000000000000000000815260040160405180910390fd5b600454600554610fd590426123fa565b101561100d576040517fecc681e600000000000000000000000000000000000000000000000000000000815260040160405180910390fd5b600380547fffffffffffffffffffffff00ffffffffffffffffffffffffffffffffffffffff169055565b60035473ffffffffffffffffffffffffffffffffffffffff163314611088576040517f7bfa4b9f00000000000000000000000000000000000000000000000000000000815260040160405180910390fd5b73ffffffffffffffffffffffffffffffffffffffff831660009081526020819052604090206110b8908383611a85565b604080518381526020810183905273ffffffffffffffffffffffffffffffffffffffff8516917f79027ea9fff2475804c5daad7cfe19ab96bc4e10ffcc09ef8e446784e6733aa3910160405180910390a2505050565b3360009081526002602052604090205460ff16611157576040517fadcbd16c00000000000000000000000000000000000000000000000000000000815260040160405180910390fd5b60095460ff16611193576040517f9167d6d200000000000000000000000000000000000000000000000000000000815260040160405180910390fd5b610b5e848484846117c6565b60035473ffffffffffffffffffffffffffffffffffffffff1633146111f0576040517f7bfa4b9f00000000000000000000000000000000000000000000000000000000815260040160405180910390fd5b600980547fffffffffffffffffffffffffffffffffffffffffffffffffffffffffffffff00169055565b3360009081526002602052604090205460ff16611263576040517fadcbd16c00000000000000000000000000000000000000000000000000000000815260040160405180910390fd5b60095460ff1661129f576040517f9167d6d200000000000000000000000000000000000000000000000000000000815260040160405180910390fd5b610f6d828261156c565b60035473ffffffffffffffffffffffffffffffffffffffff1633146112fa576040517f7bfa4b9f00000000000000000000000000000000000000000000000000000000815260040160405180910390fd5b428111611333576040517f84a664f000000000000000000000000000000000000000000000000000000000815260040160405180910390fd5b60068190556040518181527f8f8e13a8081be398c5032b04ccda337e916cf2d86c3708db9a734e6db8eb54909060200160405180910390a150565b60035473ffffffffffffffffffffffffffffffffffffffff1633146113bf576040517f7bfa4b9f00000000000000000000000000000000000000000000000000000000815260040160405180910390fd5b73ffffffffffffffffffffffffffffffffffffffff831660009081526020819052604090206113ef818484611b0e565b600754610b5e908290611b8b565b60035473ffffffffffffffffffffffffffffffffffffffff16331461144e576040517f7bfa4b9f00000000000000000000000000000000000000000000000000000000815260040160405180910390fd5b60005b8181101561078d5760016002600085858581811061147157611471612303565b90506020020160208101906114869190612157565b73ffffffffffffffffffffffffffffffffffffffff168152602081019190915260400160002080547fffffffffffffffffffffffffffffffffffffffffffffffffffffffffffffff0016911515919091179055806114e381612361565b915050611451565b60006114f78254151590565b61150357506000919050565b6002820154600183015481101561151d5750600192915050565b600083600301548261152f9190612411565b905060006127108560000154846115469190612485565b6115509190612570565b9050808212611560576002611563565b60035b95945050505050565b73ffffffffffffffffffffffffffffffffffffffff821660009081526020819052604090206007546008546115a5918391859190611bb6565b604051829073ffffffffffffffffffffffffffffffffffffffff8516907f9d7ee9b1217b1fbfd93e03492fd87f13d2006c8c1a50f1fbfcd5ac3d5ac9383590600090a3505050565b60048301546000805b821580159061160e57508461160b84426123fa565b10155b801561161957508381105b156116565760008381526006870160205260409020600181015461163d9084612411565b90546000949094526006870160205291506001016115f6565b8261166d5742600487018190556005870155611675565b600486018390555b818660020160008282546116899190612411565b92505081905550818660030160008282546116a491906125d8565b9091555050505050505050565b801561078d577f000000000000000000000000000000000000000000000000000000000000000073ffffffffffffffffffffffffffffffffffffffff168373ffffffffffffffffffffffffffffffffffffffff1614156117a55760008273ffffffffffffffffffffffffffffffffffffffff168260405160006040518083038185875af1925050503d8060008114611765576040519150601f19603f3d011682016040523d82523d6000602084013e61176a565b606091505b5050905080610b5e576040517ff4b3b1bc00000000000000000000000000000000000000000000000000000000815260040160405180910390fd5b61078d73ffffffffffffffffffffffffffffffffffffffff84168383611cd6565b73ffffffffffffffffffffffffffffffffffffffff841660009081526020819052604090208054611802576117fc8584866116b1565b50610b5e565b61181d61180e8561264c565b60075460085484929190611bb6565b60035474010000000000000000000000000000000000000000900460ff16156118c8578115611878576040517f3f7b7a6800000000000000000000000000000000000000000000000000000000815260040160405180910390fd5b73ffffffffffffffffffffffffffffffffffffffff8084166000908152600160209081526040808320938916835292905290812080548692906118bc9084906123e2565b90915550610b5e915050565b60036118d3826114eb565b60038111156118e4576118e461239a565b1480156118f2575060065442115b15611a0c57811561192f576040517f3f7b7a6800000000000000000000000000000000000000000000000000000000815260040160405180910390fd5b600380547fffffffffffffffffffffff00ffffffffffffffffffffffffffffffffffffffff16740100000000000000000000000000000000000000001790554260055573ffffffffffffffffffffffffffffffffffffffff8084166000908152600160209081526040808320938916835292905290812080548692906119b69084906123e2565b909155505060405142815273ffffffffffffffffffffffffffffffffffffffff8616907f336a8448ba3c4bf1fece8082364327c9aca7976831b2c539009df29850046c909060200160405180910390a250610b5e565b611a178584866116b1565b8273ffffffffffffffffffffffffffffffffffffffff168573ffffffffffffffffffffffffffffffffffffffff167f3d32c53b74e7c44a5e4e1caa6ae931adab7c39bf958730ca47f761ac5ad0ac5586604051611a7691815260200190565b60405180910390a35050505050565b811580611a93575061271082115b15611aca576040517f21e5b0ae00000000000000000000000000000000000000000000000000000000815260040160405180910390fd5b825415611b03576040517f0c8b430b00000000000000000000000000000000000000000000000000000000815260040160405180910390fd5b908255600190910155565b811580611b1c575061271082115b15611b53576040517f21e5b0ae00000000000000000000000000000000000000000000000000000000815260040160405180910390fd5b8254611b03576040517fe6b19d0400000000000000000000000000000000000000000000000000000000815260040160405180910390fd5b610f6d82827fffffffffffffffffffffffffffffffffffffffffffffffffffffffffffffffff6115ed565b8354611bc157610b5e565b6000611bcd4283611d63565b905083856003016000828254611be39190612411565b9091555050600485015480611c345760048601829055600586018290556040805180820182526000808252602080830189815286835260068b01909152929020905181559051600190910155611cce565b83611c3f82426123fa565b10611c4e57611c4e8685611b8b565b600586015482811415611c8957600083815260068801602052604081206001018054889290611c7e908490612411565b90915550611ccc9050565b60008181526006880160208181526040808420879055805180820182528481528083018b8152888652939092529092209151825551600190910155600587018390555b505b505050505050565b6040805173ffffffffffffffffffffffffffffffffffffffff8416602482015260448082018490528251808303909101815260649091019091526020810180517bffffffffffffffffffffffffffffffffffffffffffffffffffffffff167fa9059cbb0000000000000000000000000000000000000000000000000000000017905261078d908490611d80565b6000611d6f8284612685565b611d7990846123fa565b9392505050565b6000611de2826040518060400160405280602081526020017f5361666545524332303a206c6f772d6c6576656c2063616c6c206661696c65648152508573ffffffffffffffffffffffffffffffffffffffff16611e949092919063ffffffff16565b9050805160001480611e03575080806020019051810190611e039190612699565b61078d576040517f08c379a000000000000000000000000000000000000000000000000000000000815260206004820152602a60248201527f5361666545524332303a204552433230206f7065726174696f6e20646964206e60448201527f6f7420737563636565640000000000000000000000000000000000000000000060648201526084015b60405180910390fd5b6060611ea38484600085611eab565b949350505050565b606082471015611f3d576040517f08c379a000000000000000000000000000000000000000000000000000000000815260206004820152602660248201527f416464726573733a20696e73756666696369656e742062616c616e636520666f60448201527f722063616c6c00000000000000000000000000000000000000000000000000006064820152608401611e8b565b6000808673ffffffffffffffffffffffffffffffffffffffff168587604051611f6691906126e2565b60006040518083038185875af1925050503d8060008114611fa3576040519150601f19603f3d011682016040523d82523d6000602084013e611fa8565b606091505b5091509150611fb987838387611fc4565b979650505050505050565b606083156120575782516120505773ffffffffffffffffffffffffffffffffffffffff85163b612050576040517f08c379a000000000000000000000000000000000000000000000000000000000815260206004820152601d60248201527f416464726573733a2063616c6c20746f206e6f6e2d636f6e74726163740000006044820152606401611e8b565b5081611ea3565b611ea3838381511561206c5781518083602001fd5b806040517f08c379a0000000000000000000000000000000000000000000000000000000008152600401611e8b91906126fe565b60008083601f8401126120b257600080fd5b50813567ffffffffffffffff8111156120ca57600080fd5b6020830191508360208260051b85010111156120e557600080fd5b9250929050565b600080602083850312156120ff57600080fd5b823567ffffffffffffffff81111561211657600080fd5b612122858286016120a0565b90969095509350505050565b803573ffffffffffffffffffffffffffffffffffffffff8116811461215257600080fd5b919050565b60006020828403121561216957600080fd5b611d798261212e565b60006020828403121561218457600080fd5b5035919050565b6000806040838503121561219e57600080fd5b6121a78361212e565b946020939093013593505050565b6000806000604084860312156121ca57600080fd5b833567ffffffffffffffff8111156121e157600080fd5b6121ed868287016120a0565b909450925061220090506020850161212e565b90509250925092565b6000806040838503121561221c57600080fd5b6122258361212e565b91506122336020840161212e565b90509250929050565b801515811461088b57600080fd5b6000806040838503121561225d57600080fd5b6122668361212e565b915060208301356122768161223c565b809150509250929050565b60008060006060848603121561229657600080fd5b61229f8461212e565b95602085013595506040909401359392505050565b600080600080608085870312156122ca57600080fd5b6122d38561212e565b9350602085013592506122e86040860161212e565b915060608501356122f88161223c565b939692955090935050565b7f4e487b7100000000000000000000000000000000000000000000000000000000600052603260045260246000fd5b7f4e487b7100000000000000000000000000000000000000000000000000000000600052601160045260246000fd5b60007fffffffffffffffffffffffffffffffffffffffffffffffffffffffffffffffff82141561239357612393612332565b5060010190565b7f4e487b7100000000000000000000000000000000000000000000000000000000600052602160045260246000fd5b6000602082840312156123db57600080fd5b5051919050565b600082198211156123f5576123f5612332565b500190565b60008282101561240c5761240c612332565b500390565b6000808212827f7fffffffffffffffffffffffffffffffffffffffffffffffffffffffffffffff0384138115161561244b5761244b612332565b827f800000000000000000000000000000000000000000000000000000000000000003841281161561247f5761247f612332565b50500190565b60007f7fffffffffffffffffffffffffffffffffffffffffffffffffffffffffffffff6000841360008413858304851182821616156124c6576124c6612332565b7f8000000000000000000000000000000000000000000000000000000000000000600087128682058812818416161561250157612501612332565b6000871292508782058712848416161561251d5761251d612332565b8785058712818416161561253357612533612332565b505050929093029392505050565b7f4e487b7100000000000000000000000000000000000000000000000000000000600052601260045260246000fd5b60008261257f5761257f612541565b7fffffffffffffffffffffffffffffffffffffffffffffffffffffffffffffffff83147f8000000000000000000000000000000000000000000000000000000000000000831416156125d3576125d3612332565b500590565b6000808312837f80000000000000000000000000000000000000000000000000000000000000000183128115161561261257612612612332565b837f7fffffffffffffffffffffffffffffffffffffffffffffffffffffffffffffff01831381161561264657612646612332565b50500390565b60007f800000000000000000000000000000000000000000000000000000000000000082141561267e5761267e612332565b5060000390565b60008261269457612694612541565b500690565b6000602082840312156126ab57600080fd5b8151611d798161223c565b60005b838110156126d15781810151838201526020016126b9565b83811115610b5e5750506000910152565b600082516126f48184602087016126b6565b9190910192915050565b602081526000825180602084015261271d8160408501602087016126b6565b601f017fffffffffffffffffffffffffffffffffffffffffffffffffffffffffffffffe016919091016040019291505056fea26469706673582212204b64cddca5ce5018c5400ac6605e8482c8edb8bf9681709983b2316db32c08a264736f6c63430008090033",
  "linkReferences": {},
  "deployedLinkReferences": {}
}