{
  "_format": "hh-sol-artifact-1",
  "contractName": "Oracle",
  "sourceName": "contracts/Oracle.sol",
  "abi": [
    {
      "inputs": [
        {
          "internalType": "address",
          "name": "_governance",
          "type": "address"
        },
        {
          "internalType": "address",
          "name": "_redStoneAdapter",
          "type": "address"
        }
      ],
      "stateMutability": "nonpayable",
      "type": "constructor"
    },
    {
      "inputs": [
        {
          "internalType": "address",
          "name": "",
          "type": "address"
        }
      ],
      "name": "aggregatorMap",
      "outputs": [
        {
          "internalType": "bytes32",
          "name": "redstoneFeedId",
          "type": "bytes32"
        },
        {
          "internalType": "address",
          "name": "aggregator",
          "type": "address"
        },
        {
          "internalType": "uint256",
          "name": "heartbeat",
          "type": "uint256"
        }
      ],
      "stateMutability": "view",
      "type": "function"
    },
    {
      "inputs": [
        {
          "internalType": "address",
          "name": "underlying",
          "type": "address"
        }
      ],
      "name": "getUnderlyingPrice",
      "outputs": [
        {
          "internalType": "int256",
          "name": "answer",
          "type": "int256"
        }
      ],
      "stateMutability": "view",
      "type": "function"
    },
    {
      "inputs": [],
      "name": "governance",
      "outputs": [
        {
          "internalType": "address",
          "name": "",
          "type": "address"
        }
      ],
      "stateMutability": "view",
      "type": "function"
    },
    {
      "inputs": [],
      "name": "redStoneAdapter",
      "outputs": [
        {
          "internalType": "address",
          "name": "",
          "type": "address"
        }
      ],
      "stateMutability": "view",
      "type": "function"
    },
    {
      "inputs": [
        {
          "internalType": "address",
          "name": "underlying",
          "type": "address"
        },
        {
          "internalType": "address",
          "name": "aggregator",
          "type": "address"
        },
        {
          "internalType": "uint256",
          "name": "heartbeat",
          "type": "uint256"
        },
        {
          "internalType": "bytes32",
          "name": "redstoneFeedId",
          "type": "bytes32"
        }
      ],
      "name": "setAggregator",
      "outputs": [],
      "stateMutability": "nonpayable",
      "type": "function"
    },
    {
      "inputs": [
        {
          "internalType": "address",
          "name": "__governance",
          "type": "address"
        }
      ],
      "name": "setGovernace",
      "outputs": [],
      "stateMutability": "nonpayable",
      "type": "function"
    },
    {
      "inputs": [
        {
          "internalType": "address",
          "name": "_redStoneAdapter",
          "type": "address"
        }
      ],
      "name": "setRedStoneAdapterAddress",
      "outputs": [],
      "stateMutability": "nonpayable",
      "type": "function"
    }
  ],
  "bytecode": "0x608060405234801561001057600080fd5b50604051610c57380380610c5783398101604081905261002f9161007c565b600080546001600160a01b039384166001600160a01b031991821617909155600280549290931691161790556100af565b80516001600160a01b038116811461007757600080fd5b919050565b6000806040838503121561008f57600080fd5b61009883610060565b91506100a660208401610060565b90509250929050565b610b99806100be6000396000f3fe608060405234801561001057600080fd5b506004361061007d5760003560e01c8063744280f61161005b578063744280f6146100ff578063851e3ca514610176578063f1566bbd14610189578063fc57d4df1461019c57600080fd5b80630757278614610082578063265e2226146100cc5780635aa6e675146100e1575b600080fd5b6002546100a29073ffffffffffffffffffffffffffffffffffffffff1681565b60405173ffffffffffffffffffffffffffffffffffffffff90911681526020015b60405180910390f35b6100df6100da3660046109a4565b6101bd565b005b60005473ffffffffffffffffffffffffffffffffffffffff166100a2565b61014661010d3660046109e6565b600160208190526000918252604090912080549181015460029091015473ffffffffffffffffffffffffffffffffffffffff9091169083565b6040805193845273ffffffffffffffffffffffffffffffffffffffff9092166020840152908201526060016100c3565b6100df6101843660046109e6565b610570565b6100df6101973660046109e6565b610637565b6101af6101aa3660046109e6565b6106ff565b6040519081526020016100c3565b60005473ffffffffffffffffffffffffffffffffffffffff163314610243576040517f08c379a000000000000000000000000000000000000000000000000000000000815260206004820152600f60248201527f4f4e4c595f474f5645524e414e4345000000000000000000000000000000000060448201526064015b60405180910390fd5b61024c846108fe565b610255836108fe565b603c8210156102c0576040517f08c379a000000000000000000000000000000000000000000000000000000000815260206004820152601160248201527f68656172746265617420746f6f206c6f77000000000000000000000000000000604482015260640161023a565b8015806102e4575060025473ffffffffffffffffffffffffffffffffffffffff1615155b61034a576040517f08c379a000000000000000000000000000000000000000000000000000000000815260206004820152601860248201527f72656473746f6e652061646170746572206e6f74207365740000000000000000604482015260640161023a565b8273ffffffffffffffffffffffffffffffffffffffff1663313ce5676040518163ffffffff1660e01b815260040160206040518083038186803b15801561039057600080fd5b505afa1580156103a4573d6000803e3d6000fd5b505050506040513d601f19601f820116820180604052508101906103c89190610a01565b60ff1660081461045a576040517f08c379a000000000000000000000000000000000000000000000000000000000815260206004820152602260248201527f4578706563746564206f7261636c6520746f2068617665203820646563696d6160448201527f6c73000000000000000000000000000000000000000000000000000000000000606482015260840161023a565b6040805160608101825282815273ffffffffffffffffffffffffffffffffffffffff8581166020808401918252838501878152898416600090815260019283905286902094518555915190840180547fffffffffffffffffffffffff000000000000000000000000000000000000000016919093169081179092555160029092019190915581517ffeaf968c0000000000000000000000000000000000000000000000000000000081529151909163feaf968c9160048083019260a0929190829003018186803b15801561052d57600080fd5b505afa158015610541573d6000803e3d6000fd5b505050506040513d601f19601f820116820180604052508101906105659190610a3e565b505050505050505050565b60005473ffffffffffffffffffffffffffffffffffffffff1633146105f1576040517f08c379a000000000000000000000000000000000000000000000000000000000815260206004820152600f60248201527f4f4e4c595f474f5645524e414e43450000000000000000000000000000000000604482015260640161023a565b600080547fffffffffffffffffffffffff00000000000000000000000000000000000000001673ffffffffffffffffffffffffffffffffffffffff831617905550565b50565b60005473ffffffffffffffffffffffffffffffffffffffff1633146106b8576040517f08c379a000000000000000000000000000000000000000000000000000000000815260206004820152600f60248201527f4f4e4c595f474f5645524e414e43450000000000000000000000000000000000604482015260640161023a565b600280547fffffffffffffffffffffffff00000000000000000000000000000000000000001673ffffffffffffffffffffffffffffffffffffffff92909216919091179055565b73ffffffffffffffffffffffffffffffffffffffff80821660009081526001602081905260408083209091015481517ffeaf968c00000000000000000000000000000000000000000000000000000000815291519293849391169163feaf968c9160048083019260a0929190829003018186803b15801561077f57600080fd5b505afa158015610793573d6000803e3d6000fd5b505050506040513d601f19601f820116820180604052508101906107b79190610a3e565b5091945090925050600083139050610851576040517f08c379a000000000000000000000000000000000000000000000000000000000815260206004820152602660248201527f4f7261636c652e676574556e6465726c79696e6750726963652e6e6f6e5f706f60448201527f7369746976650000000000000000000000000000000000000000000000000000606482015260840161023a565b73ffffffffffffffffffffffffffffffffffffffff83166000908152600160205260409020600201546108848242610abd565b11156108ec576040517f08c379a000000000000000000000000000000000000000000000000000000000815260206004820152601f60248201527f4f7261636c652e676574556e6465726c79696e6750726963652e7374616c6500604482015260640161023a565b6108f7606483610ad4565b9392505050565b73ffffffffffffffffffffffffffffffffffffffff8116610634576040517f08c379a000000000000000000000000000000000000000000000000000000000815260206004820152600d60248201527f656d707479206164647265737300000000000000000000000000000000000000604482015260640161023a565b803573ffffffffffffffffffffffffffffffffffffffff8116811461099f57600080fd5b919050565b600080600080608085870312156109ba57600080fd5b6109c38561097b565b93506109d16020860161097b565b93969395505050506040820135916060013590565b6000602082840312156109f857600080fd5b6108f78261097b565b600060208284031215610a1357600080fd5b815160ff811681146108f757600080fd5b805169ffffffffffffffffffff8116811461099f57600080fd5b600080600080600060a08688031215610a5657600080fd5b610a5f86610a24565b9450602086015193506040860151925060608601519150610a8260808701610a24565b90509295509295909350565b7f4e487b7100000000000000000000000000000000000000000000000000000000600052601160045260246000fd5b600082821015610acf57610acf610a8e565b500390565b600082610b0a577f4e487b7100000000000000000000000000000000000000000000000000000000600052601260045260246000fd5b7fffffffffffffffffffffffffffffffffffffffffffffffffffffffffffffffff83147f800000000000000000000000000000000000000000000000000000000000000083141615610b5e57610b5e610a8e565b50059056fea264697066735822122095322baa68b3f5792b45929ce28d7274861cd64c6643ef34021fcf14b1dd822d64736f6c63430008090033",
  "linkReferences": {},
  "deployedLinkReferences": {}
}