{
  "_format": "hh-sol-artifact-1",
  "contractName": "Ticks",
  "sourceName": "contracts/precompiles/Ticks.sol",
  "abi": [
    {
      "inputs": [
        {
          "internalType": "address",
          "name": "amm",
          "type": "address"
        },
        {
          "internalType": "int256",
          "name": "quoteQuantity",
          "type": "int256"
        }
      ],
      "name": "getBaseQuote",
      "outputs": [
        {
          "internalType": "uint256",
          "name": "rate",
          "type": "uint256"
        }
      ],
      "stateMutability": "view",
      "type": "function"
    },
    {
      "inputs": [
        {
          "internalType": "address",
          "name": "_amm",
          "type": "address"
        },
        {
          "internalType": "bool",
          "name": "isBid",
          "type": "bool"
        },
        {
          "internalType": "uint256",
          "name": "tick",
          "type": "uint256"
        }
      ],
      "name": "getPrevTick",
      "outputs": [
        {
          "internalType": "uint256",
          "name": "prevTick",
          "type": "uint256"
        }
      ],
      "stateMutability": "view",
      "type": "function"
    },
    {
      "inputs": [
        {
          "internalType": "address",
          "name": "amm",
          "type": "address"
        },
        {
          "internalType": "int256",
          "name": "baseAssetQuantity",
          "type": "int256"
        }
      ],
      "name": "getQuote",
      "outputs": [
        {
          "internalType": "uint256",
          "name": "rate",
          "type": "uint256"
        }
      ],
      "stateMutability": "view",
      "type": "function"
    },
    {
      "inputs": [
        {
          "internalType": "address",
          "name": "_amm",
          "type": "address"
        }
      ],
      "name": "sampleImpactAsk",
      "outputs": [
        {
          "internalType": "uint256",
          "name": "impactAsk",
          "type": "uint256"
        }
      ],
      "stateMutability": "view",
      "type": "function"
    },
    {
      "inputs": [
        {
          "internalType": "address",
          "name": "_amm",
          "type": "address"
        }
      ],
      "name": "sampleImpactBid",
      "outputs": [
        {
          "internalType": "uint256",
          "name": "impactBid",
          "type": "uint256"
        }
      ],
      "stateMutability": "view",
      "type": "function"
    }
  ],
  "bytecode": "0x608060405234801561001057600080fd5b50610f78806100206000396000f3fe608060405234801561001057600080fd5b50600436106100675760003560e01c8063a43cb0de11610050578063a43cb0de146100a4578063e08565d1146100b7578063e7f7b0c4146100ca57600080fd5b8063340aea361461006c578063389857cd14610091575b600080fd5b61007f61007a366004610d6d565b6100dd565b60405190815260200160405180910390f35b61007f61009f366004610d97565b610113565b61007f6100b2366004610d6d565b610511565b61007f6100c5366004610ddb565b610537565b61007f6100d8366004610ddb565b6105bf565b6000808213156100f8576100f1838361064c565b905061010d565b61010a8361010584610e25565b610832565b90505b92915050565b600081610181576040517f08c379a000000000000000000000000000000000000000000000000000000000815260206004820152600960248201527f7469636b203d3d2030000000000000000000000000000000000000000000000060448201526064015b60405180910390fd5b83600080851561032d578273ffffffffffffffffffffffffffffffffffffffff16630d097e016040518163ffffffff1660e01b815260040160206040518083038186803b1580156101d157600080fd5b505afa1580156101e5573d6000803e3d6000fd5b505050506040513d601f19601f820116820180604052508101906102099190610e5e565b9150818510610274576040517f08c379a000000000000000000000000000000000000000000000000000000000815260206004820152601060248201527f7469636b203e3d206269647348656164000000000000000000000000000000006044820152606401610178565b6040517f4423c5f10000000000000000000000000000000000000000000000000000000081526004810183905273ffffffffffffffffffffffffffffffffffffffff841690634423c5f190602401604080518083038186803b1580156102d957600080fd5b505afa1580156102ed573d6000803e3d6000fd5b505050506040513d601f19601f820116820180604052508101906103119190610e77565b5090508481116103255750915061050a9050565b809150610274565b8273ffffffffffffffffffffffffffffffffffffffff16631c85c80a6040518163ffffffff1660e01b815260040160206040518083038186803b15801561037357600080fd5b505afa158015610387573d6000803e3d6000fd5b505050506040513d601f19601f820116820180604052508101906103ab9190610e5e565b91508115806103ba5750818511155b15610446576040517f08c379a0000000000000000000000000000000000000000000000000000000008152602060048201526024808201527f61736b7348656164203d3d2030207c7c207469636b203c3d2063757272656e7460448201527f5469636b000000000000000000000000000000000000000000000000000000006064820152608401610178565b6040517f0b0c14930000000000000000000000000000000000000000000000000000000081526004810183905273ffffffffffffffffffffffffffffffffffffffff841690630b0c149390602401604080518083038186803b1580156104ab57600080fd5b505afa1580156104bf573d6000803e3d6000fd5b505050506040513d601f19601f820116820180604052508101906104e39190610e77565b50905084811015806104f3575080155b156105025750915061050a9050565b809150610446565b9392505050565b600080821315610525576100f183836109b3565b61010a8361053284610e25565b610bae565b60008082905061050a818273ffffffffffffffffffffffffffffffffffffffff1663a2c41df16040518163ffffffff1660e01b815260040160206040518083038186803b15801561058757600080fd5b505afa15801561059b573d6000803e3d6000fd5b505050506040513d601f19601f820116820180604052508101906105329190610e5e565b60008082905061050a818273ffffffffffffffffffffffffffffffffffffffff1663a2c41df16040518163ffffffff1660e01b815260040160206040518083038186803b15801561060f57600080fd5b505afa158015610623573d6000803e3d6000fd5b505050506040513d601f19601f820116820180604052508101906106479190610e5e565b6109b3565b6000806000808573ffffffffffffffffffffffffffffffffffffffff16631c85c80a6040518163ffffffff1660e01b815260040160206040518083038186803b15801561069857600080fd5b505afa1580156106ac573d6000803e3d6000fd5b505050506040513d601f19601f820116820180604052508101906106d09190610e5e565b90505b80156107cd576040517f0b0c149300000000000000000000000000000000000000000000000000000000815260048101829052600090819073ffffffffffffffffffffffffffffffffffffffff891690630b0c149390602401604080518083038186803b15801561074357600080fd5b505afa158015610757573d6000803e3d6000fd5b505050506040513d601f19601f8201168201806040525081019061077b9190610e77565b9092509050600061078c8286610e9b565b905087811061079d575050506107cd565b620f42406107ab8584610eb3565b6107b59190610ef0565b6107bf9087610e9b565b955093509091506106d39050565b806107de576000935050505061010d565b6000620f4240826107ef8589610f2b565b6107f99190610eb3565b6108039190610ef0565b9050856108108286610e9b565b61081d90620f4240610eb3565b6108279190610ef0565b979650505050505050565b6000806000808573ffffffffffffffffffffffffffffffffffffffff16630d097e016040518163ffffffff1660e01b815260040160206040518083038186803b15801561087e57600080fd5b505afa158015610892573d6000803e3d6000fd5b505050506040513d601f19601f820116820180604052508101906108b69190610e5e565b90505b80156107cd576040517f4423c5f100000000000000000000000000000000000000000000000000000000815260048101829052600090819073ffffffffffffffffffffffffffffffffffffffff891690634423c5f190602401604080518083038186803b15801561092957600080fd5b505afa15801561093d573d6000803e3d6000fd5b505050506040513d601f19601f820116820180604052508101906109619190610e77565b909250905060006109728286610e9b565b9050878110610983575050506107cd565b620f42406109918584610eb3565b61099b9190610ef0565b6109a59087610e9b565b955093509091506108b99050565b6000806109c58364e8d4a51000610eb3565b905060008060008673ffffffffffffffffffffffffffffffffffffffff16631c85c80a6040518163ffffffff1660e01b815260040160206040518083038186803b158015610a1257600080fd5b505afa158015610a26573d6000803e3d6000fd5b505050506040513d601f19601f82011682018060405250810190610a4a9190610e5e565b90505b8015610b49576040517f0b0c149300000000000000000000000000000000000000000000000000000000815260048101829052600090819073ffffffffffffffffffffffffffffffffffffffff8a1690630b0c149390602401604080518083038186803b158015610abd57600080fd5b505afa158015610ad1573d6000803e3d6000fd5b505050506040513d601f19601f82011682018060405250810190610af59190610e77565b90925090506000620f4240610b0a8584610eb3565b610b149190610ef0565b610b1e9087610e9b565b9050868110610b2f57505050610b49565b945084610b3c8286610e9b565b9450829350505050610a4d565b80610b5b57600094505050505061010d565b600081610b688587610f2b565b610b7590620f4240610eb3565b610b7f9190610ef0565b9050610b8b8382610e9b565b610b9886620f4240610eb3565b610ba29190610ef0565b98975050505050505050565b600080610bc08364e8d4a51000610eb3565b905060008060008673ffffffffffffffffffffffffffffffffffffffff16630d097e016040518163ffffffff1660e01b815260040160206040518083038186803b158015610c0d57600080fd5b505afa158015610c21573d6000803e3d6000fd5b505050506040513d601f19601f82011682018060405250810190610c459190610e5e565b90505b8015610b49576040517f4423c5f100000000000000000000000000000000000000000000000000000000815260048101829052600090819073ffffffffffffffffffffffffffffffffffffffff8a1690634423c5f190602401604080518083038186803b158015610cb857600080fd5b505afa158015610ccc573d6000803e3d6000fd5b505050506040513d601f19601f82011682018060405250810190610cf09190610e77565b90925090506000620f4240610d058584610eb3565b610d0f9190610ef0565b610d199087610e9b565b9050868110610d2a57505050610b49565b945084610d378286610e9b565b9450829350505050610c48565b803573ffffffffffffffffffffffffffffffffffffffff81168114610d6857600080fd5b919050565b60008060408385031215610d8057600080fd5b610d8983610d44565b946020939093013593505050565b600080600060608486031215610dac57600080fd5b610db584610d44565b925060208401358015158114610dca57600080fd5b929592945050506040919091013590565b600060208284031215610ded57600080fd5b61010a82610d44565b7f4e487b7100000000000000000000000000000000000000000000000000000000600052601160045260246000fd5b60007f8000000000000000000000000000000000000000000000000000000000000000821415610e5757610e57610df6565b5060000390565b600060208284031215610e7057600080fd5b5051919050565b60008060408385031215610e8a57600080fd5b505080516020909101519092909150565b60008219821115610eae57610eae610df6565b500190565b6000817fffffffffffffffffffffffffffffffffffffffffffffffffffffffffffffffff0483118215151615610eeb57610eeb610df6565b500290565b600082610f26577f4e487b7100000000000000000000000000000000000000000000000000000000600052601260045260246000fd5b500490565b600082821015610f3d57610f3d610df6565b50039056fea2646970667358221220b26fba68c6bb080dd4f85bdfcff496424689338fca2fc6cdad8cc44886ae30da64736f6c63430008090033",
  "linkReferences": {},
  "deployedLinkReferences": {}
}